:020000040800F2
:10000000C82D00204D020008352A0008812700086D
:10001000312A000805080008093400080000000023
:100020000000000000000000000000005F02000867
:1000300009080008000000005D0300081D03000817
:1000400067020008670200086702000867020008EC
:1000500067020008670200086702000867020008DC
:1000600067020008670200086702000867020008CC
:1000700067020008670200086702000867020008BC
:1000800067020008670200086702000867020008AC
:10009000670200086702000867020008670200089C
:1000A000670200086D2F0008670200086702000859
:1000B000670200086702000867020008670200087C
:1000C000670200086702000867020008670200086C
:1000D00067020008FD330008670200086702000895
:1000E000670200086702000867020008670200084C
:1000F000670200086702000867020008670200083C
:10010000670200086702000867020008670200082B
:10011000670200086702000867020008670200081B
:10012000670200086702000867020008670200080B
:1001300067020008670200086702000867020008FB
:1001400067020008670200086702000867020008EB
:1001500067020008670200086702000867020008DB
:1001600067020008670200086702000867020008CB
:10017000670200086702000867020008000000002C
:1001800067020008670200086702000867020008AB
:10019000670200086702000867020008670200089B
:1001A00067020008670200086702000800F002F812
:1001B00000F03CF80AA090E8000C82448344AAF1C5
:1001C0000107DA4501D100F031F8AFF2090EBAE8C3
:1001D0000F0013F0010F18BFFB1A43F0010318477B
:1001E000D44B0000F44B0000103A24BF78C878C10B
:1001F000FAD8520724BF30C830C144BF04680C602D
:10020000704700000023002400250026103A28BF74
:1002100078C1FBD8520728BF30C148BF0B60704778
:100220001FB504F087FD1FBD10B510BD00F0AFFA7B
:100230001146FFF7F5FF04F00FFC00F0CDFA03B410
:10024000FFF7F2FF03BC00F0D5FA00000948804731
:1002500009480047FEE7FEE7FEE7FEE7FEE7FEE7A8
:10026000FEE7FEE7FEE7FEE704480549054A064BC0
:1002700070470000592F0008AD010008C827002072
:10028000C82D0020C8290020C82900200000000037
:10029000D4200020C82D0020000000085821002094
:1002A00000000008001000E03F771B000000FF4046
:1002B00072B65FF824005FF8241001F104010160B8
:1002C0004FF0E0205FF83010C0F8081D5FF83400F0
:1002D0005FF83410096801605FF83800016841F088
:1002E000010101604FF0E0205FF8441041614FF0E0
:1002F000070101614FF00001C0F8181D4FF07F4168
:10030000C0F81C1D5FF85C10C0F8201D7047FEE7A8
:10031000FEE7FEE701B5BDE80140704701B500F01A
:100320008FF8BDE801407047FEE7FEE700000000DF
:100330004FF000002A4A1060EFF3148020F0040010
:1003400080F3148862B64FF080504FF0E021C1F87E
:10035000040DBFF34F8FBFF36F8FFEE72148224A92
:100360004FF00003016891B10360EFF3098C2CE9B1
:10037000F00F1EF0100F01D12CED108A1B4C4CF821
:1003800004ED2568C1F808C00DB18D61236072B617
:100390001168B1B1016062B64F68154C8D6907F103
:1003A00001074F602560D1F808C05CF804EB1EF02F
:1003B000100F01D1BCEC108ABCE8F00F8CF3098857
:1003C000704772B61168016009B962B6F9E74FF07B
:1003D00000674FF0E028C8F8047D62B6DCE770479C
:1003E0009C0100208401002088010020AC01002035
:1003F000AC01002000000000000000000000000030
:10040000026922F00702A2F144026FF002031360B6
:100410004FF0000353609360D360136153619361A5
:10042000D361136253629362D362136353634FF0D9
:10043000FF339363D1634FF080731364826070471E
:100440002249086800F101000860214B1A683AB19E
:10045000A2F101021A601AB91E4B4FF00100186098
:100460001D490868026822B11C4B4FF001021A6056
:1004700008E000F104001A4B1A68904201D1194BB0
:1004800018680860184B1A6812B918490868D0B182
:100490002DE901401649086808B103F0A3FE154B89
:1004A0001A6872B103F04CFE1348016849B9134849
:1004B0000168134A136813484FF08052994200D0E4
:1004C0000260BDE80140BFF34F8F7047A8010020D4
:1004D000AC010020B0010020C0010020B4010020C8
:1004E000C4010020BC010020B0010020B4010020A4
:1004F000B4010020B00100209C01002084010020F4
:100500008801002004ED00E053EA020C00F069804D
:100510002DE9F04B4FF00006002B1FBFB3FA83F517
:1005200003FA05F424FA05F65E4012BF1643B2FA48
:1005300082F502FA05F4C5F120051EBF22FA05FC7A
:1005400044EA0C04203556EA044C4FEA144418BF20
:10055000641C4FF000084FF00009904271EB030C4F
:1005600039D3002919BFB1FA81F701FA07F6B0FAB9
:1005700080F700FA07F6C7F120071EBF20FA07FC34
:1005800046EA0C062037B6FBF4FCA7EB0507103F44
:1005900007F01F0BCBF120062CFA06F60CFA0BFB2A
:1005A00044BFB3460026202FA4BF5E464FF0000B89
:1005B0005BEA060C08BF4FF0010B19EB0B0948EB87
:1005C0000608ABFB027C06FB02CC0BFB03CCC01B7A
:1005D00071EB0C01C1E70B46024641464846BDE8B7
:1005E000F08B13B5084318BF4FF0FF300146AFF34F
:1005F0000080BDE81C407047032A40F2308010F0B4
:10060000030C00F0158011F8013BBCF1020F6244AD
:1006100098BF11F801CB00F8013B38BF11F8013B3E
:10062000A2F1040298BF00F801CB38BF00F8013BEB
:1006300011F0030300F05780083AC0F0088051F829
:10064000043B083A51F804CBA0E80810F5E7121D66
:100650005CBF51F8043B40F8043BAFF30080D20785
:1006600024BF11F8013B11F801CB48BF11F8012B51
:1006700024BF00F8013B00F801CB48BF00F8012B74
:10068000704702F0FF0343EA032242EA024200F00D
:100690005EB84FF0000200B51346944696462039E6
:1006A00022BFA0E80C50A0E80C50B1F12001BFF42B
:1006B000F7AF090728BFA0E80C5048BF0CC05DF891
:1006C00004EB890028BF40F8042B08BF704748BFDF
:1006D00020F8022B11F0804F18BF00F8012B704753
:1006E00070477047704710B5203AC0F00B80B1E8F2
:1006F0001850A0E81850B1E81850A0E81850203A57
:10070000BFF4F5AF5FEA027C24BFB1E81850A0E85F
:10071000185044BF18C918C0BDE810405FEA827C79
:1007200024BF51F8043B40F8043B08BF7047D20790
:1007300028BF31F8023B48BF11F8012B28BF20F831
:10074000023B48BF00F8012B70474FF0000204291C
:10075000C0F0128010F0030C3FF49DAFCCF1040CFC
:10076000BCF1020F18BF00F8012BA8BF20F8022B24
:10077000A1EB0C01FFF78FBF5FEAC17C24BF00F83B
:10078000012B00F8012B48BF00F8012B704775467C
:1007900000F02CF8AE4605006946534620F00700ED
:1007A000854618B020B5FFF75FFDBDE820404FF04B
:1007B00000064FF000074FF000084FF0000BAC466A
:1007C000ACE8C009ACE8C009ACE8C009ACE8C009B5
:1007D00021F007018D46704710B50446AFF3008045
:1007E0002046BDE81040FFF72ABD000000487047D2
:1007F0001000002001491820ABBEFEE726000200D1
:1008000070470000FEE7000070470000EFF3108023
:1008100072B600BFFEE700002DE9F0410B680268E8
:10082000012B1FD1D1E9073422F4F842D1E901E7C5
:10083000D1E90365D1E9058C496A1A432243114382
:10084000426847F6FF739A4342EA0E023A43324344
:100850002A4342EA080242EA0C0201604260002098
:10086000BDE8F08147F6FF7322EA030CD1E90132BB
:10087000D1E903E443EA0C0301F114081A4398E8B0
:10088000E00142EA0E0222432A433243496A3A43D4
:1008900042EA0802114301600020BDE8F081000037
:1008A000F0B581B000240094164691E88C00C96828
:1008B0001A436FF01F0303EB47131A4342EA412127
:1008C000009100990546016100F06CFAA96989065A
:1008D00002D4204601B0F0BDD6B10746701C12D13B
:1008E000A869800618D5A869800615D5A86980066C
:1008F00012D5A8698006F3D40024204601B0F0BDCB
:10090000A869800608D500F04DFAC01BB042F7D99F
:100910000324204601B0F0BD0024204601B0F0BD04
:100920002DE9F0418368012A37D140F6FF72CFF6F6
:100930000F721A40CB684FF20006CFF6FF764F6970
:1009400006EB03330026CFF6F07606EB07571A4383
:10095000C36842EA070CD1E900768D686FF00F0298
:1009600003F0704302EB06126FF0FF06013F0C69C3
:1009700006EB052600253B43CFF6FF7589691A4330
:1009800005EB0445324301392A4342EA0161C0F8CC
:1009900008C0C1600020BDE8F08103F0704CD1E9CF
:1009A0000032D1E902E401F110084FF20001013BED
:1009B0006FF00F07CFF6FF7198E8600107EB0212A6
:1009C0006FF0FF0701EB0431002443EA0C0307EB4F
:1009D0000E27CFF6FF741A4304EB054500243A4373
:1009E000CFF6F074114304EB06562943A8F1010435
:1009F000314341EA046181600020BDE8F0810000DC
:100A0000B0B590F83820012A4FF0020241D00123FE
:100A100080F8383080F8392000EB0112D2E9073E27
:100A2000556A02F1180C43EA0E42093B2C06022BD0
:100A300038BF05F07F440029016842EA040E11D056
:100A4000CA694FF6F074C0F2FC04224042EA0E027A
:100A5000CA61DCF80020012B0A619CBF25F07F42AF
:100A60000A6210E04A6A4FF6F074C0F2FC042240B9
:100A700042EA0E024A62DCF80020012B8A619CBF28
:100A800025F07F428A620121002280F8391080F827
:100A900038201046B0BD0000002804BF0120704778
:100AA00010B5044690F8390028B9002084F83800C1
:100AB000204600F01DF8022084F8390094E8071061
:100AC000036823F4403319430160416B21F00701AF
:100AD00011434163016C43F6FF72914341EA0C01FB
:100AE000016400200121E06384F8391010BD00008A
:100AF00081B000684BF20001C4F20201884201D0CB
:100B000001B070470020009043F63000C4F20200AC
:100B1000016841F400010160006800F400000090E9
:100B2000009801B07047000070B5866D044600F073
:100B300039F994F8351002292ED105462068216C28
:100B4000026822F016020260426922F080024261CD
:100B500009B9A16C19B1016821F0080101600168AF
:100B600021F0010101600068C00708D000F01AF907
:100B7000401B052817D820680068C007F6D1E06D33
:100B80003F2101FA00F0B060012084F83500002018
:100B9000002184F8341070BD8020606501200021A0
:100BA00084F8341070BD20206065032084F835007F
:100BB000002184F8341070BD90F83510022909D155
:100BC000052180F835100068016821F001010160FD
:100BD0000020704780214165012070472DE9F04FCA
:100BE00082B000F13E4242F2004502F1FF77C4F2CA
:100BF00002050A224FEAB726A84208BF0922092E99
:100C000038BF4FEAB7224FF0010E002400274FF003
:100C10000008009208E000BF023708F10108202F09
:100C200004F1040400F0B4800E680EFA08F916EA24
:100C3000090FF1D0D1F804A00AF0030BABF10106C3
:100C4000012E19D80322866802FA07FECA6826EA2E
:100C50000E06BA40324382604268CAF3001522EAA7
:100C6000090205FA08F54FEA480C6FEA0E064FF044
:100C7000010E2A4342600BE00322BA40D643BBF187
:100C8000030FBC4604D1BC464FF0030B24E000BF69
:100C9000C2688D68324005FA0CF52A43BBF1020F99
:100CA000C26019D16FF0030202EA5802024404F054
:100CB0001C030F25D2F820E005FA03FA0D692EEA8D
:100CC0000A0E05FA03F343EA0E031362D1F804A0F7
:100CD0004FF0010E0AF0030B02680BFA0CF33240DE
:100CE0001A431AF4403F026096D0002243F64403B0
:100CF0000192C4F202031A6843F6004C42F48042A7
:100D00001A601A68C4F2010C02F480420192019A3E
:100D100028F003024FF6084A6244CFF6FF7A52F8F1
:100D20000A3004F00C060F25B540AB43009D05FAD0
:100D300006F6334342F80A30DCF800204B6842EAFA
:100D40000906DD0358BF22EA0906CCF80060DCF88A
:100D500004209D0342EA090658BF22EA0906CCF89E
:100D60000460DCF80820DD0242EA090643F60C457F
:100D700058BF22EA0906CCF80860C4F201052A68C7
:100D80009B0242EA090658BF22EA09062E6043E7A1
:100D900002B0BDE8F08F0000002A08BF090481619D
:100DA0007047000042F2C070C2F200000068704755
:100DB00040F2000042F2C071C2F20000C2F2000133
:100DC00000780A68104408607047000080B543F658
:100DD0000040C4F20200016841F400710160016842
:100DE00041F480610160016841F480710160032079
:100DF00000F0D2F90F2000F005F800F075F900209E
:100E000080BD000010B586B00146192000220024E4
:100E100000F096F9192000F083F943F6440001949C
:100E2000C4F20200016841F00101016000686946F6
:100E300000F001000190019801A800F0CDFB00F046
:100E4000FFFB4DF683614000C4F21B31A0FB0101A2
:100E50004FF0FF3000EB914142F234700022C2F2B9
:100E60000000C4F2010240F2E733C0E90021C0E90A
:100E70000243046100F0A2FE10B1012006B010BDD3
:100E800042F23470C2F2000000F0C8FE06B010BD9D
:100E90002DE9F041044690F8A00001284FF002002F
:100EA00008BFBDE8F0814FF0010884F8A08084F805
:100EB000A100342002FB0040D1E900CED1E9026755
:100EC000D1E90453C0E91253C0E91067C0E90ECE5E
:100ED000D1E906CED1E90865D1E90A73C0E91873F2
:100EE000C0E91665C0E914CE0B6B8366204601F09D
:100EF0000DFD2068C0F82480002084F8A18084F8CB
:100F0000A000BDE8F0810000002804BF0120704768
:100F100010B5044690F8A10028B9002084F8A0007C
:100F2000204600F063F8022084F8A100D4E9000C08
:100F3000D4E90223816921F07041816142EA0C0108
:100F400022691943836911431943816181684FF60E
:100F5000000CCFF2000C01EA0C018160D4E905130A
:100F6000826843EA014111438160C16801EA0C01D2
:100F7000C160D4E90712C36842EA01411943C16064
:100F8000016901EA0C010161D4E90912036942EA2D
:100F9000014119430161416901EA0C014161D4E950
:100FA0000B12436942EA01411943416194F835103B
:100FB00094F83620C36A120403F07F43C36242EA06
:100FC000012194F83420C36A11441943C162416B72
:100FD00041F006014163816941F001018161002016
:100FE0000121C4F8A40084F8A11010BD2DE9F0433C
:100FF00093B0044646F60008002602A83021C4F249
:1010000001081296CDE91066CDE90E66FFF741FBA7
:101010002068404502D013B0BDE8F083082002905C
:101020003C2006900520089002A80B9600F002F9DB
:10103000002818BFFFF7EAFB002643F630000196B0
:10104000C4F2020041690EAC41F080614161416926
:101050004FF0020901F08061019101990196016848
:10106000012541F48071016001680E2701F480714F
:10107000019101990196016841F4007101600168D4
:1010800001F40071019101990196016841F48061B8
:1010900001600068214600F48060019001984FF4DF
:1010A00070400E9008F53840CDE90F9611951297D3
:1010B000FFF794FD4FF6FF70CDE90E0908F53C40AF
:1010C0002146CDE910651297FFF788FDFF20CDE995
:1010D0000E0908F540402146CDE910651297FFF74B
:1010E0007DFD13B0BDE8F08382B0002043F64001DF
:1010F0000190C4F202014A6842F480424A604A68A0
:1011000002F480420192019A0090086840F08050F9
:101110000860086800F080500090009802B07047A6
:10112000002848BF704700F01F01012202FA01F1B8
:101130004EF200124009CEF2000242F82010704731
:1011400010B54EF60C5CCEF2000CDCF80030C3F3A8
:10115000022E8EF00704042C28BF0424BEF10303E2
:101160004FF0FF3E0EFA04F438BF0023A14399402C
:101170000EFA03F39A4300F00F03043B1143634458
:1011800009010C3300F16042B0F1FF3FC8BF02F526
:101190006443197010BD00004EF60C51CEF20001F0
:1011A0000A684FF6FF031A4060F30A2242F080609B
:1011B00040F0FD700860704770B582B0002001906B
:1011C00043F64000C4F202000168402641F080511D
:1011D00001600068C4F20E2600F080500190019872
:1011E00047F204050120C4F200053060FFF7DAFD84
:1011F000044600BF2868C00306D4FFF7D3FD001BD8
:10120000B0F57A7FF6D90EE001207060FFF7CAFDD5
:10121000044600BF2868800308D4FFF7C3FD001B05
:10122000B0F57A7FF6D9032002B070BD002002B07D
:1012300070BD0000F0B581B00446006843F670064A
:1012400010F0430FC4F2020633D06827C4F24727D8
:1012500000203860FFF7A6FD054600BF56F8700C69
:10126000000105D5FFF79EFD401B0228F6D9AFE02F
:101270002068C1076AD1810771D4400608D5E168AA
:10128000D4E90102090641EA801040EA0270706167
:1012900001203860FFF786FD054600BF56F8700C48
:1012A000000105D4FFF77EFD401B0228F6D98FE030
:1012B000206810F00C0F68D06827C4F24727002080
:1012C000B860FFF76FFD054656F8700C800005D535
:1012D000FFF768FD401B0228F6D979E02068410736
:1012E00013D5B169D4E9042301F0E04141EA821148
:1012F00041EA0361256AB161F1696FF0FF0221F4EF
:10130000F85102EB05221143F16100070FD5B069D6
:10131000216900F07060A26940EA811040EA027021
:10132000636AB061F06920F440301843F061012035
:10133000B860FFF737FD054656F8700C800023D4DF
:10134000FFF730FD401B0228F6D941E0D4E9012126
:10135000090741EA8211716181077FF58EAF7169DA
:10136000626801F0E041E36841EA821141EA036109
:10137000E5697161F1696A1E21F01F011143F16194
:1013800040063FF57CAF83E72068810653D50020F7
:10139000009056F8300C47F2000740F0805046F8B5
:1013A000300C56F8300CC4F2000700F0805000906A
:1013B0000098386840F480703860FFF7F3FC054609
:1013C0003868C00507D4FFF7EDFC401B0228F7D9A9
:1013D000032001B0F0BD306810F4407013D0A16A52
:1013E00001F4407188420ED0306840F64061C4F28A
:1013F0004721012220F440700A6000220A60306018
:101400003068C00727D12068A16A56F8682C4FF6CB
:10141000FF4701F4407322F4F812C0F6FF770F4043
:10142000B3F5407F08BF3A4346F8682C32686FF343
:101430001F3111433160C00602D4002001B0F0BD5D
:1014400094F82C0040F64061C4F24721C1F8A00393
:10145000002001B0F0BDFFF7A5FC054641F288373A
:1014600030688007CFD4FFF79DFC401BB8424FF097
:101470000300F5D9EDE700002DE9F041002800F068
:101480008B8043F60808C4F202080446D8F8F80333
:101490000D4600F00F00884207D288F8F853D8F8BC
:1014A000F80300F00F00A84276D12068810717D515
:1014B000410705D5D8F8001041F4E051C8F80010F4
:1014C000010705D5D8F8001041F46041C8F80010B4
:1014D000D8F80010A26821F0F0011143C8F80010FC
:1014E000C0073FD1D8F8F80300F00F00A84207D991
:1014F00088F8F853D8F8F80300F00F00A8424BD151
:101500002068410707D5D8F80010E26821F4E051BF
:101510001143C8F80010000708D5D8F80000216969
:1015200020F4604040EAC100C8F8000000F09CF8D8
:10153000D8F8001044F64E52C1F30311C0F6000271
:10154000515C40F2080220FA01F140F20400C2F2BC
:1015500000000068C2F200021160FFF753FC002097
:10156000BDE8F0816068811E022907D258F8081C86
:1015700089015CBF0120BDE8F08110E0012807D19E
:1015800058F8081C89035CBF0120BDE8F08106E023
:1015900058F8081C890702D40120BDE8F081D8F86A
:1015A000001021F003010843C8F80000FFF7FAFB20
:1015B000064641F2883700BFD8F80000616800F0A5
:1015C0000C00B0EB810F8DD0FFF7ECFB801BB84215
:1015D000F2D90320BDE8F0810F22026043F6080231
:1015E000C4F20202136803F003034360136803F0BC
:1015F000F0038360136803F4E053C360D2F800C0C3
:101600004FF4E05303EADC030361D2F8F80300F07F
:101610000F0008607047000040F2080043F6080120
:10162000C2F20000C4F202010068096844F65E528A
:10163000C1F38221C0F60002515CC840704700002F
:1016400040F2080043F60801C2F20000C4F20201B1
:101650000068096844F65E52C1F34231C0F60002E8
:10166000515CC8407047000010B543F60404C4F252
:101670000204606800F00C0008280AD0042819BF92
:1016800042F20040C0F2F40047F64000C0F27D1084
:1016900010BD206821682368490247F64001C0F266
:1016A0007D1100F03F02C3F388105CBF42F200419D
:1016B000C0F2F401A1FB00010023FEF725FF216821
:1016C0000222C1F3014102EB4101B0FBF1F010BD78
:1016D0002DE9F04182B0002868D00446007843F636
:1016E0000006C007C4F202060BD0B06800F00C0080
:1016F000042840F0A0803068800302D5606800288C
:1017000054D0207880071AD5B06810F00C0F09D09B
:10171000B06800F00C00082840F0B4807068400207
:1017200000F1B0803068800702D5E06801283DD123
:101730003068216920F0F80040EAC100306020786C
:10174000000737D4207840074BD4A56955B3B0685B
:1017500000F00C00082840F0DA80012D26D07068D7
:10176000E16900F480028A4220D1216A00F03F0240
:101770008A421BD147F6C071626A0140B1EB821FF9
:1017800014D1A16A4FF6FF73C903994300F44032A4
:10179000A1F580318A4209D1E16A00F07060B0EBB6
:1017A000016F03D1002002B0BDE8F081012002B03A
:1017B000BDE8F0816069002840F20000C4F24720D3
:1017C00000F091800121C0F8801EFFF7EBFA05467A
:1017D000706F8007B6D4FFF7E5FA401B0228F7D9EF
:1017E00091E0306C4FF00008C0000CD4CDF80480BC
:1017F000306C4FF0010840F080503064306C00F0E5
:1018000080500190019847F20007C4F20007386841
:10181000C0054DD4386840F480703860FFF7C2FAD4
:10182000054600BF3868C00542D4FFF7BBFA401B2D
:101830000228F7D967E0B06800F00C00082803D14F
:10184000706840023FF557AF6568B5F5803F07D037
:101850003068B5F5A02F40F0B38040F480203060B0
:10186000306840F480303060FFF79CFA054600BFD6
:10187000306880033FF545AFFFF794FA401B6428BA
:10188000F6D940E0E068002864D00020C4F2472088
:1018900001210160FFF786FA054600BF3068800726
:1018A0003FF546AFFFF77EFA401B0228F6D92AE043
:1018B000A568012D05D0306F052D5FD140F00400E3
:1018C0003067306F40F001003067FFF76BFA054674
:1018D00041F28837306F800769D4FFF763FA401B05
:1018E000B842F7D90FE00021C0F8801EFFF75AFA7E
:1018F000054600BF706F80077FF524AFFFF752FAEF
:10190000401B0228F6D9032002B0BDE8F081002771
:10191000C4F2472700203866FFF744FA022D054637
:101920000CD100BF3068800164D5FFF73BFA401B43
:1019300002284FF00300F5D935E700BF3068800179
:101940007FF530AFFFF72EFA401B02284FF003005F
:10195000F4D928E70020C4F2472000210160FFF7F6
:1019600021FA0546306880077FF5E9AEFFF71AFADD
:10197000401B02284FF00300F4D914E720F00100C7
:101980003067306F20F004003067FFF70BFA002D4E
:1019900005469DD141F28837306F800707D5FFF7A4
:1019A00001FA401BB8424FF00300F5D9FBE6B8F14D
:1019B000000F3FF4CAAE306C20F080503064C4E6B3
:1019C00020F480303060306820F480203060FFF7F1
:1019D000E9F9002D05467FF44BAF07E0FFF7E2F988
:1019E000401B64284FF003003FF6DDAE30688003F3
:1019F000F4D486E604F11C052FCD084340EA82109A
:101A0000D9034FF6FF729143A1F5803140EA05609A
:101A10000843706001203866FFF7C4F9044600BF30
:101A2000306880013FF5BEAEFFF7BCF9001B02280D
:101A30004FF00300F4D9B6E6002804BF0120704738
:101A4000B0B5044690F82C000D4628B9002084F863
:101A50002D00204600F012F8022084F82C002068A7
:101A6000211DFEF7D9FED4E900022946FEF758FFF2
:101A7000012084F82C000020B0BD00002DE9F047C3
:101A800086B040F2E010C2F2000001780026002982
:101A90000596CDE90366029601966DD14FF0010AD5
:101AA00080F800A043F638000096C4F202000168F6
:101AB00040F6000441F0010101600068C4F2020434
:101AC00000F001000090009840F2FF6001AD01902D
:101AD0004FF002084FF003090C2704F5C0502946C7
:101AE000CDE90286CDF810900597FFF777F84FF60D
:101AF0003F00CDE9010804F540602946CDE90369BE
:101B00000597FFF76BF820462946CDE901A8CDE9F6
:101B100003690597FFF762F848F23310CDE9010831
:101B200004F580502946CDE903690597FFF756F87B
:101B30004FF68370CDE9010804F500602946CDE930
:101B400003690597FFF74AF84FF6C070CDE9010821
:101B500004F5A0502946CDE903690597FFF73EF843
:101B60004CF20370CDE9010804F580602946CDE907
:101B700003690597FFF732F806B0BDE8F08700006B
:101B8000B0B5044690F82C0002284FF0020008BFC0
:101B9000B0BD84F82C0020680D46FEF781FE286851
:101BA000012102284FF0000008BF052184F82C1005
:101BB000B0BD00007047000070470000002804BF5F
:101BC0000120704710B5044690F83D0028B9002068
:101BD00084F83C00204600F01FF8022084F83D0005
:101BE0002068211D01F0C8F9012084F8460084F81E
:101BF0003E0084F83F0084F8400084F8410084F8F7
:101C0000420084F8430084F8440084F8450084F8D6
:101C10003D00002010BD00007047000090F83D100E
:101C200001291CBF01207047022180F83D10006887
:101C300041F2FF72C168C4F20002904241F001011A
:101C4000C1600DDC40F2FF71C4F20001884215DC76
:101C5000B0F1804F29D040F20041C4F2000122E0EF
:101C600040F2FF31C4F20101884212DC41F600016A
:101C7000C4F20001884218D0002112E040F60001B1
:101C8000C4F20001884210D040F60041C4F20001C5
:101C900009E044F20001C4F20101884205D040F29B
:101CA0000041C4F20101884206D1816801F00701B8
:101CB000062904BF00207047016841F0010101605E
:101CC000002070477047000010B50168044608699D
:101CD000800744BFC8685FEA807038D4086940074D
:101CE00044BFC8685FEA40703DD40869000744BF3C
:101CF000C8685FEA007043D40869C00644BFC8687A
:101D00005FEAC06048D40869C0071CBFC8685FEAC2
:101D1000C0704ED10869000644BFC8685FEA006021
:101D20004FD40869400644BFC8685FEA406050D499
:101D30000869800646BFC8685FEA806010BD6FF022
:101D4000200220460A61BDE81040FFF735BF6FF062
:101D500002000861012020778869800741D0204671
:101D6000FFF7B0FF43E06FF0040008610220207726
:101D7000886910F4407F3ED02046FFF7A3FF40E083
:101D80006FF00800086104202077C86980073CD004
:101D90002046FFF797FF3EE06FF010000861082033
:101DA0002077C86910F4407F39D02046FFF78AFFBA
:101DB0003BE06FF001000861204600F03FF8216829
:101DC000A8E76FF0800008612046FFF7F3FE216866
:101DD000A7E76FF040000861204600F039F821685D
:101DE000A6E7204600F026F8204600F025F82168F6
:101DF0000020207772E7204600F01CF8204600F013
:101E00001BF82168002020776FE7204600F012F8C9
:101E1000204600F011F82168002020776CE720466A
:101E200000F008F8204600F007F82168002020772D
:101E300069E700007047000070470000006800215B
:101E4000C4F20101884208BFFEF7B2BF704700002C
:101E5000704700007047000070470000F0B581B087
:101E6000044600680168C268456901F02F03202B11
:101E700002F0200306D12BB1204601B0BDE8F040AE
:101E800001F0CCB95FEA017C07D005F0010E12F435
:101E9000907F8EF001052FD175B3236B1140CA06D8
:101EA00018D5012B16D100210091016800914168DD
:101EB000009100994169490600F18281A18DE28D6E
:101EC000E38D002B1CBF891A5FEA014240F0FD80C0
:101ED00001B0F0BD0A0600F12B824906F8D5C168B1
:101EE00021F04001C1602021204684F83D1001B05E
:101EF000BDE8F04000F042BCCE0718BF12F4807677
:101F000003D0266C46F00106266401F00407012682
:101F100086EA97072F4303D1276C47F0020727640F
:101F200001F0020786EA5706354303D1256C45F0D8
:101F30000405256453EA0E0318BF0123BCF1000F0A
:101F400004D51BB1236C43F008032364236C002BDE
:101F5000BED01140890603D5204601F05FF9206804
:101F60004169226C01F0400102F00802891800F07A
:101F7000F08100BF50E8030F216820F4907041E821
:101F80000302C2B3206850E8030F216820F4907068
:101F900041E803027AB3206850E8030F216820F477
:101FA000907041E8030232B3206850E8030F2168C3
:101FB00020F4907041E80302EAB12068DAE700BF3C
:101FC000206850E8050F216820F0010041E8050273
:101FD000DAB1206850E8050F216820F0010041E8DF
:101FE000050292B1206850E8050F216820F0010039
:101FF00041E805024AB1206850E8050F216820F049
:10200000010041E80502002ADAD1206B012824D121
:10201000206850E8030F216820F0100041E8030217
:10202000DAB1206850E8030F216820F0100041E881
:10203000030292B1206850E8030F216820F01000DD
:1020400041E803024AB1206850E8030F216820F0FC
:10205000100041E80302002ADAD1202084F83E0073
:102060000020206320684169490640F18B8150E8D7
:10207000050F216820F0400041E80502002A00F029
:102080006F81206850E8050F216820F0400041E88A
:102090000502002A00F06481206850E8050F2168DD
:1020A00020F0400041E80502002A00F05981206834
:1020B00050E8050F216820F0400041E80502002AA1
:1020C00000F04E812068D2E7206850E8030F2268B4
:1020D00020F4907042E80303BBB3206850E8030F7C
:1020E000226820F4907042E8030373B3206850E83C
:1020F000030F226820F4907042E803032BB320689A
:1021000050E8030F226820F4907042E80303002B8C
:10211000DAD11AE0206850E8050F226820F00100AB
:1021200042E80503DBB1206850E8050F226820F083
:10213000010042E8050393B1206850E8050F2268CA
:1021400020F0010042E805034BB1206850E8050F7C
:10215000226820F0010042E80503002BDAD120209C
:1021600084F83E0000202063206850E8030F2268B6
:1021700020F0100042E80303DBB1206850E8030FB1
:10218000226820F0100042E8030393B1206850E871
:10219000030F226820F0100042E803034BB12068CF
:1021A00050E8030F226820F0100042E80303002BE0
:1021B000DAD189B2204601B0BDE8F040FFF74ABE4F
:1021C000A26B11684B689EB2002E3FF481AEA18DC8
:1021D0008E42BFF47DAEE385D269B2F5807F00F018
:1021E0009E8050E8030F216820F4807041E80302CC
:1021F000E2B1206850E8030F216820F4807041E8C4
:1022000003029AB1206850E8030F216820F480701F
:1022100041E8030252B1206850E8030F216820F41E
:10222000807041E803020AB12068DAE7206850E8CC
:10223000050F216820F0010041E80502BAB32068CB
:1022400050E8050F216820F0010041E8050272B353
:10225000206850E8050F216820F0010041E80502E0
:102260002AB3206850E8050F216820F0010041E8FA
:102270000502002ADAD11AE0206850E8050F21682B
:1022800020F0400041E80502DAB1206850E8050F6F
:10229000216820F0400041E8050292B1206850E832
:1022A000050F216820F0400041E805024AB120688E
:1022B00050E8050F216820F0400041E80502002A9F
:1022C000DAD1202084F83E0000202063206850E806
:1022D000030F216820F0100041E80302DAB1206802
:1022E00050E8030F216820F0100041E8030292B18A
:1022F000206850E8030F216820F0100041E8030235
:102300004AB1206850E8030F216820F0100041E82E
:102310000302002ADAD1A06BFEF706FCA18DE08D46
:10232000081A81B2204601B0BDE8F040FFF792BD27
:1023300094F83D1021297FF4CBADA168B1F5805F01
:1023400001D1216921B3216A4A1C226209784160C6
:1023500025E02046FFF780FD0020206401B0F0BD9D
:10236000A06B78B143F21121C0F600010165FEF7C0
:1023700023FC00283FF4ACADA06B016D01B0BDE8BB
:10238000F0400847204601B0BDE8F040FFF764BDCB
:10239000216A31F8022B6FF35F2242602162E18CE7
:1023A00001390A04E1847FF493ADC16821F0800112
:1023B000C160C16841F04001C16001B0F0BD0000E2
:1023C000002804BF0120704710B5044690F83D0076
:1023D00028B9002084F83C00204600F021F8242091
:1023E00084F83D002068C16821F40051C160204696
:1023F00000F092FF2068016921F490410161416978
:1024000021F02A014161C16841F40051C1600020FE
:102410002021206484F83D1084F83E1010BD000097
:1024200080B586B000220592CDE9032241F2000179
:102430000068C4F2010188420292019201D006B004
:1024400080BD43F630000092C4F20200436943F0BD
:1024500010034361436903F010030093009B009253
:10246000036843F001030360006800F0010000907E
:1024700000984FF4C06001900220CDE902020320D1
:1024800004900720059001F5704001A9FEF7A6FB16
:10249000252000210022FEF753FE2520FEF740FEF6
:1024A00006B080BD704700002DE9F04381B00446BE
:1024B00090F83D0020280DD10F4600294FF0010073
:1024C00000F0EC801646002A00F0E88094F83C000A
:1024D000012803D1022001B0BDE8F083012084F877
:1024E0003C004FF0000921201D46C4F8409084F8BC
:1024F0003D00FEF757FCA684E684A1688046B1F54E
:10250000805F07D1206900281CBF38464F463E46F1
:10251000074600E0002684F83C90E28C20680168C1
:1025200012B36A1C47D0002D00F0C98009060AD4F6
:10253000FEF738FCA0EB0800A84200F2C780206834
:1025400001680906F4D517B117F8011B04E036F845
:10255000021B00276FF35F214160E18C0139E184A8
:10256000E28C0168002AE1D1490610D4002D41D047
:10257000691C39D1016849065CBF01685FEA4161A5
:1025800005D40168490602D401684906F2D5202025
:1025900084F83D00002001B0BDE8F08336F8021B4E
:1025A00000276FF35F214160E18C0139E184E28C07
:1025B0000168002AD8D009065FBF01685FEA01619F
:1025C00001685FEA016105D40168090602D4016867
:1025D000F1E700BF002FE1D017F8011BE3E700BFD0
:1025E000206800684006D2D4FEF7DCFBA0EB0800B0
:1025F000A842F5D9206850E8030F216820F4D07074
:1026000041E80302BAB3206850E8030F216820F4C0
:10261000D07041E8030272B3206850E8030F2168CC
:1026200020F4D07041E803022AB3206850E8030F79
:10263000216820F4D07041E80302002ADAD11AE0C0
:10264000206850E8050F216820F0010041E80502EC
:10265000DAB1206850E8050F216820F0010041E858
:10266000050292B1206850E8050F216820F00100B2
:1026700041E805024AB1206850E8050F216820F0C2
:10268000010041E80502002ADAD1202084F83D004B
:1026900084F83E00002084F83C00032001B0BDE82F
:1026A000F08336F8021B00276FF35F214160E18C55
:1026B0000139E184E28C0168002A3FF455AF090634
:1026C00004D5002FEDD017F8011BEFE7206850E884
:1026D000030F216820F4D07041E80302BAB32068E8
:1026E00050E8030F216820F4D07041E8030272B370
:1026F000206850E8030F216820F4D07041E80302FD
:102700002AB3206850E8030F216820F4D07041E814
:102710000302002ADAD11AE0206850E8050F216888
:1027200020F0010041E80502DAB1206850E8050F09
:10273000216820F0010041E8050292B1206850E8CC
:10274000050F216820F0010041E805024AB1206828
:1027500050E8050F216820F0010041E80502002A39
:10276000DAD1202084F83D0084F83E00002084F86F
:102770003C00032001B0BDE8F0830000704700007A
:10278000FEE7000040F2DC10C2F2000001680131F7
:102790000160FBE780B588B040F294201F224FF41F
:1027A0000073C2F200004FF0010E0021CDE90003DA
:1027B000CDE9022240F2E41042F285724FF0B00CF3
:1027C000CDE9041EC2F2000004A1C0F600020023FD
:1027D000CDF818C002F07CF808B080BD49444C45E3
:1027E000205461736B00000040F60044C4F2020400
:1027F00004F54065284680210022FEF7CDFA2046E8
:102800004FF480510122FEF7C7FA1E2001F0D2FAE0
:10281000284680210122FEF7BFFA20464FF480515E
:102820000022FEF7B9FA1E2001F0C4FAE2E7000028
:1028300080B588B040F2445003224FF48063C2F266
:1028400000004FF0010E0021CDE90003CDE9022286
:1028500040F2944042F2E9724FF0B00CCDE9041E10
:10286000C2F2000004A1C0F600020023CDF818C097
:1028700002F02EF808B080BD4C4544205461736BC3
:102880000000000082B040F24C10C2F200004FF095
:1028900050414FF0000C6FF47F030022C0E9001C90
:1028A00041F8223042680132B2F5802F426017D2DF
:1028B00041F8223042680132BCEB924F42600FD1A6
:1028C00041F8223042680132BCEB924F426007D19E
:1028D00041F8223042680132B2F5802F4260DFD3E6
:1028E000FF20CFF6007000904EF278104FF0000CF1
:1028F000CDF200004FF4D77132223223CDF804C05C
:1029000000F084FD0A2001F055FAFBE7F0B50468F9
:10291000D1E900CE04EBC2108B68CD68E668D0F830
:102920008820002702F47042C0F88820E268C0F6D0
:10293000FF77C2F30B423E40624406EB0E46013283
:102940003243C0F88820E268D0F88C606FF3DF2251
:1029500006F47046C0F88C60E4682A446FF3DF2404
:102960002344013343EA0242C0F88C20D0F894207B
:1029700022F00702C0F894200B69C0F8943091F857
:10298000322091F831408D69D0F89C600026120405
:10299000C0F89C6091F8307042EA042242EA056275
:1029A0003A44C0F89C20D0F8982040F2077422F0F6
:1029B000FF02C0F898204A69072BC0F89820D0F889
:1029C000A02022EA0402C0F8A020D1E9074500F1C6
:1029D000840244EA0504C0F8A040D0F8AC40C0F836
:1029E000AC604C6AC0F8AC4006D844F66850C0F6FB
:1029F000000050F8230000E00120D36AAEEB0C0782
:102A000003F0E023D362D1E90A3143437843033032
:102A100040EA0340D062106B40F2FF7398431063AA
:102A20001163106840F001001060F0BD01F0B4B80F
:102A3000FEE70000FEE70000F0B583B040F2E407D7
:102A40000C46C2F200070546002607F1340001A932
:102A500022460023CDE9016601F010FE01982946C7
:102A60002246FDF7C9FD381D02A9002201F016FD1E
:102A7000DDE90101086002983A684460866000BFA1
:102A8000936811464BB19A68194632B19368114662
:102A90001BB19A681946002AF2D1886003B0F0BDD4
:102AA0002DE9F04F85B0002900F0EB804A1E41F27D
:102AB000441B01F00304032AC2F2000B04D20023DA
:102AC000002C40F08980DCE0CDE90041611A00F182
:102AD00001086FF0030E00254FF037094FF0200A70
:102AE000029000BF08EB0E04E6780EF1040E09EB2D
:102AF00016123709A02E38BF07F130020BF8052057
:102B0000E27802F00F0202F137060A2A38BF02F11A
:102B1000300645F001020BF8026045F002020BF8A6
:102B200002A022790BEB050609EB121C1709A02A5B
:102B300038BF07F1300C86F803C0227902F00F028B
:102B400002F137070A2A38BF02F13007377186F8D9
:102B500005A0627909EB12131709A02A38BF07F103
:102B60003003B3716279AF1D02F00F0202F1370337
:102B70000A2A38BF02F1300347F001020BF8023095
:102B800007EB0B0282F802A0A27909EB12171309D6
:102B9000A02A38BF03F130077772A27905F109073F
:102BA00002F00F0202F137030A2A38BF02F13003A4
:102BB00007EB0B02537047F002020BF802A001EB87
:102BC0000E02043205F10C058CD10298DDE90041BA
:102BD0000EF10403002C54D0C55C37262A0906EBFD
:102BE0001517A02D03EB430538BF02F130070BF892
:102BF0000570C25C5D4402F00F0202F137070A2A39
:102C000038BF02F130074FF0200C012C6F7085F8AF
:102C100002C036D05F1CC25D150906EB1216A02A51
:102C200007EB470238BF05F130060BF80260C65DBE
:102C30005A4406F00F0505F137060A2D38BF05F195
:102C40003006022C567082F802C01AD09E1C825D9B
:102C50003727130907EB1217A02A06EB460238BFE5
:102C600003F130070BF80270805D5A4400F00F004A
:102C700000F137030A2838BF00F1300320205370D9
:102C8000907040F2E40601EB4104C2F20006002518
:102C900006F1340003A922460023CDE9035501F0D3
:102CA000EDFC039841F24411C2F200012246FDF707
:102CB000A3FC301D04A9002201F0F0FBDDE90301B3
:102CC0000860049832684460856000BF93681146CC
:102CD0004BB19A68194632B1936811461BB19A6894
:102CE0001946002AF2D1886005B0BDE8F08F0000D7
:102CF0002DE9F04184B000264FF0010808274FF479
:102D000080520D4604460196C1E90087C1E902865A
:102D1000FEF736FFCDF80C800296039848F2A061CA
:102D2000C0F20101484302900298A0B10298013814
:102D30000290029878B1029801380290029850B13E
:102D4000029801380290029828B102980138029046
:102D500002980028EAD1022085E881012046294610
:102D60004FF48052EE60FEF70BFF0320C5E9000729
:102D7000204629464FF48052C5E90276FEF700FF4F
:102D800040F2312001900199042085E88101E96039
:102D9000204629464FF48052FEF7F2FE206840F6A6
:102DA000D42241691143416104B0BDE8F0810000C3
:102DB00082B04FF000088DF80780FFF7EBFC40F27F
:102DC000DC15C2F200052C686420642600F0F2FFD6
:102DD0002868041BFFF72CFD00F094F900F068F957
:102DE0000FF248090DF1070A0FF2500B2F6864200B
:102DF00000F0E0FF28680023C01B201AA0FB06019A
:102E000068F1000202FB06112246FDF77DFB8DF8FA
:102E1000070048460E21FFF70FFE50460121FFF73D
:102E20003FFE58460421FFF707FEDFE7435055CA2F
:102E3000B9D3C3C2CAA3BA3078000000250D0A0076
:102E400080B588B041F2743002224FF48063C2F240
:102E500000004FF0010E0021CDE90003CDE9022270
:102E600041F2C42042F6B1524FF0B00CCDE9041E3D
:102E7000C2F2000004A1C0F600020023CDF818C081
:102E800001F026FD08B080BD53595354454D2054E0
:102E900061736B0080B592B0002043F64001CDE92C
:102EA0000A00CDE908000590CDE90300CDE9010055
:102EB0000090C4F202010A6842F080520A60096878
:102EC00001F0805100910099009047F20000C4F297
:102ED0000000016841F44041016000684FF4800146
:102EE00000F4404000900098012006904FF480309C
:102EF0000D910F21079002200E91D8210C90CDE961
:102F00000F100420119006A8FEF7E2FB18B1EFF3B2
:102F1000108072B6FEE7FEF74FF920B1EFF3108094
:102F200072B600BFFEE70F20019002200290002041
:102F300003904FF4A05004904FF48050059001A8E6
:102F40000521FEF799FA20B1EFF3108072B600BFA9
:102F5000FEE712B080BD00004EF68850CEF20000B1
:102F6000016841F4700101607047000042F2347062
:102F7000C2F20000FEF7A8BE10B540F6FF3E03689F
:102F8000C4F2000E40F2004C7045C4F2010C26DC85
:102F9000B0F1804F30D040F20042C4F200029042C3
:102FA0002AD040F60002C4F20002904224D041F63A
:102FB000FF72C4F20002904228DC70453ADCB0F1A6
:102FC000804F5CD040F20042C4F20002904256D0E2
:102FD00040F60002C4F20002904250D053E040F6A6
:102FE0000042C4F20002904206D0604504D00022A4
:102FF000C4F201029042DAD14A6823F0700313430D
:1030000041F6FF72C4F200029042D6DD43F6FF7231
:10301000C4F20102904220DC42F20002C4F200023B
:1030200090422CD00022C4F20102904227D0604589
:1030300025D028E040F60042C4F2000290421ED0A3
:1030400041F60002C4F20002904218D041F600425C
:10305000C4F20002904212D015E044F20002C4F221
:10306000010290420BD044F60002C4F201029042E9
:1030700005D044F20042C4F20102904203D1CA6872
:1030800023F44073134323F080024B69D1F800E02E
:103090008C681A430260C46240F48062C0F828E081
:1030A000624504BF096901630121416110BD00004F
:1030B00080B588B041F6D44003224FF48063C2F259
:1030C00000004FF0010E0021CDE90003CDE90222FE
:1030D00041F6244042F685024FF0B00CCDE9041EC3
:1030E000C2F2000004A1C0F600020023CDF818C00F
:1030F00001F0EEFB08B080BD546573742054617319
:103100006B00000080B588B041F624001E224FF409
:103110008063C2F200004FF0010E0021CDE90003F0
:10312000CDE9022241F2747043F259124FF0B00C13
:10313000CDE9041EC2F2000004A1C0F60002002383
:10314000CDF818C001F0C4FB08B080BD5541525401
:10315000205461736B000000ADF5027D40F2E4087D
:10316000C2F200084FF4806008F1040444F688516C
:1031700040F6441330270090C0F60001C2F200036D
:1031800020460C22019701F0BBF940F6445544F665
:103190009151C2F20005342708F13400C0F6000155
:1031A0002A464FF48063009701F0AEFA204641466C
:1031B0000022002701F072F9D8F8000042F27C7971
:1031C0000560D8F80050C2F2000902AEC5E90177E7
:1031D0001AE000BFD7E900123046FDF70DFAB968D2
:1031E000D7E90004A96001F039FB384601F036FA4E
:1031F000A2B2484631462346FFF756F9012000F0B7
:10320000D9FDD8F80050AF68002FE3D10024EFE7D4
:10321000806B0021C185C184FEF71EBE81B090F88D
:103220003E10222920D18368B3F5805F08D101695F
:10323000002964D000F128010A6803685B680AE08D
:10324000014651F8282F13B90369002BF5D0036804
:103250005B6803F07F0313700A6801320A60C18D56
:1032600001390A04C18501D001B070470168CA68FC
:1032700022F02002CA60CA6822F48072CA604A69D9
:1032800022F001024A61202280F83E20026B012ACE
:103290003ED10022026300BF51E8031F026821F003
:1032A000100142E803130168DBB151E8031F026813
:1032B00021F0100142E80313016893B151E8031FA4
:1032C000026821F0100142E8031301684BB151E894
:1032D000031F026821F0100142E803130168002B6C
:1032E000DAD10A68D20606D5002200920A68009256
:1032F000496800910099818D01B0FEF7ABBD01686E
:10330000826A49686FF35F2122F8021B8262A6E796
:1033100001B0FFF7C7B8000010B504460068D4E953
:1033200002C22369016921F44051114301616269BC
:1033300043EA0C01E3691143C268194349F20C6383
:103340009A431143C1604169A26921F4407141F27D
:103350000043114340F48062C4F201039A42416188
:1033600002D1FEF76DF901E0FEF756F9E1696368F5
:103370001922B1F5004FA0FB02011FD15A00DB0F4B
:10338000FDF7C2F848F21F51C5F2EB11A0FB012373
:103390005A096FF0630302FB0300322303EBC00002
:1033A000A0FB01014FF4F87000EA111000EB0210CD
:1033B000C1F3421122680843906010BD9A009B0F30
:1033C000FDF7A2F848F21F51C5F2EB11A0FB012353
:1033D0005A096FF0630302FB0300322303EB001072
:1033E000A0FB0101F02000EA511000EB0210C1F334
:1033F000431122680843906010BD000042F27C70C7
:10340000C2F20000FEF72ABDFEE70000B0B5DDE91C
:10341000044E4BF2000C40F20025C4F2020CC0F244
:103420000305CCF80050CCF83840CCF83C00C3EA97
:103430000240CCF84010CCF834E0CCF84400DCF882
:10344000000040F00100CCF8000004E0DCF80000CF
:10345000C00708BFB0BDDCF80000C00708D0DCF82A
:103460000000C0071CBFDCF800005FEAC070EDD1AF
:10347000B0BD000010B5EFF3108E72B684685CB179
:103480000269131D0B601368611E81600361106087
:103490008EF31088002010BD00230B6052B140F263
:1034A0009C1CC2F2000CDCF800303BB18EF310889B
:1034B000102010BD8EF31088102010BD40F2841330
:1034C000C2F200031C6843F22553C0F60003C4E9AE
:1034D0001A30D4F8AC30E167591C436AC4F8AC1018
:1034E000591C416233B1006A206750F8741F61674C
:1034F0000C6703E00462246704F174000460082090
:1035000020630120A063E264DCF800000130CCF805
:1035100000008EF31088204600F054FDD4F884009B
:1035200010BD000080B5EFF3108E72B6836E43F2CB
:103530002552C0F60002934202D08EF3108880BD5F
:10354000D0F8AC208A42F8D1C16E0029F5D00A68C3
:1035500044F64373C4F24C239A42EED14B6A002BDB
:10356000EBD04FF0000C5A1EC0F868C04A6209D078
:10357000D0E91C32D1F820C05A678445136708BFD0
:103580000B6201E0C1F820C0016B0829D5D11021E0
:10359000C0F8841040F29C11C2F200010A680132A6
:1035A0000A608EF3108800F073FCEFF3108E72B691
:1035B0008EF3108880BD00002DE9F04F83B00F46D8
:1035C0000C9C30219A4616460546FDF762F8F21C1F
:1035D00022F0030124F0030301F1040E9E456F6005
:1035E000C5E905A3E96106D90020C5E90200052067
:1035F00003B0BDE8F08FB3FBFEF49208102303EB99
:103600000210082303EBC20702EB42020C2303EB78
:1036100082066FF003020195A2EB010B4FF0000947
:10362000032503464FF0000851460290A5F1020A17
:1036300001EB0E02A24541F8092020D201EB070C54
:10364000084621466C1E8C420C46014640F80EC0CE
:1036500019D28A19A542CA5119D2CA1802988A5198
:103660006A1C08F104088144864407440644034464
:1036700083440435A242D9D301EB0B0C09E001EBE2
:10368000090CD04605E048F00208944601E048F0F5
:103690000308019F0020C7E90288CCF800003961C7
:1036A00044F64371C4F24C21EFF3108072B63960D6
:1036B00040F27011C2F200010A6840F26C13C2F2CB
:1036C00000032AB11D68EE6AEF6206F1280301E0EB
:1036D0003D463E4601321F60C7E90A560A6080F344
:1036E0001088002003B0BDE8F08F000080B5EFF334
:1036F000108C72B6014651F8043D0246186A58B162
:10370000596A0139596211D0D0E91C1E1962C1F8F9
:1037100074E0CEF870100BE018699A680860501CCD
:10372000196198608CF31088002080BD0021196217
:103730000021C36F8166C0F8841040F29C111A60AA
:10374000C2F200010A6801320A608CF3108800F0AE
:103750009FFB002080BD00002DE9F0410646D01CF3
:1037600040F284120F46EFF3108172B6C2F20002EB
:103770001568984620F00304356281F310883046BE
:10378000214600F0E1F8EFF3108172B690B9306A8B
:10379000A842F1D10020B8F1000F386010D040F2FB
:1037A0009C10C2F2000002687AB181F310881020E8
:1037B000BDE8F081386081F310880020BDE8F08119
:1037C00081F310881020BDE8F08143F62902C0F68D
:1037D0000002C5E91A26D5F8AC20B36A0132C5F853
:1037E000AC205A1CAC67EF67B26233B1726A2A67C9
:1037F00052F8743F6B671D6703E075622D6705F132
:103800007402156009222A630122AA63C5F84C805C
:1038100002680132026081F31088284600F0D2FB72
:10382000D5F88400BDE8F08180B5EFF3108E72B654
:10383000836E43F62902C0F60002934202D08EF353
:10384000108880BDD0F8AC208A42F8D1C16E002922
:10385000F5D00A6845F24543C4F259239A42EED1A5
:103860008B6A002BEBD04FF0000C5A1EC0F868C0DA
:103870008A6209D0D0E91C32D1F824C05A67844545
:10388000136708BF4B6201E0C1F824C0016B09292E
:10389000D5D11021C0F8841040F29C11C2F2000171
:1038A0000A6801320A608EF3108800F0F1FAEFF333
:1038B000108E72B68EF3108880BD0000F0B581B016
:1038C0000F4634211D4616460446FCF7E2FE25F05D
:1038D0000300A0F108016760C4E90660C4E904665A
:1038E000A1600221E16030444EF6EE6140F8086DBF
:1038F000CFF6FF714460C6E9000145F24541002062
:10390000C4F259212062EFF3108072B6216040F2B8
:103910007811C2F200010A6840F27413C2F2000387
:103920002AB11F683E6B3C6306F12C0301E0274679
:10393000264601321C60C4E90B760A6080F31088C9
:10394000002001B0F0BD00002DE9F041EFF3108E32
:1039500072B6D0E9022402EBC402103A8A4243D97B
:1039600040F28412C2F2000212684EF6EE6C436915
:10397000CFF6FF7C01344FF00008026202E000BF86
:10398000002C45D05E68664518D1B8F1000F04BF21
:1039900043614FF001081E68F71A083F8F4228D292
:1039A000D6E9007565450BD11F60C5684769013DC3
:1039B000B742C56008BF436106E000BF1B6803E073
:1039C000002C18BF013C3B468EF31088EFF3108E9D
:1039D00072B6056A002C18BF013C9542D0D0C4686D
:1039E000436901340262CBE78EF310880020BDE802
:1039F000F0816FB17A1A142A0FD3CA18C46842F83A
:103A0000086F671C1646C2F804C0C7601A6005E05C
:103A10008EF310880020BDE8F08139468268586036
:103A2000511A426908399342816008BF46618EF39A
:103A3000108803F10800BDE8F08100002DE9F04F87
:103A400081B0EFF3108172B690B350F8045C4EF67B
:103A5000EE68CFF6FF7845452AD04DB32A6845F287
:103A60004543C4F25923D41A18BF03249A421FD1E4
:103A700040F28412C2F20002D2F80090A0F10802D3
:103A8000C5F8209040F8048C50F8080CAB68801AF8
:103A90006F691844BA42A86038BF6A61A86A0028F2
:103AA0005AD040F29C1B4FF0000AC2F2000B15E006
:103AB00081F310880324204601B0BDE8F08F00BFD9
:103AC00050F8082D6F69C0F80480AB68121A1A44C8
:103AD000B842AA6038BF6861A86AA8B36E6A28466F
:103AE000B76F81F310883946FFF72EFFEFF310818F
:103AF00072B6C5F8209038B36A6A9642E0D1B26FC8
:103B0000BA42DDD1AA6A013AAA6205D0D6E91C23DD
:103B10006A6253671A6701E0C5F824A0F26FC6F81D
:103B200068A01060C6F884A0DBF800000130CBF874
:103B3000000081F31088304600F0AAF9EFF31081FD
:103B400072B6A86A0028C9D181F3108800F07AF90A
:103B5000204601B0BDE8F08F81F310880024204694
:103B600001B0BDE8F08F000080B500F0D9F800F09A
:103B70004BFB40F25410C2F200000021C0E90011DA
:103B8000C0E90211C0E90411C0E90611C0E9081139
:103B9000C0E90A1180BD000010B540F20C04C2F269
:103BA0000004206810F10F3F0DD04FF0F03020607E
:103BB000FCF77EFBFFF7D8FF40F29C10C2F200003A
:103BC0000168013101604FF0F030206042F2D40012
:103BD000C2F20000006801F0ABF800202060BDE8F0
:103BE0001040FCF7A5BB00002DE9F04F81B0DDE9E6
:103BF0000A5993460F46DDF838A00C9E0446284625
:103C00004946EF229846FCF73CFD2046B021FCF7E0
:103C100040FD09EB05010139C4E911B8C4E90A7690
:103C2000C4E903510D9920208E423146C4E9059A1A
:103C3000C4F81CA018BF0021E163C4E92561C4F8E1
:103C40009C000320206344F2B110C0F6000043F64C
:103C50005951C4E91504C0F600012046FCF7D0FB19
:103C600045F24421C5F24841EFF3108072B621605D
:103C700040F29811C2F200010A6840F29413C2F2B5
:103C800000033AB11F68D7F88C60C7F88C4006F182
:103C9000880301E02746264601321C60C4E92276EB
:103CA0000A6040F29C11C2F200010F9D0A68012DCA
:103CB00002F101020A6014D140F20C01C2F20001CB
:103CC0000968EFF305821143B1F1F03F19D340F2D7
:103CD0008811C2F200010D689DB1E96AEE6BE963DB
:103CE00011E080F31088EFF3108072B60A68013A91
:103CF0000A6080F3108800F0A5F8002001B0BDE84C
:103D0000F08F0025002680F31088204600F0C0F8D0
:103D1000002D18BFEE63002001B0BDE8F08F000059
:103D2000B0B540F28414C2F2000400252020C4E99A
:103D30000055C4E9025042F2D800C2F200008021CE
:103D4000FCF7A7FCC4E90455A561206AE56140F0D1
:103D500085702062B0BD000010B540F28410C2F240
:103D600000000468D4E91110884740F2A010C2F2A4
:103D70000000016809B1204688470121EFF3108057
:103D800072B62163A1630021E16440F29C11C2F28A
:103D900000010A6801320A6080F31088EFF3148092
:103DA00020F0040080F314882046BDE8104000F0A5
:103DB00009B9000010B540F28412EFF3108172B619
:103DC000C2F20002146864B140F20C02C2F20002B6
:103DD0001268EFF305831A4307D081F3108813208C
:103DE00010BD81F31088132010BD42F2DC12C2F224
:103DF000000294420AD068B140F29C12C2F2000262
:103E000013685BB181F31088132010BD81F3108813
:103E1000132010BD81F31088002010BD04232363FC
:103E20000123A3630023C4F88430E06410680130E8
:103E3000106081F31088204600F0C4F8D4F88400A4
:103E400010BD000040F29C10C2F20000006800B1FA
:103E5000704740F2841040F28811C2F20000C2F2B2
:103E60000001006809688842F2D04EF60450CEF294
:103E700000004FF080510160EFF30580002818BF6B
:103E80007047EFF3108062B680F31088704700002F
:103E9000F0B581B0EFF3108572B60446406E00288D
:103EA00004F14C0002D000F03BFA01E00021016077
:103EB00040F29C10C2F20000016801390160A16B60
:103EC000226B002940F28811C2F2000108D0013AA9
:103ED000022A0CD3626B32B90022A263226306E08D
:103EE0002AB1626B1AB3002203232363626340F298
:103EF0008412C2F20002126885F3108809688A42AF
:103F000001D0006808B101B0F0BD4EF60450CEF209
:103F100000004FF080510160EFF305800028F2D1DE
:103F2000EFF3108062B680F3108801B0F0BDE26A52
:103F300042F2D80CC2F2000C5CF822304FF0000EB6
:103F4000C4F830E02BB15A6A5C621462C4E90832EA
:103F5000CDE74CF8224040F28C1E40F2901CC2F299
:103F6000000EC2F2000C0123DEF80060DCF80070E5
:103F700093403343BA42C4E90844CEF80030B6D285
:103F80000B68CCF80020D3B1DB6B9A42AFD20C6047
:103F900085F3108800680028B5D14EF60450CEF2A3
:103FA00000004FF080510160EFF305800028AAD196
:103FB000EFF3108062B680F3108801B0F0BD0C60A2
:103FC00095E7000070B5044640F28410C2F200008C
:103FD0000668EFF3108572B6A6420DD1204650F860
:103FE0004C1F0131022928BF00F06CF9E06940F252
:103FF000AC11C2F20001086040F29C10C2F2000055
:10400000016840F2881C01390160A16BC2F2000C0A
:10401000012916D1236AE26A0021A342A1631AD0C2
:10402000616A42F2D80E59620B62C2F2000E5EF86B
:104030002210A14208BF4EF82230DCF80010A14245
:1040400029D085F31088DCF800108E4202D0006879
:10405000002843D070BD42F2D803C2F2000343F8F7
:10406000221040F28C13C2F200034FF0010E1968C7
:104070000EFA02F291430029196041D040F29012E9
:1040800091FAA1F1C2F20002B1FA81F11160DCF8FB
:104090000010A142D5D140F29011C2F2000109688E
:1040A00042F2D802C2F2000252F82110CCF80010FD
:1040B00085F3108800680028CCD14EF60450CEF26B
:1040C00000004FF080510160EFF305800028C1D15E
:1040D000EFF3108062B680F3108870BD4EF6045086
:1040E000CEF200004FF080510160EFF30580002810
:1040F00018BF70BDEFF3108062B680F3108870BDFA
:1041000040F29011C2F2000120220A600021CCF896
:10411000001085F31088006800289BD14EF60450EB
:10412000CEF200004FF080510160EFF305800028CF
:104130007FF490AFEFF3108062B680F3108870BD0B
:1041400040F28410C2F20000016840F2B012EFF3B6
:10415000108072B6C2F200020023136009B10A6B2C
:1041600012B180F310887047D1E9073240F2AC1CDD
:10417000C2F2000C8A428B61CCF80030F1D0CB6ADD
:10418000C96B8B42EDD140F2901142F2D80CC2F2D1
:104190000001C2F2000C09684CF823205CF82110E1
:1041A00040F28812C2F20002116080F3108870475A
:1041B000EFF3108272B6016B04290AD140F29C1110
:1041C000C2F200010B6801330B6082F31088FFF725
:1041D0005FBE836ED0F8AC1082F31088002B08BF4E
:1041E0007047184740F29C11EFF3108072B6C2F28C
:1041F00000010A6801320A6080F3108842F2DC1084
:10420000C2F20000FFF744BE2DE9F04387B042F24E
:104210005C1640F2A814C2F2000644F64D18C2F231
:104220000004002530468021C4F254182560C4E9FA
:104230000155C4E90355FCF72CFA42F28C2106F132
:104240008000C2F200014FF4806204F11C03C4E953
:10425000056627C38DE8260042F2DC1044F69D5126
:1042600044F25D32C2F20000C0F60001C0F6000266
:104270004346CDE903550595FFF7B6FCE0B142F2A0
:10428000DC1944F69D5644F25D37C2F20009C0F6CF
:104290000006C0F6000700BF04F1200207CA43462B
:1042A0008DE80700CDE90325484631463A46059595
:1042B000FFF79AFC0028EFD1C4E90B5507B0BDE821
:1042C000F083000001684A1C022A27D38269002A71
:1042D00018BF70474A1E202940F2C011C2F20001E7
:1042E000096888BF1F2201EB820140F2C412C2F2AA
:1042F0000002126840F2BC13C2F200038A1A1B6863
:1043000028BF99180A682AB1536950611861C0E939
:10431000042302E0C0E904000860816170470000E6
:104320008169002908BF70470269824208D0436949
:1043300053611A610B6883420AD000218161704782
:104340000A688242F9D100220A6000218161704727
:1043500091610A6000218161704700002DE9F04FF2
:1043600083B044F64D11C4F2541188421CBF03B00F
:10437000BDE8F08F40F2C01640F2B41440F2B81B12
:10438000C2F200060027C2F200040DF10409C2F2D5
:10439000000B0DF1080804E0206800286AD081F3C2
:1043A0001088EFF3108072B631680A68002A029212
:1043B00018BFC2F818800F6040F2C4123168C2F210
:1043C0000002126804319142316005D140F2BC1103
:1043D000C2F2000109683160276080F31088EFF3B2
:1043E000108172B605E000BF8AF31088EFF31081E8
:1043F00072B6029D002DCFD028690022854201921D
:1044000014D06A69C0F81880426110612A6802906D
:10441000212A10D3A2F120002860C5F818902D6140
:104420000195CBF8005081F3108816E000202A682F
:104430000290212AEED2D5E90132E868002B2B60E8
:104440000FBFAF61C5F818902D610195CBF80050F2
:1044500081F31088002A18BF9047EFF3108A72B6D4
:104460000198CBF80070A842BED12846AF61FFF793
:1044700029FFB9E742F2DC10C2F200000322026316
:10448000012240F29C138263C2F200031A680132D7
:104490001A6081F31088FFF795FD82E780B530B38D
:1044A000D0F800C044F64373C4F24C239C451ED19F
:1044B00009B3C2B140F20C03C2F20003D3F800C04A
:1044C000EFF3058353EA0C034FF0040C15D140F2CF
:1044D0008413C2F20003D3F800E042F2DC13C2F20C
:1044E00000039E4509D0BDE88040FEF7C3BF4FF0F2
:1044F000020C604680BD4FF0030C604680BD00009A
:104500002DE9F047074600284FF0020000F0A48094
:1045100089460999302940F09F8040F29C10DDF8CF
:104520002080EFF3108172B6C2F20000924602685A
:104530001C460132026081F3108840F26C11C2F215
:1045400000010B68D91BB1FA81F14FEA511630D046
:1045500040F27011C2F20001096851B3042200BF99
:104560009B6ADE1BB6FA86F64FEA561621D0D51E98
:104570008D421ED29B6ADE1BB6FA86F64FEA5616AD
:1045800017D0951E8D4214D29B6ADE1BB6FA86F6B2
:104590004FEA56160DD0551E8D420AD29B6ADE1B7D
:1045A000B6FA86F64FEA561603D08A4202F10402A2
:1045B000D6D3EFF3108172B60268013A026081F33C
:1045C0001088FFF73FFC002E1CBF0220BDE8F087DB
:1045D00084B30AF1040020F0030028F003018842AC
:1045E00084BF0520BDE8F08740F28410C2F20000CD
:1045F000016840F20C00C2F200000268EFF305838C
:104600001A431AD042F2DC130068C2F20003EFF33F
:10461000058202430020994208BF1320B2F1F03F07
:1046200038BF1320994217D0B2F1F03F38BFBDE830
:10463000F08708E00320BDE8F08742F2DC10C2F208
:104640000000814207D03846494652462346BDE81D
:10465000F047FEF7B1BF1320BDE8F08758B150F81E
:10466000041C41B1096844F64372C4F24C229142E1
:1046700008BFFFF73BB803207047000010B578B1C2
:10468000D0F800C045F2454EC4F2592EF44507D18A
:1046900041B11AB1D0F81CC0944505D2052010BD17
:1046A000022010BD032010BD40F20C0CC2F2000C21
:1046B00043B1DCF800E0EFF3058454EA0E041CBFBC
:1046C000042010BD40F28414C2F20004D4F800E0CB
:1046D00042F2DC14C2F20004A6450FD0DCF800E080
:1046E000EFF3058454EA0E040AD0DCF800C0EFF3BF
:1046F000058444EA0C04B4F1F03F01D2132010BD4C
:10470000BDE81040FFF728B82DE9F04381B0074617
:1047100000284FF0020000F09D8088460899342957
:1047200040F0988040F29C10EFF3108172B6C2F214
:1047300000001546026899460132026081F3108834
:1047400040F27411C2F200010B68D91BB1FA81F179
:104750004FEA51162FD040F27811C2F200010968D9
:1047600049B30422DB6ADE1BB6FA86F64FEA561618
:1047700021D0D41E8C421ED2DB6ADE1BB6FA86F62E
:104780004FEA561617D0941E8C4214D2DB6ADE1BF9
:10479000B6FA86F64FEA56160DD0541E8C420AD24F
:1047A000DB6ADE1BB6FA86F64FEA561603D08A425B
:1047B00002F10402D6D3EFF3108172B60268013A17
:1047C000026081F31088FFF73DFB1EB1022001B0AB
:1047D000BDE8F08335B1B9F1640F07D2052001B00F
:1047E000BDE8F083032001B0BDE8F08340F28410FF
:1047F000C2F20000016840F20C00C2F20000026840
:10480000EFF305831A4315D042F2DC130068C2F2BD
:104810000003EFF3058202430020994208BF1320F2
:10482000B2F1F03F38BF1320994213D0B2F1F03FFC
:1048300006D20FE042F2DC10C2F20000814208D042
:10484000384641462A464B4601B0BDE8F043FFF7E3
:1048500035B8132001B0BDE8F083000080B530B357
:1048600040F2841140F20C0CC2F20001C2F2000CC2
:104870000A68DCF80030EFF3058119431AD042F2E0
:10488000DC1EDCF80010C2F2000EEFF305830B43D0
:104890000021724508BF1321B3F1F03F38BF132147
:1048A000724502D0B3F1F03F0AD2084680BD032121
:1048B000084680BD42F2DC11C2F200018A4203D0F8
:1048C000BDE88040FFF7BAB81321084680BD00005C
:1048D0002DE9F04F87B0804600284FF00E0059D0E8
:1048E0008A461699B02955D140F29C1CEFF31080EE
:1048F00072B6C2F2000CDCF8001093460131CCF81D
:10490000001040F2981180F3108840F29410C2F227
:104910000001C2F200000968119A109C06689946CD
:1049200019B31019421E00230025012D18BF46455A
:104930001BD0F068844207D282420CD20133D6F8F1
:1049400088608B42F1D310E03769BC423CBF01253F
:1049500000248242F2D3306982423CBF0024012508
:104960000133D6F888608B42DFD3EFF3108072B644
:10497000DCF800100139CCF8001080F31088FFF744
:1049800061FA464509D0BBF1000F4FF0030018BF94
:10499000002C06D107B0BDE8F08F0E2007B0BDE8AF
:1049A000F08F1198C82803D2052007B0BDE8F08F1A
:1049B00012991F2903D90F2007B0BDE8F08F139A71
:1049C0008A4203D9182007B0BDE8F08F159E012E4A
:1049D00003D9102007B0BDE8F08F40F28410C2F276
:1049E0000000036840F20C00C2F200000768EFF319
:1049F00005852F4315D042F2DC170068C2F200078C
:104A0000EFF3058505430020BB4208BF1320B5F135
:104A1000F03F38BF1320BB42BCD0B5F1F03F06D207
:104A2000B8E742F2DC10C2F20000834210D01498C2
:104A3000119B0094CDE90131CDE903204046514658
:104A40005A464B460596FFF7CFF807B0BDE8F08F02
:104A5000132007B0BDE8F08F92B040F60048C4F2D2
:104A60000208FCF7B3F9FEF715FA002743F6300009
:104A70000997CDE90777CDE905770197C4F20200E0
:104A80000168002241F00401016001684FF44054C4
:104A900001F00401019101990197016841F48071CD
:104AA0000160016801F48071019101990197016829
:104AB00041F020010160016801F02001019101999C
:104AC0000197016841F080010160016801F08001F7
:104AD000019101990197016841F400710160016839
:104AE00001F40071019101990197016841F04001C1
:104AF0000160016801F0400101910199019701688D
:104B000041F010010160016801F01001019101996B
:104B10000197016841F008010160016801F0080196
:104B2000019101990197016841F480610160016878
:104B300001F48061019101990197016841F001013F
:104B4000016000684FF4405100F0010001900198AD
:104B50004046FCF721F908F54065284680210022EF
:104B60004FF08009FCF718F905AE05940124404682
:104B70003146CDE906470897FCF730F8284631461C
:104B8000CDE90594CDE90777FCF728F842F27C706F
:104B9000A8F57C41C2F200000C234FF400464FF40C
:104BA000E13280E88600C0E90377C0E90537C661D5
:104BB000FDF706FC18B1EFF3108072B6FEE740F285
:104BC000700040F24011C2F20000CAF2000104225B
:104BD000202380E8920000F10C0140264FF4C075BC
:104BE0004CC14FF400614FF4805300F1200CC0E938
:104BF00006574FF400578CE88A00022107230591DD
:104C0000CDE906320622CDE90821CDE90A1105A930
:104C1000FCF712FF18B1EFF3108072B6FEE740F216
:104C20007005C2F2000501A92846FEF761F805A843
:104C30003421FBF72EFD42F28C60A8F52441C2F22C
:104C400000000026282209232A27C0E900160B218C
:104C500040F21D1400F1200CC0E90266C0E90462B4
:104C6000C0E9063740F20A2240F21B134FF40377E3
:104C70008CE88E000463868680F83660FCF744F981
:104C800018B1EFF3108072B6FEE74FF4F0704FF4F6
:104C90008871FF220596CDE90606CDE90816CDE913
:104CA0000A264FF4C0620C9207220D924FF0504238
:104CB000CDE90E2042F28C601091C2F2000005A9ED
:104CC0000022ADF844608DF84660FCF7E1F820B1B1
:104CD000EFF3108072B600BFFEE74BF20001C4F2A2
:104CE0000201284640F8341F0021C0E90111C160CB
:104CF000C0E90A11C0E90C11FBF7CEFE18B1EFF3C1
:104D0000108072B6FEE705F134000121FBF778FE52
:104D100018B1EFF3108072B6FEE740464FF4005131
:104D20000122FCF739F8FDF781FE00BFFEE7000025
:104D3000FEF786B8F1EE100A4FF6FF71C0F2C031EF
:104D400020EA010040F04070E1EE100A70470000D8
:104D5000000000000000010203040607080900002B
:104D60000000010203040000040000000300000032
:104D7000020000000200000002000000010000002C
:104D8000010000000200000050444C426C6F636B55
:104D90000050445F42797465506F6F6C00537973B3
:104DA00074656D2054696D65722054687265616424
:104DB00000000000D84D0008000000201000000096
:104DC000E8010008E84D000810000020B82D0000A0
:104DD00004020008000000000100000010000000B4
:084DE0000024F400F0F0F0F0F3
:04000005080001AD41
:00000001FF
