:020000040800F2
:10000000706800206D020008ED2900088D280008A6
:10001000E929000861080008813B00080000000091
:100020000000000000000000000000007F02000847
:1000300065080008000000007D0300083D0300087B
:10004000870200088702000887020008870200086C
:10005000870200088702000887020008870200085C
:10006000870200088702000887020008870200084C
:10007000870200088702000887020008870200083C
:10008000870200088702000887020008870200082C
:10009000870200088702000887020008870200081C
:1000A0008702000839370008870200088702000825
:1000B00087020008870200088702000887020008FC
:1000C00087020008870200088702000887020008EC
:1000D00087020008753B00088702000887020008B5
:1000E00087020008870200088702000887020008CC
:1000F00087020008870200088702000887020008BC
:1001000087020008870200088702000887020008AB
:10011000870200088702000887020008870200089B
:10012000870200088702000887020008870200088B
:10013000870200088702000887020008870200087B
:10014000870200088702000887020008870200086B
:10015000870200088702000887020008870200085B
:10016000870200088702000887020008870200084B
:1001700087020008870200088702000800000000CC
:10018000870200088702000887020008870200082B
:10019000870200088702000887020008870200081B
:1001A00087020008870200088702000800F002F8B2
:1001B00000F04CF80AA090E8000C82448344AAF1B5
:1001C0000107DA4501D100F041F8AFF2090EBAE8B3
:1001D0000F0013F0010F18BFFB1A43F0010318477B
:1001E000B0B60000D0B600000A4410F8014B14F07D
:1001F0000F0508BF10F8015B240908BF10F8014B78
:100200006D1E05D010F8013B6D1E01F8013BF9D1C0
:10021000641E03D0641E01F8015BFBD19142E4D35C
:10022000704700000023002400250026103A28BF54
:1002300078C1FBD8520728BF30C148BF0B60704758
:100240001FB50BF0F1FA1FBD10B510BD00F0CEFACE
:100250001146FFF7F5FF0BF061FA00F0ECFA03B47A
:10026000FFF7F2FF03BC00F0F3FA000009488047F3
:1002700009480047FEE7FEE7FEE7FEE7FEE7FEE788
:10028000FEE7FEE7FEE7FEE704480549054A064BA0
:100290007047000025370008AD010008706200209B
:1002A000706800207064002070640020000000006E
:1002B0000425002070680020000000088825002028
:1002C00000000008001000E07F4F12000000FF4017
:1002D00072B65FF824005FF8241001F10401016098
:1002E0004FF0E0205FF83010C0F8081D5FF83400D0
:1002F0005FF83410096801605FF83800016841F068
:10030000010101604FF0E0205FF8441041614FF0BF
:10031000070101614FF00001C0F8181D4FF07F4147
:10032000C0F81C1D5FF85C10C0F8201D7047FEE788
:10033000FEE7FEE701B5BDE80140704701B500F0FA
:100340008FF8BDE801407047FEE7FEE700000000BF
:100350004FF000002A4A1060EFF3148020F00400F0
:1003600080F3148862B64FF080504FF0E021C1F85E
:10037000040DBFF34F8FBFF36F8FFEE72148224A72
:100380004FF00003016891B10360EFF3098C2CE991
:10039000F00F1EF0100F01D12CED108A1B4C4CF801
:1003A00004ED2568C1F808C00DB18D61236072B6F7
:1003B0001168B1B1016062B64F68154C8D6907F1E3
:1003C00001074F602560D1F808C05CF804EB1EF00F
:1003D000100F01D1BCEC108ABCE8F00F8CF3098837
:1003E000704772B61168016009B962B6F9E74FF05B
:1003F00000674FF0E028C8F8047D62B6DCE770477C
:1004000080050020680500206C0500209005002074
:100410009005002000000000000000000000000027
:10042000026922F00702A2F144026FF00203136096
:100430004FF0000353609360D36013615361936185
:10044000D361136253629362D362136353634FF0B9
:10045000FF339363D1634FF08073136482607047FE
:100460002249086800F101000860214B1A683AB17E
:10047000A2F101021A601AB91E4B4FF00100186078
:100480001D490868026822B11C4B4FF001021A6036
:1004900008E000F104001A4B1A68904201D1194B90
:1004A00018680860184B1A6812B918490868D0B162
:1004B0002DE901401649086808B10AF0F5FC154B12
:1004C0001A6872B10AF060FC1348016849B9134810
:1004D0000168134A136813484FF08052994200D0C4
:1004E0000260BDE80140BFF34F8F70478C050020CC
:1004F0009005002094050020A40500209805002008
:10050000A8050020A00500209405002098050020E3
:100510009805002094050020800500206805002033
:100520006C05002004ED00E053EA020C00F0698045
:100530002DE9F04B4FF00006002B1FBFB3FA83F5F7
:1005400003FA05F424FA05F65E4012BF1643B2FA28
:1005500082F502FA05F4C5F120051EBF22FA05FC5A
:1005600044EA0C04203556EA044C4FEA144418BF00
:10057000641C4FF000084FF00009904271EB030C2F
:1005800039D3002919BFB1FA81F701FA07F6B0FA99
:1005900080F700FA07F6C7F120071EBF20FA07FC14
:1005A00046EA0C062037B6FBF4FCA7EB0507103F24
:1005B00007F01F0BCBF120062CFA06F60CFA0BFB0A
:1005C00044BFB3460026202FA4BF5E464FF0000B69
:1005D0005BEA060C08BF4FF0010B19EB0B0948EB67
:1005E0000608ABFB027C06FB02CC0BFB03CCC01B5A
:1005F00071EB0C01C1E70B46024641464846BDE897
:10060000F08B13B5084318BF4FF0FF300146AFF32E
:100610000080BDE81C40704710B5431C02E010F894
:10062000011B71B18107FAD14FF0013202C88C1A57
:100630008C4314EAC211F9D0C01A0A0603D0C01EB6
:1006400010BDC01A10BD0A0401D0801E10BD0902E1
:10065000FCD0401E10BD032A40F2308010F0030C85
:1006600000F0158011F8013BBCF1020F624498BF05
:1006700011F801CB00F8013B38BF11F8013BA2F1A2
:10068000040298BF00F801CB38BF00F8013B11F01D
:10069000030300F02580083AC0F0088051F8043BBD
:1006A000083A51F804CBA0E80810F5E7121D5CBF2A
:1006B00051F8043B40F8043BAFF30080D20724BF5D
:1006C00011F8013B11F801CB48BF11F8012B24BFF1
:1006D00000F8013B00F801CB48BF00F8012B704740
:1006E00010B5203AC0F00B80B1E81850A0E81850BF
:1006F000B1E81850A0E81850203ABFF4F5AF5FEA0F
:10070000027C24BFB1E81850A0E8185044BF18C9B3
:1007100018C0BDE810405FEA827C24BF51F8043B5A
:1007200040F8043B08BF7047D20728BF31F8023BAE
:1007300048BF11F8012B28BF20F8023B48BF00F842
:10074000012B704702F0FF0343EA032242EA024210
:1007500000F002B84FF000020429C0F0128010F03F
:10076000030C00F01B80CCF1040CBCF1020F18BF8D
:1007700000F8012BA8BF20F8022BA1EB0C0100F020
:100780000DB85FEAC17C24BF00F8012B00F8012BF3
:1007900048BF00F8012B70474FF0000200B5134628
:1007A00094469646203922BFA0E80C50A0E80C5091
:1007B000B1F12001BFF4F7AF090728BFA0E80C5042
:1007C00048BF0CC05DF804EB890028BF40F8042B3B
:1007D00008BF704748BF20F8022B11F0804F18BFA8
:1007E00000F8012B7047704770477047754600F05E
:1007F0002BF8AE4605006946534620F007008546B3
:1008000018B020B5FFF740FDBDE820404FF00006CE
:100810004FF000074FF000084FF0000BAC46ACE87B
:10082000C009ACE8C009ACE8C009ACE8C00921F0D7
:1008300007018D46704710B50446AFF3008020468F
:10084000BDE81040FFF70BBD004870477004002062
:1008500001491820ABBEFEE72600020070470000E9
:10086000FEE700007047000070B5866D044600F09A
:100870004DF994F8351002292ED105462068216CD7
:10088000026822F016020260426922F08002426190
:1008900009B9A16C19B1016821F008010160016872
:1008A00021F0010101600068C00708D000F02EF9B6
:1008B000401B052817D820680068C007F6D1E06DF6
:1008C0003F2101FA00F0B060012084F835000020DB
:1008D000002184F8341070BD802060650120002163
:1008E00084F8341070BD20206065032084F8350042
:1008F000002184F8341070BD90F83510022909D118
:10090000052180F835100068016821F001010160BF
:10091000002070478021416501207047B0B5044632
:1009200000F0F4F8054640F20000C2F20000007842
:10093000611C18BF044400BF00F0E8F8401BA0424F
:10094000FAD3B0BD2DE9F04F82B000F13E4242F241
:10095000004502F1FF77C4F202050A224FEAB726EA
:10096000A84208BF0922092E38BF4FEAB7224FF02C
:10097000010E002400274FF00008009208E000BF9D
:10098000023708F10108202F04F1040400F0B480BC
:100990000E680EFA08F916EA090FF1D0D1F804A092
:1009A0000AF0030BABF10106012E19D80322866869
:1009B00002FA07FECA6826EA0E06BA40324382608F
:1009C0004268CAF3001522EA090205FA08F54FEA5F
:1009D000480C6FEA0E064FF0010E2A4342600BE00E
:1009E0000322BA40D643BBF1030FBC4604D1BC4638
:1009F0004FF0030B24E000BFC2688D68324005FA57
:100A00000CF52A43BBF1020FC26019D16FF003024B
:100A100002EA5802024404F01C030F25D2F820E039
:100A200005FA03FA0D692EEA0A0E05FA03F343EA02
:100A30000E031362D1F804A04FF0010E0AF0030B6D
:100A400002680BFA0CF332401A431AF4403F02607A
:100A500096D0002243F644030192C4F202031A68BE
:100A600043F6004C42F480421A601A68C4F2010C4A
:100A700002F480420192019A28F003024FF6084ADC
:100A80006244CFF6FF7A52F80A3004F00C060F25C4
:100A9000B540AB43009D05FA06F6334342F80A30F1
:100AA000DCF800204B6842EA0906DD0358BF22EA61
:100AB0000906CCF80060DCF804209D0342EA090630
:100AC00058BF22EA0906CCF80460DCF80820DD02F1
:100AD00042EA090643F60C4558BF22EA0906CCF85B
:100AE0000860C4F201052A689B0242EA090658BF61
:100AF00022EA09062E6043E702B0BDE8F08F00004D
:100B0000002A08BF090481617047000046F26C208A
:100B1000C2F200000068704740F2000046F26C210B
:100B2000C2F20000C2F2000100780A6810440860B6
:100B30007047000080B543F60040C4F2020001682F
:100B400041F400710160016841F480610160016855
:100B500041F480710160032000F0A6F80F2000F03E
:100B600005F800F049F8002080BD000010B586B0FF
:100B7000014619200022002400F06AF8192000F034
:100B800057F843F644000194C4F20200016841F0B2
:100B9000010101600068694600F0010001900198C0
:100BA00001A800F041F900F073F94DF683614000AF
:100BB000C4F21B31A0FB01014FF0FF3000EB91416B
:100BC00042F624500022C2F20000C4F2010240F2B8
:100BD000E733C0E90021C0E90243046101F074F881
:100BE00010B1012006B010BD42F62450C2F2000040
:100BF00001F09AF806B010BD82B0002043F6400123
:100C00000190C4F202014A6842F480424A604A6894
:100C100002F480420192019A0090086840F08050EE
:100C20000860086800F080500090009802B070479B
:100C3000002848BF704700F01F01012202FA01F1AD
:100C40004EF200124009CEF2000242F82010704726
:100C500010B54EF60C5CCEF2000CDCF80030C3F39D
:100C6000022E8EF00704042C28BF0424BEF10303D7
:100C70004FF0FF3E0EFA04F438BF0023A143994021
:100C80000EFA03F39A4300F00F03043B114363444D
:100C900009010C3300F16042B0F1FF3FC8BF02F51B
:100CA0006443197010BD00004EF60C51CEF20001E5
:100CB0000A684FF6FF031A4060F30A2242F0806090
:100CC00040F0FD70086070472DE9F041002800F009
:100CD0008B8043F60808C4F202080446D8F8F803EB
:100CE0000D4600F00F00884207D288F8F853D8F874
:100CF000F80300F00F00A84276D12068810717D5CD
:100D0000410705D5D8F8001041F4E051C8F80010AB
:100D1000010705D5D8F8001041F46041C8F800106B
:100D2000D8F80010A26821F0F0011143C8F80010B3
:100D3000C0073FD1D8F8F80300F00F00A84207D948
:100D400088F8F853D8F8F80300F00F00A8424BD108
:100D50002068410707D5D8F80010E26821F4E05177
:100D60001143C8F80010000708D5D8F80000216921
:100D700020F4604040EAC100C8F8000000F09CF890
:100D8000D8F800104BF64202C1F30311C0F600027E
:100D9000515C40F2084220FA01F140F20400C2F234
:100DA00000000068C2F200021160FFF7DFFE0020C1
:100DB000BDE8F0816068811E022907D258F8081C3E
:100DC00089015CBF0120BDE8F08110E0012807D156
:100DD00058F8081C89035CBF0120BDE8F08106E0DB
:100DE00058F8081C890702D40120BDE8F081D8F822
:100DF000001021F003010843C8F80000FFF786FE49
:100E0000064641F2883700BFD8F80000616800F05C
:100E10000C00B0EB810F8DD0FFF778FE801BB8423D
:100E2000F2D90320BDE8F0810F22026043F60802E8
:100E3000C4F20202136803F003034360136803F073
:100E4000F0038360136803F4E053C360D2F800C07A
:100E50004FF4E05303EADC030361D2F8F80300F037
:100E60000F0008607047000040F2084043F6080198
:100E7000C2F20000C4F20201006809684BF6520297
:100E8000C1F38221C0F60002515CC84070470000E7
:100E900040F2084043F60801C2F20000C4F2020129
:100EA000006809684BF65202C1F34231C0F60002F5
:100EB000515CC8407047000010B543F60404C4F20A
:100EC0000204606800F00C0008280AD0042819BF4A
:100ED00042F20040C0F2F40047F64000C0F27D103C
:100EE00010BD206821682368490247F64001C0F21E
:100EF0007D1100F03F02C3F388105CBF42F2004155
:100F0000C0F2F401A1FB00010023FFF70DFB2168F3
:100F10000222C1F3014102EB4101B0FBF1F010BD2F
:100F20002DE9F04182B0002868D00446007843F6ED
:100F30000006C007C4F202060BD0B06800F00C0037
:100F4000042840F0A0803068800302D56068002843
:100F500054D0207880071AD5B06810F00C0F09D053
:100F6000B06800F00C00082840F0B48070684002BF
:100F700000F1B0803068800702D5E06801283DD1DB
:100F80003068216920F0F80040EAC1003060207824
:100F9000000737D4207840074BD4A56955B3B06813
:100FA00000F00C00082840F0DA80012D26D070688F
:100FB000E16900F480028A4220D1216A00F03F02F8
:100FC0008A421BD147F6C071626A0140B1EB821FB1
:100FD00014D1A16A4FF6FF73C903994300F440325C
:100FE000A1F580318A4209D1E16A00F07060B0EB6E
:100FF000016F03D1002002B0BDE8F081012002B0F2
:10100000BDE8F0816069002840F20000C4F247208A
:1010100000F091800121C0F8801EFFF777FD0546A2
:10102000706F8007B6D4FFF771FD401B0228F7D917
:1010300091E0306C4FF00008C0000CD4CDF8048073
:10104000306C4FF0010840F080503064306C00F09C
:1010500080500190019847F20007C4F200073868F9
:10106000C0054DD4386840F480703860FFF74EFDFD
:10107000054600BF3868C00542D4FFF747FD401B56
:101080000228F7D967E0B06800F00C00082803D107
:10109000706840023FF557AF6568B5F5803F07D0EF
:1010A0003068B5F5A02F40F0B38040F48020306068
:1010B000306840F480303060FFF728FD054600BFFF
:1010C000306880033FF545AFFFF720FD401B6428E3
:1010D000F6D940E0E068002864D00020C4F2472040
:1010E00001210160FFF712FD054600BF306880074F
:1010F0003FF546AFFFF70AFD401B0228F6D92AE06C
:10110000A568012D05D0306F052D5FD140F004009A
:101110003067306F40F001003067FFF7F7FC05469D
:1011200041F28837306F800769D4FFF7EFFC401B2E
:10113000B842F7D90FE00021C0F8801EFFF7E6FCA7
:10114000054600BF706F80077FF524AFFFF7DEFC18
:10115000401B0228F6D9032002B0BDE8F081002729
:10116000C4F2472700203866FFF7D0FC022D054661
:101170000CD100BF3068800164D5FFF7C7FC401B6D
:1011800002284FF00300F5D935E700BF3068800131
:101190007FF530AFFFF7BAFC401B02284FF0030089
:1011A000F4D928E70020C4F2472000210160FFF7AE
:1011B000ADFC0546306880077FF5E9AEFFF7A6FC79
:1011C000401B02284FF00300F4D914E720F001007F
:1011D0003067306F20F004003067FFF797FC002D78
:1011E00005469DD141F28837306F800707D5FFF75C
:1011F0008DFC401BB8424FF00300F5D9FBE6B8F177
:10120000000F3FF4CAAE306C20F080503064C4E66A
:1012100020F480303060306820F480203060FFF7A8
:1012200075FC002D05467FF44BAF07E0FFF76EFC21
:10123000401B64284FF003003FF6DDAE30688003AA
:10124000F4D486E604F11C052FCD084340EA821051
:10125000D9034FF6FF729143A1F5803140EA056052
:101260000843706001203866FFF750FC044600BF59
:10127000306880013FF5BEAEFFF748FC001B022836
:101280004FF00300F4D9B6E62DE9F04186B00446EC
:10129000032084F83400606C8846032822D14FF084
:1012A0008050A16B40F2FF560843A063A06BC0F2D0
:1012B000400600283ED020680125866384F834501B
:1012C0004FF4007101F08AFD28B1216801258E6379
:1012D000A16B0843A0630121284684F8341006B0AE
:1012E000BDE8F081B8F1000F36D0B8F5805FD6D0F8
:1012F000B8F5006F46D100212068059104910021C6
:1013000001F0EAFC800140D404A9204602F0A6F8CE
:101310000028C6D19DF81600400730D5216D206801
:10132000090401F005FD0028BBD12068022101F06D
:1013300061FDB6E794E80F00D4E90557CDE90085D3
:10134000029701F0CDFC206800254FF4007101F0F8
:1013500045FD0028B9D1BEE7002120680591049120
:10136000002101F0B9FC80010FD404A9204602F04D
:1013700075F8002895D19DF81600C00708D14FF0E8
:1013800080608EE74FF000608BE74FF4006088E7E5
:10139000216D2068090401F0CBFC00287FF481AFA7
:1013A0002068002101F026FD7BE7000080B5D0E930
:1013B000193ED0F844C09A0F0A70C3F383624A7092
:1013C000C3F301628A701A0CCA701A0A0A714FEAD2
:1013D0001E524B71CA80CEF303420A72CEF3C03262
:1013E0004A72CEF380328A72CEF34032CA72CEF3A2
:1013F00000320A730022BCF1010F4A7335D0BCF1F0
:10140000000F40F0868040F6FC72C36E02EA8E0246
:1014100042EA93720A61C26EC2F3C2630B75C2F3F1
:1014200002634B75C2F342538B75C2F38243CB7593
:10143000C2F3C2330B76D1F810C00B7E0CF1010C55
:1014400003F0070302330CFA03FCC0F854C00B7A14
:1014500003F00F0E012303FA0EF383655B0A03FB0F
:101460000CF3C3654FF4007311E0B0F86E200EF07A
:101470003F0342EA03420A610A694FF4806303EBC7
:1014800082224FF40073C0E91523C265C26E036661
:10149000C2F380334B76C2F3C61302F07F028B7621
:1014A000CA76006FC20F0A77C0F341724A77C0F361
:1014B00082628A77C0F38352CA77C0F3405281F8C0
:1014C0002020002281F82120C0F3004381F822303F
:1014D000C0F3C03381F82330C0F3803381F8243067
:1014E000C0F3403381F82530C0F3003381F8263053
:1014F000C0F3812381F82730C0F30123C0B2400834
:1015000081F8283081F82900012081F82A0010464E
:1015100080BD016840F2FF52C0F240028A63816BD5
:10152000012241F08051816380F83420104680BD53
:1015300010B5016D04460068090401F0BDFD20B13D
:10154000A16B0843A063002010BD2068002101F0BA
:10155000C3FBC0F3432010BD10B5D0B1044690F8D2
:10156000340020B900202077204600F01FF9032026
:1015700084F83400204600F00FF800284FF00100F6
:1015800018BF10BD0021A163216384F8340000203E
:1015900010BD012010BD0000F0B58FB004460068FA
:1015A0007621002602910021002200230096019658
:1015B00001F096FB4FF0010510B128460FB0F0BDC9
:1015C00048F2A007C4F225273E60206801F09EFB88
:1015D0003D600496206801F019FC40B1012584F8B3
:1015E0003450A16B0843A06328460FB0F0BD2068BB
:1015F00001F03CFC50B120680021A16401F006FC20
:101600000028EBD1A06C012802D009E00120A064E1
:101610002068002101F08CFB10B14FF08050DDE715
:1016200004984FF6FE71884220D80025CCF21015A0
:101630004FF6FF762068002101F07AFB0028CDD11B
:101640002068294601F080FB0028E6D120680021AF
:1016500001F042FB0499002801F101010491049971
:1016600001D4B142E6D3C0F3807000E000200499B9
:101670004FF6FF72914202D34FF08070AEE7606484
:1016800020680125ADF80E5001F022FB88B1606C96
:10169000032811D12068042101F01EFB000DE06435
:1016A00004A92046FFF782FE002853D04FF0805057
:1016B00095E74FF0806092E7206801F04FFC00282A
:1016C0007FF48DAF2068002101F006FB2168606780
:1016D0000846042101F000FB2168A06708460821A4
:1016E00001F0FAFA2168E06708460C2101F0F4FAEB
:1016F000616CC4F880000329CCD020680DF10E0184
:1017000001F0E6FC00287FF46AAF606C0328C1D0CA
:10171000BDF80E1020682165090401F06FFC002857
:101720007FF45DAF2068002101F0D6FA2168606681
:101730000846042101F0D0FA2168A0660846082175
:1017400001F0CAFA2168E06608460C2101F0C4FAEB
:1017500020679FE7216D20680A04002301F0F2FB57
:1017600000287FF43CAF94E88F00D4E90565CDE90B
:101770000076029501F0B4FA20684FF4007101F090
:101780002DFB70B1216840F2FF52C0F240028A6323
:10179000A16B01250843A06384F8345028460FB09C
:1017A000F0BD002528460FB0F0BD00002DE9F04344
:1017B00087B000260696CDE9046642F6004500682B
:1017C000C4F20105A8420396029602D007B0BDE814
:1017D000F08343F630000196C4F20200416902AC86
:1017E00041F40061416141694FF0020801F4006178
:1017F00001910199019601684FF0030941F004013C
:10180000016001680C2701F0040101910199019622
:10181000016841F0080101600068214600F00800FD
:10182000019001984FF4F850029005F55C40CDE925
:101830000386CDF814900697FFF784F80420CDE9CD
:10184000020805F560402146CDE904690697FFF7D7
:1018500079F807B0BDE8F0832DE9F04786B01F4660
:1018600016460D460446FFF751F995B1804694F8A7
:101870003400012815D10021A163E06DBA1982421C
:1018800017D9A06B40F00070A063012006B0BDE83E
:10189000F087A06B40F00060A063012006B0BDE8B7
:1018A000F087A06B40F00050A063012006B0BDE8B7
:1018B000F087032084F83400626C2068012A4FF01E
:1018C000FF32C16218BF760200927A020192902222
:1018D0004FF002090292CDE903914FF0010A6946E7
:1018E000CDF814A001F0E0F9022F17D3C4F830901E
:1018F0002068314601F00EFBC0B1216840F2FF5272
:10190000C0F240028A63A16B0843A063012000215A
:1019100084F83400216306B0BDE8F087C4F830A035
:101920002068314601F002FB0028E6D1DDF838904E
:10193000019E40F22A3A05E0FFF7E8F8A0EB080024
:10194000484541D22068426B416B12EA0A0F26D10A
:10195000002E18BF11F40041EED001F0DFF928602D
:10196000206801F0DBF96860206801F0D7F9A86011
:10197000206801F0D3F9E860206801F0CFF9286110
:10198000206801F0CBF96861206801F0C7F9A8610F
:10199000206801F0C3F9E8612035203ECCE7022F32
:1019A00025D311F4807122D0616C03291FD001F07E
:1019B000F9FB01462068D1B140F2FF52C0F240026B
:1019C0008263A06B0843A0E7206840F2FF51C0F299
:1019D00040018163A06B40F00040A063012084F8C7
:1019E000340000202063032006B0BDE8F087416B7F
:1019F000090715D4416B89071BD4416B890621D493
:101A0000416B002E18BF11F4001124D140F23A515D
:101A10008163012084F83400002006B0BDE8F0871F
:101A200040F2FF51C0F240018163A06B40F008001A
:101A30006BE740F2FF51C0F240018163A06B40F0C0
:101A4000020062E740F2FF51C0F240018163A06BE7
:101A500040F0200059E7043E01F060F92860FFF7EC
:101A600055F8A0EB080048450BD22068002E416BCA
:101A7000CCD011F40011A6F1040605F10405EBD158
:101A8000C4E7206840F2FF51C0F240018163A06BBF
:101A900040F0004039E700002DE9F04F87B098464C
:101AA00015460E460446FFF731F89EB1824694F87B
:101AB0003400012816D10021A163E06D08EB050276
:101AC000824217D9A06B40F00070A063012007B0DC
:101AD000BDE8F08FA06B40F00060A063012007B06C
:101AE000BDE8F08FA06B40F00050A063012007B06C
:101AF000BDE8F08F032084F83400626C2068012A6E
:101B00004FF0FF32C16218BF6D0201924FEA4822C6
:101B100002929022CDE9032105910121069101A9AC
:101B200001F0C2F8B8F1020F17D32020206320681B
:101B3000294601F047FBC0B1216840F2FF52C0F2D4
:101B400040028A63A16B0843A0630120002184F84E
:101B50003400216307B0BDE8F08F102020632068B7
:101B6000294601F03BFB0028E6D1DDF84090029FBA
:101B700040F21A3B6D4605E0FEF7C8FFA0EB0A00F5
:101B800048455ED22068426B416B12EA0B0F42D18E
:101B9000002F18BF11F48041EED031780091727897
:101BA00041EA02210091B27841EA02410091F278C3
:101BB00041EA02610091294601F0B4F87168206899
:101BC0000091294601F0AEF8B168206800912946DD
:101BD00001F0A8F8F16820680091294601F0A2F808
:101BE000316920680091294601F09CF871692068EC
:101BF0000091294601F096F8B169206800912946C4
:101C000001F090F8F069294600902068203601F034
:101C100089F8203FB0E7B8F1020F23D311F48071A7
:101C200020D0616C03291DD001F0BCFA0146206868
:101C3000C1B140F2FF52C0F240028263A06B084380
:101C400082E7206840F2FF51C0F240018163A06B3F
:101C5000A063012084F8340000202063032007B033
:101C6000BDE8F08F416B09070FD4416B890715D48C
:101C7000416BC9061BD440F23A518163012084F8BC
:101C80003400002007B0BDE8F08F40F2FF51C0F2F1
:101C900040018163A06B40F0080055E740F2FF511E
:101CA000C0F240018163A06B40F002004CE740F2BB
:101CB000FF51C0F240018163A06B40F0100043E788
:101CC0007047000070470000002804BF01207047E3
:101CD00010B5044690F83D0028B9002084F83C0077
:101CE000204600F01FF8022084F83D002068211DE6
:101CF00001F028FD012084F8460084F83E0084F8B5
:101D00003F0084F8400084F8410084F8420084F8E1
:101D1000430084F8440084F8450084F83D00002026
:101D200010BD00007047000090F83D1001291CBF55
:101D300001207047022180F83D10006841F2FF72D7
:101D4000C168C4F20002904241F00101C1600DDCA3
:101D500040F2FF71C4F20001884215DCB0F1804FFF
:101D600029D040F20041C4F2000122E040F2FF31EC
:101D7000C4F20101884212DC41F60001C4F2000104
:101D8000884218D0002112E040F60001C4F20001A0
:101D9000884210D040F60041C4F2000109E044F24C
:101DA0000001C4F20101884205D040F20041C4F2B2
:101DB0000101884206D1816801F00701062904BFAC
:101DC00000207047016841F0010101600020704768
:101DD0007047000010B5016804460869800744BFD9
:101DE000C8685FEA807038D40869400744BFC86893
:101DF0005FEA40703DD40869000744BFC8685FEAE5
:101E0000007043D40869C00644BFC8685FEAC06078
:101E100048D40869C0071CBFC8685FEAC0704ED1CB
:101E20000869000644BFC8685FEA00604FD40869CB
:101E3000400644BFC8685FEA406050D40869800625
:101E400046BFC8685FEA806010BD6FF02002204680
:101E50000A61BDE81040FFF735BF6FF0020008616E
:101E6000012020778869800741D02046FFF7B0FF26
:101E700043E06FF00400086102202077886910F4C5
:101E8000407F3ED02046FFF7A3FF40E06FF0080000
:101E9000086104202077C86980073CD02046FFF7FE
:101EA00097FF3EE06FF01000086108202077C869B6
:101EB00010F4407F39D02046FFF78AFF3BE06FF0F7
:101EC00001000861204600F03FF82168A8E76FF0A4
:101ED000800008612046FFF7F3FE2168A7E76FF056
:101EE00040000861204600F039F82168A6E7204646
:101EF00000F026F8204600F025F821680020207721
:101F000072E7204600F01CF8204600F01BF821681C
:101F1000002020776FE7204600F012F8204600F0FE
:101F200011F82168002020776CE7204600F008F8BF
:101F3000204600F007F821680020207769E70000BC
:101F4000704700007047000000680021C4F20101E2
:101F5000884208BFFEF7E0BD7047000070470000F0
:101F60007047000070470000F0B581B0044600687B
:101F70000168C268456901F02F03202B02F020039D
:101F800006D12BB1204601B0BDE8F04001F002BD02
:101F90005FEA017C07D005F0010E12F4907F8EF00D
:101FA00001052FD175B3236B1140CA0618D5012B3B
:101FB00016D10021009101680091416800910099BB
:101FC0004169490600F18281A18DE28DE38D002BEC
:101FD0001CBF891A5FEA014240F0FD8001B0F0BDEC
:101FE0000A0600F12B824906F8D5C16821F04001AC
:101FF000C1602021204684F83D1001B0BDE8F040CA
:1020000000F042BCCE0718BF12F4807603D0266CD5
:1020100046F00106266401F00407012686EA9707C8
:102020002F4303D1276C47F00207276401F0020712
:1020300086EA5706354303D1256C45F0040525642F
:1020400053EA0E0318BF0123BCF1000F04D51BB1E6
:10205000236C43F008032364236C002BBED0114093
:10206000890603D5204601F095FC20684169226C61
:1020700001F0400102F00802891800F0F08100BF71
:1020800050E8030F216820F4907041E80302C2B3C6
:10209000206850E8030F216820F4907041E80302A3
:1020A0007AB3206850E8030F216820F4907041E86B
:1020B000030232B3206850E8030F216820F49070C7
:1020C00041E80302EAB12068DAE700BF206850E87F
:1020D000050F216820F0010041E80502DAB120680F
:1020E00050E8050F216820F0010041E8050292B197
:1020F000206850E8050F216820F0010041E8050242
:102100004AB1206850E8050F216820F0010041E83D
:102110000502002ADAD1206B012824D1206850E87A
:10212000030F216820F0100041E80302DAB12068B3
:1021300050E8030F216820F0100041E8030292B13B
:10214000206850E8030F216820F0100041E80302E6
:102150004AB1206850E8030F216820F0100041E8E0
:102160000302002ADAD1202084F83E0000202063F8
:1021700020684169490640F18B8150E8050F2168CC
:1021800020F0400041E80502002A00F06F8120683D
:1021900050E8050F216820F0400041E80502002AC0
:1021A00000F06481206850E8050F216820F04000AD
:1021B00041E80502002A00F05981206850E8050F27
:1021C000216820F0400041E80502002A00F04E811D
:1021D0002068D2E7206850E8030F226820F490704E
:1021E00042E80303BBB3206850E8030F226820F4E1
:1021F000907042E8030373B3206850E8030F22682D
:1022000020F4907042E803032BB3206850E8030FDA
:10221000226820F4907042E80303002BDAD11AE020
:10222000206850E8050F226820F0010042E805030D
:10223000DBB1206850E8050F226820F0010042E879
:10224000050393B1206850E8050F226820F00100D3
:1022500042E805034BB1206850E8050F226820F0E2
:10226000010042E80503002BDAD1202084F83E006B
:1022700000202063206850E8030F226820F010003F
:1022800042E80303DBB1206850E8030F226820F026
:10229000100042E8030393B1206850E8030F22685E
:1022A00020F0100042E803034BB1206850E8030F10
:1022B000226820F0100042E80303002BDAD189B233
:1022C000204601B0BDE8F040FFF74ABEA26B11689E
:1022D0004B689EB2002E3FF481AEA18D8E42BFF4BA
:1022E0007DAEE385D269B2F5807F00F09E8050E834
:1022F000030F216820F4807041E80302E2B12068F6
:1023000050E8030F216820F4807041E803029AB17D
:10231000206850E8030F216820F4807041E8030230
:1023200052B1206850E8030F216820F4807041E822
:1023300003020AB12068DAE7206850E8050F216837
:1023400020F0010041E80502BAB3206850E8050F0B
:10235000216820F0010041E8050272B3206850E8CE
:10236000050F216820F0010041E805022AB320682A
:1023700050E8050F216820F0010041E80502002A1D
:10238000DAD11AE0206850E8050F216820F04000FB
:1023900041E80502DAB1206850E8050F216820F015
:1023A000400041E8050292B1206850E8050F21681D
:1023B00020F0400041E805024AB1206850E8050FCE
:1023C000216820F0400041E80502002ADAD12020EF
:1023D00084F83E0000202063206850E8030F216845
:1023E00020F0100041E80302DAB1206850E8030F42
:1023F000216820F0100041E8030292B1206850E803
:10240000030F216820F0100041E803024AB1206860
:1024100050E8030F216820F0100041E80302002A71
:10242000DAD1A06BFEF720FAA18DE08D081A81B2F7
:10243000204601B0BDE8F040FFF792BD94F83D1092
:1024400021297FF4CBADA168B1F5805F01D121696D
:1024500021B3216A4A1C22620978416025E02046A6
:10246000FFF780FD0020206401B0F0BDA06B78B1C3
:1024700043F68911C0F600010165FEF73DFA002818
:102480003FF4ACADA06B016D01B0BDE8F040084772
:10249000204601B0BDE8F040FFF764BD216A31F885
:1024A000022B6FF35F2242602162E18C01390A0442
:1024B000E1847FF493ADC16821F08001C160C168FF
:1024C00041F04001C16001B0F0BD0000002804BF30
:1024D0000120704710B5044690F83D0028B900204F
:1024E00084F83C00204600F021F8242084F83D00C8
:1024F0002068C16821F40051C160204601F0C8FA8B
:102500002068016921F490410161416921F02A01AB
:102510004161C16841F40051C16000202021206464
:1025200084F83D1084F83E1010BD000080B586B0E0
:1025300000220592CDE9032241F200010068C4F2B5
:10254000010188420292019201D006B080BD43F69B
:1025500030000092C4F20200436943F0100343616B
:10256000436903F010030093009B0092036843F05B
:1025700001030360006800F00100009000984FF430
:10258000C06001900220CDE90202032004900720E0
:10259000059001F5704001A9FEF7D4F9252000212E
:1025A0000022FEF755FB2520FEF742FB06B080BD5A
:1025B000704700002DE9F04381B0044690F83D00DB
:1025C00020280DD10F4600294FF0010000F0EC80CB
:1025D0001646002A00F0E88094F83C00012803D158
:1025E000022001B0BDE8F083012084F83C004FF0E8
:1025F000000921201D46C4F8409084F83D00FEF7F4
:1026000085FAA684E684A1688046B1F5805F07D18B
:10261000206900281CBF38464F463E46074600E06A
:10262000002684F83C90E28C2068016812B36A1C92
:1026300047D0002D00F0C98009060AD4FEF766FADB
:10264000A0EB0800A84200F2C780206801680906D4
:10265000F4D517B117F8011B04E036F8021B002768
:102660006FF35F214160E18C0139E184E28C016804
:10267000002AE1D1490610D4002D41D0691C39D17E
:10268000016849065CBF01685FEA416105D40168E1
:10269000490602D401684906F2D5202084F83D009D
:1026A000002001B0BDE8F08336F8021B00276FF36D
:1026B0005F214160E18C0139E184E28C0168002AEC
:1026C000D8D009065FBF01685FEA016101685FEA6F
:1026D000016105D40168090602D40168F1E700BF71
:1026E000002FE1D017F8011BE3E700BF2068006866
:1026F0004006D2D4FEF70AFAA0EB0800A842F5D9AA
:10270000206850E8030F216820F4D07041E80302EC
:10271000BAB3206850E8030F216820F4D07041E874
:10272000030272B3206850E8030F216820F4D070D0
:1027300041E803022AB3206850E8030F216820F41F
:10274000D07041E80302002ADAD11AE0206850E88C
:10275000050F216820F0010041E80502DAB1206888
:1027600050E8050F216820F0010041E8050292B110
:10277000206850E8050F216820F0010041E80502BB
:102780004AB1206850E8050F216820F0010041E8B7
:102790000502002ADAD1202084F83D0084F83E00AA
:1027A000002084F83C00032001B0BDE8F08336F837
:1027B000021B00276FF35F214160E18C0139E18446
:1027C000E28C0168002A3FF455AF090604D5002FBA
:1027D000EDD017F8011BEFE7206850E8030F2168E0
:1027E00020F4D07041E80302BAB3206850E8030F28
:1027F000216820F4D07041E8030272B3206850E8E9
:10280000030F216820F4D07041E803022AB3206846
:1028100050E8030F216820F4D07041E80302002A39
:10282000DAD11AE0206850E8050F216820F0010095
:1028300041E80502DAB1206850E8050F216820F070
:10284000010041E8050292B1206850E8050F2168B7
:1028500020F0010041E805024AB1206850E8050F68
:10286000216820F0010041E80502002ADAD1202089
:1028700084F83D0084F83E00002084F83C000320EA
:1028800001B0BDE8F083000070470000FEE70000E3
:1028900040F21060C2F20000016801310160FBE704
:1028A00080B588B040F2C4601F224FF40073C2F2BA
:1028B00000004FF0010E0021CDE90003CDE9022216
:1028C00040F2146042F691024FF0B00CCDE9041EC4
:1028D000C2F2000004A1C0F600020023CDF818C027
:1028E00008F058FE08B080BD49444C45205461733F
:1028F0006B00000040F60044C4F2020404F5406599
:10290000284680210022FEF7FBF820464FF4805134
:102910000122FEF7F5F81E2008F070F82846802105
:102920000122FEF7EDF820464FF480510022FEF719
:10293000E7F81E2008F062F8E2E7000080B588B0F2
:1029400040F6741003224FF48063C2F200004FF08F
:10295000010E0021CDE90003CDE9022240F6C400BA
:1029600042F6F5024FF0B00CCDE9041EC2F20000B1
:1029700004A1C0F600020023CDF818C008F00AFE3A
:1029800008B080BD4C4544205461736B00000000CA
:1029900080B542F6A04042F60041C2F20000C4F207
:1029A00001010022C0E90012C0E90222C0E90422AC
:1029B0008261FEF7D1FD20B1EFF3108072B600BF47
:1029C000FEE742F6A040C2F200004FF40061FEF7BD
:1029D0005BFC002808BF80BDEFF3108072B600BF1B
:1029E000FEE7000007F092BBFEE70000FEE70000F4
:1029F000F0B583B040F2D0470C46C2F2000705465E
:102A0000002607F1340001A922460023CDE9016622
:102A100008F096FC019829462246FDF71CFE381D59
:102A200002A9002208F09CFBDDE901010860029880
:102A30003A684460866000BF936811464BB19A685B
:102A4000194632B1936811461BB19A681946002A9B
:102A5000F2D1886003B0F0BD2DE9F04F85B00029B8
:102A600000F0EB804A1E41F2745B01F00304032A7C
:102A7000C2F2000B04D20023002C40F08980DCE07D
:102A8000CDE90041611A00F101086FF0030E002545
:102A90004FF037094FF0200A029000BF08EB0E04F8
:102AA000E6780EF1040E09EB16123709A02E38BF96
:102AB00007F130020BF80520E27802F00F0202F174
:102AC00037060A2A38BF02F1300645F001020BF83A
:102AD000026045F002020BF802A022790BEB05061A
:102AE00009EB121C1709A02A38BF07F1300C86F831
:102AF00003C0227902F00F0202F137070A2A38BF19
:102B000002F13007377186F805A0627909EB1213DC
:102B10001709A02A38BF07F13003B3716279AF1DDE
:102B200002F00F0202F137030A2A38BF02F1300324
:102B300047F001020BF8023007EB0B0282F802A00B
:102B4000A27909EB12171309A02A38BF03F1300745
:102B50007772A27905F1090702F00F0202F137033B
:102B60000A2A38BF02F1300307EB0B02537047F01B
:102B700002020BF802A001EB0E02043205F10C0573
:102B80008CD10298DDE900410EF10403002C54D0F1
:102B9000C55C37262A0906EB1517A02D03EB430564
:102BA00038BF02F130070BF80570C25C5D4402F0DB
:102BB0000F0202F137070A2A38BF02F130074FF03F
:102BC000200C012C6F7085F802C036D05F1CC25DEE
:102BD000150906EB1216A02A07EB470238BF05F1CC
:102BE00030060BF80260C65D5A4406F00F0505F189
:102BF00037060A2D38BF05F13006022C567082F8D0
:102C000002C01AD09E1C825D3727130907EB1217EA
:102C1000A02A06EB460238BF03F130070BF802701A
:102C2000805D5A4400F00F0000F137030A2838BFD6
:102C300000F1300320205370907040F2D04601EB39
:102C40004104C2F20006002506F1340003A9224621
:102C50000023CDE9035508F073FB039841F274514A
:102C6000C2F200012246FDF7F6FC301D04A9002245
:102C700008F076FADDE903010860049832684460E0
:102C8000856000BF936811464BB19A68194632B10E
:102C9000936811461BB19A681946002AF2D18860E0
:102CA00005B0BDE8F08F000080B5024691E80950FC
:102CB0005062936208694EEA0C0318434969D36A6B
:102CC000084323F0F70101430020D16280BD0000DA
:102CD000006800F003007047084440697047000036
:102CE00010B58446DDE90240114319432143DDF864
:102CF00010E00843DCF8041047F6FF6240EA0E00DB
:102D0000914301430020CCF8041010BD80B503218D
:102D100001600220FDF702FE002080BDD0F8800097
:102D200070470000096802460020C2F88010704712
:102D30008160C36840F2774161F30B03372141F2B0
:102D40008832C36000F056BA41F0004141F480116E
:102D50008160C16840F2694262F30B01C16040F2D8
:102D60000841C2F20001096844F6D352C1F262027E
:102D7000A1FB0212510A6FF0030241F2883301FBFA
:102D8000132100BF043124D0426B12F0450F02D052
:102D900012F4006214D0426B12F0450F02D012F40C
:102DA00000620DD0426B12F0450F02D012F40062A7
:102DB00006D0426B12F0450FE4D012F40062E1D16C
:102DC000416B042211F0040108BFC522826308464A
:102DD00070474FF000410846704700008160C368AB
:102DE0004FF48A6161F30B03102141F28832C36012
:102DF00000F000BA8160C36840F2464161F30B0302
:102E0000062141F28832C36000F0F4B900218160EC
:102E1000C1684FF4806262F30B01C16040F2084167
:102E2000C2F20001096844F6D352C1F26202A1FB6A
:102E30000212510A6FF0030241F2883301FB1321A1
:102E4000043104BF4FF000407047426B120609D4B2
:102E5000426B12065CBF426B5FEA026202D4426BB5
:102E60001206EDD5C5218163002070474FF4D5715E
:102E70008160C1684FF4896262F30B01C16040F266
:102E80000841C2F20001096844F6D352C1F262025D
:102E9000A1FB0212510A6FF0030241F2883301FBD9
:102EA000132100BF04312DD0426B12F0450F02D028
:102EB00012F4006214D0426B12F0450F02D012F4EB
:102EC00000620DD0426B12F0450F02D012F4006286
:102ED00006D0426B12F0450FE4D012F40062E1D14B
:102EE000416B49070AD4416BC9070FD1416B4906B1
:102EF00044BF40218163002108467047042181635B
:102F0000084670474FF00041084670470121816331
:102F1000084670478160C36840F2524161F30B0379
:102F2000122141F28832C36000F064B98160C36845
:102F300040F2514161F30B03112141F28832C36029
:102F400000F058B98260C36840F2474161F30B0357
:102F5000072141F28832C36000F04CB90021816042
:102F6000C16840F2C24262F30B01C16040F2084105
:102F7000C2F20001096844F6D352C1F26202A1FB19
:102F80000212510A6FF0030241F2883301FB132150
:102F900004312AD0426B12F0450F02D012F40062C5
:102FA00014D0426B12F0450F02D012F400620DD023
:102FB000426B12F0450F02D012F4006206D0426B51
:102FC00012F0450FE4D012F40062E1D1416B4907E1
:102FD00007D4416BC9070CD1C52181630021084684
:102FE000704704218163084670474FF0004108464E
:102FF0007047012181630846704700008160C16805
:1030000040F2C94262F30B01C16040F20841C2F2D2
:103010000001096844F6D352C1F26202A1FB021218
:10302000510A6FF0030241F2883301FB132100BF04
:1030300004312AD0426B12F0450F02D012F4006224
:1030400014D0426B12F0450F02D012F400620DD082
:10305000426B12F0450F02D012F4006206D0426BB0
:1030600012F0450FE4D012F40062E1D1416B490740
:1030700007D4416BC9070CD1C521816300210846E3
:10308000704704218163084670474FF000410846AD
:10309000704701218163084670470000002181606C
:1030A000C36840F2734161F30B03332141F288326C
:1030B000C36000F09FB800008160C36840F24D41DA
:1030C00061F30B030D2141F28832C36000F092B826
:1030D00000228260C26840F2434363F30B02C26085
:1030E00040F20842C2F20002126844F6D353C1F221
:1030F0006203A2FB03235A0A6FF0030C41F28833E8
:1031000002FB13C2043240D0436B13F0450F02D0D0
:1031100013F4006314D0436B13F0450F02D013F483
:1031200000630DD0436B13F0450F02D013F400631E
:1031300006D0436B13F0450FE4D013F40063E1D1E4
:10314000426B52071DD4426BD20722D10269D2B220
:10315000032A1EBF012108467047C52282634069C9
:1031600010F4604F19D0410442BF4FF4005108469B
:10317000704700044FF4805158BF4FF48031084627
:10318000704704218163084670474FF000410846AC
:1031900070470121816308467047000C08800021B8
:1031A0000846704700218160C36840F24C414EF2EE
:1031B000001261F30B03C0F2F5520C21C36000F062
:1031C00019B800008160C36840F2594161F30B03F4
:1031D000192141F28832C36000F00CB88160C368E5
:1031E0004FF48B6161F30B03182141F28832C36005
:1031F000AFF3008040F20843C2F20003D3F800C0EE
:1032000044F6D353C1F26203ACFB033C03464FEADE
:103210005C205043002804BF4FF0004070475A6BB9
:1032200012F0450F02D012F400621DD0012800F008
:1032300092805A6B12F0450F02D012F4006213D044
:10324000022800F088805A6B12F0450F02D012F469
:10325000006209D00438421C7DD05A6B12F0450F31
:10326000D8D012F40062D5D1586B400742BF042079
:1032700098637047586BC0071EBF01209863704762
:10328000C52098631869C0B288421CBF01207047EE
:1032900058694EF20801CFF6FF51084204BF0020E2
:1032A0007047002844BF4FF000707047410044BF92
:1032B00040207047810044BF80207047C10044BF58
:1032C0004FF480707047010144BF4FF400707047A5
:1032D000410144BF4FF480607047C10144BF4FF4C7
:1032E00000607047010244BF4FF4805070474102B4
:1032F00044BF4FF400507047810244BF4FF48040F8
:103300007047C10244BF4FF400407047410344BFBF
:103310004FF400307047810344BF4FF48020704762
:10332000C10344BF4FF400207047010444BF4FF471
:1033300080107047410444BF4FF40010704781046F
:1033400044BF4FF48000704700074FF4000058BF9F
:103350004FF4803070474FF00040704784B004F065
:1033600043FA42F6B05143F6B0544FF48050C2F2E3
:103370000001C2F2000447F23D7242F2B847CDE9C3
:1033800000101EA1C0F6000220460023029706F09E
:1033900099FA46F268274BF68305C2F20007C0F699
:1033A000000538602046294606F0A6F942F6C026F8
:1033B000C2F2000638604FF4F07C204631462A46BF
:1033C0000123CDF800C006F0BBF940F20805C2F2B7
:1033D000000538602846FDF71FF9024630462946A9
:1033E00006F024FA3860304606F064F9386020466A
:1033F00006F046FA386000BFFEE700BF53544D3375
:10340000325F5344494F5F4449534B0080B588B005
:1034100041F2A47003224FF48063C2F200004FF027
:10342000010E0021CDE90003CDE9022241F2F46052
:1034300043F25D324FF0B00CCDE9041EC2F2000041
:1034400004A1C0F600020023CDF818C008F0A2F8CD
:1034500008B080BD5344205461736B002DE9F041E6
:1034600088B00C460546FDF751FB0646002128684A
:10347000019100910821FFF7B1FC10B108B0BDE83F
:10348000F081296D28680904FFF752FC0028F5D166
:103490004FF0FF300290082003903020049002206B
:1034A00005900020069001212868079102A9FFF7E6
:1034B000FBFB2868FFF7F2FD0028DFD10027E84674
:1034C0000DE000BF0846FFF729FC48F82700013748
:1034D000FDF71CFB801B01304FF00040CED0296867
:1034E000486B10F02A0F05D1486B8002EAD4486B74
:1034F0008004EDD4486B000712D4486B800711D4C8
:10350000486B800610D440F23A508863DDE9001021
:1035100000BA09BAC4E90001002008B0BDE8F08192
:10352000082002E0022000E02020886308B0BDE807
:10353000F081000010B582B042F6A044C2F200044F
:1035400013460A4601464FF00A0C2046CDF800C04B
:10355000FEF782F92046FDF7EBFF0428FAD102B00E
:1035600010BD000010B582B042F6A044C2F20004C3
:1035700013460A4601464FF00A0C2046CDF800C01B
:10358000FEF78AFA2046FDF7D3FF0428FAD102B0ED
:1035900010BD000082B04FF000088DF80780FFF7E3
:1035A0007FF940F21065C2F200052C6864206426A1
:1035B00007F024FA2868041BFFF7C0F900F05EF951
:1035C000FFF724FF0FF248090DF1070A0FF2500B25
:1035D0002F68642007F012FA28680023C01B201A05
:1035E000A0FB060168F1000202FB06112246FCF76F
:1035F0009BFF8DF8070048460E21FFF7F9F950466A
:103600000121FFF729FA58460421FFF7F1F9DFE716
:10361000435055CAB9D3C3C2CAA3BA307800000018
:10362000250D0A0080B588B041F6544002224FF4BF
:103630008063C2F200004FF0010E0021CDE90003CB
:10364000CDE9022241F6A43043F295524FF0B00C7E
:10365000CDE9041EC2F2000004A1C0F6000200235E
:10366000CDF818C007F096FF08B080BD53595354E9
:10367000454D205461736B0070B592B0002443F641
:103680004000CDE90A44CDE908440594CDE903445E
:10369000CDE901440094C4F202000168012241F026
:1036A000805101600068022500F080500090009871
:1036B00047F200000094C4F2000001680F2662F394
:1036C0008F310160006800F44040009000984FF492
:1036D000803007904FF480000D90902006920C955A
:1036E0000E96CDE90F050520119006A8FDF718FCF0
:1036F00018B1EFF3108072B6FEE74FF4A050CDE999
:10370000016504904FF48050059001A803210394B3
:10371000FDF7DAFA18B1EFF3108072B6FEE712B0D7
:1037200070BD00004EF68850CEF20000016841F4F2
:10373000700101607047000042F62450C2F20000A0
:10374000FEF748BB10B540F6FF3E0368C4F2000E1A
:1037500040F2004C7045C4F2010C26DCB0F1804F01
:1037600030D040F20042C4F2000290422AD040F62B
:103770000002C4F20002904224D041F6FF72C4F26B
:103780000002904228DC70453ADCB0F1804F5CD0FA
:1037900040F20042C4F20002904256D040F60002CD
:1037A000C4F20002904250D053E040F60042C4F20E
:1037B0000002904206D0604504D00022C4F201020B
:1037C0009042DAD14A6823F07003134341F6FF7246
:1037D000C4F200029042D6DD43F6FF72C4F2010249
:1037E000904220DC42F20002C4F2000290422CD04F
:1037F0000022C4F20102904227D0604525D028E083
:1038000040F60042C4F2000290421ED041F600028F
:10381000C4F20002904218D041F60042C4F2000205
:10382000904212D015E044F20002C4F2010290422C
:103830000BD044F60002C4F20102904205D044F2DB
:103840000042C4F20102904203D1CA6823F44073DB
:10385000134323F080024B69D1F800E08C681A43CF
:103860000260C46240F48062C0F828E0624504BF90
:10387000096901630121416110BD000080B588B074
:1038800042F204101E224FF48063C2F200004FF097
:10389000010E0021CDE90003CDE9022242F25400DD
:1038A00043F6D1024FF0B00CCDE9041EC2F2000085
:1038B00004A1C0F600020023CDF818C007F06AFE8C
:1038C00008B080BD55415254205461736B00000014
:1038D000ADF5027D40F2D048C2F200084FF480609E
:1038E00008F104044BF65A0140F674533027009057
:1038F000C0F60001C2F2000320460C22019707F037
:1039000061FC41F274154BF66301C2F200053427E5
:1039100008F13400C0F600012A464FF48063009796
:1039200007F054FD204641460022002707F018FC0E
:10393000D8F8000042F66C590560D8F80050C2F281
:10394000000902AEC5E901771AE000BFD7E900120D
:103950003046FCF780FEB968D7E90004A96007F09B
:10396000DFFD384607F0DCFCA2B24846314623466C
:10397000FEF720FE012007F041F8D8F80050AF68AC
:10398000002FE3D10024EFE7806B0021C185C184C3
:10399000FEF7E8BA81B090F83E10222920D1836862
:1039A000B3F5805F08D10169002964D000F12801D6
:1039B0000A6803685B680AE0014651F8282F13B9CA
:1039C0000369002BF5D003685B6803F07F03137075
:1039D0000A6801320A60C18D01390A04C18501D02B
:1039E00001B070470168CA6822F02002CA60CA6844
:1039F00022F48072CA604A6922F001024A612022E0
:103A000080F83E20026B012A3ED10022026300BFF3
:103A100051E8031F026821F0100142E80313016816
:103A2000DBB151E8031F026821F0100142E80313E3
:103A3000016893B151E8031F026821F0100142E8C8
:103A4000031301684BB151E8031F026821F0100114
:103A500042E803130168002BDAD10A68D20606D5C2
:103A6000002200920A680092496800910099818DB5
:103A700001B0FEF775BA0168826A49686FF35F2189
:103A800022F8021B8262A6E701B0FEF791BD00009A
:103A900010B504460068D4E902C22369016921F423
:103AA000405111430161626943EA0C01E36911432A
:103AB000C268194349F20C639A431143C1604169DA
:103AC000A26921F4407141F20043114340F4806245
:103AD000C4F201039A42416102D1FDF7D9F901E034
:103AE000FDF7C2F9E16963681922B1F5004FA0FB47
:103AF00002011FD15A00DB0FFCF716FD48F21F51DF
:103B0000C5F2EB11A0FB01235A096FF0630302FB1E
:103B10000300322303EBC000A0FB01014FF4F87057
:103B200000EA111000EB0210C1F3421122680843B1
:103B3000906010BD9A009B0FFCF7F6FC48F21F51F5
:103B4000C5F2EB11A0FB01235A096FF0630302FBDE
:103B50000300322303EB0010A0FB0101F02000EA78
:103B6000511000EB0210C1F343112268084390602A
:103B700010BD000042F66C50C2F20000FEF7F4B92E
:103B8000FEE700002DE9F04F8DB0054600200C4601
:103B90000C90D5F8680111689A4601304FEA411837
:103BA000C5F868011CB9686E002800F08280D5F85D
:103BB0002890686D00FB09F717B3CDE9062AB8FB1A
:103BC000F7F20A910B922CB3216DE1B1D4F854A015
:103BD000924518D8D4E910C2D4E91636724083EA67
:103BE0000C031A430B9A0ED1A36C226E9A420B9AC5
:103BF00009D1002222650B9A9245089410D331E036
:103C00004FF0020BC2E3616B4FF0000A924508943B
:103C100006D327E0696F4FF0000A9245089421D23D
:103C200042F2A840CDF8248005EB00080CAE00BF9E
:103C30000229C0F03182D8F80000814280F02C8245
:103C4000284632462C4603F001FF002840F02A8225
:103C50000B9A0C990AF1010A92452546E8D3686D42
:103C6000DDF8248002FB17882A6DB8FBF9F68B1E5D
:103C70003244AC6800FB032701204FF0030CCDE970
:103C8000004028463A460023CDF808C00C4605F00F
:103C900033FADDF81CA08346002840F07783CDE995
:103CA0000446A86A0997B8FBF0F101FB10890020CF
:103CB00023E0A86A0A91A96CB8FBF0F00692AA6802
:103CC00008940C1801200321CDE900202846224643
:103CD0000023029105F010FA8346002840F0568335
:103CE000A96CAA6A611A01FB1289002104910021C2
:103CF00000200B91002109940591A968AC4601EBC5
:103D000009060999CAE9101000215046CAF84890DE
:103D1000CAF8181000F8041FF17ADAF800E00F2949
:103D200002D13178E52923D100204FF0010BCAF8E8
:103D3000140000208EF80000317839B3202927D0F4
:103D40002E2914BF002202228EF800100121737860
:103D50002E2B22D0202B28D0002B00F07B82012A92
:103D60001DD12E220EF8012073780131022216E0B7
:103D700001F01F080D2108FB01F1A1F10D02FE2A3F
:103D800024D9CAF818804FF0010B4FE0002196E2C9
:103D90000122002173782E2BDCD102222E230EF873
:103DA00001300131B3783BB954E2002A08BF012247
:103DB000B378002B00F04E822E2B00F07881202B60
:103DC00040F07881002A08BF01227EE14FF0000B0D
:103DD0000EF802B0DAF80030571C13448F4283F813
:103DE00001B038BFFE2A20D2DAF80030971C134405
:103DF00000258F429D7016D2FC2A14D8DAF80030C4
:103E0000D71C134400258F42DD700CD2FB2A0AD840
:103E1000DAF80070131D174400258B423D7102D261
:103E2000FB2A1A46D6D34FF0000B8646089942F279
:103E3000A84000296044039040F0C4800CE05F4635
:103E4000DCF80800002C00EB09060A98BB4600F1DC
:103E500001000A9000F045813078BBF1000F00F0BE
:103E60001F00A0F1010415D0DCF8280009F1200999
:103E70008145E4D3DCF864005F467646B8B3DCF8ED
:103E8000540005990138099A814238D20131013232
:103E9000059154E00D2060434FF0000B01210022FA
:103EA00004E00C211E2901F10201DDD20B2918BF0B
:103EB0001A29F7D00D29F4D08B195B7853B1FF2B59
:103EC00002D1735CFF2B05D0DAF800E04FF0010B54
:103ED000CAF81880735C002BE4D0FF2BE2D01718CF
:103EE000FF2F43D2DAF800500132EB55DAE7DCE974
:103EF0001201099A08440132824220D3CCE004998D
:103F000060460CAA654603F0A1FD002840F0CA8077
:103F10000C990229C0F0C08003980068814280F0AB
:103F2000BB800B980B4601300B90D5E914011A4663
:103F30009A1E01FB0202AC46002004930590DCF8B7
:103F400008000023009001200190032002906046A9
:103F500009924FF000092546644605F0CDF8A446C5
:103F60002C460028B6463FF46BAF9BE0DAF800E041
:103F7000CAF818804FF0010B76E7099A0131013237
:103F80000591DCF808000023009001200190032037
:103F90000290604609924FF00009644605F0ACF8C3
:103FA000A4460028BE467DD1DCF80800C34600EBDD
:103FB00009060798A84600280A9800F101000A900F
:103FC00000F08F803078BBF1000F00F01F00A0F1EF
:103FD000010107912CD0DCF8280009F120094546A1
:103FE000D8468145E0D3DCF854000599013877467E
:103FF0008142C2D3049960460CAA664603F026FDAE
:1040000000284FD10C99022946D3039800688142B9
:1040100042D20B980B4601300B90D6E914011A4698
:104020009A1E01FB02020020B44604930590A8E703
:104030000D2048434FF0000B0121002204E00C2129
:104040001E2901F10201C6D20B2918BF1A29F7D087
:104050000D29F4D08B195B7853B1FF2B02D1735C1F
:10406000FF2B05D0DAF800E04FF0010BCAF81880FA
:10407000735C002BE4D0FF2BE2D01718FE2F04D87E
:10408000DAF800400132E355DAE7DAF800E04FF001
:10409000010BCAF818809EE74FF0080B58460DB088
:1040A000BDE8F08F834658460DB0BDE8F08F022280
:1040B0002E2307E0012A05D12E220EF80120B37825
:1040C000013102220EF801300131F378002B00F0AB
:1040D000C1802E2B0DD0202B0ED1002A08BF01222B
:1040E00015E00120BBF1010FCAF814003FF41CAE2B
:1040F0001FE602222E2307E0012A05D12E220EF808
:104100000120F378013102220EF8013001313379B8
:10411000002B00F09F802E2B05D0202B06D1002AEB
:1041200008BF01220DE002222E2307E0012A05D15B
:104130002E220EF801203379013102220EF80130CF
:1041400001317379002B00F085802E2B05D0202BB8
:1041500006D1002A08BF01220DE002222E2307E02B
:10416000012A05D12E220EF8012073790131022295
:104170000EF801300131B379002B6BD02E2B05D016
:10418000202B06D1002A08BF01220DE002222E2397
:1041900007E0012A05D12E220EF80120B379013162
:1041A00002220EF801300131F379002B52D02E2B70
:1041B00005D0202B06D1002A08BF01220DE00222E3
:1041C0002E2307E0012A05D12E220EF80120F379D3
:1041D000013102220EF801300131337AD3B32E2B94
:1041E00005D0202B05D1002A08BF01220CE02E2388
:1041F00006E0012A04D82E220EF80120337A01317C
:104200000EF8013001310222737A1BB3202B0ED03D
:104210002E2B01D12E2306E0012A04D12E220EF8E6
:104220000120737A01310EF8013001310222B37A94
:10423000002B18BF202B0DD02E2B01D12E2306E0F2
:10424000012A04D12E220EF80120B37A01310EF892
:1042500001300131DAF814309EF800204BB1E52A24
:1042600007D1DAF80020E523137000228EF8002031
:1042700000E022BB3278202A21D120218EF80010C4
:1042800071788EF80110B1788EF80210F1788EF8FE
:10429000031031798EF8041071798EF80510B17918
:1042A0008EF80610F1798EF80710317A8EF8081022
:1042B000717A8EF80910B17A8EF80A100B210EF877
:1042C0000100F07A64468AF81C00307BBBF1000FD5
:1042D0008AF81D0018BF10F008005BD1717B06F151
:1042E0000E008AF81E1003F0A9FBCAF8200006F1A0
:1042F000100003F0A3FBCAF8240006F1120003F03B
:104300009DFB616E4FF0000BCAF8280029B106F141
:10431000140003F093FB000400E00020CAF834000E
:1043200006F1160003F08AFBCAF82C0006F118000B
:1043300003F084FBCAF8300006F11A0003F07EFB9C
:10434000DAF834100844CAF8340006F11C0003F00F
:1043500079FBCAE90E0B0A99CAE9131BCAE915BB16
:10436000CAE917BB089F069801607FB1049B07F15B
:10437000400207CA3B650B9B4FF0000BC7E91530A5
:10438000C7E9171258460DB0BDE8F08F58460DB07A
:10439000BDE8F08F9EF8000000289FD0A0F14101F9
:1043A00019299CBF20308EF800009EF801000028DB
:1043B00094D0A0F1410119299CBF20308EF8010052
:1043C0009EF80200002889D0A0F1410119299CBF64
:1043D00020308EF802009EF8030000283FF47EAFE4
:1043E000A0F1410119299CBF20308EF803009EF8EE
:1043F000040000283FF472AFA0F1410119299CBFCD
:1044000020308EF804009EF8050000283FF466AFC7
:10441000A0F1410119299CBF20308EF805009EF8BB
:10442000060000283FF45AAFA0F1410119299CBFB2
:1044300020308EF806009EF8070000283FF44EAFAB
:10444000A0F1410119299CBF20308EF807009EF889
:10445000080000283FF442AFA0F1410119299CBF98
:1044600020308EF808009EF8090000283FF436AF8F
:10447000A0F1410119299CBF20308EF809009EF857
:104480000A0000283FF42AAFA0F1410119299CBF7E
:1044900020308EF80A009EF80B0000283FF41EAF73
:1044A000A0F1410119299CBF20308EF80B0015E7BF
:1044B0002DE9F04F93B00446D0F86C018B460130E3
:1044C000C4F86C0108680078E52808D19BF804005E
:1044D0000026E52804BF8BF80460012600E00026D2
:1044E000DBE91083206DDBF8481040450C9104D9BE
:1044F00000200E904FF0000909E0616DA8EB00006C
:10450000B0FBF1F202FB110002F102090E90A1686A
:1045100003200122CDE9012020464246009104F00B
:10452000EBFD10B113B0BDE8F08FD4F808C0DBF894
:104530001400DBF8481000280CEB01070D945DD047
:10454000CDE90A96CDF82080DBF8008000240DF13B
:10455000400E4FF00009002600254FF0000A06E04B
:10456000002E1CBF4D4606F1010A0136013C18F829
:1045700006002E28F4D048B1B9F1070FF5D820284D
:104580001CBF0EF8090009F10109EEE7B9F10A0FA5
:10459000CDF81CC008D80EEB0900C9F10B01202290
:1045A000FCF7D0F80DF1400EBAF1000F00F0BA8020
:1045B00018F80A10A9B10AF101008DF8481018F88E
:1045C0000010002900F079820AF102008DF84910EC
:1045D00018F8001000291ABF0AF1030A8DF84A10D2
:1045E0008246072D08D80EEB0500C5F108012022F0
:1045F000F146FCF7A7F8CE46A94695E0DBF818008F
:104600000C9A002871D040F040003978C0B288423E
:104610006BD142F2A840204400264FF0030A012447
:104620000B9005E02037DBF81800013686425CD29B
:10463000DBF8000020320078E52804BFE520387060
:104640000D9DA86A8242EDD3284642460023CDE95B
:1046500000C44746CDF808A004F0D0FE00287FF43F
:1046600061AF286D874204D20137874226D300F01C
:104670008BBC686D0E990138814205D208464746C9
:1046800008F10107481C18E0284649460FAA03F024
:10469000DDF900287FF446AF0F9A022AC0F0748437
:1046A0000B980068824280F06F840D989146D0E9A3
:1046B0001401023A01FB020700200E900D9D3A46BC
:1046C000A8680023CDE900042846B846CDF808A024
:1046D00004F012FD00287FF425AFAF680022BC462D
:1046E000DBF8180001368642A2D34FF02030DDF807
:1046F00034A0C7F807007860386000202E22DBF86D
:1047000000100B5C2E2B06D13A540130DBF8001060
:104710000B5C2E2BF8D0002B40F03F816446C14645
:1047200000F073BC4FF0000A4EF64F40C4F6C46070
:10473000A6FB00018B080D2003FB0040012200288E
:1047400018BF02EB91030020002109931EF80130ED
:10475000202B09D118F800202E2A19D108210B2965
:1047600000F10100F2D30FE0082904D118F800206D
:104770002E2A08BF013018F8002093420CD10131D5
:104780000B2900F10100E1D318F80020012004E01A
:1047900012B90120002200E000209DF84810DDF849
:1047A0002CC0203918BF0146BAF1000F08BF0146DE
:1047B00002B999BBDBF84C007E2381B2B9F1030F3B
:1047C00028BF4FF003090EF809300B0B0EEB09025E
:1047D0004E0B30333724042E88BF04EB1133537053
:1047E000C0F3032101F13003092988BF01F1370328
:1047F0009370C0F3031101F1300300F00F00092999
:1048000088BF01F13703D37049F0040100F1300291
:10481000092888BF00F137020EF8012000209DF81A
:104820004040BCF1000F8DF84B0002BFE52C8F24F7
:104830008DF84040A4F16100C0B21A2838BF203C76
:104840009DF841509DF842C0A5F16100C0B29DF8AD
:1048500043A01A28ACF16100C0B28DF840409DF829
:10486000449038BF203D1A28AAF16100C0B28DF8EB
:10487000415038BFACF1200C1A28A9F16100C0B238
:104880008DF842C038BFAAF1200A8DF843A01A283B
:1048900038BFA9F120099DF845108DF84490A1F189
:1048A0006102D2B21A2A38BF20399DF846008DF82D
:1048B0004510A0F16102D2B21A2A38BF20389DF803
:1048C00047808DF84600A8F16102D2B21A2A38BF9B
:1048D000A8F120089DF848608DF84780A6F1610294
:1048E000D2B21A2A38BF203E9DF849208DF8486080
:1048F000A2F16103DBB21A2B38BF203A9DF84AE0DF
:104900008DF84920AEF16103DBB21A2B9BF804301D
:1049100038BFAEF1200E8DF84AE0C3B14FF0203021
:104920002E2BCDF84700119010901DD12022DDF8DC
:104930002090202301244FF0200C20204FF0200E47
:1049400020214FF02008039220220B923EE1CDF867
:104950000CE0CE46DDF82090CDF82C800694804601
:10496000CDE904ACAC46BCE19BF80520DDF8209015
:1049700002242E2A8DF8403002D0002A40F0A28076
:1049800020200B90202003904FF0200820214FF092
:10499000200E20204FF0200C17E10878002200287C
:1049A000C146644600F00E832E2800F00B83A0F170
:1049B0006101C9B21A2938BF20383870DBF80010FD
:1049C000012248782E2800F0FD82002800F0FA82AB
:1049D000A0F16101C9B21A2938BF20387870DBF81C
:1049E000001002228878002800F0EC822E2800F0C7
:1049F000E982A0F16101C9B21A2938BF2038B87024
:104A0000DBF800100322C878002800F0DB822E2893
:104A100000F0D882A0F16101C9B21A2938BF20384C
:104A2000F870DBF8001004220879002800F0CA8230
:104A30002E2800F0C782A0F16101C9B21A2938BF3F
:104A400020383871DBF8001005224879002800F082
:104A5000B9822E2800F0B682A0F16101C9B21A29EC
:104A600038BF20387871DBF80010062288790028DA
:104A700000F0A8822E2800F0A582A0F16101C9B241
:104A80001A2938BF2038B871DBF800100722C8791E
:104A9000002800F09482DDF834A02E28C14600F0F2
:104AA0009182A0F16101C9B21A2938BF2038F8718A
:104AB000DBF800100822087A84E28246072D7FF690
:104AC00092AD99E59BF8066003248DF841200EB164
:104AD0002E2E0CD120200B90202003904FF0200888
:104AE00020214FF0200E2020944632466DE09BF8A6
:104AF00007E00424BEF1000F8DF8426002D0BEF141
:104B00002E0F0CD120200B90202003904FF0200876
:104B100020213046944672464FF0200E55E0069311
:104B20009BF8083005248DF843E00BB12E2B0BD1F8
:104B300020200B90202094461A46069B03904FF0AD
:104B400020082021304640E09BF809900624B9F166
:104B5000000F8DF8443002D0B9F12E0F0AD1202079
:104B60000B90202003904FF02008194630469446C1
:104B70004A4627E09BF80A50072420208DF84590EC
:104B8000C5B12E2D0B9016D09BF80BA00824BAF1BE
:104B9000000F4FF020008DF846500B9003D0BAF173
:104BA0002E0F40F0F581C8461946304694465246CD
:104BB000039507E00B9020200390C8461946304625
:104BC00094462A46DDF82090069B92B15C442679F3
:104BD0007EB162798DF8486082B194F806A08DF8B4
:104BE0004920BAF1000F14BF8DF84AA04FF0200AF7
:104BF00007E04FF0200A2022202602E04FF0200A92
:104C000020221C46613BDBB21A2BACF16103DBB204
:104C100038BF203C1A2BA0F16103DBB206948DF85B
:104C2000404038BFACF1200C1A2BAEF16103DBB26F
:104C30008DF841C038BF20381A2BA1F16103DBB2D7
:104C400005908DF8420038BFAEF1200E1A2BA8F166
:104C50006103DBB2CDF810E08DF843E038BF2039B6
:104C60008DF844101A2B38BFA8F120080398E5B23C
:104C7000A0F16103DBB28DF845801A2B38BF2038D4
:104C80000B9C8DF84600A4F16103DBB21A2BA6F150
:104C90006103DBB238BF203C1A2BA2F16103DBB207
:104CA0000B948DF8474038BF203E1A2BAAF16103C0
:104CB000DBB28DF8486038BF203A1A2B8E46414649
:104CC00080468DF8492038BFAAF1200AE52D8DF8DD
:104CD0004AA0CDF80CA004D18F248F2306938DF821
:104CE0004040099840F0400300283B7000F0D0801D
:104CF000069C0598E3B2E40144EA53036344DCB242
:104D0000DB0143EA54030344DCB2DB01049843EAC9
:104D100054030C46C118CBB2C90141EA5301714496
:104D2000CBB2C90141EA53016018C1B2C00140EAE7
:104D300051004044C1B2C00140EA51000B99DDF876
:104D400034A00844C1B2C00140EA51003044C1B2AD
:104D5000C00140EA51001044C1B2C00140EA510014
:104D60000399DDF81CC001EB000842F2A8400C9E3C
:104D7000099D50444FF00F0E0B9004E02037013D89
:104D80003D7000F089809DF840000D21E52804BFAA
:104D9000E5203870694300200D390122A7F80BE0A7
:104DA00087F80D80788305E00C2200BF1E2A02F1EF
:104DB000020215D20B2A18BF1A2AF7D00D2AF3D0F7
:104DC000034610B9DBF800305B5CBC18BB54607064
:104DD000DBF800305B5C0131002B08BFFF20E5E70A
:104DE000DAF8280020368642C8D3012650464A46C3
:104DF00000230324CDF800C00196029404F0FEFACB
:104E000000287FF48FABDAF85000814504D209F115
:104E10000109814524D3B7E0DAF854000E9901382E
:104E2000814204D2084609F10109481C17E00A9999
:104E300050460FAA02F00AFE00287FF473AB0F9AC7
:104E4000022AC0F0A1800B980068824280F09C800A
:104E5000DAE914010A92023A01FB020900200E90DD
:104E6000DAF808004A46CDE90006504600230294CD
:104E700004F042F900287FF455ABDAF808700026F8
:104E8000BC464FF00F0E013D3D707FF47CAF03E058
:104E9000DDF834A0DDF81CC09BF80400002850D0D9
:104EA0004FF02030C7F80700786038609BF80400A6
:104EB0000121A0B32E2832D038709BF805000221C2
:104EC0002E282CD058B378709BF80600032130B3FD
:104ED0002E2824D0B8709BF807000421F8B12E28A2
:104EE0001DD0F8709BF808000521C0B12E2816D0FF
:104EF00038719BF80900062188B12E280FD07871EF
:104F00009BF80A00072150B12E2806D0B8719BF8F3
:104F10000B00082108B12E2847D1DDF834A06446E3
:104F2000002872D00BEB0100017900296DD0397295
:104F30004179002969D079728079002818BFB87248
:104F400063E09DF84000644638709DF84100787039
:104F50009DF84200B8709DF84300F8709DF8440039
:104F600038719DF8450078719DF84600B8719DF83C
:104F70004700F8719DF8480038729DF84900787232
:104F80009DF84A00B87240E0082013B0BDE8F08FE9
:104F900094469BF80C208DF847A00924CDF82CA04E
:104FA0000395C846194630460CE6F8719BF80C008C
:104FB000DDF834A0092164460028B3D125E0DDF8EE
:104FC00034A0C14608B350184078F0B1A0F1610197
:104FD000C9B21A2938BF20383872DBF800001044F3
:104FE000807890B1A0F16101C9B21A2938BF203888
:104FF0007872DBF800001044C07830B1A0F1610194
:10500000C9B21A2938BF2038BCE79BF81C00F872D7
:105010009BF81D0038739BF81E007873DBF8201096
:1050200007F10E0002F00CFDDBF8241007F1100070
:1050300002F006FDDBF8281007F1120002F000FD77
:10504000DAF86400002807F1140014BFBBF836102A
:10505000002102F0F5FCDBF82C1007F1160002F03D
:10506000EFFCDBF8301007F1180002F0E9FCDBF888
:10507000341007F11A0002F0E3FCDBF8381007F1F6
:105080001C0002F0E1FC01200321CDE90040504664
:105090004A460023029104F0B1F900287FF442AAA5
:1050A0009AF8E00368B3DBE91001DAE9AC23594070
:1050B0005040084325D1DBF84800DAF8B81288429E
:1050C0001FD1DBF83400CAF8A402DBE90E10CAE9EC
:1050D000AA109BF81C008AF88C02DBF82C00CAF896
:1050E0009C02DBF83000CAF8A002BBF81D00AAF849
:1050F0008D02DBF82000CAF89002DBF82400CAF821
:105100009402002013B0BDE8F08F00002DE9F04FAD
:1051100097B00546D0F8740100230130C5F874013A
:1051200010685361067891460C4646B12E2E0AD17E
:1051300041782E2906D10C2017B0BDE8F08F4FF032
:10514000000CADE02E26431C0020002200274FF06B
:10515000000C0BE0BCF1000F00F08B8084E0DE5D02
:10516000791C0138002E0F4600F08D80A6F1410118
:105170001A29F4D3A6F130010A29F0D3A6F161016E
:10518000192940F27180E52E00F06E802E2EE1D0BC
:10519000202E00F0698071B20029E0D4A6F121012F
:1051A0005D2900F26E82DFE811F063006C0263009B
:1051B0006300630063006300630063006C025F00D0
:1051C0005F0063006C026C026C026C026C026C0289
:1051D0006C026C026C026C026C026C026C025F006E
:1051E0006C025F006C026C0263006C026C026C0269
:1051F0006C026C026C026C026C026C026C026C023F
:105200006C026C026C026C026C026C026C026C022E
:105210006C026C026C026C026C026C026C025F002D
:105220006C025F006300630063006C026C026C023E
:105230006C026C026C026C026C026C026C026C02FE
:105240006C026C026C026C026C026C026C026C02EE
:105250006C026C026C026C026C026C026C026300E9
:105260006C026300630000BF0122C9F8142076E7D6
:1052700075E7002FBC467FF472AF0122C9F81420F5
:105280004FF0000C6BE7BCF1000FA1EB0C0304D056
:10529000052B24BF0122C9F814200C290CD85AB9B7
:1052A000BCF1080F4FF0010A98BF092B14D3C9F8BD
:1052B00014A04FF0020A0FE04EF64F42C4F6C4624B
:1052C000A1FB021291080D2201FB0200002814BF6D
:1052D00001F1020A01F1010A206842F2A8410078B6
:1052E00005EB010B0D9420B1A76B00202065022077
:1052F00002E0AF6F0020002415904FF0FF3000EB6C
:105300004A1805F17400002C18BF04F13400119004
:105310000020139000203E46129004E0149FE046C7
:10532000B84280F081812846214615AA4B46FEF7F7
:1053300029FC002840F0A681D9F80000017839B195
:10534000E52902D199F80400A0B13E4621E000BF52
:10535000BAF1020F0ED30021E522C9F81410027031
:10536000D9F80000417028464946FFF7A1F8002807
:1053700040F088811598BE4206D1D9F84010064603
:105380001391D9F848101291801B0130504580F0DC
:10539000538115980130B8421590C1D3AA6A696D3E
:1053A00014B96B6E002BBBD008EB0203B3FBF2F217
:1053B000C4460A44013AB2FBF1F8EB6F1497434537
:1053C000ACD99142CDF838B0CDF830C00F962FD976
:1053D000002010904FF0000B0E9E28467268594630
:1053E00002F07CFC002840F04D8111983168006883
:1053F000B34688420B9480F0E88000270646284692
:10540000314616AA02F022FB002840F03B81022E12
:10541000C0F00E811698864200F00A81296C01378F
:105420008F4200F20581DBF800108842E6D3CDE020
:10543000286C0022474600211091CDF824800028D6
:1054400000F0F280D5F880B0013FC0F101060A9269
:105450002846594616AA02F0F9FA002840F01281AF
:105460002A6C16990BF101000232904228BF0220EB
:1054700021B10136012E8346EAD1D5E0C5F880007E
:10548000B846A868D5E91472ABF10201089202FB94
:105490000172009001200190284600230321079209
:1054A000029103F029FE002840F0EC80A96AA86868
:1054B0004FF0000C04970B94CDF818A0B9B100225E
:1054C000131D8B4240F802C011D202F10807831865
:1054D0008F42C3F804C00AD202F10C078F42C3F80E
:1054E00008C004D210328A42C3F80CC0E8D3079F28
:1054F00000900120019028463A46002303210291A2
:1055000003F07CFFDDF820A0002840F0BB800B9C5E
:10551000BAF1020FCDF814803CD300207A1CAAF116
:1055200001080190284600230121CDF80080029156
:1055300003F0AAF8002840F0A5800499ABF101001F
:105540000AFB0010A0F1010AB8F1000F22D0D5F833
:10555000B011A8680131C5F8B01101219023D5F828
:10556000BC20C5F88810C5E923300320C5E925A172
:10557000C5F8B8002846C5F8B01090470020C5F817
:10558000B000D5F88C00AAF1010A0028A8F10108A2
:10559000DAD077E0DDF84080B8F1000F08BFD846D8
:1055A0000A9929B128465A4602F098FB002869D189
:1055B000059FCDF84080DDF818A0DDF8248070420A
:1055C000002F5A467FF43BAF06E70026E96F6A6D6D
:1055D000A1EB0801E967D9F80010A86A02FB08F2FC
:1055E0000978149F5043E52907EB501705D199F826
:1055F0000400002818BF0F9700E00F970B9C0D992F
:105600004FF00000C1E90E701CB9686E002818BF89
:10561000AF67109A2846314602F060FB90BB1598A0
:10562000DDF830800F9E7BE60A2017B0BDE8F08FD2
:10563000032017B0BDE8F08F13990020C9E91010BE
:10564000129940F2CC5240F2C853C9F84810A9F858
:105650001D00EFF3108172B6C2F20002C2F2000325
:1056600012681B68C9E90823C9F8283081F310883B
:10567000BAF1010118BF0121C9F8141017B0BDE833
:10568000F08F0C2017B0BDE8F08F000080B500222D
:105690000A7002785C2A03D02F2A08BF013000E08C
:1056A0000130C21C12F8030C20280ED112F8020C93
:1056B00020280DD112F8010C20280CD112F8040B6F
:1056C0002028EFD0A2F1040E07E0A2F1030E04E0BF
:1056D000A2F1020E01E0A2F1010E002309E000BFD9
:1056E0002F2818BFFF2B08D00EEB0302C8545078A8
:1056F0000133002818BF5C28F2D1C8184FF0000C05
:1057000000F801C9002B08BF0846007820280EEBDE
:1057100003001DD1012B98BF01231944013900BF9B
:1057200011F8012C81F800C0202A11D111F8022CA7
:1057300001F801CC202A0BD111F8032C01F802CC7E
:10574000202A05D111F8042D202A81F801C0E7D0C4
:105750000178002908BF084680BD00002DE9F04F00
:10576000A7B083460C46DBF870110020013125906C
:10577000CBF870119A46002B1CBFDAF800100870A5
:10578000257890462F2D4FF0000934D05C2D4FF036
:10579000000E04D19BF8E013309EA1BBA1E140F2C2
:1057A0006850C2F200000068D0F890607EB13068A6
:1057B0000078F0B108A8314670228146FAF790FFD0
:1057C00006F1700E9BF8E013309EE1B989E1DBF839
:1057D000E004007868B10BF59C6108A8702281464E
:1057E000FAF77EFF0BF5AA6E9BF8E013309E51B9D5
:1057F00077E14FF000094FF0000E9BF8E013309E68
:10580000002900F06E815C2D01D02F2D1ED10BF5EB
:105810007870611C002200BF835C5C2D2F4608BF9E
:105820002F275C2B08BF2F239F422AD1FE2A30D07E
:105830008D5C531C002D1A46EED100250BEB0300A6
:1058400090F8E003854200F082804AE1BEF1000F4B
:1058500029D00BF578710020FF2828D01EF80020F1
:105860004AB10B5C01305C2B08BF2F235C2A08BFB8
:105870002F229342F0D01EF80010002940F0318111
:105880001BE013460BEB030090F8E00385425ED06B
:1058900027E194F8FF50FF230BEB030090F8E0039F
:1058A000854254D01DE100205C290CD10DE0FF2081
:1058B0001EF80010002940F014810BEB000191F854
:1058C000E0135C2901D02F2925D101300121FE28C8
:1058D00024D8002900F005814DB30BEB000202F53E
:1058E0007873A446661C00229F5C5C2D08BF2F25A0
:1058F0005C2F08BF2F27BD4200EB02071DD1FD2FF3
:1059000002F1010400F2E680B55C2246002DEBD1E5
:10591000309E20440DE00021FE28DAD90022002923
:1059200000F0DF80FF2840F0DC80FF2008E0A44684
:1059300000242246644619B9D3E0309E38466446B6
:105940005844A15C90F8E003814240F0CA8034469C
:10595000D8F800600BF51C7140467022FAF7C0FEC3
:105960000020C8F8006003E01030B0F5807F46D01A
:105970000BEB000191F8E022002A32543FD091F85D
:10598000E13232185370D3B391F8E2329370B3B36B
:1059900091F8E332D37093B391F8E432137173B397
:1059A00091F8E532537153B391F8E632937133B302
:1059B00091F8E732D37113B391F8E8321372F3B16F
:1059C00091F8E9325372D3B191F8EA329372B3B1DC
:1059D00091F8EB32D37293B191F8EC32137373B147
:1059E00091F8ED32537353B191F8EE32937333B1B2
:1059F00091F8EF12F028D173B6D00029B4D1BAF1E2
:105A0000000F5BD0DBF8FC01002857D0DAF800501B
:105A10000BF5007150467022FAF762FECAF800508A
:105A2000DBF80002002103E01031B1F5807F45D0A2
:105A3000425C6A54425C002A40D0421857786B1886
:105A40005F705778D7B397789F709778B7B3D77848
:105A5000DF70D77897B317791F71177977B35779B4
:105A60005F71577957B397799F71977937B3D77922
:105A7000DF71D77917B3177A1F72177AF7B1577A90
:105A80005F72577AD7B1977A9F72977AB7B1D77A00
:105A9000DF72D77A97B1177B1F73177B77B1577B6C
:105AA0005F73577B57B1977B9F73977B37B1D77BDA
:105AB000F029DF73B8D0D27B002AB5D1002C18BFF3
:105AC0002660DBF8C4010130CBF8C401002027B008
:105AD000BDE8F08F309E781C2246644600297FF492
