:020000040800F2
:10000000B8C401204D020008C92C0008BD2B00080F
:10001000C52C000801090008B936000800000000DE
:100020000000000000000000000000005F02000867
:1000300005090008000000005D0300081D0300081A
:1000400067020008670200086702000867020008EC
:1000500067020008670200086702000867020008DC
:1000600067020008670200086702000867020008CC
:1000700067020008670200086702000867020008BC
:1000800067020008670200086702000867020008AC
:10009000670200086702000867020008670200089C
:1000A0006702000871320008670200086702000852
:1000B000670200086702000867020008670200087C
:1000C000670200086702000867020008670200086C
:1000D00067020008AD3600086702000867020008E2
:1000E000670200086702000867020008670200084C
:1000F000670200086702000867020008670200083C
:10010000670200086702000867020008670200082B
:10011000670200086702000867020008670200081B
:10012000670200086702000867020008670200080B
:1001300067020008050B0008670200086702000854
:1001400067020008670200086702000867020008EB
:1001500067020008670200086702000867020008DB
:1001600067020008670200086702000867020008CB
:10017000670200086702000867020008000000002C
:1001800067020008670200086702000867020008AB
:10019000670200086702000867020008670200089B
:1001A00067020008670200086702000800F002F812
:1001B00000F03CF80AA090E8000C82448344AAF1C5
:1001C0000107DA4501D100F031F8AFF2090EBAE8C3
:1001D0000F0013F0010F18BFFB1A43F0010318477B
:1001E000DCB00000FCB00000103A24BF78C878C131
:1001F000FAD8520724BF30C830C144BF04680C602D
:10020000704700000023002400250026103A28BF74
:1002100078C1FBD8520728BF30C148BF0B60704778
:100220001FB50BF01DF81FBD10B510BD00F02EFB63
:100230001146FFF7F5FF0AF0EBFE00F04CFB03B4AC
:10024000FFF7F2FF03BC00F053FB000009488047B2
:1002500009480047FEE7FEE7FEE7FEE7FEE7FEE7A8
:10026000FEE7FEE7FEE7FEE704480549054A064BC0
:10027000704700005D320008AD010008B8BE0120E3
:10028000B8C40120B8C00120B8C00120000000009F
:10029000202F0020B8C4012000000008A42F002057
:1002A00000000008001000E03F771B000000FF4046
:1002B00072B65FF824005FF8241001F104010160B8
:1002C0004FF0E0205FF83010C0F8081D5FF83400F0
:1002D0005FF83410096801605FF83800016841F088
:1002E000010101604FF0E0205FF8441041614FF0E0
:1002F000070101614FF00001C0F8181D4FF07F4168
:10030000C0F81C1D5FF85C10C0F8201D7047FEE7A8
:10031000FEE7FEE701B5BDE80140704701B500F01A
:100320008FF8BDE801407047FEE7FEE700000000DF
:100330004FF000002A4A1060EFF3148020F0040010
:1003400080F3148862B64FF080504FF0E021C1F87E
:10035000040DBFF34F8FBFF36F8FFEE72148224A92
:100360004FF00003016891B10360EFF3098C2CE9B1
:10037000F00F1EF0100F01D12CED108A1B4C4CF821
:1003800004ED2568C1F808C00DB18D61236072B617
:100390001168B1B1016062B64F68154C8D6907F103
:1003A00001074F602560D1F808C05CF804EB1EF02F
:1003B000100F01D1BCEC108ABCE8F00F8CF3098857
:1003C000704772B61168016009B962B6F9E74FF07B
:1003D00000674FF0E028C8F8047D62B6DCE770479C
:1003E000DC010020C4010020C8010020EC01002035
:1003F000EC010020000000000000000000000000F0
:10040000026922F00702A2F144026FF002031360B6
:100410004FF0000353609360D360136153619361A5
:10042000D361136253629362D362136353634FF0D9
:10043000FF339363D1634FF080731364826070471E
:100440002249086800F101000860214B1A683AB19E
:10045000A2F101021A601AB91E4B4FF00100186098
:100460001D490868026822B11C4B4FF001021A6056
:1004700008E000F104001A4B1A68904201D1194BB0
:1004800018680860184B1A6812B918490868D0B182
:100490002DE901401649086808B10AF07FF9154BAB
:1004A0001A6872B10AF0EAF81348016849B91348AA
:1004B0000168134A136813484FF08052994200D0E4
:1004C0000260BDE80140BFF34F8F7047E801002094
:1004D000EC010020F001002000020020F4010020C7
:1004E00004020020FC010020F0010020F4010020A3
:1004F000F4010020F0010020DC010020C4010020F4
:10050000C801002004ED00E053EA020C00F069800D
:100510002DE9F04B4FF00006002B1FBFB3FA83F517
:1005200003FA05F424FA05F65E4012BF1643B2FA48
:1005300082F502FA05F4C5F120051EBF22FA05FC7A
:1005400044EA0C04203556EA044C4FEA144418BF20
:10055000641C4FF000084FF00009904271EB030C4F
:1005600039D3002919BFB1FA81F701FA07F6B0FAB9
:1005700080F700FA07F6C7F120071EBF20FA07FC34
:1005800046EA0C062037B6FBF4FCA7EB0507103F44
:1005900007F01F0BCBF120062CFA06F60CFA0BFB2A
:1005A00044BFB3460026202FA4BF5E464FF0000B89
:1005B0005BEA060C08BF4FF0010B19EB0B0948EB87
:1005C0000608ABFB027C06FB02CC0BFB03CCC01B7A
:1005D00071EB0C01C1E70B46024641464846BDE8B7
:1005E000F08B13B5084318BF4FF0FF300146AFF34F
:1005F0000080BDE81C407047032A40F2308010F0B4
:10060000030C00F0158011F8013BBCF1020F6244AD
:1006100098BF11F801CB00F8013B38BF11F8013B3E
:10062000A2F1040298BF00F801CB38BF00F8013BEB
:1006300011F0030300F0BB80083AC0F0088051F8C5
:10064000043B083A51F804CBA0E80810F5E7121D66
:100650005CBF51F8043B40F8043BAFF30080D20785
:1006600024BF11F8013B11F801CB48BF11F8012B51
:1006700024BF00F8013B00F801CB48BF00F8012B74
:100680007047431A28BF9A427FF6B6AF1044114410
:10069000032A40F2268010F0030F1EBF11F8013D1F
:1006A000521E00F8013D10F0030F7FF4F6AF11F079
:1006B000030300F0C180083AC0F00B8051F8043DFC
:1006C000083A51F804CD40F8043D40F804CDFFF756
:1006D000F3BF121D5CBF51F8043D40F8043DAFF379
:1006E0000080D20724BF11F8013D11F801CD48BFA9
:1006F00011F8012C24BF00F8013D00F801CD48BFDE
:1007000000F8012C704702F0FF0343EA032242EA9B
:10071000024200F002B84FF000020429C0F012803B
:1007200010F0030C00F01B80CCF1040CBCF1020FA4
:1007300018BF00F8012BA8BF20F8022BA1EB0C0179
:1007400000F00DB85FEAC17C24BF00F8012B00F86F
:10075000012B48BF00F8012B70474FF0000200B595
:10076000134694469646203922BFA0E80C50A0E8D4
:100770000C50B1F12001BFF4F7AF090728BFA0E882
:100780000C5048BF0CC05DF804EB890028BF40F84E
:10079000042B08BF704748BF20F8022B11F0804F90
:1007A00018BF00F8012B704770477047704710B5AD
:1007B000203AC0F00B80B1E81850A0E81850B1E81A
:1007C0001850A0E81850203ABFF4F5AF5FEA027C59
:1007D00024BFB1E81850A0E8185044BF18C918C089
:1007E000BDE810405FEA827C24BF51F8043B40F82A
:1007F000043B08BF7047D20728BF31F8023B48BF0F
:1008000011F8012B28BF20F8023B48BF00F8012B4C
:100810007047431A28BF9A427FF6C9AF104411446B
:1008200010F0030F1EBF11F8013D521E00F8013DEC
:1008300010F0030F7FF4F6AF103AC0F00A8010B545
:1008400031E9185020E91850103ABFF4F9AFBDE86B
:100850001040530724BF31E9081020E9081044BFB5
:1008600051F8043D40F8043D12F0030F08BF7047F3
:10087000D20728BF31F8023D48BF11F8012C28BF2C
:1008800020F8023D48BF00F8012C7047754600F083
:100890002BF8AE4605006946534620F00700854612
:1008A00018B020B5FFF7E0FCBDE820404FF000068F
:1008B0004FF000074FF000084FF0000BAC46ACE8DB
:1008C000C009ACE8C009ACE8C009ACE8C00921F037
:1008D00007018D46704710B50446AFF300802046EF
:1008E000BDE81040FFF7ABBC004870478000002017
:1008F00001491820ABBEFEE7260002007047000049
:10090000FEE70000704700002DE9F04F83B09246EB
:10091000024690F8450001284FF002004FD08B4668
:100920001E4601215C1E0BF1200700254FF00048F8
:100930000DF1080982F84510019282F8440000BFC9
:10094000504649460022002347F8208C08F050F911
:10095000C0BB0298A5428168D0E9042301F10201DD
:10096000816047F8181CA3EB020141F4804147F86D
:100970001C1C43F2D861C2F2000101EB8501486101
:10098000594605F1010538BF394647F8141CAE42F7
:1009900007F12007D4D1D0E90410019A401A43F29C
:1009A000D861C2F20001C860106841F20C0140F841
:1009B00001B0012082F84400002082F8450003B015
:1009C000BDE8F08F012003B0BDE8F08F2DE9F047BE
:1009D00090F84530012B4FF0020300F08F80012783
:1009E000002A80F8457080F84430C1627CD040F223
:1009F000000CA2F1010A43F2D86EC4F2100C02F00E
:100A000003080024BAF1030FC2F2000E35D3A2EBA3
:100A1000080901F180060027354646F880CC45F8E4
:100A200060CD574528BF0D4646F8745C0EEB870530
:100A300033462C667A1C43F840CD524528BF0B46FE
:100A400046F8543CBA1C33466C6643F820CD5245F8
:100A500007F1030228BF0B4652450A4607F1040777
:100A600046F8343CAC6638BF324646F8142CB945DB
:100A700006F18006EC66CFD13C46B8F1000F33D0CA
:100A8000630141F803C00B4601EB4412544538BFE3
:100A900002F12003D3600EEB84030022B8F1010FB2
:100AA0001A6621D0631C5E0141F806C053450E460C
:100AB00001EB431538BF05F120060EEB8303B8F1B7
:100AC000020FEE601A660FD0A21C01EB4213540114
:100AD0000F4641F804C0524538BF03F12007DF60DC
:100AE0000EEB820200231366026841F21003D1501C
:100AF0000121002380F8441080F845301846BDE8F5
:100B0000F08700002DE9F04749F21400C4F202001A
:100B1000D0F800804121C0F201015FEAC872016093
:100B200033D043F2D866C2F20006F06D68B3B56DFB
:100B300040F28849471EC2F200094FF0000A05E062
:100B4000681C00F07F05013F781C1ED006EB850471
:100B500054F8600F0028F3D0690159F801100029FA
:100B600013D481680E3181602068416A0E39416278
:100B7000204608F033F9681C00F07F05C4F800A097
:100B8000C6E91657013F781CE0D15FEA486058BFBC
:100B9000BDE8F087BDE8F04703F0C8BA80B541F280
:100BA000884048F20001C2F20000C4F202010122B2
:100BB0004FF480434FF4006C80E80E1040F20801BF
:100BC000C2F2000100F1140E028200234FF4000C67
:100BD0008EE80E1000F068F9002808BF80BDBDE85F
:100BE000804000F0EDB8000070B5044631B14FF41C
:100BF000006C4FF4804EC4E902EC01E0D4E902EC51
:100C00002268E369106848F20F11CFF6207108409E
:100C10004FF40071002B08BF4FF4C06141EA0E0190
:100C2000084340EA0C0010601568012000F028F924
:100C300020684021056041604568012000F020F9EE
:100C400020684FF64172456000258560C560816966
:100C50001140803181618669012000F011F920681E
:100C60008661C561C569012000F00AF9206841F27A
:100C70001801C561425843F62373CFF6DE031A40CC
:100C800042F0087242F0040242504558012000F040
:100C9000F7F8206800F580518D6142F280014FF431
:100CA0008055C0F2C12141514659012000F0E8F8B9
:100CB000A16920680129465107D100F58050C1691A
:100CC00041F4803141F04001C161606948F2400265
:100CD0008188C4F2020211600068506070BD00009B
:100CE00070B590F84520012A4FF0020265D043F21A
:100CF000D86CC2F2000CDCF854E0012380F84530D7
:100D000080F8442099B3C36A00220C4610E000BF6B
:100D1000D1E90256A6EB05066FF35F36C3E901651C
:100D20001D68DE6845F000451D603346C662FCB1B3
:100D30001D68002D3AD41D688C4225F040551D6079
:100D400008D00EF1010505F07F0E64680132002C19
:100D5000DED107E01D6845F080551D6064680132F2
:100D6000002CD5D11D6845F0C0451D60D0E700229C
:100D70000CEB8E0319660EF10101DCF85C3001F01A
:100D80007F01CCF854109918CCF85C10016841F23E
:100D900014028A5852074FF0000205D541F20403AD
:100DA000194404230B610A60012101E00122122190
:100DB00080F84410002180F84510104670BD0000F6
:100DC000EFF3108072B600BFFEE7000070B5866DCD
:100DD000044600F00BFD94F8351002292ED105468B
:100DE0002068216C026822F016020260426922F03B
:100DF0008002426109B9A16C19B1016821F00801B2
:100E00000160016821F0010101600068C00708D09D
:100E100000F0ECFC401B052817D820680068C007CC
:100E2000F6D1E06D3F2101FA00F0B060012084F8B6
:100E300035000020002184F8341070BD80206065EA
:100E40000120002184F8341070BD2020606503204B
:100E500084F83500002184F8341070BD90F8351006
:100E6000022909D1052180F835100068016821F0B8
:100E70000101016000207047802141650120704719
:100E8000B0B5044600F0B2FC054640F20000C2F2E4
:100E900000000078611C18BF044400BF00F0A6FCED
:100EA000401BA042FAD3B0BD2DE9F04F81B000281D
:100EB00042D0044690F8440028B9002084F8450048
:100EC000204600F0E3F90020009043F64400C4F20D
:100ED000020001684FF4805641F4804101600068CF
:100EE00000F480400090009843F60400C4F2010032
:100EF000016821F4000101602168226A03681A4335
:100F00000260885940F00100885100F06FFC0546EE
:100F100020688159C90714D000F068FC401BB0F567
:100F2000FA7FF5D90325002084F8445084F8450061
:100F3000284601B0BDE8F08F0125284601B0BDE884
:100F4000F08F006920F01C0500F03CFE4DF20031EE
:100F5000CFF6CE614EF2BF120144C0F2E4029142DC
:100F600002D845F0080527E04FF24011CFF6E951CD
:100F700047F63F020144C0F27D12914202D845F08B
:100F80000C0519E047F60011CFF66C4145F600223A
:100F90000144C0F2622291420ED341F60071CFF6B5
:100FA0000A2108444FF27F01C0F2FA2188428CBF27
:100FB00045F0100545F004052068056194F84410DB
:100FC000422900F0F980422184F844100169228A04
:100FD00001F01C0102F01F0241EAC22103314FF46B
:100FE00000424261016100F001FC054600F0FEFB99
:100FF000401BB0F5803F80F0D98020680069C007B1
:10100000F4D14FF00108FF2084F84480FFF738FF47
:101010006068002800F0DB804FF0000900F0E6FB7C
:10102000054641F2893A4FF0820B002794F84400BC
:10103000822823D084F844B020680169228A01F014
:101040001C0102F01F0241EAC2214131016100F09E
:10105000CDFB064600F0CAFB801BB0F5803F09D2ED
:1010600020680169C907F5D1406984F8448087B2D6
:1010700004E000BF84F8448084F8459000F0B6FB9B
:10108000401B504580F0DD807807CFD594F84400B0
:10109000422800F09180422084F8440020680169D1
:1010A000228A01F01C0102F01F0241EAC221033131
:1010B0004FF480524261016100F098FB054600F058
:1010C00095FB401BB0F5803F80F0D180206800691F
:1010D000C007F4D14FF0010884F8448000F086FB8B
:1010E000054641F289394FF0820A4FF0000B94F81F
:1010F0004400822823D084F844A020680169228A11
:1011000001F01C0102F01F0241EAC22141310161DC
:1011100000F06CFB064600BF00F068FB801BB0F5DA
:10112000803F08D220680169C907F5D1406984F879
:10113000448087B203E084F8448084F845B000F02E
:1011400055FB401B48457CD2B806D0D594F84400E6
:10115000822831D0822084F8440020680169228AE4
:1011600001F01C0102F01F0241EAC22101F201411B
:10117000016100F03BFB054600F038FB401BB0F579
:10118000803F7BD220680169C907F5D14069012100
:1011900084F844104FF4006101EA40218007E160C7
:1011A00054BF4FF480400020A0603EE0012084F84E
:1011B0004400002084F84500204601210125FFF766
:1011C00013FD84F84450284601B0BDE8F08FD4E9FF
:1011D000021094F84420422AEED0490841EAD00097
:1011E000422184F84410216880B20A69238A02F0FF
:1011F0001C0203F01F0342EAC322033248610A6162
:1012000000F0F4FA054600BF00F0F0FA401BB0F51C
:10121000803F25D220680069C007F5D1012084F8FD
:10122000440040F6FF70FFF72BFE2046002100250A
:10123000FFF7DAFC012084F84400284601B0BDE83D
:10124000F08F204601210125FFF7CEFC002084F815
:10125000445084F845000325284601B0BDE8F08FCE
:10126000012084F84400002084F84500A4E7012010
:1012700084F84400002084F845009DE7012084F8AC
:101280004400002084F8450096E700002DE9F04373
:1012900087B00026CDE90566CDE90366006848F20F
:1012A0000001C4F202018842029602D007B0BDE8F4
:1012B000F08343F630000196C4F202000168002476
:1012C00041F0007101600168C4F2020401F0007194
:1012D000019101990196016802AD41F080610160C0
:1012E00001684FF0020801F08061019101990196B7
:1012F00001684FF0030941F00061016001680B27AC
:1013000001F00061019101990196016841F0040129
:101310000160016801F004010191019901960168E1
:1013200041F001010160016801F0010101910199A1
:101330000196016841F0020101600068294600F051
:101340000200019001983220029004F50060CDE97E
:101350000386CDF81490069700F064F98620CDE955
:10136000020820462946CDE90469069700F05AF99B
:101370004FF46050CDE9020804F580602946CDE9BC
:101380000469069700F04EF93D200021002200F08C
:10139000CFFA3D2000F0BCFA07B0BDE8F0830000B2
:1013A00080B582B090F8451001294FF0020100F09D
:1013B0009380012280F8452080F84410002100919C
:1013C000016840F2100C0A68C2F2000C42F00802F8
:1013D0000A60096844F6D35E0091DCF80030C1F27F
:1013E000620EA3FB0E31490A019100BF00BF0199B3
:1013F0004B1E019379B100BF01994A1E019251B170
:1014000000BF01994A1E019229B100BF01994A1EED
:1014100000290192EAD10099036819600021009126
:10142000196841F00401196019680091DCF8001096
:10143000A1FB0E13590A019100BF01994B1E0193A4
:1014400079B100BF01994A1E019251B100BF0199C3
:101450004A1E019229B100BF01994A1E002901923A
:10146000EAD10099036819600021009141F2180146
:101470005A5842F480125A5059580091DCF8001022
:10148000A1FB0E12510A019100BF01994A1E01925F
:1014900079B100BF01994A1E019251B100BF019973
:1014A0004A1E019229B100BF01994A1E00290192EA
:1014B000EAD10099026841F21803D150D15841F4A1
:1014C0000051D150D15841F00201D150012180F892
:1014D0004410002180F84510084602B080BD00008D
:1014E00080B582B090F8451001294FF0020100F05C
:1014F0009580012280F8452080F84410016841F26F
:1015000018028B5840F2100C23F400538B508B5868
:10151000C2F2000C23F002038B50002200920A68F2
:1015200044F6D35E22F004020A600968C1F2620E3A
:101530000091DCF80030A3FB0E31490A019100BF95
:1015400000BF01994B1E019379B100BF01994A1E5A
:10155000019251B100BF01994A1E019229B100BF09
:1015600001994A1E00290192EAD100990368196085
:101570000021009141F218015A5842F480125A5049
:1015800059580091DCF80010A1FB0E12510A01918C
:1015900000BF01994A1E019279B100BF01994A1E0C
:1015A000019251B100BF01994A1E019229B100BFB9
:1015B00001994A1E00290192EAD10099026841F27C
:1015C0001803D15000210091116821F00801116029
:1015D00011680091DCF80010A1FB0E12510A019174
:1015E00000BF01994A1E019279B100BF01994A1EBC
:1015F000019251B100BF01994A1E019229B100BF69
:1016000001994A1E00290192EAD1009902681160ED
:10161000012180F84410002180F84510084602B0EE
:1016200080BD00002DE9F04F82B000F13E4242F251
:10163000004502F1FF77C4F202050A224FEAB726FD
:10164000A84208BF0922092E38BF4FEAB7224FF03F
:10165000010E002400274FF00008009208E000BFB0
:10166000023708F10108202F04F1040400F0B480CF
:101670000E680EFA08F916EA090FF1D0D1F804A0A5
:101680000AF0030BABF10106012E19D8032286687C
:1016900002FA07FECA6826EA0E06BA4032438260A2
:1016A0004268CAF3001522EA090205FA08F54FEA72
:1016B000480C6FEA0E064FF0010E2A4342600BE021
:1016C0000322BA40D643BBF1030FBC4604D1BC464B
:1016D0004FF0030B24E000BFC2688D68324005FA6A
:1016E0000CF52A43BBF1020FC26019D16FF003025F
:1016F00002EA5802024404F01C030F25D2F820E04D
:1017000005FA03FA0D692EEA0A0E05FA03F343EA15
:101710000E031362D1F804A04FF0010E0AF0030B80
:1017200002680BFA0CF332401A431AF4403F02608D
:1017300096D0002243F644030192C4F202031A68D1
:1017400043F6004C42F480421A601A68C4F2010C5D
:1017500002F480420192019A28F003024FF6084AEF
:101760006244CFF6FF7A52F80A3004F00C060F25D7
:10177000B540AB43009D05FA06F6334342F80A3004
:10178000DCF800204B6842EA0906DD0358BF22EA74
:101790000906CCF80060DCF804209D0342EA090643
:1017A00058BF22EA0906CCF80460DCF80820DD0204
:1017B00042EA090643F60C4558BF22EA0906CCF86E
:1017C0000860C4F201052A689B0242EA090658BF74
:1017D00022EA09062E6043E702B0BDE8F08F000060
:1017E000002A08BF09048161704700004BF6B4600D
:1017F000C2F201000068704740F200004BF6B4618D
:10180000C2F20000C2F2010100780A6810440860C8
:101810007047000080B543F60040C4F20200016842
:1018200041F400710160016841F480610160016868
:1018300041F480710160032000F0A6F80F2000F051
:1018400005F800F049F8002080BD000010B586B012
:10185000014619200022002400F06AF8192000F047
:1018600057F843F644000194C4F20200016841F0C5
:10187000010101600068694600F0010001900198D3
:1018800001A800F07FF900F0B7F94DF68361400040
:10189000C4F21B31A0FB01014FF0FF3000EB91417E
:1018A00043F680100022C2F20000C4F2010240F2AE
:1018B000E733C0E90021C0E90243046100F09CFB6A
:1018C00010B1012006B010BD43F68010C2F2000036
:1018D00000F0C2FB06B010BD82B0002043F640010C
:1018E0000190C4F202014A6842F480424A604A68A8
:1018F00002F480420192019A0090086840F0805002
:101900000860086800F080500090009802B07047AE
:10191000002848BF704700F01F01012202FA01F1C0
:101920004EF200124009CEF2000242F82010704739
:1019300010B54EF60C5CCEF2000CDCF80030C3F3B0
:10194000022E8EF00704042C28BF0424BEF10303EA
:101950004FF0FF3E0EFA04F438BF0023A143994034
:101960000EFA03F39A4300F00F03043B1143634460
:1019700009010C3300F16042B0F1FF3FC8BF02F52E
:101980006443197010BD00004EF60C51CEF20001F8
:101990000A684FF6FF031A4060F30A2242F08060A3
:1019A00040F0FD700860704770B582B00020019073
:1019B00043F64000C4F202000168402641F0805125
:1019C00001600068C4F20E2600F08050019001987A
:1019D00047F204050120C4F200053060FFF706FF5E
:1019E000044600BF2868C00306D4FFF7FFFE001BB3
:1019F000B0F57A7FF6D90EE001207060FFF7F6FEB1
:101A0000044600BF2868800308D4FFF7EFFE001BE0
:101A1000B0F57A7FF6D9032002B070BD002002B085
:101A200070BD00002DE9F041002800F08B8043F6E6
:101A30000808C4F202080446D8F8F8030D4600F07E
:101A40000F00884207D288F8F853D8F8F80300F05E
:101A50000F00A84276D12068810717D5410705D528
:101A6000D8F8001041F4E051C8F80010010705D57E
:101A7000D8F8001041F46041C8F80010D8F8001000
:101A8000A26821F0F0011143C8F80010C0073FD14F
:101A9000D8F8F80300F00F00A84207D988F8F853E7
:101AA000D8F8F80300F00F00A8424BD12068410796
:101AB00007D5D8F80010E26821F4E0511143C8F8C6
:101AC0000010000708D5D8F80000216920F4604014
:101AD00040EAC100C8F8000000F0A2F8D8F80010F1
:101AE0004BF27A22C1F30311C0F60002515C40F2BE
:101AF000100220FA01F140F20400C2F20000006876
:101B0000C2F200021160FFF7A1FE0020BDE8F081E3
:101B10006068811E022907D258F8081C89015CBF41
:101B20000120BDE8F08110E0012807D158F8081C19
:101B300089035CBF0120BDE8F08106E058F8081C6D
:101B4000890702D40120BDE8F081D8F8001021F007
:101B500003010843C8F80000FFF748FE064641F2BB
:101B6000883700BFD8F80000616800F00C00B0EBC7
:101B7000810F8DD0FFF73AFE801BB842F2D90320C7
:101B8000BDE8F0810F22026043F60802C4F20202AF
:101B9000136803F003034360136803F0F0038360EA
:101BA000136803F4E053C360D2F800C04FF4E0536D
:101BB00003EADC030361D2F8F80300F00F000860C9
:101BC0007047000040F21000C2F200000068704749
:101BD00040F2100043F60801C2F20000C4F2020114
:101BE000006809684BF28A22C1F38221C0F6000224
:101BF000515CC8407047000040F2100043F60801F5
:101C0000C2F20000C4F20201006809684BF28A22A5
:101C1000C1F34231C0F60002515CC8407047000079
:101C200010B543F60404C4F20204606800F00C002E
:101C300008280AD0042819BF42F20040C0F2F4007C
:101C400047F64000C0F27D1010BD2068216823686F
:101C5000490247F64001C0F27D1100F03F02C3F394
:101C600088105CBF42F20041C0F2F401A1FB000108
:101C70000023FEF749FC21680222C1F3014102EB77
:101C80004101B0FBF1F010BD2DE9F04182B0002818
:101C900068D00446007843F60006C007C4F2020686
:101CA0000BD0B06800F00C00042840F0A080306831
:101CB000800302D56068002854D0207880071AD5A8
:101CC000B06810F00C0F09D0B06800F00C000828C4
:101CD00040F0B4807068400200F1B0803068800746
:101CE00002D5E06801283DD13068216920F0F80074
:101CF00040EAC10030602078000737D420784007E0
:101D00004BD4A56955B3B06800F00C00082840F02A
:101D1000DA80012D26D07068E16900F480028A42E1
:101D200020D1216A00F03F028A421BD147F6C071E0
:101D3000626A0140B1EB821F14D1A16A4FF6FF73B2
:101D4000C903994300F44032A1F580318A4209D198
:101D5000E16A00F07060B0EB016F03D1002002B0C7
:101D6000BDE8F081012002B0BDE8F0816069002883
:101D700040F20000C4F2472000F091800121C0F839
:101D8000801EFFF733FD0546706F8007B6D4FFF75E
:101D90002DFD401B0228F7D991E0306C4FF0000870
:101DA000C0000CD4CDF80480306C4FF0010840F036
:101DB00080503064306C00F080500190019847F200
:101DC0000007C4F200073868C0054DD4386840F4F5
:101DD00080703860FFF70AFD054600BF3868C0050F
:101DE00042D4FFF703FD401B0228F7D967E0B06833
:101DF00000F00C00082803D1706840023FF557AF8F
:101E00006568B5F5803F07D03068B5F5A02F40F084
:101E1000B38040F480203060306840F4803030601F
:101E2000FFF7E4FC054600BF306880033FF545AF8F
:101E3000FFF7DCFC401B6428F6D940E0E06800288E
:101E400064D00020C4F2472001210160FFF7CEFCDE
:101E5000054600BF306880073FF546AFFFF7C6FC78
:101E6000401B0228F6D92AE0A568012D05D0306F65
:101E7000052D5FD140F004003067306F40F0010065
:101E80003067FFF7B3FC054641F28837306F8007B3
:101E900069D4FFF7ABFC401BB842F7D90FE0002133
:101EA000C0F8801EFFF7A2FC054600BF706F8007D8
:101EB0007FF524AFFFF79AFC401B0228F6D90320D8
:101EC00002B0BDE8F0810027C4F247270020386641
:101ED000FFF78CFC022D05460CD100BF3068800155
:101EE00064D5FFF783FC401B02284FF00300F5D9AF
:101EF00035E700BF306880017FF530AFFFF776FC33
:101F0000401B02284FF00300F4D928E70020C4F258
:101F1000472000210160FFF769FC05463068800713
:101F20007FF5E9AEFFF762FC401B02284FF003008B
:101F3000F4D914E720F001003067306F20F004007E
:101F40003067FFF753FC002D05469DD141F28837DD
:101F5000306F800707D5FFF749FC401BB8424FF0B0
:101F60000300F5D9FBE6B8F1000F3FF4CAAE306CC0
:101F700020F080503064C4E620F480303060306857
:101F800020F480203060FFF731FC002D05467FF4FF
:101F90004BAF07E0FFF72AFC401B64284FF003001B
:101FA0003FF6DDAE30688003F4D486E604F11C050C
:101FB0002FCD084340EA8210D9034FF6FF729143B8
:101FC000A1F5803140EA0560084370600120386661
:101FD000FFF70CFC044600BF306880013FF5BEAE41
:101FE000FFF704FC001B02284FF00300F4D9B6E60B
:101FF0007047000070470000002804BF01207047B0
:1020000010B5044690F83D0028B9002084F83C0043
:10201000204600F01FF8022084F83D002068211DB2
:1020200001F02CF9012084F8460084F83E0084F881
:102030003F0084F8400084F8410084F8420084F8AE
:10204000430084F8440084F8450084F83D000020F3
:1020500010BD00007047000090F83D1001291CBF22
:1020600001207047022180F83D10006841F2FF72A4
:10207000C168C4F20002904241F00101C1600DDC70
:1020800040F2FF71C4F20001884215DCB0F1804FCC
:1020900029D040F20041C4F2000122E040F2FF31B9
:1020A000C4F20101884212DC41F60001C4F20001D1
:1020B000884218D0002112E040F60001C4F200016D
:1020C000884210D040F60041C4F2000109E044F219
:1020D0000001C4F20101884205D040F20041C4F27F
:1020E0000101884206D1816801F00701062904BF79
:1020F00000207047016841F0010101600020704735
:102100007047000010B5016804460869800744BFA5
:10211000C8685FEA807038D40869400744BFC8685F
:102120005FEA40703DD40869000744BFC8685FEAB1
:10213000007043D40869C00644BFC8685FEAC06045
:1021400048D40869C0071CBFC8685FEAC0704ED198
:102150000869000644BFC8685FEA00604FD4086998
:10216000400644BFC8685FEA406050D408698006F2
:1021700046BFC8685FEA806010BD6FF0200220464D
:102180000A61BDE81040FFF735BF6FF0020008613B
:10219000012020778869800741D02046FFF7B0FFF3
:1021A00043E06FF00400086102202077886910F492
:1021B000407F3ED02046FFF7A3FF40E06FF00800CD
:1021C000086104202077C86980073CD02046FFF7CB
:1021D00097FF3EE06FF01000086108202077C86983
:1021E00010F4407F39D02046FFF78AFF3BE06FF0C4
:1021F00001000861204600F03FF82168A8E76FF071
:10220000800008612046FFF7F3FE2168A7E76FF022
:1022100040000861204600F039F82168A6E7204612
:1022200000F026F8204600F025F8216800202077ED
:1022300072E7204600F01CF8204600F01BF82168E9
:10224000002020776FE7204600F012F8204600F0CB
:1022500011F82168002020776CE7204600F008F88C
:10226000204600F007F821680020207769E7000089
:10227000704700007047000000680021C4F20101AF
:10228000884208BFFFF7B8BA7047000070470000E7
:102290007047000070470000F0B581B00446006848
:1022A0000168C268456901F02F03202B02F020036A
:1022B00006D12BB1204601B0BDE8F04001F006B9CF
:1022C0005FEA017C07D005F0010E12F4907F8EF0DA
:1022D00001052FD175B3236B1140CA0618D5012B08
:1022E00016D1002100910168009141680091009988
:1022F0004169490600F18281A18DE28DE38D002BB9
:102300001CBF891A5FEA014240F0FD8001B0F0BDB8
:102310000A0600F12B824906F8D5C16821F0400178
:10232000C1602021204684F83D1001B0BDE8F04096
:1023300000F042BCCE0718BF12F4807603D0266CA2
:1023400046F00106266401F00407012686EA970795
:102350002F4303D1276C47F00207276401F00207DF
:1023600086EA5706354303D1256C45F004052564FC
:1023700053EA0E0318BF0123BCF1000F04D51BB1B3
:10238000236C43F008032364236C002BBED0114060
:10239000890603D5204601F099F820684169226C2E
:1023A00001F0400102F00802891800F0F08100BF3E
:1023B00050E8030F216820F4907041E80302C2B393
:1023C000206850E8030F216820F4907041E8030270
:1023D0007AB3206850E8030F216820F4907041E838
:1023E000030232B3206850E8030F216820F4907094
:1023F00041E80302EAB12068DAE700BF206850E84C
:10240000050F216820F0010041E80502DAB12068DB
:1024100050E8050F216820F0010041E8050292B163
:10242000206850E8050F216820F0010041E805020E
:102430004AB1206850E8050F216820F0010041E80A
:102440000502002ADAD1206B012824D1206850E847
:10245000030F216820F0100041E80302DAB1206880
:1024600050E8030F216820F0100041E8030292B108
:10247000206850E8030F216820F0100041E80302B3
:102480004AB1206850E8030F216820F0100041E8AD
:102490000302002ADAD1202084F83E0000202063C5
:1024A00020684169490640F18B8150E8050F216899
:1024B00020F0400041E80502002A00F06F8120680A
:1024C00050E8050F216820F0400041E80502002A8D
:1024D00000F06481206850E8050F216820F040007A
:1024E00041E80502002A00F05981206850E8050FF4
:1024F000216820F0400041E80502002A00F04E81EA
:102500002068D2E7206850E8030F226820F490701A
:1025100042E80303BBB3206850E8030F226820F4AD
:10252000907042E8030373B3206850E8030F2268F9
:1025300020F4907042E803032BB3206850E8030FA7
:10254000226820F4907042E80303002BDAD11AE0ED
:10255000206850E8050F226820F0010042E80503DA
:10256000DBB1206850E8050F226820F0010042E846
:10257000050393B1206850E8050F226820F00100A0
:1025800042E805034BB1206850E8050F226820F0AF
:10259000010042E80503002BDAD1202084F83E0038
:1025A00000202063206850E8030F226820F010000C
:1025B00042E80303DBB1206850E8030F226820F0F3
:1025C000100042E8030393B1206850E8030F22682B
:1025D00020F0100042E803034BB1206850E8030FDD
:1025E000226820F0100042E80303002BDAD189B200
:1025F000204601B0BDE8F040FFF74ABEA26B11686B
:102600004B689EB2002E3FF481AEA18D8E42BFF486
:102610007DAEE385D269B2F5807F00F09E8050E800
:10262000030F216820F4807041E80302E2B12068C2
:1026300050E8030F216820F4807041E803029AB14A
:10264000206850E8030F216820F4807041E80302FD
:1026500052B1206850E8030F216820F4807041E8EF
:1026600003020AB12068DAE7206850E8050F216804
:1026700020F0010041E80502BAB3206850E8050FD8
:10268000216820F0010041E8050272B3206850E89B
:10269000050F216820F0010041E805022AB32068F7
:1026A00050E8050F216820F0010041E80502002AEA
:1026B000DAD11AE0206850E8050F216820F04000C8
:1026C00041E80502DAB1206850E8050F216820F0E2
:1026D000400041E8050292B1206850E8050F2168EA
:1026E00020F0400041E805024AB1206850E8050F9B
:1026F000216820F0400041E80502002ADAD12020BC
:1027000084F83E0000202063206850E8030F216811
:1027100020F0100041E80302DAB1206850E8030F0E
:10272000216820F0100041E8030292B1206850E8CF
:10273000030F216820F0100041E803024AB120682D
:1027400050E8030F216820F0100041E80302002A3E
:10275000DAD1A06BFEF73AFBA18DE08D081A81B2A9
:10276000204601B0BDE8F040FFF792BD94F83D105F
:1027700021297FF4CBADA168B1F5805F01D121693A
:1027800021B3216A4A1C22620978416025E0204673
:10279000FFF780FD0020206401B0F0BDA06B78B190
:1027A00043F2C141C0F600010165FEF757FB002866
:1027B0003FF4ACADA06B016D01B0BDE8F04008473F
:1027C000204601B0BDE8F040FFF764BD216A31F852
:1027D000022B6FF35F2242602162E18C01390A040F
:1027E000E1847FF493ADC16821F08001C160C168CC
:1027F00041F04001C16001B0F0BD0000002804BFFD
:102800000120704710B5044690F83D0028B900201B
:1028100084F83C00204600F021F8242084F83D0094
:102820002068C16821F40051C160204600F0CCFE50
:102830002068016921F490410161416921F02A0178
:102840004161C16841F40051C16000202021206431
:1028500084F83D1084F83E1010BD000080B586B0AD
:1028600000220592CDE9032241F200010068C4F282
:10287000010188420292019201D006B080BD43F668
:1028800030000092C4F20200436943F01003436138
:10289000436903F010030093009B0092036843F028
:1028A00001030360006800F00100009000984FF4FD
:1028B000C06001900220CDE90202032004900720AD
:1028C000059001F5704001A9FEF7ACFE252000211E
:1028D0000022FFF72DF82520FFF71AF806B080BD7B
:1028E000704700002DE9F04381B0044690F83D00A8
:1028F00020280DD10F4600294FF0010000F0EC8098
:102900001646002A00F0E88094F83C00012803D124
:10291000022001B0BDE8F083012084F83C004FF0B4
:10292000000921201D46C4F8409084F83D00FEF7C0
:102930005DFFA684E684A1688046B1F5805F07D17B
:10294000206900281CBF38464F463E46074600E037
:10295000002684F83C90E28C2068016812B36A1C5F
:1029600047D0002D00F0C98009060AD4FEF73EFFCB
:10297000A0EB0800A84200F2C780206801680906A1
:10298000F4D517B117F8011B04E036F8021B002735
:102990006FF35F214160E18C0139E184E28C0168D1
:1029A000002AE1D1490610D4002D41D0691C39D14B
:1029B000016849065CBF01685FEA416105D40168AE
:1029C000490602D401684906F2D5202084F83D006A
:1029D000002001B0BDE8F08336F8021B00276FF33A
:1029E0005F214160E18C0139E184E28C0168002AB9
:1029F000D8D009065FBF01685FEA016101685FEA3C
:102A0000016105D40168090602D40168F1E700BF3D
:102A1000002FE1D017F8011BE3E700BF2068006832
:102A20004006D2D4FEF7E2FEA0EB0800A842F5D99A
:102A3000206850E8030F216820F4D07041E80302B9
:102A4000BAB3206850E8030F216820F4D07041E841
:102A5000030272B3206850E8030F216820F4D0709D
:102A600041E803022AB3206850E8030F216820F4EC
:102A7000D07041E80302002ADAD11AE0206850E859
:102A8000050F216820F0010041E80502DAB1206855
:102A900050E8050F216820F0010041E8050292B1DD
:102AA000206850E8050F216820F0010041E8050288
:102AB0004AB1206850E8050F216820F0010041E884
:102AC0000502002ADAD1202084F83D0084F83E0077
:102AD000002084F83C00032001B0BDE8F08336F804
:102AE000021B00276FF35F214160E18C0139E18413
:102AF000E28C0168002A3FF455AF090604D5002F87
:102B0000EDD017F8011BEFE7206850E8030F2168AC
:102B100020F4D07041E80302BAB3206850E8030FF4
:102B2000216820F4D07041E8030272B3206850E8B5
:102B3000030F216820F4D07041E803022AB3206813
:102B400050E8030F216820F4D07041E80302002A06
:102B5000DAD11AE0206850E8050F216820F0010062
:102B600041E80502DAB1206850E8050F216820F03D
:102B7000010041E8050292B1206850E8050F216884
:102B800020F0010041E805024AB1206850E8050F35
:102B9000216820F0010041E80502002ADAD1202056
:102BA00084F83D0084F83E00002084F83C000320B7
:102BB00001B0BDE8F083000070470000FEE70000B0
:102BC00040F28420C2F20000016801310160FBE79D
:102BD00080B588B041F280501F224FF40073C2F2DA
:102BE00000004FF0010E0021CDE90003CDE90222E3
:102BF00041F2D04042F6C1324FF0B00CCDE9041E94
:102C0000C2F2000004A1C0F600020023CDF818C0F3
:102C100008F03AF908B080BD49444C45205461732E
:102C20006B00000040F60044C4F2020404F5406565
:102C3000284680210022FEF7D3FD20464FF4805124
:102C40000122FEF7CDFD1E2007F052FB2846802111
:102C50000122FEF7C5FD20464FF480510022FEF709
:102C6000BFFD1E2007F044FBE2E7000080B588B0FE
:102C700041F6300003224FF48063C2F200004FF0AF
:102C8000010E0021CDE90003CDE9022241F280705E
:102C900042F625424FF0B00CCDE9041EC2F200000E
:102CA00004A1C0F600020023CDF818C008F0ECF82B
:102CB00008B080BD4C4544205461736B0000000097
:102CC00006F09EBEFEE70000FEE70000B0B586B04D
:102CD00003F0BAFA47F22050C0F20100009040F22F
:102CE0001C2544F68410C2F20005C2F2000005F172
:102CF00008040F304FF03C0C20F00F0333A12046A6
:102D00004FF4C062CDF804C005F0AAFF286010B1EE
:102D100068680130686044F284124BF27D13012030
:102D20004FF40061C2F20002C0F60003CDE9004397
:102D3000CDE90221049043F6C81040F2211240F27E
:102D4000BC7CC2F2000027A1CCF2A8026FF0FF0306
:102D5000CDF814C005F08CFE286010B16868013011
:102D6000686043F6C81043F2D841C2F20000C2F2D4
:102D700000014FF4007205F007FE286010B168688A
:102D80000130686043F6C810C2F2000006F048F84F
:102D9000286010B168680130686043F6C810C2F25C
:102DA000000006F063F8286010B1686801306860C0
:102DB00043F6C810C2F2000005F02AFE286010B1E8
:102DC00068680130686006B0B0BD00BF4E657458D9
:102DD000204D61696E205061636B657420506F6F88
:102DE0006C0000004E65745820495020496E737481
:102DF000616E636520300000F0B583B040F22C179F
:102E00000C46C2F200070546002607F1340001A96E
:102E100022460023CDE9016607F00CFF0198294600
:102E20002246FDF7E9FB381D02A9002207F012FE39
:102E3000DDE90101086002983A684460866000BFDD
:102E4000936811464BB19A68194632B1936811469E
:102E50001BB19A681946002AF2D1886003B0F0BD10
:102E60002DE9F04F85B0002900F0EB804A1E42F2B8
:102E7000304B01F00304032AC2F2000B04D20023FA
:102E8000002C40F08980DCE0CDE90041611A00F1BE
:102E900001086FF0030E00254FF037094FF0200AAC
:102EA000029000BF08EB0E04E6780EF1040E09EB69
:102EB00016123709A02E38BF07F130020BF8052093
:102EC000E27802F00F0202F137060A2A38BF02F157
:102ED000300645F001020BF8026045F002020BF8E3
:102EE00002A022790BEB050609EB121C1709A02A98
:102EF00038BF07F1300C86F803C0227902F00F02C8
:102F000002F137070A2A38BF02F13007377186F815
:102F100005A0627909EB12131709A02A38BF07F13F
:102F20003003B3716279AF1D02F00F0202F1370373
:102F30000A2A38BF02F1300347F001020BF80230D1
:102F400007EB0B0282F802A0A27909EB1217130912
:102F5000A02A38BF03F130077772A27905F109077B
:102F600002F00F0202F137030A2A38BF02F13003E0
:102F700007EB0B02537047F002020BF802A001EBC3
:102F80000E02043205F10C058CD10298DDE90041F6
:102F90000EF10403002C54D0C55C37262A0906EB39
:102FA0001517A02D03EB430538BF02F130070BF8CE
:102FB0000570C25C5D4402F00F0202F137070A2A75
:102FC00038BF02F130074FF0200C012C6F7085F8EC
:102FD00002C036D05F1CC25D150906EB1216A02A8E
:102FE00007EB470238BF05F130060BF80260C65DFB
:102FF0005A4406F00F0505F137060A2D38BF05F1D2
:103000003006022C567082F802C01AD09E1C825DD7
:103010003727130907EB1217A02A06EB460238BF21
:1030200003F130070BF80270805D5A4400F00F0086
:1030300000F137030A2838BF00F130032020537015
:10304000907040F22C1601EB4104C2F200060025FC
:1030500006F1340003A922460023CDE9035507F009
:10306000E9FD039842F23041C2F200012246FDF729
:10307000C3FA301D04A9002207F0ECFCDDE90301CE
:103080000860049832684460856000BF9368114608
:103090004BB19A68194632B1936811461BB19A68D0
:1030A0001946002AF2D1886005B0BDE8F08F000013
:1030B00082B04FF000088DF80780FFF789FD40F2DD
:1030C0008425C2F200052C686420642607F010F9FC
:1030D0002868041BFFF7CAFD00F06CF90FF24809DD
:1030E0000DF1070A0FF2500B2F68642007F000F96A
:1030F00028680023C01B201AA0FB060168F100020B
:1031000002FB06112246FDF7FFF98DF8070048463D
:103110000E21FFF771FE50460121FFF7A1FE584630
:103120000421FFF769FEDFE7435055CAB9D3C3C294
:10313000CAA3BA3078000000250D0A0080B588B017
:1031400042F2606002224FF48063C2F200004FF04E
:10315000010E0021CDE90003CDE9022242F2B05078
:1031600043F2B1024FF0B00CCDE9041EC2F20000F0
:1031700006A1C0F600020023CDF818C007F084FEB7
:1031800008B0BDE88040FFF7A1BD00BF53595354BC
:10319000454D205461736B0080B592B0002043F61A
:1031A0004001CDE90A00CDE908000590CDE9030012
:1031B000CDE901000090C4F202010A6842F0805299
:1031C0000A60096801F0805100910099009047F26F
:1031D0000000C4F20000016841F440410160006851
:1031E0004FF4800100F440400090009801200690C8
:1031F0004FF480300D910F21079002200E91D821BD
:103200000C90CDE90F100420119006A8FEF73CFDAC
:1032100018B1EFF3108072B6FEE7FEF7C5FB20B1E0
:10322000EFF3108072B600BFFEE70F20019002207E
:103230000290002003904FF4A05004904FF480506F
:10324000059001A80521FEF7EDFB20B1EFF31080FA
:1032500072B600BFFEE712B080BD00004EF6885087
:10326000CEF20000016841F4700101607047000077
:1032700043F68010C2F20000FEF744BF10B540F6DE
:10328000FF3E0368C4F2000E40F2004C7045C4F2E9
:10329000010C26DCB0F1804F30D040F20042C4F285
:1032A000000290422AD040F60002C4F2000290428E
:1032B00024D041F6FF72C4F20002904228DC70452F
:1032C0003ADCB0F1804F5CD040F20042C4F2000220
:1032D000904256D040F60002C4F20002904250D014
:1032E00053E040F60042C4F20002904206D060452E
:1032F00004D00022C4F201029042DAD14A6823F0DD
:103300007003134341F6FF72C4F200029042D6DD0F
:1033100043F6FF72C4F20102904220DC42F2000246
:10332000C4F2000290422CD00022C4F2010290426A
:1033300027D0604525D028E040F60042C4F20002C4
:1033400090421ED041F60002C4F20002904218D012
:1033500041F60042C4F20002904212D015E044F25D
:103360000002C4F2010290420BD044F60002C4F203
:103370000102904205D044F20042C4F201029042A0
:1033800003D1CA6823F44073134323F080024B69CE
:10339000D1F800E08C681A430260C46240F4806295
:1033A000C0F828E0624504BF096901630121416159
:1033B00010BD000080B588B042F610301E224FF4D8
:1033C0008063C2F200004FF0010E0021CDE900033E
:1033D000CDE9022242F6602043F209424FF0B00CE0
:1033E000CDE9041EC2F2000004A1C0F600020023D1
:1033F000CDF818C007F048FD08B080BD55415254C3
:10340000205461736B000000ADF5027D40F22C1872
:10341000C2F200084FF4806008F104044BF29221DC
:1034200041F6304330270090C0F60001C2F200039D
:1034300020460C22019707F03FFB42F230054BF289
:103440009B21C2F20005342708F13400C0F60001C8
:103450002A464FF48063009707F032FC204641462D
:103460000022002707F0F6FAD8F8000040F2E80939
:103470000560D8F80050C2F2000902AEC5E9017734
:103480001AE000BFD7E900123046FDF7B5F8B96879
:10349000D7E90004A96007F0BDFC384607F0BAFB85
:1034A000A2B2484631462346FFF71CFA012006F037
:1034B0001FFFD8F80050AF68002FE3D10024EFE7DA
:1034C000806B0021C185C184FEF7E4BE81B090F815
:1034D0003E10222920D18368B3F5805F08D10169AD
:1034E000002964D000F128010A6803685B680AE0DB
:1034F000014651F8282F13B90369002BF5D0036852
:103500005B6803F07F0313700A6801320A60C18DA3
:1035100001390A04C18501D001B070470168CA6849
:1035200022F02002CA60CA6822F48072CA604A6926
:1035300022F001024A61202280F83E20026B012A1B
:103540003ED10022026300BF51E8031F026821F050
:10355000100142E803130168DBB151E8031F026860
:1035600021F0100142E80313016893B151E8031FF1
:10357000026821F0100142E8031301684BB151E8E1
:10358000031F026821F0100142E803130168002BB9
:10359000DAD10A68D20606D5002200920A680092A3
:1035A000496800910099818D01B0FEF771BE0168F4
:1035B000826A49686FF35F2122F8021B8262A6E7E4
:1035C00001B0FFF78DB9000010B504460068D4E9DA
:1035D00002C22369016921F440511143016162690A
:1035E00043EA0C01E3691143C268194349F20C63D1
:1035F0009A431143C1604169A26921F4407141F2CB
:103600000043114340F48062C4F201039A424161D5
:1036100002D1FEF7F1FA01E0FEF7DAFAE169636838
:103620001922B1F5004FA0FB02011FD15A00DB0F98
:10363000FCF76AFF48F21F51C5F2EB11A0FB012312
:103640005A096FF0630302FB0300322303EBC0004F
:10365000A0FB01014FF4F87000EA111000EB02101A
:10366000C1F3421122680843906010BD9A009B0F7D
:10367000FCF74AFF48F21F51C5F2EB11A0FB0123F2
:103680005A096FF0630302FB0300322303EB0010BF
:10369000A0FB0101F02000EA511000EB0210C1F381
:1036A000431122680843906010BD000040F2E8001A
:1036B000C2F20000FEF7F0BDFEE7000080B582B068
:1036C000D1F808C048F23402BCF80C3001911BBAA2
:1036D0001B0C934243F2D862C2F2000252680A63A2
:1036E00012DCB3F5006F17D040F6060293421FD1EB
:1036F0004B6A0CF10E028A60A3F10E024A6202B01C
:10370000BDE8804000F066B948F23502934214D01B
:1037100048F2DD6293420BD14B6A0CF10E028A60D3
:10372000A3F10E024A6202B0BDE8804001F0B2BDD2
:1037300001A805F031FB02B080BD4B6A0CF10E020E
:103740008A60A3F10E024A6202B0BDE8804002F036
:103750004FBD000070B5CA6952B3EFF3108272B664
:1037600004464869CB69884209D01D688D4201D161
:10377000186048698B6983618B69586101E000209A
:103780001860D4F8D40600250138C4F8D406086BB4
:10379000CD610D6382F3108850B100BF616DC669C1
:1037A0000131C561616502F001FD002E3046F5D1A1
:1037B000002070BD2DE9F0410F4604460846114631
:1037C0001646FCF7A8FF4EF64F40C4F6C460A6FBB1
:1037D00000024FF0FF3000EB12114FEA121851B106
:1037E000A8F1020CBCF1030F01F0030206D23D4622
:1037F0002B46D2B92AE0FF603B465CE0A2EB08030F
:103800005E1C3D462B463435DD6003F168051D64C2
:1038100003F19C055D6703F1D0050436C3F8A85099
:10382000F0D1A5F134062B4682B105F13403012A0B
:10383000EB6003D12E46376451B93CE005F1680EC8
:10384000022AC5F840E02FD11E467346376491B373
:10385000BCF1030F01D21D4614E0A2EB08060136AD
:10386000A3F16805A3F13400186143F8245CA3F1C7
:103870009C00A3F1D00543F8580C43F88C5C043647
:103880002B46EDD12B46B2B1A5F13403012A2B61B1
:1038900011D0A5F16803022A45F8243C1CBFA5F10C
:1038A0009C0345F8583C06E005F19C036B6776469F
:1038B00000293764CCD1342001FB003043F6AD71D0
:1038C00018610020C4F8CC0643F6B160C0F60000D1
:1038D00043F6955243F60913C0F60001C0F6000204
:1038E000C0F60003C4F8E4060020C4F8D076C4F89B
:1038F000F476C4F8F886C4F8E036C4F8E816C4F8DC
:10390000EC26BDE8F0810000F0B581B00646D0F8A5
:10391000D00648B305690F46304629461446FFF7DE
:1039200019FFEFF3108072B63968EF61F9B13968A9
:10393000696139688969A9614D61396801F11807C0
:10394000012C3D6018D1E9688D4229D02A690A61AD
:103950002A69D160D6F8CC1649B3E96051F8102F26
:103960002A610A680C3227E0172001B0F0BDC5E9D2
:103970000555012C3D60E6D0D6F8D0168D420CD00E
:10398000D5E90323C6F8D05613612B69DA600A69BA
:10399000E960D560E9682A610D6106F2D4610FE043
:1039A0000021C6F8D016D6F8CC160029D5D106F2DB
:1039B000CC61ED6005F1100215600D6006F1840127
:1039C0000A682C6001320A6080F31088002001B080
:1039D000F0BD0000EFF3108272B6D0F8E83663B1A4
:1039E000D0F8D8369BB1D0F8DC36C0F8DC16D961F7
:1039F0000023CB6182F310887047D0F88030013308
:103A0000C0F8803082F31088084602F065BB0023BE
:103A1000C0F8D816C0F8DC16CB6182F3108800F528
:103A200012701021002205F0B5BE00002DE9F04F04
:103A300095B00C46496A82461B2938D9A068D0F84F
:103A4000108000F1040E88EA38463FFA96F686EABE
:103A5000382546699EE8025086EA36433FFA93F3DA
:103A600083EA3623866981EA3142436186EA364336
:103A70003FFA92F23FFA93F382EA31278CEA3C4113
:103A80008EEA3E4283EA36264FF0FF333FFA91F149
:103A90003FFA92F213FA87F381EA3C2182EA3E224E
:103AA000022B47608160C260056186610AD3DAF843
:103AB00080000130CAF88000204602F00DFB15B0EE
:103AC000BDE8F08F0B0C0C93130CD4F830B043EA24
:103AD00001410B91BBF1000F04BF0AF21C7BC4F83B
:103AE00030B0DBF814102D0C002945EA024900F033
:103AF000CD80B9F1000F2CD089452AD1DBF80C001C
:103B00000C99814204D1DBF810000B998142D3D08B
:103B1000DBF8400038B90A20CBF84000226B504651
:103B2000494600F037F9DBF8487047B19BF80710B9
:103B3000DBF84420DDE90B6350460096B847DAF81D
:103B4000F026002AB8D050462146904715B0BDE86F
:103B5000F08FBAB2012A40F0C380DAF870208E42AA
:103B600002F10102CAF8702040F0BF80DAF8741048
:103B700002220131CAF8741046688280226B4FF627
:103B8000FF771169D2680891090C0A9141EA024154
:103B900081600692226B079151690496BE4302969A
:103BA00009910F0C3FFA96F1049E126941EA1661E1
:103BB0000392049147EA0241029AC1600597276B7C
:103BC000160A049A06F1007656407A694660049215
:103BD000069A96B2089A02F07F47079A3E440A9FD7
:103BE0005640120A42EA07623FFA96F67240826035
:103BF000039A099E92B206F07F463244059E4A40DF
:103C0000090A41EA06613FFA92F2049F51400C9E74
:103C10004FEA0C62C160B9B2114346EA0742514013
:103C2000120A42EA06623FFA91F151404FEA1C2221
:103C300001614FEA0E610B9F11433A0A794042EA53
:103C400003623FFA91F151404FEA1E2241614FEA6F
:103C50000861114381EA09014FEA192242EA05622B
:103C60003FFA91F1514081611C30E06006201C2137
:103C70000D90206B6162C16B14900DA8CDF84CA023
:103C800011940F961097884701222FE0DBF844200B
:103C9000002A3FF42EAF914505D0B9F1000F08BFBF
:103CA00096427FF426AFDBF80C000C99814205D1D7
:103CB000DBF810000B9981423FF4FEAEDBF8487050
:103CC000002F3FF4F9AE9BF80710DDE90B63504677
:103CD0000096B847204602F0FFF915B0BDE8F08F16
:103CE000DAF878000130CAF87800002205EB080005
:103CF00000F01F00B9F1000F1ABF0AEB8001D1F8E4
:103D00004C7600270AEB800000F24C6637B1386A27
:103D1000484506D07F6930688742F7D100271AB935
:103D200018E0386830B1AAB1B9F1000F18D115B058
:103D3000BDE8F08F0020C7E901000C983946786291
:103D40000B981546C7E90A0B504600F04DF92A4674
:103D5000002AE9D1204602F0BFF9B9F1000FE6D000
:103D6000002FE4D1DAF8E036504631460022002434
:103D700098470028DBD130688069C0E901440C997C
:103D8000C0F8209041620B99C0E90A1B15B0BDE84C
:103D9000F08F00002DE9F04F8BB06AB10646D0F8E5
:103DA000380114460D460AA92C22002301F0DEFE3C
:103DB00038B10BB0BDE8F08F4FF0FF3006F098FA45
:103DC000FAE7DDF828E04FF48432CEF83040F16EA7
:103DD00040F200190131F1661C21CEF82410DEF802
:103DE0000810C0F2080941F81C2D0122C0F204623B
:103DF000CEF808104A60D4E9033201954FEA124B1D
:103E00004BEA03458D60D4E904CA02F07F424FEAD1
:103E10001A40009040EA0C4740F20640CF60C0F2E2
:103E20000010D4F81480486098B2104468402A0A00
:103E300042EA0B623FFA90F0504088601FFA8CF023
:103E40000AF07F421044009B78403A0A42EA03623B
:103E50003FFA90F05040C86008F47F404FF600727F
:103E600040EA0840C0F2FF0202EA08223FFA90F05E
:103E70005040019A08610020486182EA32403FFACE
:103E800090F080EA322088610520C1F8009002900D
:103E90004FF6FF7004904FF0FF30E16B059002A8E1
:103EA0000896CDF818E0099488470BB0BDE8F08F6C
:103EB0002DE9F0470446D0F8D406002866D004F572
:103EC000DA694FF0000A4FF00A084846002710E070
:103ED0000130296AEA6AA8602046C5F80480FFF725
:103EE00059FF00BFD4F8D4060137874205F10C0012
:103EF0004CD2056868680028F4D001386860F1D1B8
:103F0000A8681228E4D1EFF3108172B6EA69AAB169
:103F10006869854209D01368AB4201D110606869B5
:103F2000AA698261AA69506101E0C2F800A0D4F8D0
:103F3000D406C5F81CA00138C4F8D406EA68954236
:103F400010D028691061D9F800002B69A842DA6006
:103F500002D1E868C9F800000269E8602A610269D4
:103F60000561D560286BC5F830A081F31088002862
:103F7000B8D000BF616DC6690131C0F81CA0616591
:103F800002F014F9002E3046F4D1ABE794F8200784
:103F9000002808BFBDE8F087D4F85C0700281CBFE4
:103FA0000138C4F85C07BDE8F0870000B0B50446EE
:103FB000D0F8D806002808BFB0BD0025EFF3108068
:103FC00072B6D4F8D816CA69002AC4F8D82608BF31
:103FD000C4F8DC5680F310882046FFF727FDD4F89C
:103FE000D8060028EAD1B0BD2DE9F04389B00C46CF
:103FF000EFF3108172B6276BBFB34FF00009C4F81E
:104000003090054681F310880DF104080CE000BFE4
:10401000D5E90523194401321439C5E90521006B9E
:10402000C16B40468847EFB13846FF69C0F81C9025
:10403000E26A416A0263D4E90936CDE90336536A7C
:1040400007959942CDF8049005900892E0D9D5F8EB
:1040500098120029E5D1696D0131696502F0A6F871
:10406000002FE1D109B0BDE8F08381F3108809B0D9
:10407000BDE8F08380B541F28840C2F20000FDF750
:104080002FFA002080BD000010B541F28844C2F232
:1040900000042046FDF784F9216841F21C0288588B
:1040A00040F4803040F0410300208B5010BD0000F0
:1040B000B0B50446FCF772FD41F28845C2F2000536
:1040C00040F28841C2F2000128468022FCF77EFCC3
:1040D000A06940F28821D0F83821C2F200012846B8
:1040E0001023FCF711FC002818BF0120B0BD000010
:1040F00048F20401C4F20201086840F010020020F6
:104100000A60704748F20401C4F20201086820F016
:10411000100200200A60704780B5014641F28840D5
:10412000C2F20000FCF7DCFD80BD00002DE9F04F7D
:1041300083B043F2D866C2F20006D6F810A040F26F
:10414000882906EB8A00D0F814B0C2F200094FEAC1
:104150004A1059F80000002800F10C8149F21402BD
:1041600009EB4A104FF0000CC4F2020206F11407EA
:1041700002AC55464FF00008009714E008F1010822
:104180001068000642BF8020106042F80CCC681C0A
:1041900000F00F05680159F80000B0F1FF3F09EB8E
:1041A000451040F3E7800168C90513D4681C00F08E
:1041B0000F0057F8200057F825105545486057F86C
:1041C00025004169C160D9D007EB8500006801690D
:1041D0008160D3E757F82510A646C1F804C00168EE
:1041E0005545C1F30D4157F82A2057F82530A1F164
:1041F000040151629A68F468114408FB1411CDF867
:1042000004B0D9600BD007EB85010A689368023BC4
:1042100093600A68D2E90232934280F08A80744641
:104220004FF00047B8F1000F1ED400BF0AEB0801A1
:10423000306801F00F0B21460022002304F0D8FC67
:1042400048BB029809EB4B1281684FEA4B130231CD
:104250008160916006EB8B01B8F1000FA8F10108B5
:1042600049F803704861E1DCB0680199FFF726FA6C
:10427000681C00F00F0A06EB8A00D0F814B049F26F
:104280001402009FC6F810A04FF000084FF0000C79
:10429000C4F2020274E706EB8B004069043004F0BC
:1042A0007BFDB8F1000FE3D40AEB080000F00F012A
:1042B0004A0149F8027006EB81014969B8F1000F23
:1042C0000A6902F102028A60D2DD411E01F00F018B
:1042D0004A0149F8027006EB81014969B8F1010F02
:1042E0000A6902F102028A60C2D000F10E0101F0F7
:1042F0000F014A0149F8027006EB81014969B8F1E2
:10430000030F0A6902F102028A60B1DB0D3000F08E
:104310000F00410149F8017006EB80004069A8F1E7
:104320000408016918F1010201F102018160BBD1A9
:104330009EE76A1E02F00F0206EB820253694FF0FD
:104340000047C3F804C00B685269D3F808C0DB68A3
:10435000D4689C4528BF013CD46007600868A8F178
:1043600001080169744602318160B8F1000F7FF5E0
:104370005DAF79E703B0BDE8F08F00002DE9F047AD
:1043800082B0056982466A6A076881688669A8689A
:104390000E326A6240F8101CDAF80C20A0F10E030D
:1043A00040F80C2CD6F82CE7D6F828874FEA1E4C9C
:1043B000AB604CEA084340F8083CD6F82C67053F50
:1043C0003604032F019540F8046C03D22EA454F850
:1043D000277008E095F82C904FF40067B9F1060FAC
:1043E00008BF48F2DD6746EA070481EA31463FFA32
:1043F00096F686EA312140F8101C82EA32413FFAF3
:1044000091F181EA322140F80C1C1FFA88F10EF07C
:104410007F42114459401A0A42EA0C623FFA91F174
:10442000514040F8081C210C41EA07416140220A32
:1044300042EA07623FFA91F1514040F8041C696A70
:1044400040F2EB52914205D3A860A1F10E006862E0
:1044500009200BE02846FFF75FFE78B1A868696A7B
:104460000E30A860A1F10E0068625A20CAF804005C
:1044700001A804F0B3FC02B0BDE8F0870020CAF840
:10448000040002B0BDE8F08706080000060800003E
:1044900035800000014644F2455044F2D942C0F64E
:1044A0000000C0F6000244F27953C0F60003C1E9EF
:1044B000D9200020C1F86C3370470000D0F86C336D
:1044C00002460BB110461847D2F8EC00431C0846D0
:1044D000C2F8EC3001F000BE0246D0F8E4004B6AAE
:1044E0000130072BC2F8E40007D8D2F8EC00431CD7
:1044F0000846C2F8EC3001F0EFBD40F27800C2F29D
:1045000000000068EFF30583184308D140F2C4109F
:10451000C2F20000006802F5CC7383420FD0EFF3C3
:10452000108072B6D2F87033C2F87013CB6180F38A
:10453000108802F512700421002205F02BB91046F4
:10454000FFF7BCBF70B50446EFF3108072B6D4F825
:1045500070130025C4F8705380F31088002908BF39
:1045600070BD00BFCE692046CD61FFF7A7FF002ECA
:104570003146F7D170BD0000F0B581B04A6A0C46F3
:104580008F680546002608464FF4803100230096C8
:1045900000F054FA4FF6FF7188420DD0D5E93A1079
:1045A000421C481CC5F8E8002046C5F8EC2001B0C4
:1045B000BDE8F04001F090BD3878082807D068B910
:1045C0002846214601B0BDE8F04000F013B8284667
:1045D000214601B0BDE8F04000F088B8D5F8F00001
:1045E000411C2046C5F8F01001B0BDE8F04001F0D4
:1045F00073BD0000F0B581B00246D0F800018B68B1
:10460000013040F2DC17C2F80001DC88EFF31085BE
:1046100072B6C2F20007D2E9DD033E6806F1010678
:104620003E6085F31088F3B126BA340CB0F8786098
:10463000B44221D0012B15D0006FB0F87860B4429D
:104640001AD0022B0ED0006FB0F87860B44213D0AD
:10465000032B07D0006FB0F87860B4420CD0006F25
:10466000043BE3D1A9B3D2F8EC000130C2F8EC006E
:10467000084601F031FD2CE0EFF3108372B6046FB1
:10468000A0420AD0D2F87463864208BFC2F87443CD
:10469000466F6667466F346702E00026C2F87463AF
:1046A000D2F87863013EC2F87863002282663E68E1
:1046B00001363E6083F310884B6A8E68083B4B627C
:1046C00006F10803C66F8B603160C0F8842005F0E6
:1046D0007DFEEFF3108072B639680139396080F3DE
:1046E000108801B0BDE8F04005F04ABEF0B585B0D5
:1046F00005460C468868D5F804114FF2FF72013167
:10470000C5F804114188676BC94309BA02EB11412E
:104710000A0C12FA81F101EB1141C94389B20A0A6C
:1047200042EA012100264180F968067004F1300256
:1047300004AB2846049600F02BFED5F80801FA6871
:104740000130049FC5F808014FF480308021CDE985
:1047500000102846214600230296039700F0C0FD72
:1047600005B0F0BD2DE9F04F87B08246D0F86C035C
:1047700000284FF00000059025D04C6B0E462069B4
:10478000411C20D000F07041B1F1604F1BD01546A4
:10479000326B1F46D2E90612D4F80C8001EA0003FE
:1047A000934203D1CA43884390420CD0B8F1000F22
:1047B00009D060686FF35F3028B9B8F1FE4F05D3B8
:1047C000B8F1FF3F02DD07B0BDE8F08F18F101003E
:1047D000F9D008F07040B0F1604FF4D0DAF8380149
:1047E00006A9242200234FF0000B01F0BFF9002896
:1047F000E9D1069A290ED2F80890FBB289F8001088
:10480000290C89F80110390667F30F21090AD4F839
:1048100000E0042081EA034382F82C00A9F802B0EA
:10482000C9F80430CEF3036B102303EB8B03536200
:104830004B44D6F834C0D360DCE90035DCE902042F
:1048400083EA33413FFA91F181EA332185EA354326
:104850003FFA93F383EA3523CCF8043080EA3043FF
:104860003FFA93F383EA3020CCF8080084EA34401E
:104870003FFA90F0DCF8103080EA3420CCF80C00DD
:1048800083EA33403FFA90F080EA3320CCF81000FE
:1048900001204B4600EB1E60CCF8001043F8081FC7
:1048A00010F003050EF0706715D03C2000EA9E5E04
:1048B000604650F8044F4B46012D43F80C4F17D07B
:1048C000604650F8081F4B46022D43F8101F07D1D1
:1048D000AEF1040E0CE0042000EB8B0E604607E006
:1048E000604650F80C1F4B4643F8141FAEF1080EFB
:1048F000B7F1407F0DD300254419676859194F60FF
:10490000A76810358F60E768AE45CF6024690C61F9
:10491000F2D19CE88B0080EA30453FFA95F585EAB4
:104920003020CCF8000081EA31403FFA90F080EA74
:104930003120CCF8040083EA33403FFA90F080EA5B
:104940003320CCF8080087EA37403FFA90F0DCF8D3
:10495000101080EA3720CCF80C0081EA31403FFA91
:1049600090F080EA3120CCF81000306B05AB42F8B3
:10497000300F5046414600F00BFD06980024426A75
:104980004FF48031002300944FF4803500F056F846
:10499000C04300BA000CDDE90571A9F80200FF2050
:1049A000CDE900055046424600230294039700F0EB
:1049B00097FC07B0BDE8F08F0123CEF200039942C7
:1049C00001D101207047D0F8C0328B4203D1D0F81A
:1049D000C4329342F5D0D0F8D4328B4203D1D0F810
:1049E000D8329342EDD0D0F8E8328B4203D1D0F8E0
:1049F000EC329342E5D0D0F8FC328B4203D1D0F8B0
:104A000000339342DDD0D0F810338B4203D1D0F87D
:104A100014339342D5D0D0F824338B4203D1D0F84D
:104A200028339342CDD0D0F838338B4203D1D0F81D
:104A30003C039042C5D0002070470000B0B511295A
:104A400001D0062963D1002B5CD0049C002C59D0E6
:104A5000B3F800C05B881144B4F800E06144648896
:104A60001944714421440B0C13FA81F101EB1141FB
:104A700009BA090C00284DD0D0E9023CACEB030583
:104A8000D418A4F1030EAA4288BF2CF0030E9E4551
:104A900029D90EF1030222F00302A21A1C4654F88F
:104AA000045B11FA85F1A64501EB154126D95D6835
:104AB00003F1080411FA85F1A64501EB154111D95E
:104AC0009D6803F10C0411FA85F1A64501EB15412F
:104AD00008D9DC68103311FA84F19E4501EB1441CA
:104AE000DCD800E023461AB34068A8B10CF00305F7
:104AF000022DC1D11B88023A1944BDE70433002AB4
:104B0000F2D115E04FF0FF3005F0F2FBFAE700219B
:104B10000028B1D162B18368032A02D0012A03D0F0
:104B200004E033F8020B0144002058701888014457
:104B3000080C10FA81F000EB104000BA000CB0BD78
:104B40002DE9F04F87B00D46044640F2702040F248
:104B50007421C2F20000C2F2000100680968174621
:104B600040F27822C2F20002084340F27C2112682F
:104B7000C2F200010968104340F28022C2F2000232
:104B8000084340F214011268C2F200010978104390
:104B90004FF0000A0843CDF818A000F09680DDF829
:104BA0005080DDF844B0204640F2BC711E46FBF751
:104BB000B2FD06EA0700C4F8380752A0C4F81C0783
:104BC00051A0C4F868070120C7F60070C4F87C073C
:104BD0004FF48070A4F86D074FF6FF70C4F88C078F
:104BE00010984FF07F414FF0FE424FF00109C4F89A
:104BF0008017C4F88427C4F8380104F59E7029464C
:104C0000002284F82097C4F83077C4F83467C4F8D9
:104C100058B7C4F85CA784F823A784F86F9784F882
:104C20006C97C4F8A4A76560C4F8349104F05AFFE7
:104C300004F51270294604F007FD05F0B9FA06469E
:104C400020B106AA3046414605F0DAFA129945F23B
:104C500019520091139904F5CC70CDE90118C0F6F2
:104C6000000229462346CDE90389CDF8149005F0CA
:104C700003FA642145F2853204F51B70CDE9001179
:104C8000C0F6000229462346CDF8089005F048FDFD
:104C900045F63D00C0F6000040F26021C4F8B407BC
:104CA000EFF3108072B6C2F200010A6842F22003EC
:104CB000C4F65013236062B1D2F81017C2F810473F
:104CC000C1F80C47C4F80C2707E04A2007B0BDE83C
:104CD000F08F0C602146C4F80C4740F26422C2F207
:104CE00000021368C4F81017591C116080F3108873
:104CF00026B1069906AA304605F082FA002007B0D0
:104D0000BDE8F08F50524900496E7465726E616C57
:104D1000204950204C6F6F706261636B000000008F
:104D200010B58AB00446D0F8B807D0B194F820077F
:104D3000B8B194F82407A0B1002104F21C7084F8E3
:104D400024170A210291099001A8D4F85817079056
:104D500002A808948847D4F8B837019A2046002161
:104D600098470AB010BD0000B0B50C46332A05467E
:104D70003AD0322A42D0062A03D1D5F89024BAB9C3
:104D800032E094F82C00012A08BF042809D0022A36
:104D900008BF042809D0112A0FD1D5F804243AB944
:104DA00022E0D5F864231AB91EE0D5F85023DAB111
:104DB0002846214690470020B0BDD5F87C3133B15C
:104DC0001104284622469847D0B194F82C000428B4
:104DD00007D10022C0F20232284621460023FFF705
:104DE000C1FC286C01302864D5E90801EA6C01385F
:104DF0002862606A081A6862501CE8640120B0BD2D
:104E00000020B0BD2DE9F0418AB004460890086B3F
:104E1000069109900D4641791E4600294FF0000188
:104E2000029115D0511C0AD0D0E9061301EA0207FD
:104E30009F4217D1CB4322EA0101994212D10420AB
:104E400002904FF6FF7004904FF0FF30059029E07C
:104E5000B2F1FE4F02D3B2F1FF3F06DC406990424F
:104E600003D01FE04169914247D100200990D4F856
:104E7000382101A92846002300F0ECFE30B1606D16
:104E8000616C01306065481C60640BE0D4E9050189
:104E900001306061686A084414380199A0612046B5
:104EA00000F0DCF9099868B1296B686A496A8842A0
:104EB0000ED9B6F5804F02D0D4F8981291B9606D32
:104EC00001306065284601F071F90AB0BDE8F08153
:104ED000D4E90512104401311438C4E90510286BD7
:104EE000C16B29B102A888470AB0BDE8F08100BFB4
:104EF0004FF0FF3005F0FCF9FAE702F07041B1F134
:104F0000604F09D1D4F8C00290424FF6FF70C0F252
:104F10007F0020D10021B7E0109F07EB172101F09F
:104F20001F0104EB8101D1F84C2601F24C681146B7
:104F300029B10B6ABB4214D049699142F8D10022D1
:104F400000216B6A406A834226D9002EB7D1D4F87B
:104F5000980208BBB3E7D4F8D412914211D10121D1
:104F600092E0D1E909231A4311D0EFF3108072B611
:104F7000D1E90923CDE90423C8F8001080F3108893
:104F800090E7D4F8E81291422ED102217CE0012270
:104F90006B6A406A8342D8D8BAB10020EFF310821E
:104FA00072B6E861086B28B301230646F769002F43
:104FB00045D0FE69002E3FD0F769002F3ED0FE6934
:104FC0000433002EF2D1013B3AE0D4F8E0362BB1A5
:104FD0002046414600220026984788B1606C616DEA
:104FE00001306064481C6CE7D4F8FC1291421DD17A
:104FF000032149E00D6382F310880AB0BDE8F08117
:10500000D8F800000A218069C0E908768662C0E904
:105010000116296BC162EE610563D4F8EC362A6B88
:105020002046394698470AB0BDE8F081D4F81013FD
:1050300091421ED1042127E0013301E002333746BB
:10504000032BFD6110D9C3690B630021C161616C41
:10505000636D01316164591C616582F3108801F050
:10506000A5F80AB0BDE8F08182F310880AB0BDE867
:10507000F081D4F82413914201D1052104E0D4F841
:105080003813914211D1062101EB810104EB81011A
:10509000D1F8D01210404FF4807300F1BC400029C9
:1050A000049305907FF4E3AEFCE610404FF480716A
:1050B00000F1BC4004910590F4E60000B0B584B066
:1050C0000446D0F81C0608B104B0B0BD0A226168DD
:1050D000CDE9002245F2F50204F5C4600125C0F6D1
:1050E00000022346029505F01BFBC4F81C5604B0D1
:1050F000B0BD000000F512704FF48071002204F082
:1051000049BB00002DE9F04381B0DDF82490B9F5EA
:10511000003F08D1D0F82071023FB7FA87F77F0926
:105120004FEA870E01E04FF0000E8F680D694E6A5E
:10513000A7EB0E07A7F114040EF1140C6644AC4261
:105140008C604E6205D200BF4FF0FF3005F0D0F802
:10515000FAE791F82E5091F82D7075441435012F0F
:105160004C6381F82E506DD0B6B2334343F08A477A
:10517000BEF1000F18BF43F08C47D0F83431DDF892
:105180002880089D5E1CC0F8346148EA034649EA5D
:10519000056327606660A360086BBEF1000F40697D
:1051A0002261E0601EBF0025C9F20445656187EAFF
:1051B00037453FFA95F585EA37252560350C45EAF0
:1051C00008457540360A46EA08663FFA95F5754087
:1051D00065601D0C45EA09455D401B0A43EA096309
:1051E0003FFA95F56B40A36080EA30433FFA93F3B2
:1051F00083EA3020E06082EA32403FFA90F080EAB1
:105200003220BEF1000F206107D0606980EA304291
:105210003FFA92F282EA30206061002708460421BA
:10522000624600230097FFF709FC4FF6FF714840E4
:1052300020F0FF0140EA0141090AA26881EA30201A
:105240001043A060002001B0BDE8F08340F2602070
:10525000C2F200000021C0E900117047EFF3108294
:1052600072B6D0F874314BB1D0F87831C0F87811FB
:10527000D9610023CB6182F3108870470023C0E915
:105280005D11CB6182F3108800F5127008210022B5
:1052900004F080BA0246C0690130D061086B002872
:1052A00004BF02F21C700863D1F808C09CF80030FB
:1052B000C1F834C0180981F82C000420B0EB131F8A
:1052C00004D1D2F8B4370BB110461847506BD36CE9
:1052D0000130506301330846D36400F0FDBE000086
:1052E0002DE9F04784B005462C690E460DF1340ACD
:1052F00001349AE801050C992C61344654F8307F4A
:10530000B7B1CDE90010284631469146CDF8088066
:10531000FFF7F8FEBAF1000F19D0284631464A4689
:105320004346CDF800A0FFF76DFD04B0BDE8F0875F
:10533000A86B716A0130A863B06814311438B0608A
:105340003046716204B0BDE8F04700F02FBFD5F8D9
:10535000300170B1002020600FAB2846494622463C
:1053600000F016F8206820B1DDF83CA0BAF1000F7B
:10537000D3D1A86B0130A863304600F017FF04B00A
:10538000BDE8F08700F512700121002204F002BA96
:1053900070B500254C1C1D601AD001F07045B5F1A8
:1053A000604F15D090F820C7BCF1000F27D090F8BF
:1053B000225700F21C7EA5B1D0F830478C4210D1A4
:1053C0001468002C18BF74450BD1C2F800E037E018
:1053D00015681960BDB3A87900281CBF002070BDF6
:1053E00093E090F8224754B1D0F83447D0F83857BA
:1053F0000C40AC4203D1146894B1744520D090F8AD
:105400006CE7BEF1000F10D090F86E476CB1D0F889
:105410008047D0F884570C40AC4206D100F5ED6EC1
:10542000C2F800E00020196070BD4AF6FE14B4EB2B
:10543000114F24D114687CB1257905B3A479F4B156
:105440000020196070BD90F8221700295DD000F28D
:105450001C701060002070BDBCF1000F04D090F8EB
:1054600022470CB1002506E0BEF1000F07D090F8EE
:105470006E4724B101254C2415FB04003FE08468ED
:105480007CB1C5686DB1AE795EB1D5E90601204049
:1054900081423AD11068D0B3A8421CBF212070BD10
:1054A00036E015680024CAF6FE1465B1287960B3A9
:1054B000A87950B3E88AB4EB004F1CBF212070BD1F
:1054C0000020196070BDBCF1000F09D090F8226770
:1054D00036B1B0F83267B4EB064F01D100250BE0CE
:1054E000BEF1000F11D090F86E6776B1B0F87E670C
:1054F000B4EB064F09D101254C2615FB060000F23E
:105500001C7010600020196070BD212070BD1560F6
:1055100000201C6070BD00008CB000F59E75044634
:1055200028464FF0FF314FF0FF3904F011FB94F89B
:105530002017012004F21C7AC4F87001D1B1D4F80C
:105540005817B9B1132004AE01270490304684F8EF
:1055500022770A94CDF82CA08847D4F85817304603
:105560000A94049788470220D4F8581704903046CC
:105570000A94884704F5127603AF0DF110084FF036
:10558000000B00BF284604F03BFC30464FF0FF31D3
:1055900001223B46CDF8009004F082F828464FF0F7
:1055A000FF3104F0D5FA039801071ED5D4F8741121
:1055B000B1B100BFEFF3108072B6D4F87411CA69AC
:1055C000002AC4F8742108BFC4F878B180F31088A9
:1055D0002046FFF75FFED4F874010028EAD1039853
:1055E00020F0080000280390CCD0010609D5D4F89B
:1055F0009C1420468847039820F0800000280390E0
:10560000C0D0C1050AD5D4F8981411B120468847F6
:10561000039820F4807000280390B3D0C1071FD0F6
:10562000D4F8E41609B120468847D4F8FC1609B12D
:1056300020468847D4F8541309B120468847D4F847
:10564000A01209B120468847D4F8941409B1204625
:105650008847039820F00100002803903FF492AFA0
:10566000C10605D5D4F8E81611B12046884703983D
:10567000810605D5D4F8001711B120468847039854
:10568000410604D5D4F858132046884703984105AD
:1056900013D594F8201781B1082004904FF480703E
:1056A00006900120C5F60060D4F8581707904046D0
:1056B0000A94CDF82CA088470398810705D5D4F823
:1056C0009C1211B1204688470398410704D5D4F8AD
:1056D000681320468847039801050ED594F82017D3
:1056E00059B112200490D4F8581702A809904046E6
:1056F0000A94CDF82CA088470398C10404D5D4F8A7
:10570000181720468847039840047FF53BAF204692
:10571000FFF706FB36E700002DE9F0418A684FF4F9
:105720007B771368C3F3036307EB830313F47F787A
:105730006ED002F1140E4FF0000C002700243D46FD
:105740001EF80420012A1BD13A19531C43455FD28D
:105750000EEB04067378012B37D1931C434557D2C7
:10576000B378012B45D10332424551D2F378012B56
:1057700047D104343A19424505F10405E0D347E026
:10578000002A45D0A644442A26D10CF1010CBCF1D4
:10579000020F40D29EF80130A3F10802202A3AD825
:1057A00013F0030237D19EF80220052A3CD312F0F1
:1057B000010239D09EF80320F02A2FD202F00F0206
:1057C000032A2BD8022A0BD128E00BB3442B05F176
:1057D000010506F1010ED8D09EF80130022B29D325
:1057E000EF18474526D89E4447454FF00102A5D300
:1057F00017E06BB1442B05F1020506F1020EC4D08F
:10580000EAE72BB106F1030E1546442BBDD0E3E7C2
:105810000120BDE8F08105F1160307E005F118034A
:1058200004E01046BDE8F08105F117034FF0406237
:10583000FEF798FF0020BDE8F08100002DE9F04759
:1058400082B0D1F808A04FF47F42DAF800700C461D
:10585000496A02EA172242EA17629142814628D138
:1058600007F00F05052D25D3606AAF00B84221D996
:10587000D4F830800026204604213A4600230096C2
:10588000FFF7DCF84FF6FF71884250D0D9F83400AA
:10589000D9E913120130C9F834000132481CC9F8A3
:1058A0004C002046C9F8502002B0BDE8F04700F097
:1058B00013BC0FD2D9F83400D9F84C100130C9F814
:1058C000340001312046C9F84C1002B0BDE8F04761
:1058D00000F002BC8D1A6262C2D04FF000080AE0EC
:1058E0006D1A111BC2F8048018BF1146A16100F0A7
:1058F000F3FB002DB4D0A069002800F08280D0E92D
:1059000002122346511A8D42C0F07F805E681A460B
:105910008642E5D0736832468342E1D05E681A461B
:105920008642DDD0736832468342EFD1D8E79AE8E9
:105930000F00062D80EA30463FFA96F686EA3020C0
:10594000CAF8000081EA31403FFA90F080EA312045
:10595000CAF8040082EA32403FFA90F080EA32202E
:10596000CAF8080083EA33403FFA90F0DAF81010E2
:1059700080EA3320CAF80C0081EA31403FFA90F007
:1059800080EA3120CAF8100026D348462146FFF7A6
:10599000C3FE002871D0DAF810000AEB850141F847
:1059A000040CDAF80C0041F8080CDAF8080041F8A9
:1059B0000C0CDAF8040041F8100CDAF8000020F0C2
:1059C0009E4000F18A4041F8140D606A8A46C01B6F
:1059D0001430A16061636062DAF8101031B3D8F856
:1059E0001400814222D0D8E9060200EA0103934262
:1059F0000ED14A1C1AD0C24321EA0000904209D1BC
:105A000014E0E068401BE0602AE7511BC16027E713
:105A1000481C0BD0B1F1FE4F02D3B1F1FF3F05DCC2
:105A200048464246FEF7C8FF002847D0BAF80400AF
:105A3000800426D0D9F86800D9F89C120130C9F842
:105A40006800D1B1EFF3108072B6D9F8A812002225
:105A500000290EBFC9F8A842D9F8AC12CC610021C8
:105A6000C9F8AC42E16180F3108809F51270022197
:105A700002B0BDE8F04703F08DBED9F84C00411CE0
:105A800020E7A068616A1430A060A1F11400606290
:105A9000D9E908139AF80A2001311844C9E9081015
:105AA00048462146FFF760F928B1204602B0BDE81C
:105AB000F04700F011BB02B0BDE8F087D8F8140041
:105AC00070B1D9F83021002A47D0D9F828002146F2
:105AD000431C4846C9F8283002B0BDE8F0471047DB
