:020000040800F2
:10000000E02D00204D020008B12A0008F927000861
:10001000AD2A000805080008F59E00080000000051
:100020000000000000000000000000005F02000867
:1000300009080008000000005D0300081D03000817
:1000400067020008670200086702000867020008EC
:1000500067020008670200086702000867020008DC
:1000600067020008670200086702000867020008CC
:1000700067020008670200086702000867020008BC
:1000800067020008670200086702000867020008AC
:10009000670200086702000867020008670200089C
:1000A00067020008E92F00086702000867020008DD
:1000B000670200086702000867020008670200087C
:1000C000670200086702000867020008670200086C
:1000D00067020008E99E000867020008670200083E
:1000E000670200086702000867020008670200084C
:1000F000670200086702000867020008670200083C
:10010000670200086702000867020008670200082B
:10011000670200086702000867020008670200081B
:10012000670200086702000867020008670200080B
:1001300067020008670200086702000867020008FB
:1001400067020008670200086702000867020008EB
:1001500067020008670200086702000867020008DB
:1001600067020008670200086702000867020008CB
:10017000670200086702000867020008000000002C
:1001800067020008670200086702000867020008AB
:10019000670200086702000867020008670200089B
:1001A00067020008670200086702000800F002F812
:1001B00000F03CF80AA090E8000C82448344AAF1C5
:1001C0000107DA4501D100F031F8AFF2090EBAE8C3
:1001D0000F0013F0010F18BFFB1A43F0010318477B
:1001E000C0B60000E0B60000103A24BF78C878C15D
:1001F000FAD8520724BF30C830C144BF04680C602D
:10020000704700000023002400250026103A28BF74
:1002100078C1FBD8520728BF30C148BF0B60704778
:100220001FB50BF0FDFA1FBD10B510BD00F0AFFA01
:100230001146FFF7F5FF0BF085F900F0CDFA03B496
:10024000FFF7F2FF03BC00F0D5FA00000948804731
:1002500009480047FEE7FEE7FEE7FEE7FEE7FEE7A8
:10026000FEE7FEE7FEE7FEE704480549054A064BC0
:1002700070470000D52F0008AD010008E0270020DE
:10028000E02D0020E0290020E029002000000000EF
:10029000D4200020E02D002000000008582100207C
:1002A00000000008001000E03F771B000000FF4046
:1002B00072B65FF824005FF8241001F104010160B8
:1002C0004FF0E0205FF83010C0F8081D5FF83400F0
:1002D0005FF83410096801605FF83800016841F088
:1002E000010101604FF0E0205FF8441041614FF0E0
:1002F000070101614FF00001C0F8181D4FF07F4168
:10030000C0F81C1D5FF85C10C0F8201D7047FEE7A8
:10031000FEE7FEE701B5BDE80140704701B500F01A
:100320008FF8BDE801407047FEE7FEE700000000DF
:100330004FF000002A4A1060EFF3148020F0040010
:1003400080F3148862B64FF080504FF0E021C1F87E
:10035000040DBFF34F8FBFF36F8FFEE72148224A92
:100360004FF00003016891B10360EFF3098C2CE9B1
:10037000F00F1EF0100F01D12CED108A1B4C4CF821
:1003800004ED2568C1F808C00DB18D61236072B617
:100390001168B1B1016062B64F68154C8D6907F103
:1003A00001074F602560D1F808C05CF804EB1EF02F
:1003B000100F01D1BCEC108ABCE8F00F8CF3098857
:1003C000704772B61168016009B962B6F9E74FF07B
:1003D00000674FF0E028C8F8047D62B6DCE770479C
:1003E0009C0100208401002088010020AC01002035
:1003F000AC01002000000000000000000000000030
:10040000026922F00702A2F144026FF002031360B6
:100410004FF0000353609360D360136153619361A5
:10042000D361136253629362D362136353634FF0D9
:10043000FF339363D1634FF080731364826070471E
:100440002249086800F101000860214B1A683AB19E
:10045000A2F101021A601AB91E4B4FF00100186098
:100460001D490868026822B11C4B4FF001021A6056
:1004700008E000F104001A4B1A68904201D1194BB0
:1004800018680860184B1A6812B918490868D0B182
:100490002DE901401649086808B10AF019FC154B0E
:1004A0001A6872B10AF0C2FB1348016849B91348CF
:1004B0000168134A136813484FF08052994200D0E4
:1004C0000260BDE80140BFF34F8F7047A8010020D4
:1004D000AC010020B0010020C0010020B4010020C8
:1004E000C4010020BC010020B0010020B4010020A4
:1004F000B4010020B00100209C01002084010020F4
:100500008801002004ED00E053EA020C00F069804D
:100510002DE9F04B4FF00006002B1FBFB3FA83F517
:1005200003FA05F424FA05F65E4012BF1643B2FA48
:1005300082F502FA05F4C5F120051EBF22FA05FC7A
:1005400044EA0C04203556EA044C4FEA144418BF20
:10055000641C4FF000084FF00009904271EB030C4F
:1005600039D3002919BFB1FA81F701FA07F6B0FAB9
:1005700080F700FA07F6C7F120071EBF20FA07FC34
:1005800046EA0C062037B6FBF4FCA7EB0507103F44
:1005900007F01F0BCBF120062CFA06F60CFA0BFB2A
:1005A00044BFB3460026202FA4BF5E464FF0000B89
:1005B0005BEA060C08BF4FF0010B19EB0B0948EB87
:1005C0000608ABFB027C06FB02CC0BFB03CCC01B7A
:1005D00071EB0C01C1E70B46024641464846BDE8B7
:1005E000F08B13B5084318BF4FF0FF300146AFF34F
:1005F0000080BDE81C407047032A40F2308010F0B4
:10060000030C00F0158011F8013BBCF1020F6244AD
:1006100098BF11F801CB00F8013B38BF11F8013B3E
:10062000A2F1040298BF00F801CB38BF00F8013BEB
:1006300011F0030300F05780083AC0F0088051F829
:10064000043B083A51F804CBA0E80810F5E7121D66
:100650005CBF51F8043B40F8043BAFF30080D20785
:1006600024BF11F8013B11F801CB48BF11F8012B51
:1006700024BF00F8013B00F801CB48BF00F8012B74
:10068000704702F0FF0343EA032242EA024200F00D
:100690005EB84FF0000200B51346944696462039E6
:1006A00022BFA0E80C50A0E80C50B1F12001BFF42B
:1006B000F7AF090728BFA0E80C5048BF0CC05DF891
:1006C00004EB890028BF40F8042B08BF704748BFDF
:1006D00020F8022B11F0804F18BF00F8012B704753
:1006E00070477047704710B5203AC0F00B80B1E8F2
:1006F0001850A0E81850B1E81850A0E81850203A57
:10070000BFF4F5AF5FEA027C24BFB1E81850A0E85F
:10071000185044BF18C918C0BDE810405FEA827C79
:1007200024BF51F8043B40F8043B08BF7047D20790
:1007300028BF31F8023B48BF11F8012B28BF20F831
:10074000023B48BF00F8012B70474FF0000204291C
:10075000C0F0128010F0030C3FF49DAFCCF1040CFC
:10076000BCF1020F18BF00F8012BA8BF20F8022B24
:10077000A1EB0C01FFF78FBF5FEAC17C24BF00F83B
:10078000012B00F8012B48BF00F8012B704775467C
:1007900000F02CF8AE4605006946534620F00700ED
:1007A000854618B020B5FFF75FFDBDE820404FF04B
:1007B00000064FF000074FF000084FF0000BAC466A
:1007C000ACE8C009ACE8C009ACE8C009ACE8C009B5
:1007D00021F007018D46704710B50446AFF3008045
:1007E0002046BDE81040FFF72ABD000000487047D2
:1007F0001000002001491820ABBEFEE726000200D1
:1008000070470000FEE7000070470000EFF3108023
:1008100072B600BFFEE700002DE9F0410B680268E8
:10082000012B1FD1D1E9073422F4F842D1E901E7C5
:10083000D1E90365D1E9058C496A1A432243114382
:10084000426847F6FF739A4342EA0E023A43324344
:100850002A4342EA080242EA0C0201604260002098
:10086000BDE8F08147F6FF7322EA030CD1E90132BB
:10087000D1E903E443EA0C0301F114081A4398E8B0
:10088000E00142EA0E0222432A433243496A3A43D4
:1008900042EA0802114301600020BDE8F081000037
:1008A000F0B581B000240094164691E88C00C96828
:1008B0001A436FF01F0303EB47131A4342EA412127
:1008C000009100990546016100F0A8FAA96989061E
:1008D00002D4204601B0F0BDD6B10746701C12D13B
:1008E000A869800618D5A869800615D5A86980066C
:1008F00012D5A8698006F3D40024204601B0F0BDCB
:10090000A869800608D500F089FAC01BB042F7D963
:100910000324204601B0F0BD0024204601B0F0BD04
:100920002DE9F0418368012A37D140F6FF72CFF6F6
:100930000F721A40CB684FF20006CFF6FF764F6970
:1009400006EB03330026CFF6F07606EB07571A4383
:10095000C36842EA070CD1E900768D686FF00F0298
:1009600003F0704302EB06126FF0FF06013F0C69C3
:1009700006EB052600253B43CFF6FF7589691A4330
:1009800005EB0445324301392A4342EA0161C0F8CC
:1009900008C0C1600020BDE8F08103F0704CD1E9CF
:1009A0000032D1E902E401F110084FF20001013BED
:1009B0006FF00F07CFF6FF7198E8600107EB0212A6
:1009C0006FF0FF0701EB0431002443EA0C0307EB4F
:1009D0000E27CFF6FF741A4304EB054500243A4373
:1009E000CFF6F074114304EB06562943A8F1010435
:1009F000314341EA046181600020BDE8F0810000DC
:100A000070B515460C46064605F022FC05F020FCA4
:100A1000BA2008F023FB012807D1300A08F01EFB9A
:100A2000012802D1F0B208F019FB05F011FCBB203F
:100A300008F014FB012814D164B1013D644200BFE9
:100A4000B4F1FF3018BF012004F062FF013405F853
:100A5000010FF5D306F0E6FA002406F0E3FA20468B
:100A600070BD012406F0DEFA204670BDB0B590F8E6
:100A70003820012A4FF0020241D0012380F838309B
:100A800080F8392000EB0112D2E9073E556A02F1E5
:100A9000180C43EA0E42093B2C06022B38BF05F026
:100AA0007F440029016842EA040E11D0CA694FF65A
:100AB000F074C0F2FC04224042EA0E02CA61DCF883
:100AC0000020012B0A619CBF25F07F420A6210E0E2
:100AD0004A6A4FF6F074C0F2FC04224042EA0E0269
:100AE0004A62DCF80020012B8A619CBF25F07F421E
:100AF0008A620121002280F8391080F838201046DF
:100B0000B0BD0000002804BF0120704710B50446A6
:100B100090F8390028B9002084F83800204600F009
:100B20001DF8022084F8390094E80710036823F4C4
:100B3000403319430160416B21F0070111434163C8
:100B4000016C43F6FF72914341EA0C0101640020FD
:100B50000121E06384F8391010BD000081B0006805
:100B60004BF20001C4F20201884201D001B070478B
:100B70000020009043F63000C4F20200016841F406
:100B800000010160006800F400000090009801B0CE
:100B90007047000070B5866D044600F03FF994F888
:100BA000351002292ED105462068216C026822F0FA
:100BB00016020260426922F08002426109B9A16C0A
:100BC00019B1016821F008010160016821F00101FB
:100BD00001600068C00708D000F020F9401B05281C
:100BE00017D820680068C007F6D1E06D3F2101FAF0
:100BF00000F0B060012084F835000020002184F866
:100C0000341070BD802060650120002184F834100C
:100C100070BD20206065032084F83500002184F831
:100C2000341070BD90F83510022909D1052180F8E3
:100C300035100068016821F0010101600020704753
:100C400080214165012070472DE9F04F82B000F10D
:100C50003E4242F2004502F1FF77C4F202050A2249
:100C60004FEAB726A84208BF0922092E38BF4FEA2B
:100C7000B7224FF0010E002400274FF00008009229
:100C800008E000BF023708F10108202F04F1040436
:100C900000F0B4800E680EFA08F916EA090FF1D0D8
:100CA000D1F804A00AF0030BABF10106012E19D80C
:100CB0000322866802FA07FECA6826EA0E06BA40D0
:100CC000324382604268CAF3001522EA090205FA3B
:100CD00008F54FEA480C6FEA0E064FF0010E2A4362
:100CE00042600BE00322BA40D643BBF1030FBC467F
:100CF00004D1BC464FF0030B24E000BFC2688D68EE
:100D0000324005FA0CF52A43BBF1020FC26019D13B
:100D10006FF0030202EA5802024404F01C030F259C
:100D2000D2F820E005FA03FA0D692EEA0A0E05FA58
:100D300003F343EA0E031362D1F804A04FF0010E4F
:100D40000AF0030B02680BFA0CF332401A431AF450
:100D5000403F026096D0002243F644030192C4F261
:100D600002031A6843F6004C42F480421A601A6883
:100D7000C4F2010C02F480420192019A28F00302AD
:100D80004FF6084A6244CFF6FF7A52F80A3004F070
:100D90000C060F25B540AB43009D05FA06F633431C
:100DA00042F80A30DCF800204B6842EA0906DD030D
:100DB00058BF22EA0906CCF80060DCF804209D0345
:100DC00042EA090658BF22EA0906CCF80460DCF8BA
:100DD0000820DD0242EA090643F60C4558BF22EA24
:100DE0000906CCF80860C4F201052A689B0242EAB1
:100DF000090658BF22EA09062E6043E702B0BDE8A3
:100E0000F08F00000069084018BF01207047000003
:100E1000002A08BF090481617047000042F2D870BF
:100E2000C2F200000068704740F2000042F2D87140
:100E3000C2F20000C2F2000100780A6810440860A3
:100E40007047000080B543F60040C4F2020001681C
:100E500041F400710160016841F480610160016842
:100E600041F480710160032000F0D2F90F2000F0FE
:100E700005F800F075F9002080BD000010B586B0BF
:100E8000014619200022002400F096F9192000F0F4
:100E900083F943F644000194C4F20200016841F072
:100EA000010101600068694600F0010001900198AD
:100EB00001A800F0CDFB00F0FFFB4DF68361400080
:100EC000C4F21B31A0FB01014FF0FF3000EB914158
:100ED00042F234700022C2F20000C4F2010240F279
:100EE000E733C0E90021C0E90243046100F0A2FE3B
:100EF00010B1012006B010BD42F23470C2F2000001
:100F000000F0C8FE06B010BD2DE9F041044690F88F
:100F1000A00001284FF0020008BFBDE8F0814FF0AB
:100F2000010884F8A08084F8A100342002FB00406E
:100F3000D1E900CED1E90267D1E90453C0E91253E7
:100F4000C0E91067C0E90ECED1E906CED1E9086547
:100F5000D1E90A73C0E91873C0E91665C0E914CE77
:100F60000B6B8366204601F00FFD2068C0F82480DB
:100F7000002084F8A18084F8A000BDE8F081000082
:100F8000002804BF0120704710B5044690F8A10066
:100F900028B9002084F8A000204600F063F8022061
:100FA00084F8A100D4E9000CD4E90223816921F07E
:100FB0007041816142EA0C0122691943836911433E
:100FC0001943816181684FF6000CCFF2000C01EAF1
:100FD0000C018160D4E90513826843EA01411143A1
:100FE0008160C16801EA0C01C160D4E90712C368DD
:100FF00042EA01411943C160016901EA0C01016142
:10100000D4E90912036942EA0141194301614169C6
:1010100001EA0C014161D4E90B12436942EA014142
:101020001943416194F8351094F83620C36A1204CC
:1010300003F07F43C36242EA012194F83420C36A7B
:1010400011441943C162416B41F00601416381695A
:1010500041F00101816100200121C4F8A40084F85D
:10106000A11010BD2DE9F04393B0044646F60008E8
:10107000002602A83021C4F201081296CDE91066BC
:10108000CDE90E66FFF705FB2068404502D013B09E
:10109000BDE8F083082002903C20069005200890CF
:1010A00002A80B9600F002F9002818BFFFF7AEFB6C
:1010B000002643F630000196C4F2020041690EACEE
:1010C00041F08061416141694FF0020901F08061A6
:1010D0000191019901960168012541F48071016037
:1010E00001680E2701F48071019101990196016850
:1010F00041F400710160016801F4007101910199EE
:101100000196016841F4806101600068214600F4A5
:101110008060019001984FF470400E9008F53840BF
:10112000CDE90F9611951297FFF78EFD4FF6FF70E0
:10113000CDE90E0908F53C402146CDE9106512972E
:10114000FFF782FDFF20CDE90E0908F5404021465A
:10115000CDE910651297FFF777FD13B0BDE8F08376
:1011600082B0002043F640010190C4F202014A68B7
:1011700042F480424A604A6802F480420192019A35
:101180000090086840F080500860086800F08050C7
:101190000090009802B07047002848BF704700F0E8
:1011A0001F01012202FA01F14EF200124009CEF2B3
:1011B000000242F82010704710B54EF60C5CCEF2DB
:1011C000000CDCF80030C3F3022E8EF00704042C70
:1011D00028BF0424BEF103034FF0FF3E0EFA04F4CF
:1011E00038BF0023A14399400EFA03F39A4300F05D
:1011F0000F03043B1143634409010C3300F16042C7
:10120000B0F1FF3FC8BF02F56443197010BD000084
:101210004EF60C51CEF200010A684FF6FF031A4059
:1012200060F30A2242F0806040F0FD700860704771
:1012300070B582B00020019043F64000C4F2020075
:101240000168402641F0805101600068C4F20E261A
:1012500000F080500190019847F204050120C4F28B
:1012600000053060FFF7DAFD044600BF2868C003C0
:1012700006D4FFF7D3FD001BB0F57A7FF6D90EE058
:1012800001207060FFF7CAFD044600BF2868800394
:1012900008D4FFF7C3FD001BB0F57A7FF6D9032011
:1012A00002B070BD002002B070BD0000F0B581B08A
:1012B0000446006843F6700610F0430FC4F20206BD
:1012C00033D06827C4F2472700203860FFF7A6FD17
:1012D000054600BF56F8700C000105D5FFF79EFDCE
:1012E000401B0228F6D9AFE02068C1076AD1810708
:1012F00071D4400608D5E168D4E90102090641EA43
:10130000801040EA0270706101203860FFF786FDAE
:10131000054600BF56F8700C000105D4FFF77EFDAE
:10132000401B0228F6D98FE0206810F00C0F68D01F
:101330006827C4F247270020B860FFF76FFD054615
:1013400056F8700C800005D5FFF768FD401B022899
:10135000F6D979E02068410713D5B169D4E90423AF
:1013600001F0E04141EA821141EA0361256AB1617D
:10137000F1696FF0FF0221F4F85102EB05221143ED
:10138000F16100070FD5B069216900F07060A269B2
:1013900040EA811040EA0270636AB061F06920F4AB
:1013A00040301843F0610120B860FFF737FD054673
:1013B00056F8700C800023D4FFF730FD401B022844
:1013C000F6D941E0D4E90121090741EA82117161AE
:1013D00081077FF58EAF7169626801F0E041E368D3
:1013E00041EA821141EA0361E5697161F1696A1EAE
:1013F00021F01F011143F16140063FF57CAF83E707
:101400002068810653D50020009056F8300C47F232
:10141000000740F0805046F8300C56F8300CC4F20B
:10142000000700F0805000900098386840F4807009
:101430003860FFF7F3FC05463868C00507D4FFF7AE
:10144000EDFC401B0228F7D9032001B0F0BD306845
:1014500010F4407013D0A16A01F4407188420ED09C
:10146000306840F64061C4F24721012220F4407008
:101470000A6000220A6030603068C00727D1206807
:10148000A16A56F8682C4FF6FF4701F4407322F426
:10149000F812C0F6FF770F40B3F5407F08BF3A431C
:1014A00046F8682C32686FF31F3111433160C00673
:1014B00002D4002001B0F0BD94F82C0040F6406149
:1014C000C4F24721C1F8A003002001B0F0BDFFF72E
:1014D000A5FC054641F2883730688007CFD4FFF776
:1014E0009DFC401BB8424FF00300F5D9EDE700002A
:1014F0002DE9F041002800F08B8043F60808C4F283
:1015000002080446D8F8F8030D4600F00F008842A0
:1015100007D288F8F853D8F8F80300F00F00A84273
:1015200076D12068810717D5410705D5D8F8001076
:1015300041F4E051C8F80010010705D5D8F80010B3
:1015400041F46041C8F80010D8F80010A26821F0FA
:10155000F0011143C8F80010C0073FD1D8F8F803D4
:1015600000F00F00A84207D988F8F853D8F8F8031C
:1015700000F00F00A8424BD12068410707D5D8F8EA
:101580000010E26821F4E0511143C8F80010000790
:1015900008D5D8F80000216920F4604040EAC10075
:1015A000C8F8000000F09CF8D8F800104BF63A029A
:1015B000C1F30311C0F60002515C40F2080220FAA8
:1015C00001F140F20400C2F200000068C2F2000221
:1015D0001160FFF753FC0020BDE8F0816068811EB8
:1015E000022907D258F8081C89015CBF0120BDE818
:1015F000F08110E0012807D158F8081C89035CBF6E
:101600000120BDE8F08106E058F8081C890702D4E3
:101610000120BDE8F081D8F8001021F00301084353
:10162000C8F80000FFF7FAFB064641F2883700BF12
:10163000D8F80000616800F00C00B0EB810F8DD08D
:10164000FFF7ECFB801BB842F2D90320BDE8F08124
:101650000F22026043F60802C4F20202136803F08C
:1016600003034360136803F0F0038360136803F41B
:10167000E053C360D2F800C04FF4E05303EADC0348
:101680000361D2F8F80300F00F0008607047000013
:1016900040F2080043F60801C2F20000C4F2020161
:1016A000006809684BF64A02C1F38221C0F60002C5
:1016B000515CC8407047000040F2080043F6080142
:1016C000C2F20000C4F20201006809684BF64A0247
:1016D000C1F34231C0F60002515CC84070470000BF
:1016E00010B543F60404C4F20204606800F00C0074
:1016F00008280AD0042819BF42F20040C0F2F400C2
:1017000047F64000C0F27D1010BD206821682368B4
:10171000490247F64001C0F27D1100F03F02C3F3D9
:1017200088105CBF42F20041C0F2F401A1FB00014D
:101730000023FEF7E9FE21680222C1F3014102EB1A
:101740004101B0FBF1F010BD2DE9F04182B000285D
:1017500068D00446007843F60006C007C4F20206CB
:101760000BD0B06800F00C00042840F0A080306876
:10177000800302D56068002854D0207880071AD5ED
:10178000B06810F00C0F09D0B06800F00C00082809
:1017900040F0B4807068400200F1B080306880078B
:1017A00002D5E06801283DD13068216920F0F800B9
:1017B00040EAC10030602078000737D42078400725
:1017C0004BD4A56955B3B06800F00C00082840F070
:1017D000DA80012D26D07068E16900F480028A4227
:1017E00020D1216A00F03F028A421BD147F6C07126
:1017F000626A0140B1EB821F14D1A16A4FF6FF73F8
:10180000C903994300F44032A1F580318A4209D1DD
:10181000E16A00F07060B0EB016F03D1002002B00C
:10182000BDE8F081012002B0BDE8F08160690028C8
:1018300040F20000C4F2472000F091800121C0F87E
:10184000801EFFF7EBFA0546706F8007B6D4FFF7EE
:10185000E5FA401B0228F7D991E0306C4FF0000800
:10186000C0000CD4CDF80480306C4FF0010840F07B
:1018700080503064306C00F080500190019847F245
:101880000007C4F200073868C0054DD4386840F43A
:1018900080703860FFF7C2FA054600BF3868C0059F
:1018A00042D4FFF7BBFA401B0228F7D967E0B068C3
:1018B00000F00C00082803D1706840023FF557AFD4
:1018C0006568B5F5803F07D03068B5F5A02F40F0CA
:1018D000B38040F480203060306840F48030306065
:1018E000FFF79CFA054600BF306880033FF545AF1F
:1018F000FFF794FA401B6428F6D940E0E06800281E
:1019000064D00020C4F2472001210160FFF786FA6D
:10191000054600BF306880073FF546AFFFF77EFA07
:10192000401B0228F6D92AE0A568012D05D0306FAA
:10193000052D5FD140F004003067306F40F00100AA
:101940003067FFF76BFA054641F28837306F800742
:1019500069D4FFF763FA401BB842F7D90FE00021C2
:10196000C0F8801EFFF75AFA054600BF706F800767
:101970007FF524AFFFF752FA401B0228F6D9032067
:1019800002B0BDE8F0810027C4F247270020386686
:10199000FFF744FA022D05460CD100BF30688001E4
:1019A00064D5FFF73BFA401B02284FF00300F5D93E
:1019B00035E700BF306880017FF530AFFFF72EFAC2
:1019C000401B02284FF00300F4D928E70020C4F29E
:1019D000472000210160FFF721FA054630688007A3
:1019E0007FF5E9AEFFF71AFA401B02284FF003001B
:1019F000F4D914E720F001003067306F20F00400C4
:101A00003067FFF70BFA002D05469DD141F288376C
:101A1000306F800707D5FFF701FA401BB8424FF03F
:101A20000300F5D9FBE6B8F1000F3FF4CAAE306C05
:101A300020F080503064C4E620F48030306030689C
:101A400020F480203060FFF7E9F9002D05467FF48F
:101A50004BAF07E0FFF7E2F9401B64284FF00300AB
:101A60003FF6DDAE30688003F4D486E604F11C0551
:101A70002FCD084340EA8210D9034FF6FF729143FD
:101A8000A1F5803140EA05600843706001203866A6
:101A9000FFF7C4F9044600BF306880013FF5BEAED1
:101AA000FFF7BCF9001B02284FF00300F4D9B6E69B
:101AB000002804BF01207047B0B5044690F82C0000
:101AC0000D4628B9002084F82D00204600F012F8B9
:101AD000022084F82C002068211DFEF79DFED4E929
:101AE00000022946FEF71CFF012084F82C0000208C
:101AF000B0BD00002DE9F04786B040F2E010C2F220
:101B000000000178002600290596CDE903660296BB
:101B100001966DD14FF0010A80F800A043F638001D
:101B20000096C4F20200016840F6000441F0010191
:101B300001600068C4F2020400F001000090009807
:101B400040F2FF6001AD01904FF002084FF0030931
:101B50000C2704F5C0502946CDE90286CDF8109037
:101B60000597FFF771F84FF63F00CDE9010804F53E
:101B700040602946CDE903690597FFF765F82046DF
:101B80002946CDE901A8CDE903690597FFF75CF87F
:101B900048F23310CDE9010804F580502946CDE91B
:101BA00003690597FFF750F84FF68370CDE90108F8
:101BB00004F500602946CDE903690597FFF744F86D
:101BC0004FF6C070CDE9010804F5A0502946CDE9D3
:101BD00003690597FFF738F84CF20370CDE9010867
:101BE00004F580602946CDE903690597FFF72CF8D5
:101BF00006B0BDE8F0870000B0B5044690F82C00B0
:101C000002284FF0020008BFB0BD84F82C00206805
:101C10000D46FEF745FE2868012102284FF000001E
:101C200008BF052184F82C10B0BD000070470000EB
:101C300070470000002804BF0120704710B504461B
:101C400090F83D0028B9002084F83C00204600F0C0
:101C50001FF8022084F83D002068211D01F0CAF918
:101C6000012084F8460084F83E0084F83F0084F8A0
:101C7000400084F8410084F8420084F8430084F86E
:101C8000440084F8450084F83D00002010BD0000A9
:101C90007047000090F83D1001291CBF01207047DB
:101CA000022180F83D10006841F2FF72C168C4F261
:101CB0000002904241F00101C1600DDC40F2FF7171
:101CC000C4F20001884215DCB0F1804F29D040F207
:101CD0000041C4F2000122E040F2FF31C4F20101F0
:101CE000884212DC41F60001C4F20001884218D09B
:101CF000002112E040F60001C4F20001884210D039
:101D000040F60041C4F2000109E044F20001C4F2CF
:101D10000101884205D040F20041C4F2010188422D
:101D200006D1816801F00701062904BF0020704731
:101D3000016841F001010160002070477047000018
:101D400010B5016804460869800744BFC8685FEAA7
:101D5000807038D40869400744BFC8685FEA4070A3
:101D60003DD40869000744BFC8685FEA007043D4E7
:101D70000869C00644BFC8685FEAC06048D4086903
:101D8000C0071CBFC8685FEAC0704ED10869000672
:101D900044BFC8685FEA00604FD40869400644BF8A
:101DA000C8685FEA406050D40869800646BFC868CA
:101DB0005FEA806010BD6FF0200220460A61BDE836
:101DC0001040FFF735BF6FF0020008610120207757
:101DD0008869800741D02046FFF7B0FF43E06FF0ED
:101DE0000400086102202077886910F4407F3ED00B
:101DF0002046FFF7A3FF40E06FF0080008610420D1
:101E00002077C86980073CD02046FFF797FF3EE067
:101E10006FF01000086108202077C86910F4407F37
:101E200039D02046FFF78AFF3BE06FF001000861E0
:101E3000204600F03FF82168A8E76FF080000861B5
:101E40002046FFF7F3FE2168A7E76FF04000086126
:101E5000204600F039F82168A6E7204600F026F871
:101E6000204600F025F821680020207772E7204600
:101E700000F01CF8204600F01BF8216800202077B5
:101E80006FE7204600F012F8204600F011F82168B4
:101E9000002020776CE7204600F008F8204600F08C
:101EA00007F821680020207769E7000070470000EC
:101EB0007047000000680021C4F20101884208BF99
:101EC000FEF7B2BF70470000704700007047000087
:101ED00070470000F0B581B0044600680168C26830
:101EE000456901F02F03202B02F0200306D12BB10E
:101EF000204601B0BDE8F04007F006BF5FEA017C74
:101F000007D005F0010E12F4907F8EF001052FD15D
:101F100075B3236B1140CA0618D5012B16D10021C9
:101F2000009101680091416800910099416949065A
:101F300000F18281A18DE28DE38D002B1CBF891AF7
:101F40005FEA014240F0FD8001B0F0BD0A0600F1F9
:101F50002B824906F8D5C16821F04001C1602021DB
:101F6000204684F83D1001B0BDE8F04000F042BCCE
:101F7000CE0718BF12F4807603D0266C46F0010617
:101F8000266401F00407012686EA97072F4303D150
:101F9000276C47F00207276401F0020786EA57061C
:101FA000354303D1256C45F00405256453EA0E033F
:101FB00018BF0123BCF1000F04D51BB1236C43F003
:101FC00008032364236C002BBED01140890603D57F
:101FD000204607F099FE20684169226C01F040011B
:101FE00002F00802891800F0F08100BF50E8030FEA
:101FF000216820F4907041E80302C2B3206850E8E1
:10200000030F216820F4907041E803027AB320683E
:1020100050E8030F216820F4907041E8030232B3C6
:10202000206850E8030F216820F4907041E8030213
:10203000EAB12068DAE700BF206850E8050F2168A0
:1020400020F0010041E80502DAB1206850E8050FF0
:10205000216820F0010041E8050292B1206850E8B3
:10206000050F216820F0010041E805024AB120680F
:1020700050E8050F216820F0010041E80502002A20
:10208000DAD1206B012824D1206850E8030F2168A1
:1020900020F0100041E80302DAB1206850E8030F95
:1020A000216820F0100041E8030292B1206850E856
:1020B000030F216820F0100041E803024AB12068B4
:1020C00050E8030F216820F0100041E80302002AC5
:1020D000DAD1202084F83E00002020632068416986
:1020E000490640F18B8150E8050F216820F040003F
:1020F00041E80502002A00F06F81206850E8050FD2
:10210000216820F0400041E80502002A00F06481C7
:10211000206850E8050F216820F0400041E80502E2
:10212000002A00F05981206850E8050F216820F04E
:10213000400041E80502002A00F04E812068D2E705
:10214000206850E8030F226820F4907042E80303EF
:10215000BBB3206850E8030F226820F4907042E877
:10216000030373B3206850E8030F226820F49070D3
:1021700042E803032BB3206850E8030F226820F4E1
:10218000907042E80303002BDAD11AE0206850E88F
:10219000050F226820F0010042E80503DBB120684A
:1021A00050E8050F226820F0010042E8050393B1D2
:1021B000206850E8050F226820F0010042E805037E
:1021C0004BB1206850E8050F226820F0010042E87A
:1021D0000503002BDAD1202084F83E000020206384
:1021E000206850E8030F226820F0100042E8030343
:1021F000DBB1206850E8030F226820F0100042E8AD
:10220000030393B1206850E8030F226820F0100008
:1022100042E803034BB1206850E8030F226820F026
:10222000100042E80303002BDAD189B2204601B046
:10223000BDE8F040FFF74ABEA26B11684B689EB242
:10224000002E3FF481AEA18D8E42BFF47DAEE385BA
:10225000D269B2F5807F00F09E8050E8030F2168BC
:1022600020F4807041E80302E2B1206850E8030FD7
:10227000216820F4807041E803029AB1206850E898
:10228000030F216820F4807041E8030252B12068F6
:1022900050E8030F216820F4807041E803020AB17E
:1022A0002068DAE7206850E8050F216820F0010077
:1022B00041E80502BAB3206850E8050F216820F014
:1022C000010041E8050272B3206850E8050F21685B
:1022D00020F0010041E805022AB3206850E8050F0C
:1022E000216820F0010041E80502002ADAD11AE055
:1022F000206850E8050F216820F0400041E8050201
:10230000DAB1206850E8050F216820F0400041E86C
:10231000050292B1206850E8050F216820F04000C6
:1023200041E805024AB1206850E8050F216820F015
:10233000400041E80502002ADAD1202084F83E005E
:1023400000202063206850E8030F216820F010006F
:1023500041E80302DAB1206850E8030F216820F059
:10236000100041E8030292B1206850E8030F216891
:1023700020F0100041E803024AB1206850E8030F42
:10238000216820F0100041E80302002ADAD1A06B96
:10239000FEF700FCA18DE08D081A81B2204601B045
:1023A000BDE8F040FFF792BD94F83D1021297FF47D
:1023B000CBADA168B1F5805F01D1216921B3216A5C
:1023C0004A1C22620978416025E02046FFF780FD23
:1023D0000020206401B0F0BDA06B78B149F6FD414A
:1023E000C0F600010165FEF71DFC00283FF4ACAD0E
:1023F000A06B016D01B0BDE8F0400847204601B078
:10240000BDE8F040FFF764BD216A31F8022B6FF39D
:102410005F2242602162E18C01390A04E1847FF489
:1024200093ADC16821F08001C160C16841F04001F5
:10243000C16001B0F0BD0000002804BF012070475A
:1024400010B5044690F83D0028B9002084F83C00FF
:10245000204600F021F8242084F83D002068C1685F
:1024600021F40051C160204607F0CCFC20680169CE
:1024700021F490410161416921F02A014161C16863
:1024800041F40051C16000202021206484F83D10F7
:1024900084F83E1010BD000080B586B00022059281
:1024A000CDE9032241F200010068C4F20101884233
:1024B0000292019201D006B080BD43F63000009236
:1024C000C4F20200436943F010034361436903F01F
:1024D00010030093009B0092036843F00103036024
:1024E000006800F00100009000984FF4C060019077
:1024F0000220CDE90202032004900720059001F597
:10250000704001A9FEF7A0FB252000210022FEF764
:1025100053FE2520FEF740FE06B080BD7047000048
:102520002DE9F04381B0044690F83D0020280DD1FC
:102530000F4600294FF0010000F0EC801646002AFB
:1025400000F0E88094F83C00012803D1022001B09B
:10255000BDE8F083012084F83C004FF00009212001
:102560001D46C4F8409084F83D00FEF757FCA68451
:10257000E684A1688046B1F5805F07D12069002814
:102580001CBF38464F463E46074600E0002684F80A
:102590003C90E28C2068016812B36A1C47D0002D81
:1025A00000F0C98009060AD4FEF738FCA0EB080049
:1025B000A84200F2C780206801680906F4D517B167
:1025C00017F8011B04E036F8021B00276FF35F21A8
:1025D0004160E18C0139E184E28C0168002AE1D19B
:1025E000490610D4002D41D0691C39D10168490633
:1025F0005CBF01685FEA416105D40168490602D405
:1026000001684906F2D5202084F83D00002001B081
:10261000BDE8F08336F8021B00276FF35F214160AD
:10262000E18C0139E184E28C0168002AD8D00906E6
:102630005FBF01685FEA016101685FEA016105D47B
:102640000168090602D40168F1E700BF002FE1D05C
:1026500017F8011BE3E700BF206800684006D2D4EA
:10266000FEF7DCFBA0EB0800A842F5D9206850E893
:10267000030F216820F4D07041E80302BAB3206848
:1026800050E8030F216820F4D07041E8030272B3D0
:10269000206850E8030F216820F4D07041E803025D
:1026A0002AB3206850E8030F216820F4D07041E875
:1026B0000302002ADAD11AE0206850E8050F2168E9
:1026C00020F0010041E80502DAB1206850E8050F6A
:1026D000216820F0010041E8050292B1206850E82D
:1026E000050F216820F0010041E805024AB1206889
:1026F00050E8050F216820F0010041E80502002A9A
:10270000DAD1202084F83D0084F83E00002084F8CF
:102710003C00032001B0BDE8F08336F8021B00271F
:102720006FF35F214160E18C0139E184E28C016843
:10273000002A3FF455AF090604D5002FEDD017F855
:10274000011BEFE7206850E8030F216820F4D070E8
:1027500041E80302BAB3206850E8030F216820F46F
:10276000D07041E8030272B3206850E8030F21687B
:1027700020F4D07041E803022AB3206850E8030F28
:10278000216820F4D07041E80302002ADAD11AE06F
:10279000206850E8050F216820F0010041E805029B
:1027A000DAB1206850E8050F216820F0010041E807
:1027B000050292B1206850E8050F216820F0010061
:1027C00041E805024AB1206850E8050F216820F071
:1027D000010041E80502002ADAD1202084F83D00FA
:1027E00084F83E00002084F83C00032001B0BDE8DE
:1027F000F083000070470000FEE7000040F2DC10AC
:10280000C2F20000016801310160FBE780B588B0C9
:1028100040F294201F224FF40073C2F200004FF0E8
:10282000010E0021CDE90003CDE9022240F2E410BF
:1028300042F2FD724FF0B00CCDE9041EC2F200006E
:1028400004A1C0F600020023CDF818C008F0B6FDC0
:1028500008B080BD49444C45205461736B000000B2
:1028600040F60044C4F2020404F540652846802185
:102870000022FEF7CDFA20464FF480510122FEF7E8
:10288000C7FA1E2008F00CF8284680210122FEF726
:10289000BFFA20464FF480510022FEF7B9FA1E20FD
:1028A00007F0FEFFE2E7000080B588B040F2445038
:1028B00003224FF48063C2F200004FF0010E0021AA
:1028C000CDE90003CDE9022240F2944042F66102D4
:1028D0004FF0B00CCDE9041EC2F2000004A1C0F616
:1028E00000020023CDF818C008F068FD08B080BDD4
:1028F0004C4544205461736B0000000082B040F2EC
:102900004C14C2F200044FF05040206007F062F80F
:10291000216800206FF47F020023606041F82320CB
:1029200063680133B3F5802F636017D241F8232029
:1029300063680133B0EB934F63600FD141F82320FC
:1029400063680133B0EB934F636007D141F82320F4
:1029500063680133B3F5802F6360DFD3FF20CFF6C8
:10296000007000904EF278100024CDF200004FF479
:10297000D77132223223019407F0BEFA07F07CF8B7
:102980000A2007F08DFFF9E7F0B50468D1E900CE21
:1029900004EBC2108B68CD68E668D0F88820002769
:1029A00002F47042C0F88820E268C0F6FF77C2F3F4
:1029B0000B423E40624406EB0E4601323243C0F801
:1029C0008820E268D0F88C606FF3DF2206F470464E
:1029D000C0F88C60E4682A446FF3DF242344013399
:1029E00043EA0242C0F88C20D0F8942022F007027B
:1029F000C0F894200B69C0F8943091F8322091F817
:102A000031408D69D0F89C6000261204C0F89C60AB
:102A100091F8307042EA042242EA05623A44C0F872
:102A20009C20D0F8982040F2077422F0FF02C0F8F2
:102A300098204A69072BC0F89820D0F8A02022EAF5
:102A40000402C0F8A020D1E9074500F1840244EA5D
:102A50000504C0F8A040D0F8AC40C0F8AC604C6AA7
:102A6000C0F8AC4006D84BF65400C0F6000050F851
:102A7000230000E00120D36AAEEB0C0703F0E02353
:102A8000D362D1E90A3143437843033040EA03403B
:102A9000D062106B40F2FF739843106311631068AB
:102AA00040F001001060F0BD07F0ECBDFEE7000053
:102AB000FEE70000F0B583B040F2E4070C46C2F236
:102AC00000070546002607F1340001A9224600232D
:102AD000CDE9016608F048FB019829462246FDF73A
:102AE0008BFD381D02A9002208F04EFADDE9010134
:102AF000086002983A684460866000BF9368114697
:102B00004BB19A68194632B1936811461BB19A6865
:102B10001946002AF2D1886003B0F0BD2DE9F04FCC
:102B200085B0002900F0EB804A1E41F2441B01F001
:102B30000304032AC2F2000B04D20023002C40F04D
:102B40008980DCE0CDE90041611A00F101086FF0F5
:102B5000030E00254FF037094FF0200A029000BF06
:102B600008EB0E04E6780EF1040E09EB1612370995
:102B7000A02E38BF07F130020BF80520E27802F0F2
:102B80000F0202F137060A2A38BF02F1300645F07B
:102B900001020BF8026045F002020BF802A0227954
:102BA0000BEB050609EB121C1709A02A38BF07F129
:102BB000300C86F803C0227902F00F0202F13707C9
:102BC0000A2A38BF02F13007377186F805A062790A
:102BD00009EB12131709A02A38BF07F13003B371AC
:102BE0006279AF1D02F00F0202F137030A2A38BFE3
:102BF00002F1300347F001020BF8023007EB0B0241
:102C000082F802A0A27909EB12171309A02A38BF93
:102C100003F130077772A27905F1090702F00F027C
:102C200002F137030A2A38BF02F1300307EB0B0227
:102C3000537047F002020BF802A001EB0E020432BF
:102C400005F10C058CD10298DDE900410EF1040379
:102C5000002C54D0C55C37262A0906EB1517A02D89
:102C600003EB430538BF02F130070BF80570C25C77
:102C70005D4402F00F0202F137070A2A38BF02F161
:102C800030074FF0200C012C6F7085F802C036D051
:102C90005F1CC25D150906EB1216A02A07EB47025E
:102CA00038BF05F130060BF80260C65D5A4406F0E5
:102CB0000F0505F137060A2D38BF05F13006022C45
:102CC000567082F802C01AD09E1C825D3727130905
:102CD00007EB1217A02A06EB460238BF03F13007B4
:102CE0000BF80270805D5A4400F00F0000F13703CA
:102CF0000A2838BF00F1300320205370907040F252
:102D0000E40601EB4104C2F20006002506F134009E
:102D100003A922460023CDE9035508F025FA0398BC
:102D200041F24411C2F200012246FDF765FC301D5C
:102D300004A9002208F028F9DDE9030108600498DD
:102D400032684460856000BF936811464BB19A6851
:102D5000194632B1936811461BB19A681946002A88
:102D6000F2D1886005B0BDE8F08F00002DE9F04198
:102D700084B000264FF0010808274FF480520D461A
:102D800004460196C1E90087C1E90286FEF734FFD7
:102D9000CDF80C800296039848F2A061C0F20101C0
:102DA000484302900298A0B102980138029002981C
:102DB00078B1029801380290029850B10298013817
:102DC0000290029828B102980138029002980028D7
:102DD000EAD1022085E88101204629464FF480523D
:102DE000EE60FEF709FF0320C5E9000720462946EB
:102DF0004FF48052C5E90276FEF7FEFE40F2312024
:102E000001900199042085E88101E9602046294666
:102E10004FF48052FEF7F0FE206840F6D42241695C
:102E20001143416104B0BDE8F081000082B04FF071
:102E300000088DF80780FFF7E9FC40F2DC15C2F2CC
:102E400000052C686420642607F02AFD2868041B0E
:102E5000FFF72AFD06F0CCFE00F068F90FF24809F2
:102E60000DF1070A0FF2500B2F68642007F018FDD0
:102E700028680023C01B201AA0FB060168F100028D
:102E800002FB06112246FDF73FFB8DF8070048467E
:102E90000E21FFF70FFE50460121FFF73FFE584677
:102EA0000421FFF707FEDFE7435055CAB9D3C3C279
:102EB000CAA3BA3078000000250D0A0080B588B09A
:102EC00041F2743002224FF48063C2F200004FF0EE
:102ED000010E0021CDE90003CDE9022241F2C42018
:102EE00042F62D624FF0B00CCDE9041EC2F2000094
:102EF00004A1C0F600020023CDF818C008F05EFA65
:102F000008B080BD53595354454D205461736B0034
:102F100080B592B0002043F64001CDE90A00CDE92A
:102F200008000590CDE90300CDE901000090C4F24E
:102F300002010A6842F080520A60096801F080517B
:102F400000910099009047F20000C4F2000001686F
:102F500041F44041016000684FF4800100F44040BA
:102F600000900098012006904FF480300D910F21C1
:102F7000079002200E91D8210C90CDE90F1004206B
:102F8000119006A8FEF7E0FB18B1EFF3108072B6BF
:102F9000FEE7FEF74DF920B1EFF3108072B600BFE7
:102FA000FEE70F20019002200290002003904FF4D2
:102FB000A05004904FF48050059001A80521FEF721
:102FC00097FA20B1EFF3108072B600BFFEE712B09F
:102FD00080BD00004EF68850CEF20000016841F43A
:102FE000700101607047000042F23470C2F20000CC
:102FF000FEF7A6BE10B540F6FF3E0368C4F2000E11
:1030000040F2004C7045C4F2010C26DCB0F1804F58
:1030100030D040F20042C4F2000290422AD040F682
:103020000002C4F20002904224D041F6FF72C4F2C2
:103030000002904228DC70453ADCB0F1804F5CD051
:1030400040F20042C4F20002904256D040F6000224
:10305000C4F20002904250D053E040F60042C4F265
:103060000002904206D0604504D00022C4F2010262
:103070009042DAD14A6823F07003134341F6FF729D
:10308000C4F200029042D6DD43F6FF72C4F20102A0
:10309000904220DC42F20002C4F2000290422CD0A6
:1030A0000022C4F20102904227D0604525D028E0DA
:1030B00040F60042C4F2000290421ED041F60002E7
:1030C000C4F20002904218D041F60042C4F200025D
:1030D000904212D015E044F20002C4F20102904284
:1030E0000BD044F60002C4F20102904205D044F233
:1030F0000042C4F20102904203D1CA6823F4407333
:10310000134323F080024B69D1F800E08C681A4326
:103110000260C46240F48062C0F828E0624504BFE7
:10312000096901630121416110BD000080B588B0CB
:1031300041F6D44003224FF48063C2F200004FF006
:10314000010E0021CDE90003CDE9022241F6244021
:1031500042F6FD024FF0B00CCDE9041EC2F20000B1
:1031600004A1C0F600020023CDF818C008F026F92B
:1031700008B080BD54657374205461736B00000007
:1031800070B582B040F60004C4F2020420464FF449
:10319000005100220025FDF73BFE0195019809280A
:1031A00018DC00BF01980130019001980A2811DA5B
:1031B000019801300190019809280BDC0198013039
:1031C00001900198092805DC0198013001900198CF
:1031D0000A28E7DB01950198092817DC01980130DE
:1031E000019001980A2811DA0198013001900198A4
:1031F00009280BDC0198013001900198092805DCB1
:1032000001980130019001980A28E7DB0020019025
:103210000199092918DC00BF019901310191019937
:103220000A2911DA019901310191019909290BDC6F
:103230000199013101910199092905DC01990131B7
:10324000019101990A29E7DB01900198092817DC0F
:1032500001980130019001980A2811DA0198013093
:103260000190019809280BDC019801300190019828
:10327000092805DC01980130019001980A28E7DB54
:10328000002001900199092918DC00BF0199013142
:10329000019101990A2911DA0199013101910199EC
:1032A00009290BDC0199013101910199092905DCFA
:1032B00001990131019101990A29E7DB01900198F7
:1032C000092817DC01980130019001980A2811DAC9
:1032D000019801300190019809280BDC0198013018
:1032E00001900198092805DC0198013001900198AE
:1032F0000A28E7DB002001900199092918DC00BFAA
:1033000001990131019101990A2911DA01990131DB
:103310000191019909290BDC019901310191019970
:10332000092905DC01990131019101990A29E7DB9D
:1033300001900198092817DC01980130019001984B
:103340000A2811DA019801300190019809280BDC54
:103350000198013001900198092805DC019801309D
:10336000019001980A28E7DB0020019001990929C2
:1033700018DC00BF01990131019101990A2911DA84
:10338000019901310191019909290BDC0199013160
:1033900001910199092905DC0199013101910199F6
:1033A0000A29E7DB01900198092817DC0198013010
:1033B000019001980A2811DA0198013001900198D2
:1033C00009280BDC0198013001900198092805DCDF
:1033D00001980130019001980A28E7DB0020019054
:1033E0000199092918DC00BF019901310191019966
:1033F0000A2911DA019901310191019909290BDC9E
:103400000199013101910199092905DC01990131E5
:10341000019101990A29E7DB01900198092817DC3D
:1034200001980130019001980A2811DA01980130C1
:103430000190019809280BDC019801300190019856
:10344000092805DC01980130019001980A28E7DB82
:10345000002001900199092918DC00BF0199013170
:10346000019101990A2911DA01990131019101991A
:1034700009290BDC0199013101910199092905DC28
:1034800001990131019101990A29E7DB0190019825
:10349000092817DC01980130019001980A2811DAF7
:1034A000019801300190019809280BDC0198013046
:1034B00001900198092805DC0198013001900198DC
:1034C0000A28E7DB002001900199092918DC00BFD8
:1034D00001990131019101990A2911DA019901310A
:1034E0000191019909290BDC01990131019101999F
:1034F000092905DC01990131019101990A29E7DBCC
:1035000001900198092817DC019801300190019879
:103510000A2811DA019801300190019809280BDC82
:103520000198013001900198092805DC01980130CB
:10353000019001980A28E7DB0020019001990929F0
:1035400018DC00BF01990131019101990A2911DAB2
:10355000019901310191019909290BDC019901318E
:1035600001910199092905DC019901310191019924
:103570000A29E7DB01900198092817DC019801303E
:10358000019001980A2811DA019801300190019800
:1035900009280BDC0198013001900198092805DC0D
:1035A00001980130019001980A28E7DB0020019082
:1035B0000199092918DC00BF019901310191019994
:1035C0000A2911DA019901310191019909290BDCCC
:1035D0000199013101910199092905DC0199013114
:1035E000019101990A29E7DB01900198092817DC6C
:1035F00001980130019001980A2811DA01980130F0
:103600000190019809280BDC019801300190019884
:10361000092805DC01980130019001980A28E7DBB0
:10362000A4F580652846042100220026FDF7F0FB62
:1036300001960198092817DC019801300190019842
:103640000A2811DA019801300190019809280BDC51
:103650000198013001900198092805DC019801309A
:10366000019001980A28E7DB01960198092817DCE8
:1036700001980130019001980A2811DA019801306F
:103680000190019809280BDC019801300190019804
:10369000092805DC01980130019001980A28E7DB30
:1036A000002001900199092918DC00BF019901311E
:1036B000019101990A2911DA0199013101910199C8
:1036C00009290BDC0199013101910199092905DCD6
:1036D00001990131019101990A29E7DB01900198D3
:1036E000092817DC01980130019001980A2811DAA5
:1036F000019801300190019809280BDC01980130F4
:1037000001900198092805DC019801300190019889
:103710000A28E7DB002001900199092918DC00BF85
:1037200001990131019101990A2911DA01990131B7
:103730000191019909290BDC01990131019101994C
:10374000092905DC01990131019101990A29E7DB79
:1037500001900198092817DC019801300190019827
:103760000A2811DA019801300190019809280BDC30
:103770000198013001900198092805DC0198013079
:10378000019001980A28E7DB00200190019909299E
:1037900018DC00BF01990131019101990A2911DA60
:1037A000019901310191019909290BDC019901313C
:1037B00001910199092905DC0199013101910199D2
:1037C0000A29E7DB01900198092817DC01980130EC
:1037D000019001980A2811DA0198013001900198AE
:1037E00009280BDC0198013001900198092805DCBB
:1037F00001980130019001980A28E7DB0020019030
:103800000199092918DC00BF019901310191019941
:103810000A2911DA019901310191019909290BDC79
:103820000199013101910199092905DC01990131C1
:10383000019101990A29E7DB01900198092817DC19
:1038400001980130019001980A2811DA019801309D
:103850000190019809280BDC019801300190019832
:10386000092805DC01980130019001980A28E7DB5E
:10387000002001900199092918DC00BF019901314C
:10388000019101990A2911DA0199013101910199F6
:1038900009290BDC0199013101910199092905DC04
:1038A00001990131019101990A29E7DB0190019801
:1038B000092817DC01980130019001980A2811DAD3
:1038C000019801300190019809280BDC0198013022
:1038D00001900198092805DC0198013001900198B8
:1038E0000A28E7DB002001900199092918DC00BFB4
:1038F00001990131019101990A2911DA01990131E6
:103900000191019909290BDC01990131019101997A
:10391000092905DC01990131019101990A29E7DBA7
:1039200001900198092817DC019801300190019855
:103930000A2811DA019801300190019809280BDC5E
:103940000198013001900198092805DC01980130A7
:10395000019001980A28E7DB0020019001990929CC
:1039600018DC00BF01990131019101990A2911DA8E
:10397000019901310191019909290BDC019901316A
:1039800001910199092905DC019901310191019900
:103990000A29E7DB01900198092817DC019801301A
:1039A000019001980A2811DA0198013001900198DC
:1039B00009280BDC0198013001900198092805DCE9
:1039C00001980130019001980A28E7DB002001905E
:1039D0000199092918DC00BF019901310191019970
:1039E0000A2911DA019901310191019909290BDCA8
:1039F0000199013101910199092905DC01990131F0
:103A0000019101990A29E7DB01900198092817DC47
:103A100001980130019001980A2811DA01980130CB
:103A20000190019809280BDC019801300190019860
:103A3000092805DC01980130019001980A28E7DB8C
:103A4000002001900199092918DC00BF019901317A
:103A5000019101990A2911DA019901310191019924
:103A600009290BDC0199013101910199092905DC32
:103A700001990131019101990A29E7DB019001982F
:103A8000092817DC01980130019001980A2811DA01
:103A9000019801300190019809280BDC0198013050
:103AA00001900198092805DC0198013001900198E6
:103AB0000A28E7DB20464FF400510122FDF7A8F960
:103AC000002001900199092918DC00BF01990131FA
:103AD000019101990A2911DA0199013101910199A4
:103AE00009290BDC0199013101910199092905DCB2
:103AF00001990131019101990A29E7DB01900198AF
:103B0000092817DC01980130019001980A2811DA80
:103B1000019801300190019809280BDC01980130CF
:103B200001900198092805DC019801300190019865
:103B30000A28E7DB002001900199092918DC00BF61
:103B400001990131019101990A2911DA0199013193
:103B50000191019909290BDC019901310191019928
:103B6000092905DC01990131019101990A29E7DB55
:103B700001900198092817DC019801300190019803
:103B80000A2811DA019801300190019809280BDC0C
:103B90000198013001900198092805DC0198013055
:103BA000019001980A28E7DB00200190019909297A
:103BB00018DC00BF01990131019101990A2911DA3C
:103BC000019901310191019909290BDC0199013118
:103BD00001910199092905DC0199013101910199AE
:103BE0000A29E7DB01900198092817DC01980130C8
:103BF000019001980A2811DA01980130019001988A
:103C000009280BDC0198013001900198092805DC96
:103C100001980130019001980A28E7DB002001900B
:103C20000199092918DC00BF01990131019101991D
:103C30000A2911DA019901310191019909290BDC55
:103C40000199013101910199092905DC019901319D
:103C5000019101990A29E7DB01900198092817DCF5
:103C600001980130019001980A2811DA0198013079
:103C70000190019809280BDC01980130019001980E
:103C8000092805DC01980130019001980A28E7DB3A
:103C9000002001900199092918DC00BF0199013128
:103CA000019101990A2911DA0199013101910199D2
:103CB00009290BDC0199013101910199092905DCE0
:103CC00001990131019101990A29E7DB01900198DD
:103CD000092817DC01980130019001980A2811DAAF
:103CE000019801300190019809280BDC01980130FE
:103CF00001900198092805DC019801300190019894
:103D00000A28E7DB002001900199092918DC00BF8F
:103D100001990131019101990A2911DA01990131C1
:103D20000191019909290BDC019901310191019956
:103D3000092905DC01990131019101990A29E7DB83
:103D400001900198092817DC019801300190019831
:103D50000A2811DA019801300190019809280BDC3A
:103D60000198013001900198092805DC0198013083
:103D7000019001980A28E7DB0020019001990929A8
:103D800018DC00BF01990131019101990A2911DA6A
:103D9000019901310191019909290BDC0199013146
:103DA00001910199092905DC0199013101910199DC
:103DB0000A29E7DB01900198092817DC01980130F6
:103DC000019001980A2811DA0198013001900198B8
:103DD00009280BDC0198013001900198092805DCC5
:103DE00001980130019001980A28E7DB002001903A
:103DF0000199092918DC00BF01990131019101994C
:103E00000A2911DA019901310191019909290BDC83
:103E10000199013101910199092905DC01990131CB
:103E2000019101990A29E7DB01900198092817DC23
:103E300001980130019001980A2811DA01980130A7
:103E40000190019809280BDC01980130019001983C
:103E5000092805DC01980130019001980A28E7DB68
:103E6000002001900199092918DC00BF0199013156
:103E7000019101990A2911DA019901310191019900
:103E800009290BDC0199013101910199092905DC0E
:103E900001990131019101990A29E7DB019001980B
:103EA000092817DC01980130019001980A2811DADD
:103EB000019801300190019809280BDC019801302C
:103EC00001900198092805DC0198013001900198C2
:103ED0000A28E7DB002001900199092918DC00BFBE
:103EE00001990131019101990A2911DA01990131F0
:103EF0000191019909290BDC019901310191019985
:103F0000092905DC01990131019101990A29E7DBB1
:103F100001900198092817DC01980130019001985F
:103F20000A2811DA019801300190019809280BDC68
:103F30000198013001900198092805DC01980130B1
:103F4000019001980A28E7DB20464FF40051002237
:103F50000024FCF75DFF284604210122FCF758FFEE
:103F600001940198092817DC01980130019001980B
:103F70000A2811DA019801300190019809280BDC18
:103F80000198013001900198092805DC0198013061
:103F9000019001980A28E7DB01940198092817DCB1
:103FA00001980130019001980A2811DA0198013036
:103FB0000190019809280BDC0198013001900198CB
:103FC000092805DC01980130019001980A28E7DBF7
:103FD000002001900199092918DC00BF01990131E5
:103FE000019101990A2911DA01990131019101998F
:103FF00009290BDC0199013101910199092905DC9D
:1040000001990131019101990A29E7DB0190019899
:10401000092817DC01980130019001980A2811DA6B
:10402000019801300190019809280BDC01980130BA
:1040300001900198092805DC019801300190019850
:104040000A28E7DB002001900199092918DC00BF4C
:1040500001990131019101990A2911DA019901317E
:104060000191019909290BDC019901310191019913
:10407000092905DC01990131019101990A29E7DB40
:1040800001900198092817DC0198013001900198EE
:104090000A2811DA019801300190019809280BDCF7
:1040A0000198013001900198092805DC0198013040
:1040B000019001980A28E7DB002001900199092965
:1040C00018DC00BF01990131019101990A2911DA27
:1040D000019901310191019909290BDC0199013103
:1040E00001910199092905DC019901310191019999
:1040F0000A29E7DB01900198092817DC01980130B3
:10410000019001980A2811DA019801300190019874
:1041100009280BDC0198013001900198092805DC81
:1041200001980130019001980A28E7DB00200190F6
:104130000199092918DC00BF019901310191019908
:104140000A2911DA019901310191019909290BDC40
:104150000199013101910199092905DC0199013188
:10416000019101990A29E7DB01900198092817DCE0
:1041700001980130019001980A2811DA0198013064
:104180000190019809280BDC0198013001900198F9
:10419000092805DC01980130019001980A28E7DB25
:1041A000002001900199092918DC00BF0199013113
:1041B000019101990A2911DA0199013101910199BD
:1041C00009290BDC0199013101910199092905DCCB
:1041D00001990131019101990A29E7DB01900198C8
:1041E000092817DC01980130019001980A2811DA9A
:1041F000019801300190019809280BDC01980130E9
:1042000001900198092805DC01980130019001987E
:104210000A28E7DB002001900199092918DC00BF7A
:1042200001990131019101990A2911DA01990131AC
:104230000191019909290BDC019901310191019941
:10424000092905DC01990131019101990A29E7DB6E
:1042500001900198092817DC01980130019001981C
:104260000A2811DA019801300190019809280BDC25
:104270000198013001900198092805DC019801306E
:10428000019001980A28E7DB002001900199092993
:1042900018DC00BF01990131019101990A2911DA55
:1042A000019901310191019909290BDC0199013131
:1042B00001910199092905DC0199013101910199C7
:1042C0000A29E7DB01900198092817DC01980130E1
:1042D000019001980A2811DA0198013001900198A3
:1042E00009280BDC0198013001900198092805DCB0
:1042F00001980130019001980A28E7DB0020019025
:104300000199092918DC00BF019901310191019936
:104310000A2911DA019901310191019909290BDC6E
:104320000199013101910199092905DC01990131B6
:10433000019101990A29E7DB01900198092817DC0E
:1043400001980130019001980A2811DA0198013092
:104350000190019809280BDC019801300190019827
:10436000092805DC01980130019001980A28E7DB53
:10437000002001900199092918DC00BF0199013141
:10438000019101990A2911DA0199013101910199EB
:1043900009290BDC0199013101910199092905DCF9
:1043A00001990131019101990A29E7DB01900198F6
:1043B000092817DC01980130019001980A2811DAC8
:1043C000019801300190019809280BDC0198013017
:1043D00001900198092805DC0198013001900198AD
:1043E0000A28E7DB02B070BD81B000286BD010F066
:1043F0000303A0F1010C62D000210091009909296A
:1044000018DC00BF0099013100910099092911DCE5
:10441000009901310091009909290BDC00990131C3
:1044200000910099092905DC00990131009100995A
:104430000A29E7DB012B614642D000210091009957
:104440000929A0F1020117DC009A01320092009ABA
:10445000092A11DC009A01320092009A092A0BDC29
:10446000009A01320092009A092A05DC009A013272
:104470000092009A0A2AE7DB022B21D0002100914A
:1044800000990929A0F103011ADC00BF009801304E
:1044900000900098092813DC0098013000900098E3
:1044A00009280DDC0098013000900098092807DCED
:1044B00000980130009000980A28E7DB00E00146F0
:1044C000BCF1030F01D201B07047002002E000BF31
:1044D0000029F8D00090009A092A17DC009A0132CE
:1044E0000092009A0A2A11DA009A01320092009A88
:1044F000092A0BDC009A01320092009A092A05DC95
:10450000009A01320092009A0A2AE7DB0090009A92
:10451000092A17DC009A01320092009A092A11DC5C
:10452000009A01320092009A092A0BDC009A0132AB
:104530000092009A092A05DC009A01320092009A42
:104540000A2AE7DB0090009A092A17DC009A013258
:104550000092009A092A11DC009A01320092009A16
:10456000092A0BDC009A01320092009A092A05DC24
:10457000009A01320092009A0A2AE7DB0090009A22
:104580000439092AA4DC00BF009A01320092009A83
:10459000092A9DDC009A01320092009A092A3FF70D
:1045A00097AF009A01320092009A092A3FF790AF24
:1045B000009A01320092009A0A2AE5DB88E700009F
:1045C0002DE9F04186B0002043F6300105900090BF
:1045D000C4F202010A6840F2000842F004020A60D4
:1045E0000A68C4F2020802F004020092009A0090E5
:1045F0000A6808F5006542F002020A600A6801AF25
:1046000002F002020092009A00900A6842F0010251
:104610000A600A6802F001020092009A00900A689B
:1046200042F480720A60096801F480710091009977
:104630004FF4005101911121CDE902100490284658
:104640003946FCF701FB042008F5806601903046EE
:104650003946FCF7F9FA0120CDE902004FF4004099
:10466000019040463946FCF7EFFA4FF4006008F538
:104670000054019020463946FCF7E6FA28464FF4EC
:1046800000510122FCF7C4FB304604210122FCF753
:10469000BFFB40464FF400410022FCF7B9FB204627
:1046A0004FF400610122FCF7B3FB06B0BDE8F081D6
:1046B000B0B582B040F60004C4F2020420464FF4C4
:1046C000005100220025FCF7A3FB01950198092861
:1046D00018DC00BF01980130019001980A2811DA16
:1046E000019801300190019809280BDC01980130F4
:1046F00001900198092805DC01980130019001988A
:104700000A28E7DB01950198092817DC0198013098
:10471000019001980A2811DA01980130019001985E
:1047200009280BDC0198013001900198092805DC6B
:1047300001980130019001980A28E7DB00200190E0
:104740000199092918DC00BF0199013101910199F2
:104750000A2911DA019901310191019909290BDC2A
:104760000199013101910199092905DC0199013172
:10477000019101990A29E7DB01900198092817DCCA
:1047800001980130019001980A2811DA019801304E
:104790000190019809280BDC0198013001900198E3
:1047A000092805DC01980130019001980A28E7DB0F
:1047B000002001900199092918DC00BF01990131FD
:1047C000019101990A2911DA0199013101910199A7
:1047D00009290BDC0199013101910199092905DCB5
:1047E00001990131019101990A29E7DB01900198B2
:1047F000092817DC01980130019001980A2811DA84
:10480000019801300190019809280BDC01980130D2
:1048100001900198092805DC019801300190019868
:104820000A28E7DB002001900199092918DC00BF64
:1048300001990131019101990A2911DA0199013196
:104840000191019909290BDC01990131019101992B
:10485000092905DC01990131019101990A29E7DB58
:1048600001900198092817DC019801300190019806
:104870000A2811DA019801300190019809280BDC0F
:104880000198013001900198092805DC0198013058
:10489000019001980A28E7DB00200190019909297D
:1048A00018DC00BF01990131019101990A2911DA3F
:1048B000019901310191019909290BDC019901311B
:1048C00001910199092905DC0199013101910199B1
:1048D0000A29E7DB01900198092817DC01980130CB
:1048E000019001980A2811DA01980130019001988D
:1048F00009280BDC0198013001900198092805DC9A
:1049000001980130019001980A28E7DB002001900E
:104910000199092918DC00BF019901310191019920
:104920000A2911DA019901310191019909290BDC58
:104930000199013101910199092905DC01990131A0
:10494000019101990A29E7DB01900198092817DCF8
:1049500001980130019001980A2811DA019801307C
:104960000190019809280BDC019801300190019811
:10497000092805DC01980130019001980A28E7DB3D
:10498000002001900199092918DC00BF019901312B
:10499000019101990A2911DA0199013101910199D5
:1049A00009290BDC0199013101910199092905DCE3
:1049B00001990131019101990A29E7DB01900198E0
:1049C000092817DC01980130019001980A2811DAB2
:1049D000019801300190019809280BDC0198013001
:1049E00001900198092805DC019801300190019897
:1049F0000A28E7DB002001900199092918DC00BF93
:104A000001990131019101990A2911DA01990131C4
:104A10000191019909290BDC019901310191019959
:104A2000092905DC01990131019101990A29E7DB86
:104A300001900198092817DC019801300190019834
:104A40000A2811DA019801300190019809280BDC3D
:104A50000198013001900198092805DC0198013086
:104A6000019001980A28E7DB0020019001990929AB
:104A700018DC00BF01990131019101990A2911DA6D
:104A8000019901310191019909290BDC0199013149
:104A900001910199092905DC0199013101910199DF
:104AA0000A29E7DB01900198092817DC01980130F9
:104AB000019001980A2811DA0198013001900198BB
:104AC00009280BDC0198013001900198092805DCC8
:104AD00001980130019001980A28E7DB002001903D
:104AE0000199092918DC00BF01990131019101994F
:104AF0000A2911DA019901310191019909290BDC87
:104B00000199013101910199092905DC01990131CE
:104B1000019101990A29E7DB01900198092817DC26
:104B200001980130019001980A2811DA01980130AA
:104B30000190019809280BDC01980130019001983F
:104B4000092805DC01980130019001980A28E7DB6B
:104B5000A4F5806004210122FCF75AF9002001909D
:104B60000199092918DC00BF0199013101910199CE
:104B70000A2911DA019901310191019909290BDC06
:104B80000199013101910199092905DC019901314E
:104B9000019101990A29E7DB01900198092817DCA6
:104BA00001980130019001980A2811DA019801302A
:104BB0000190019809280BDC0198013001900198BF
:104BC000092805DC01980130019001980A28E7DBEB
:104BD000002001900199092918DC00BF01990131D9
:104BE000019101990A2911DA019901310191019983
:104BF00009290BDC0199013101910199092905DC91
:104C000001990131019101990A29E7DB019001988D
:104C1000092817DC01980130019001980A2811DA5F
:104C2000019801300190019809280BDC01980130AE
:104C300001900198092805DC019801300190019844
:104C40000A28E7DB002001900199092918DC00BF40
:104C500001990131019101990A2911DA0199013172
:104C60000191019909290BDC019901310191019907
:104C7000092905DC01990131019101990A29E7DB34
:104C800001900198092817DC0198013001900198E2
:104C90000A2811DA019801300190019809280BDCEB
:104CA0000198013001900198092805DC0198013034
:104CB000019001980A28E7DB002001900199092959
:104CC00018DC00BF01990131019101990A2911DA1B
:104CD000019901310191019909290BDC01990131F7
:104CE00001910199092905DC01990131019101998D
:104CF0000A29E7DB01900198092817DC01980130A7
:104D0000019001980A2811DA019801300190019868
:104D100009280BDC0198013001900198092805DC75
:104D200001980130019001980A28E7DB00200190EA
:104D30000199092918DC00BF0199013101910199FC
:104D40000A2911DA019901310191019909290BDC34
:104D50000199013101910199092905DC019901317C
:104D6000019101990A29E7DB01900198092817DCD4
:104D700001980130019001980A2811DA0198013058
:104D80000190019809280BDC0198013001900198ED
:104D9000092805DC01980130019001980A28E7DB19
:104DA000002001900199092918DC00BF0199013107
:104DB000019101990A2911DA0199013101910199B1
:104DC00009290BDC0199013101910199092905DCBF
:104DD00001990131019101990A29E7DB01900198BC
:104DE000092817DC01980130019001980A2811DA8E
:104DF000019801300190019809280BDC01980130DD
:104E000001900198092805DC019801300190019872
:104E10000A28E7DB002001900199092918DC00BF6E
:104E200001990131019101990A2911DA01990131A0
:104E30000191019909290BDC019901310191019935
:104E4000092905DC01990131019101990A29E7DB62
:104E500001900198092817DC019801300190019810
:104E60000A2811DA019801300190019809280BDC19
:104E70000198013001900198092805DC0198013062
:104E8000019001980A28E7DB002001900199092987
:104E900018DC00BF01990131019101990A2911DA49
:104EA000019901310191019909290BDC0199013125
:104EB00001910199092905DC0199013101910199BB
:104EC0000A29E7DB01900198092817DC01980130D5
:104ED000019001980A2811DA019801300190019897
:104EE00009280BDC0198013001900198092805DCA4
:104EF00001980130019001980A28E7DB0020019019
:104F00000199092918DC00BF01990131019101992A
:104F10000A2911DA019901310191019909290BDC62
:104F20000199013101910199092905DC01990131AA
:104F3000019101990A29E7DB01900198092817DC02
:104F400001980130019001980A2811DA0198013086
:104F50000190019809280BDC01980130019001981B
:104F6000092805DC01980130019001980A28E7DB47
:104F7000002001900199092918DC00BF0199013135
:104F8000019101990A2911DA0199013101910199DF
:104F900009290BDC0199013101910199092905DCED
:104FA00001990131019101990A29E7DB01900198EA
:104FB000092817DC01980130019001980A2811DABC
:104FC000019801300190019809280BDC019801300B
:104FD00001900198092805DC0198013001900198A1
:104FE0000A28E7DB20464FF400510122FBF710FFAF
:104FF000002001900199092918DC00BF01990131B5
:10500000019101990A2911DA01990131019101995E
:1050100009290BDC0199013101910199092905DC6C
:1050200001990131019101990A29E7DB0190019869
:10503000092817DC01980130019001980A2811DA3B
:10504000019801300190019809280BDC019801308A
:1050500001900198092805DC019801300190019820
:105060000A28E7DB002001900199092918DC00BF1C
:1050700001990131019101990A2911DA019901314E
:105080000191019909290BDC0199013101910199E3
:10509000092905DC01990131019101990A29E7DB10
:1050A00001900198092817DC0198013001900198BE
:1050B0000A2811DA019801300190019809280BDCC7
:1050C0000198013001900198092805DC0198013010
:1050D000019001980A28E7DB002001900199092935
:1050E00018DC00BF01990131019101990A2911DAF7
:1050F000019901310191019909290BDC01990131D3
:1051000001910199092905DC019901310191019968
:105110000A29E7DB01900198092817DC0198013082
:10512000019001980A2811DA019801300190019844
:1051300009280BDC0198013001900198092805DC51
:1051400001980130019001980A28E7DB00200190C6
:105150000199092918DC00BF0199013101910199D8
:105160000A2911DA019901310191019909290BDC10
:105170000199013101910199092905DC0199013158
:10518000019101990A29E7DB01900198092817DCB0
:1051900001980130019001980A2811DA0198013034
:1051A0000190019809280BDC0198013001900198C9
:1051B000092805DC01980130019001980A28E7DBF5
:1051C000002001900199092918DC00BF01990131E3
:1051D000019101990A2911DA01990131019101998D
:1051E00009290BDC0199013101910199092905DC9B
:1051F00001990131019101990A29E7DB0190019898
:10520000092817DC01980130019001980A2811DA69
:10521000019801300190019809280BDC01980130B8
:1052200001900198092805DC01980130019001984E
:105230000A28E7DB002001900199092918DC00BF4A
:1052400001990131019101990A2911DA019901317C
:105250000191019909290BDC019901310191019911
:10526000092905DC01990131019101990A29E7DB3E
:1052700001900198092817DC0198013001900198EC
:105280000A2811DA019801300190019809280BDCF5
:105290000198013001900198092805DC019801303E
:1052A000019001980A28E7DB002001900199092963
:1052B00018DC00BF01990131019101990A2911DA25
:1052C000019901310191019909290BDC0199013101
:1052D00001910199092905DC019901310191019997
:1052E0000A29E7DB01900198092817DC01980130B1
:1052F000019001980A2811DA019801300190019873
:1053000009280BDC0198013001900198092805DC7F
:1053100001980130019001980A28E7DB00200190F4
:105320000199092918DC00BF019901310191019906
:105330000A2911DA019901310191019909290BDC3E
:105340000199013101910199092905DC0199013186
:10535000019101990A29E7DB01900198092817DCDE
:1053600001980130019001980A2811DA0198013062
:105370000190019809280BDC0198013001900198F7
:10538000092805DC01980130019001980A28E7DB23
:10539000002001900199092918DC00BF0199013111
:1053A000019101990A2911DA0199013101910199BB
:1053B00009290BDC0199013101910199092905DCC9
:1053C00001990131019101990A29E7DB01900198C6
:1053D000092817DC01980130019001980A2811DA98
:1053E000019801300190019809280BDC01980130E7
:1053F00001900198092805DC01980130019001987D
:105400000A28E7DB002001900199092918DC00BF78
:1054100001990131019101990A2911DA01990131AA
:105420000191019909290BDC01990131019101993F
:10543000092905DC01990131019101990A29E7DB6C
:1054400001900198092817DC01980130019001981A
:105450000A2811DA019801300190019809280BDC23
:105460000198013001900198092805DC019801306C
:10547000019001980A28E7DB20464FF400510022F2
:105480000024FBF7C5FC01940198092818DC00BF33
:1054900001980130019001980A2811DA0198013031
:1054A0000190019809280BDC0198013001900198C6
:1054B000092805DC01980130019001980A28E7DBF2
:1054C00001940198092817DC019801300190019896
:1054D0000A2811DA019801300190019809280BDCA3
:1054E0000198013001900198092805DC01980130EC
:1054F000019001980A28E7DB002001900199092911
:1055000018DC00BF01990131019101990A2911DAD2
:10551000019901310191019909290BDC01990131AE
:1055200001910199092905DC019901310191019944
:105530000A29E7DB01900198092817DC019801305E
:10554000019001980A2811DA019801300190019820
:1055500009280BDC0198013001900198092805DC2D
:1055600001980130019001980A28E7DB00200190A2
:105570000199092918DC00BF0199013101910199B4
:105580000A2911DA019901310191019909290BDCEC
:105590000199013101910199092905DC0199013134
:1055A000019101990A29E7DB01900198092817DC8C
:1055B00001980130019001980A2811DA0198013010
:1055C0000190019809280BDC0198013001900198A5
:1055D000092805DC01980130019001980A28E7DBD1
:1055E000002001900199092918DC00BF01990131BF
:1055F000019101990A2911DA019901310191019969
:1056000009290BDC0199013101910199092905DC76
:1056100001990131019101990A29E7DB0190019873
:10562000092817DC01980130019001980A2811DA45
:10563000019801300190019809280BDC0198013094
:1056400001900198092805DC01980130019001982A
:105650000A28E7DB002001900199092918DC00BF26
:1056600001990131019101990A2911DA0199013158
:105670000191019909290BDC0199013101910199ED
:10568000092905DC01990131019101990A29E7DB1A
:1056900001900198092817DC0198013001900198C8
:1056A0000A2811DA019801300190019809280BDCD1
:1056B0000198013001900198092805DC019801301A
:1056C000019001980A28E7DB00200190019909293F
:1056D00018DC00BF01990131019101990A2911DA01
:1056E000019901310191019909290BDC01990131DD
:1056F00001910199092905DC019901310191019973
:105700000A29E7DB01900198092817DC019801308C
:10571000019001980A2811DA01980130019001984E
:1057200009280BDC0198013001900198092805DC5B
:1057300001980130019001980A28E7DB00200190D0
:105740000199092918DC00BF0199013101910199E2
:105750000A2911DA019901310191019909290BDC1A
:105760000199013101910199092905DC0199013162
:10577000019101990A29E7DB01900198092817DCBA
:1057800001980130019001980A2811DA019801303E
:105790000190019809280BDC0198013001900198D3
:1057A000092805DC01980130019001980A28E7DBFF
:1057B000002001900199092918DC00BF01990131ED
:1057C000019101990A2911DA019901310191019997
:1057D00009290BDC0199013101910199092905DCA5
:1057E00001990131019101990A29E7DB01900198A2
:1057F000092817DC01980130019001980A2811DA74
:10580000019801300190019809280BDC01980130C2
:1058100001900198092805DC019801300190019858
:105820000A28E7DB002001900199092918DC00BF54
:1058300001990131019101990A2911DA0199013186
:105840000191019909290BDC01990131019101991B
:10585000092905DC01990131019101990A29E7DB48
:1058600001900198092817DC0198013001900198F6
:105870000A2811DA019801300190019809280BDCFF
:105880000198013001900198092805DC0198013048
:10589000019001980A28E7DB00200190019909296D
:1058A00018DC00BF01990131019101990A2911DA2F
:1058B000019901310191019909290BDC019901310B
:1058C00001910199092905DC0199013101910199A1
:1058D0000A29E7DB01900198092817DC01980130BB
:1058E000019001980A2811DA01980130019001987D
:1058F00009280BDC0198013001900198092805DC8A
:1059000001980130019001980A28E7DB02B0B0BD90
:105910002DE9F04782B040F60009C4F20209804642
:105920000025A9F5806A0026002406E040EA440428
:10593000072E06F1010680F07C8448464FF40051A2
:105940000122FBF765FA00950098092818DC00BFD2
:1059500000980130009000980A2811DA0098013070
:105960000090009809280BDC009801300090009806
:10597000092805DC00980130009000980A28E7DB30
:1059800000950098092817DC0098013000900098D5
:105990000A2811DA009801300090009809280BDCE1
:1059A0000098013000900098092805DC009801302B
:1059B000009000980A28E7DB00950098092817DC7A
:1059C00000980130009000980A2811DA0098013000
:1059D0000090009809280BDC009801300090009896
:1059E000092805DC00980130009000980A28E7DBC0
:1059F00000950098092817DC009801300090009865
:105A00000A2811DA009801300090009809280BDC70
:105A10000098013000900098092805DC00980130BA
:105A2000009000980A28E7DB00950098092817DC09
:105A300000980130009000980A2811DA009801308F
:105A40000090009809280BDC009801300090009825
:105A5000092805DC00980130009000980A28E7DB4F
:105A600000950098092817DC0098013000900098F4
:105A70000A2811DA009801300090009809280BDC00
:105A80000098013000900098092805DC009801304A
:105A9000009000980A28E7DB00950098092817DC99
:105AA00000980130009000980A2811DA009801301F
:105AB0000090009809280BDC0098013000900098B5
:105AC000092805DC00980130009000980A28E7DBDF
:105AD00000950098092817DC009801300090009884
