:020000040800F2
:10000000702800204D020008AD240008A12300083C
:10001000A924000805080008393400080000000081
:100020000000000000000000000000005F02000867
:1000300009080008000000005D0300081D03000817
:1000400067020008670200086702000867020008EC
:1000500067020008670200086702000867020008DC
:1000600067020008670200086702000867020008CC
:1000700067020008670200086702000867020008BC
:1000800067020008670200086702000867020008AC
:10009000670200086702000867020008670200089C
:1000A00067020008F12F00086702000867020008D5
:1000B000670200086702000867020008670200087C
:1000C000670200086702000867020008670200086C
:1000D000670200082D340008670200086702000864
:1000E000670200086702000867020008670200084C
:1000F000670200086702000867020008670200083C
:10010000670200086702000867020008670200082B
:10011000670200086702000867020008670200081B
:10012000670200086702000867020008670200080B
:1001300067020008670200086702000867020008FB
:1001400067020008670200086702000867020008EB
:1001500067020008670200086702000867020008DB
:1001600067020008670200086702000867020008CB
:10017000670200086702000867020008000000002C
:1001800067020008670200086702000867020008AB
:10019000670200086702000867020008670200089B
:1001A00067020008670200086702000800F002F812
:1001B00000F03CF80AA090E8000C82448344AAF1C5
:1001C0000107DA4501D100F031F8AFF2090EBAE8C3
:1001D0000F0013F0010F18BFFB1A43F0010318477B
:1001E000E8490000084A0000103A24BF78C878C1E6
:1001F000FAD8520724BF30C830C144BF04680C602D
:10020000704700000023002400250026103A28BF74
:1002100078C1FBD8520728BF30C148BF0B60704778
:100220001FB504F0A3FC1FBD10B510BD00F0AFFA60
:100230001146FFF7F5FF04F0F3FB00F0CDFA03B42D
:10024000FFF7F2FF03BC00F0D5FA00000948804731
:1002500009480047FEE7FEE7FEE7FEE7FEE7FEE7A8
:10026000FEE7FEE7FEE7FEE704480549054A064BC0
:1002700070470000DD2F0008AD010008702200204B
:10028000702800207024002070240020000000004E
:10029000A41B00207028002000000008281C00205B
:1002A00000000008001000E07F4F12000000FF4037
:1002B00072B65FF824005FF8241001F104010160B8
:1002C0004FF0E0205FF83010C0F8081D5FF83400F0
:1002D0005FF83410096801605FF83800016841F088
:1002E000010101604FF0E0205FF8441041614FF0E0
:1002F000070101614FF00001C0F8181D4FF07F4168
:10030000C0F81C1D5FF85C10C0F8201D7047FEE7A8
:10031000FEE7FEE701B5BDE80140704701B500F01A
:100320008FF8BDE801407047FEE7FEE700000000DF
:100330004FF000002A4A1060EFF3148020F0040010
:1003400080F3148862B64FF080504FF0E021C1F87E
:10035000040DBFF34F8FBFF36F8FFEE72148224A92
:100360004FF00003016891B10360EFF3098C2CE9B1
:10037000F00F1EF0100F01D12CED108A1B4C4CF821
:1003800004ED2568C1F808C00DB18D61236072B617
:100390001168B1B1016062B64F68154C8D6907F103
:1003A00001074F602560D1F808C05CF804EB1EF02F
:1003B000100F01D1BCEC108ABCE8F00F8CF3098857
:1003C000704772B61168016009B962B6F9E74FF07B
:1003D00000674FF0E028C8F8047D62B6DCE770479C
:1003E00020010020080100200C0100203001002025
:1003F00030010020000000000000000000000000AC
:10040000026922F00702A2F144026FF002031360B6
:100410004FF0000353609360D360136153619361A5
:10042000D361136253629362D362136353634FF0D9
:10043000FF339363D1634FF080731364826070471E
:100440002249086800F101000860214B1A683AB19E
:10045000A2F101021A601AB91E4B4FF00100186098
:100460001D490868026822B11C4B4FF001021A6056
:1004700008E000F104001A4B1A68904201D1194BB0
:1004800018680860184B1A6812B918490868D0B182
:100490002DE901401649086808B103F087FE154BA5
:1004A0001A6872B103F030FE1348016849B9134865
:1004B0000168134A136813484FF08052994200D0E4
:1004C0000260BDE80140BFF34F8F70472C01002050
:1004D00030010020340100204401002038010020B8
:1004E0004801002040010020340100203801002094
:1004F00038010020340100202001002008010020E4
:100500000C01002004ED00E053EA020C00F06980C9
:100510002DE9F04B4FF00006002B1FBFB3FA83F517
:1005200003FA05F424FA05F65E4012BF1643B2FA48
:1005300082F502FA05F4C5F120051EBF22FA05FC7A
:1005400044EA0C04203556EA044C4FEA144418BF20
:10055000641C4FF000084FF00009904271EB030C4F
:1005600039D3002919BFB1FA81F701FA07F6B0FAB9
:1005700080F700FA07F6C7F120071EBF20FA07FC34
:1005800046EA0C062037B6FBF4FCA7EB0507103F44
:1005900007F01F0BCBF120062CFA06F60CFA0BFB2A
:1005A00044BFB3460026202FA4BF5E464FF0000B89
:1005B0005BEA060C08BF4FF0010B19EB0B0948EB87
:1005C0000608ABFB027C06FB02CC0BFB03CCC01B7A
:1005D00071EB0C01C1E70B46024641464846BDE8B7
:1005E000F08B13B5084318BF4FF0FF300146AFF34F
:1005F0000080BDE81C407047032A40F2308010F0B4
:10060000030C00F0158011F8013BBCF1020F6244AD
:1006100098BF11F801CB00F8013B38BF11F8013B3E
:10062000A2F1040298BF00F801CB38BF00F8013BEB
:1006300011F0030300F02580083AC0F0088051F85B
:10064000043B083A51F804CBA0E80810F5E7121D66
:100650005CBF51F8043B40F8043BAFF30080D20785
:1006600024BF11F8013B11F801CB48BF11F8012B51
:1006700024BF00F8013B00F801CB48BF00F8012B74
:10068000704710B5203AC0F00B80B1E81850A0E8D0
:100690001850B1E81850A0E81850203ABFF4F5AF50
:1006A0005FEA027C24BFB1E81850A0E8185044BFAC
:1006B00018C918C0BDE810405FEA827C24BF51F819
:1006C000043B40F8043B08BF7047D20728BF31F80D
:1006D000023B48BF11F8012B28BF20F8023B48BF5E
:1006E00000F8012B704702F0FF0343EA032242EABD
:1006F000024200F002B84FF000020429C0F012805C
:1007000010F0030C00F01B80CCF1040CBCF1020FC4
:1007100018BF00F8012BA8BF20F8022BA1EB0C0199
:1007200000F00DB85FEAC17C24BF00F8012B00F88F
:10073000012B48BF00F8012B70474FF0000200B5B5
:10074000134694469646203922BFA0E80C50A0E8F4
:100750000C50B1F12001BFF4F7AF090728BFA0E8A2
:100760000C5048BF0CC05DF804EB890028BF40F86E
:10077000042B08BF704748BF20F8022B11F0804FB0
:1007800018BF00F8012B70477047704770477546D7
:1007900000F02CF8AE4605006946534620F00700ED
:1007A000854618B020B5FFF75FFDBDE820404FF04B
:1007B00000064FF000074FF000084FF0000BAC466A
:1007C000ACE8C009ACE8C009ACE8C009ACE8C009B5
:1007D00021F007018D46704710B50446AFF3008045
:1007E0002046BDE81040FFF72ABD000000487047D2
:1007F0001000002001491820ABBEFEE726000200D1
:1008000070470000FEE700007047000070B5866D7D
:10081000044600F04DF994F8351002292ED1054612
:100820002068216C026822F016020260426922F000
:100830008002426109B9A16C19B1016821F0080177
:100840000160016821F0010101600068C00708D063
:1008500000F02EF9401B052817D820680068C00753
:10086000F6D1E06D3F2101FA00F0B060012084F87C
:1008700035000020002184F8341070BD80206065B0
:100880000120002184F8341070BD20206065032011
:1008900084F83500002184F8341070BD90F83510CC
:1008A000022909D1052180F835100068016821F07E
:1008B00001010160002070478021416501207047DF
:1008C000B0B5044600F0F4F8054640F20000C2F26C
:1008D00000000078611C18BF044400BF00F0E8F875
:1008E000401BA042FAD3B0BD2DE9F04F82B000F119
:1008F0003E4242F2004502F1FF77C4F202050A22AD
:100900004FEAB726A84208BF0922092E38BF4FEA8E
:10091000B7224FF0010E002400274FF0000800928C
:1009200008E000BF023708F10108202F04F1040499
:1009300000F0B4800E680EFA08F916EA090FF1D03B
:10094000D1F804A00AF0030BABF10106012E19D86F
:100950000322866802FA07FECA6826EA0E06BA4033
:10096000324382604268CAF3001522EA090205FA9E
:1009700008F54FEA480C6FEA0E064FF0010E2A43C5
:1009800042600BE00322BA40D643BBF1030FBC46E2
:1009900004D1BC464FF0030B24E000BFC2688D6851
:1009A000324005FA0CF52A43BBF1020FC26019D19F
:1009B0006FF0030202EA5802024404F01C030F2500
:1009C000D2F820E005FA03FA0D692EEA0A0E05FABC
:1009D00003F343EA0E031362D1F804A04FF0010EB3
:1009E0000AF0030B02680BFA0CF332401A431AF4B4
:1009F000403F026096D0002243F644030192C4F2C5
:100A000002031A6843F6004C42F480421A601A68E6
:100A1000C4F2010C02F480420192019A28F0030210
:100A20004FF6084A6244CFF6FF7A52F80A3004F0D3
:100A30000C060F25B540AB43009D05FA06F633437F
:100A400042F80A30DCF800204B6842EA0906DD0370
:100A500058BF22EA0906CCF80060DCF804209D03A8
:100A600042EA090658BF22EA0906CCF80460DCF81D
:100A70000820DD0242EA090643F60C4558BF22EA87
:100A80000906CCF80860C4F201052A689B0242EA14
:100A9000090658BF22EA09062E6043E702B0BDE806
:100AA000F08F0000002A08BF090481617047000030
:100AB00042F26C20C2F200000068704740F2000071
:100AC00042F26C21C2F20000C2F2000100780A6812
:100AD000104408607047000080B543F60040C4F23F
:100AE0000200016841F400710160016841F4806115
:100AF0000160016841F480710160032000F0A6F8F4
:100B00000F2000F005F800F049F8002080BD00003B
:100B100010B586B0014619200022002400F06AF8C2
:100B2000192000F057F843F644000194C4F2020083
:100B3000016841F0010101600068694600F00100B0
:100B40000190019801A800F041F900F073F94DF609
:100B500083614000C4F21B31A0FB01014FF0FF3064
:100B600000EB914142F2E0100022C2F20000C4F218
:100B7000010240F2E733C0E90021C0E90243046109
:100B800000F02CFE10B1012006B010BD42F2E010C2
:100B9000C2F2000000F052FE06B010BD82B000208C
:100BA00043F640010190C4F202014A6842F48042D7
:100BB0004A604A6802F480420192019A00900868F3
:100BC00040F080500860086800F080500090009865
:100BD00002B07047002848BF704700F01F01012293
:100BE00002FA01F14EF200124009CEF2000242F880
:100BF0002010704710B54EF60C5CCEF2000CDCF8FD
:100C00000030C3F3022E8EF00704042C28BF042406
:100C1000BEF103034FF0FF3E0EFA04F438BF002389
:100C2000A14399400EFA03F39A4300F00F03043BEB
:100C30001143634409010C3300F16042B0F1FF3FFE
:100C4000C8BF02F56443197010BD00004EF60C5188
:100C5000CEF200010A684FF6FF031A4060F30A2241
:100C600042F0806040F0FD70086070472DE9F0416F
:100C7000002800F08B8043F60808C4F202080446FE
:100C8000D8F8F8030D4600F00F00884207D288F824
:100C9000F853D8F8F80300F00F00A84276D1206886
:100CA000810717D5410705D5D8F8001041F4E05168
:100CB000C8F80010010705D5D8F8001041F46041CC
:100CC000C8F80010D8F80010A26821F0F001114314
:100CD000C8F80010C0073FD1D8F8F80300F00F00A3
:100CE000A84207D988F8F853D8F8F80300F00F00A5
:100CF000A8424BD12068410707D5D8F80010E26818
:100D000021F4E0511143C8F80010000708D5D8F8C5
:100D10000000216920F4604040EAC100C8F80000EA
:100D200000F09CF8D8F8001044F68632C1F30311A5
:100D3000C0F60002515C40F2080220FA01F140F2D4
:100D40000400C2F200000068C2F200021160FFF766
:100D5000DFFE0020BDE8F0816068811E022907D215
:100D600058F8081C89015CBF0120BDE8F08110E043
:100D7000012807D158F8081C89035CBF0120BDE891
:100D8000F08106E058F8081C890702D40120BDE86C
:100D9000F081D8F8001021F003010843C8F80000E2
:100DA000FFF786FE064641F2883700BFD8F80000FC
:100DB000616800F00C00B0EB810F8DD0FFF778FE7A
:100DC000801BB842F2D90320BDE8F0810F220260F7
:100DD00043F60802C4F20202136803F003034360FF
:100DE000136803F0F0038360136803F4E053C360F7
:100DF000D2F800C04FF4E05303EADC030361D2F8F9
:100E0000F80300F00F0008607047000040F208008F
:100E100043F60801C2F20000C4F20201006809684A
:100E200044F69632C1F38221C0F60002515CC840FC
:100E30007047000040F2080043F60801C2F20000CB
:100E4000C4F202010068096844F69632C1F34231E7
:100E5000C0F60002515CC8407047000010B543F670
:100E60000404C4F20204606800F00C0008280AD0F0
:100E7000042819BF42F20040C0F2F40047F64000D7
:100E8000C0F27D1010BD206821682368490247F632
:100E90004001C0F27D1100F03F02C3F388105CBF37
:100EA00042F20041C0F2F401A1FB00010023FFF770
:100EB0002BFB21680222C1F3014102EB4101B0FB8F
:100EC000F1F010BD2DE9F04182B0002868D0044651
:100ED000007843F60006C007C4F202060BD0B068E3
:100EE00000F00C00042840F0A0803068800302D598
:100EF0006068002854D0207880071AD5B06810F0B8
:100F00000C0F09D0B06800F00C00082840F0B48045
:100F10007068400200F1B0803068800702D5E06858
:100F200001283DD13068216920F0F80040EAC10075
:100F300030602078000737D4207840074BD4A5696B
:100F400055B3B06800F00C00082840F0DA80012D9D
:100F500026D07068E16900F480028A4220D1216ABB
:100F600000F03F028A421BD147F6C071626A01401D
:100F7000B1EB821F14D1A16A4FF6FF73C9039943E5
:100F800000F44032A1F580318A4209D1E16A00F0D3
:100F90007060B0EB016F03D1002002B0BDE8F081BA
:100FA000012002B0BDE8F0816069002840F2000035
:100FB000C4F2472000F091800121C0F8801EFFF7A5
:100FC00077FD0546706F8007B6D4FFF771FD401BB3
:100FD0000228F7D991E0306C4FF00008C0000CD423
:100FE000CDF80480306C4FF0010840F08050306440
:100FF000306C00F080500190019847F20007C4F275
:1010000000073868C0054DD4386840F480703860F7
:10101000FFF74EFD054600BF3868C00542D4FFF714
:1010200047FD401B0228F7D967E0B06800F00C00CC
:10103000082803D1706840023FF557AF6568B5F5E1
:10104000803F07D03068B5F5A02F40F0B38040F462
:1010500080203060306840F480303060FFF728FD39
:10106000054600BF306880033FF545AFFFF720FD20
:10107000401B6428F6D940E0E068002864D00020D6
:10108000C4F2472001210160FFF712FD054600BFB1
:10109000306880073FF546AFFFF70AFD401B022886
:1010A000F6D92AE0A568012D05D0306F052D5FD156
:1010B00040F004003067306F40F001003067FFF708
:1010C000F7FC054641F28837306F800769D4FFF797
:1010D000EFFC401BB842F7D90FE00021C0F8801E9A
:1010E000FFF7E6FC054600BF706F80077FF524AF71
:1010F000FFF7DEFC401B0228F6D9032002B0BDE852
:10110000F0810027C4F2472700203866FFF7D0FCA3
:10111000022D05460CD100BF3068800164D5FFF771
:10112000C7FC401B02284FF00300F5D935E700BF8C
:10113000306880017FF530AFFFF7BAFC401B022812
:101140004FF00300F4D928E70020C4F24720002123
:101150000160FFF7ADFC0546306880077FF5E9AE1A
:10116000FFF7A6FC401B02284FF00300F4D914E758
:1011700020F001003067306F20F004003067FFF787
:1011800097FC002D05469DD141F28837306F8007CE
:1011900007D5FFF78DFC401BB8424FF00300F5D98F
:1011A000FBE6B8F1000F3FF4CAAE306C20F080507F
:1011B0003064C4E620F480303060306820F4802051
:1011C0003060FFF775FC002D05467FF44BAF07E05C
:1011D000FFF76EFC401B64284FF003003FF6DDAEC6
:1011E00030688003F4D486E604F11C052FCD084353
:1011F00040EA8210D9034FF6FF729143A1F5803186
:1012000040EA05600843706001203866FFF750FC33
:10121000044600BF306880013FF5BEAEFFF748FCD2
:10122000001B02284FF00300F4D9B6E62DE9F04187
:1012300086B00446032084F83400606C8846032896
:1012400022D14FF08050A16B40F2FF560843A063BB
:10125000A06BC0F2400600283ED0206801258663BE
:1012600084F834504FF4007101F012FB28B121686A
:1012700001258E63A16B0843A0630121284684F8F1
:10128000341006B0BDE8F081B8F1000F36D0B8F5E3
:10129000805FD6D0B8F5006F46D100212068059157
:1012A0000491002101F078FA800140D404A920467D
:1012B00001F062FD0028C6D19DF81600400730D528
:1012C000216D2068090401F08DFA0028BBD1206847
:1012D000022101F0E9FAB6E794E80F00D4E90557D6
:1012E000CDE90085029701F05BFA206800254FF4F4
:1012F000007101F0CDFA0028B9D1BEE700212068C5
:1013000005910491002101F047FA80010FD404A94E
:10131000204601F031FD002895D19DF81600C00748
:1013200008D14FF080608EE74FF000608BE74FF4FC
:10133000006088E7216D2068090401F053FA002855
:101340007FF481AF2068002101F0AEFA7BE7000056
:1013500080B5D0E9193ED0F844C09A0F0A70C3F3A3
:1013600083624A70C3F301628A701A0CCA701A0A47
:101370000A714FEA1E524B71CA80CEF303420A72C1
:10138000CEF3C0324A72CEF380328A72CEF340324C
:10139000CA72CEF300320A730022BCF1010F4A7305
:1013A00035D0BCF1000F40F0868040F6FC72C36E71
:1013B00002EA8E0242EA93720A61C26EC2F3C2630B
:1013C0000B75C2F302634B75C2F342538B75C2F3C4
:1013D0008243CB75C2F3C2330B76D1F810C00B7EBB
:1013E0000CF1010C03F0070302330CFA03FCC0F804
:1013F00054C00B7A03F00F0E012303FA0EF383653A
:101400005B0A03FB0CF3C3654FF4007311E0B0F803
:101410006E200EF03F0342EA03420A610A694FF46C
:10142000806303EB82224FF40073C0E91523C26589
:10143000C26E0366C2F380334B76C2F3C61302F06A
:101440007F028B76CA76006FC20F0A77C0F34172B3
:101450004A77C0F382628A77C0F38352CA77C0F3B7
:10146000405281F82020002281F82120C0F300435F
:1014700081F82230C0F3C03381F82330C0F38033C9
:1014800081F82430C0F3403381F82530C0F30033B5
:1014900081F82630C0F3812381F82730C0F301237F
:1014A000C0B2400881F8283081F82900012081F875
:1014B0002A00104680BD016840F2FF52C0F240028F
:1014C0008A63816B012241F08051816380F834206E
:1014D000104680BD10B5D0B1044690F8340020B954
:1014E00000202077204600F01FF9032084F8340004
:1014F000204600F00FF800284FF0010018BF10BD83
:101500000021A163216384F83400002010BD012074
:1015100010BD0000F0B58FB00446006876210026AB
:1015200002910021002200230096019601F038F973
:101530004FF0010510B128460FB0F0BD48F2A007EA
:10154000C4F225273E60206801F040F93D60049612
:10155000206801F0B5F940B1012584F83450A16B41
:101560000843A06328460FB0F0BD206801F0D8F909
:1015700050B120680021A16401F0A2F90028EBD14C
:10158000A06C012802D009E00120A064206800219D
:1015900001F028F910B14FF08050DDE704984FF6C4
:1015A000FE71884220D80025CCF210154FF6FF7648
:1015B0002068002101F016F90028CDD120682946C5
:1015C00001F01CF90028E6D12068002101F0E4F8C0
:1015D0000499002801F101010491049901D4B14258
:1015E000E6D3C0F3807000E0002004994FF6FF724C
:1015F000914202D34FF08070AEE76064206801250D
:10160000ADF80E5001F0C4F888B1606C032811D118
:101610002068042101F0C0F8000DE06404A9204610
:10162000FFF796FE002853D04FF0805095E74FF01B
:10163000806092E7206801F0D3F900287FF48DAF35
:101640002068002101F0A8F821686067084604219D
:1016500001F0A2F82168A0670846082101F09CF873
:101660002168E06708460C2101F096F8616CC4F827
:1016700080000329CCD020680DF10E0101F05EFA44
:1016800000287FF46AAF606C0328C1D0BDF80E104B
:1016900020682165090401F0F3F900287FF45DAFAB
:1016A0002068002101F078F821686066084604216E
:1016B00001F072F82168A0660846082101F06CF874
:1016C0002168E06608460C2101F066F820679FE774
:1016D000216D20680A04002301F076F900287FF4C8
:1016E0003CAF94E88F00D4E90565CDE9007602951A
:1016F00001F056F820684FF4007101F0C9F870B19C
:10170000216840F2FF52C0F240028A63A16B0125BA
:101710000843A06384F8345028460FB0F0BD00257C
:1017200028460FB0F0BD00002DE9F04387B0002639
:101730000696CDE9046642F600450068C4F201054C
:10174000A8420396029602D007B0BDE8F08343F6A4
:1017500030000196C4F20200416902AC41F400611C
:10176000416141694FF0020801F400610191019962
:10177000019601684FF0030941F00401016001681E
:101780000C2701F00401019101990196016841F0D3
:10179000080101600068214600F0080001900198EE
:1017A0004FF4F850029005F55C40CDE90386CDF882
:1017B00014900697FFF798F80420CDE9020805F584
:1017C00060402146CDE904690697FFF78DF807B020
:1017D000BDE8F0837047000070470000002804BF98
:1017E0000120704710B5044690F83D0028B900204C
:1017F00084F83C00204600F01FF8022084F83D00E9
:101800002068211D01F0FAFB012084F8460084F8CD
:101810003E0084F83F0084F8400084F8410084F8DA
:10182000420084F8430084F8440084F8450084F8BA
:101830003D00002010BD00007047000090F83D10F2
:1018400001291CBF01207047022180F83D1000686B
:1018500041F2FF72C168C4F20002904241F00101FE
:10186000C1600DDC40F2FF71C4F20001884215DC5A
:10187000B0F1804F29D040F20041C4F2000122E0D3
:1018800040F2FF31C4F20101884212DC41F600014E
:10189000C4F20001884218D0002112E040F6000195
:1018A000C4F20001884210D040F60041C4F20001A9
:1018B00009E044F20001C4F20101884205D040F27F
:1018C0000041C4F20101884206D1816801F007019C
:1018D000062904BF00207047016841F00101016042
:1018E000002070477047000010B501680446086981
:1018F000800744BFC8685FEA807038D40869400731
:1019000044BFC8685FEA40703DD40869000744BF1F
:10191000C8685FEA007043D40869C00644BFC8685D
:101920005FEAC06048D40869C0071CBFC8685FEAA6
:10193000C0704ED10869000644BFC8685FEA006005
:101940004FD40869400644BFC8685FEA406050D47D
:101950000869800646BFC8685FEA806010BD6FF006
:10196000200220460A61BDE81040FFF735BF6FF046
:1019700002000861012020778869800741D0204655
:10198000FFF7B0FF43E06FF004000861022020770A
:10199000886910F4407F3ED02046FFF7A3FF40E067
:1019A0006FF00800086104202077C86980073CD0E8
:1019B0002046FFF797FF3EE06FF010000861082017
:1019C0002077C86910F4407F39D02046FFF78AFF9E
:1019D0003BE06FF001000861204600F03FF821680D
:1019E000A8E76FF0800008612046FFF7F3FE21684A
:1019F000A7E76FF040000861204600F039F8216841
:101A0000A6E7204600F026F8204600F025F82168D9
:101A10000020207772E7204600F01CF8204600F0F6
:101A20001BF82168002020776FE7204600F012F8AD
:101A3000204600F011F82168002020776CE720464E
:101A400000F008F8204600F007F821680020207711
:101A500069E700007047000070470000006800213F
:101A6000C4F20101884208BFFFF728B870470000A0
:101A7000704700007047000070470000F0B581B06B
:101A8000044600680168C268456901F02F03202BF5
:101A900002F0200306D12BB1204601B0BDE8F04092
:101AA00001F0D4BB5FEA017C07D005F0010E12F40F
:101AB000907F8EF001052FD175B3236B1140CA06BC
:101AC00018D5012B16D100210091016800914168C1
:101AD000009100994169490600F18281A18DE28D52
:101AE000E38D002B1CBF891A5FEA014240F0FD80A4
:101AF00001B0F0BD0A0600F12B824906F8D5C16895
:101B000021F04001C1602021204684F83D1001B041
:101B1000BDE8F04000F042BCCE0718BF12F480765A
:101B200003D0266C46F00106266401F00407012666
:101B300086EA97072F4303D1276C47F002072764F3
:101B400001F0020786EA5706354303D1256C45F0BC
:101B50000405256453EA0E0318BF0123BCF1000FEE
:101B600004D51BB1236C43F008032364236C002BC2
:101B7000BED01140890603D5204601F067FB2068DE
:101B80004169226C01F0400102F00802891800F05E
:101B9000F08100BF50E8030F216820F4907041E805
:101BA0000302C2B3206850E8030F216820F490704C
:101BB00041E803027AB3206850E8030F216820F45B
:101BC000907041E8030232B3206850E8030F2168A7
:101BD00020F4907041E80302EAB12068DAE700BF20
:101BE000206850E8050F216820F0010041E8050257
:101BF000DAB1206850E8050F216820F0010041E8C3
:101C0000050292B1206850E8050F216820F001001C
:101C100041E805024AB1206850E8050F216820F02C
:101C2000010041E80502002ADAD1206B012824D105
:101C3000206850E8030F216820F0100041E80302FB
:101C4000DAB1206850E8030F216820F0100041E865
:101C5000030292B1206850E8030F216820F01000C1
:101C600041E803024AB1206850E8030F216820F0E0
:101C7000100041E80302002ADAD1202084F83E0057
:101C80000020206320684169490640F18B8150E8BB
:101C9000050F216820F0400041E80502002A00F00D
:101CA0006F81206850E8050F216820F0400041E86E
:101CB0000502002A00F06481206850E8050F2168C1
:101CC00020F0400041E80502002A00F05981206818
:101CD00050E8050F216820F0400041E80502002A85
:101CE00000F04E812068D2E7206850E8030F226898
:101CF00020F4907042E80303BBB3206850E8030F60
:101D0000226820F4907042E8030373B3206850E81F
:101D1000030F226820F4907042E803032BB320687D
:101D200050E8030F226820F4907042E80303002B70
:101D3000DAD11AE0206850E8050F226820F001008F
:101D400042E80503DBB1206850E8050F226820F067
:101D5000010042E8050393B1206850E8050F2268AE
:101D600020F0010042E805034BB1206850E8050F60
:101D7000226820F0010042E80503002BDAD1202080
:101D800084F83E0000202063206850E8030F22689A
:101D900020F0100042E80303DBB1206850E8030F95
:101DA000226820F0100042E8030393B1206850E855
:101DB000030F226820F0100042E803034BB12068B3
:101DC00050E8030F226820F0100042E80303002BC4
:101DD000DAD189B2204601B0BDE8F040FFF74ABE33
:101DE000A26B11684B689EB2002E3FF481AEA18DAC
:101DF0008E42BFF47DAEE385D269B2F5807F00F0FC
:101E00009E8050E8030F216820F4807041E80302AF
:101E1000E2B1206850E8030F216820F4807041E8A7
:101E200003029AB1206850E8030F216820F4807003
:101E300041E8030252B1206850E8030F216820F402
:101E4000807041E803020AB12068DAE7206850E8B0
:101E5000050F216820F0010041E80502BAB32068AF
:101E600050E8050F216820F0010041E8050272B337
:101E7000206850E8050F216820F0010041E80502C4
:101E80002AB3206850E8050F216820F0010041E8DE
:101E90000502002ADAD11AE0206850E8050F21680F
:101EA00020F0400041E80502DAB1206850E8050F53
:101EB000216820F0400041E8050292B1206850E816
:101EC000050F216820F0400041E805024AB1206872
:101ED00050E8050F216820F0400041E80502002A83
:101EE000DAD1202084F83E0000202063206850E8EA
:101EF000030F216820F0100041E80302DAB12068E6
:101F000050E8030F216820F0100041E8030292B16D
:101F1000206850E8030F216820F0100041E8030218
:101F20004AB1206850E8030F216820F0100041E812
:101F30000302002ADAD1A06BFEF768FCA18DE08DC8
:101F4000081A81B2204601B0BDE8F040FFF792BD0B
:101F500094F83D1021297FF4CBADA168B1F5805FE5
:101F600001D1216921B3216A4A1C226209784160AA
:101F700025E02046FFF780FD0020206401B0F0BD81
:101F8000A06B78B143F24121C0F600010165FEF774
:101F900085FC00283FF4ACADA06B016D01B0BDE83D
:101FA000F0400847204601B0BDE8F040FFF764BDAF
:101FB000216A31F8022B6FF35F2242602162E18CCB
:101FC00001390A04E1847FF493ADC16821F08001F6
:101FD000C160C16841F04001C16001B0F0BD0000C6
:101FE000002804BF0120704710B5044690F83D005A
:101FF00028B9002084F83C00204600F021F8242075
:1020000084F83D002068C16821F40051C160204679
:1020100001F09AF92068016921F490410161416958
:1020200021F02A014161C16841F40051C1600020E2
:102030002021206484F83D1084F83E1010BD00007B
:1020400080B586B000220592CDE9032241F200015D
:102050000068C4F2010188420292019201D006B0E8
:1020600080BD43F630000092C4F20200436943F0A1
:1020700010034361436903F010030093009B009237
:10208000036843F001030360006800F00100009062
:1020900000984FF4C06001900220CDE902020320B5
:1020A00004900720059001F5704001A9FEF71CFC83
:1020B000252000210022FEF79DFD2520FEF78AFD48
:1020C00006B080BD704700002DE9F04381B00446A2
:1020D00090F83D0020280DD10F4600294FF0010057
:1020E00000F0EC801646002A00F0E88094F83C00EE
:1020F000012803D1022001B0BDE8F083012084F85B
:102100003C004FF0000921201D46C4F8409084F89F
:102110003D00FEF7CDFCA684E684A1688046B1F5BB
:10212000805F07D1206900281CBF38464F463E46D5
:10213000074600E0002684F83C90E28C20680168A5
:1021400012B36A1C47D0002D00F0C98009060AD4DA
:10215000FEF7AEFCA0EB0800A84200F2C7802068A2
:1021600001680906F4D517B117F8011B04E036F829
:10217000021B00276FF35F214160E18C0139E1848C
:10218000E28C0168002AE1D1490610D4002D41D02B
:10219000691C39D1016849065CBF01685FEA416189
:1021A00005D40168490602D401684906F2D5202009
:1021B00084F83D00002001B0BDE8F08336F8021B32
:1021C00000276FF35F214160E18C0139E184E28CEB
:1021D0000168002AD8D009065FBF01685FEA016183
:1021E00001685FEA016105D40168090602D401684B
:1021F000F1E700BF002FE1D017F8011BE3E700BFB4
:10220000206800684006D2D4FEF752FCA0EB08001C
:10221000A842F5D9206850E8030F216820F4D07057
:1022200041E80302BAB3206850E8030F216820F4A4
:10223000D07041E8030272B3206850E8030F2168B0
:1022400020F4D07041E803022AB3206850E8030F5D
:10225000216820F4D07041E80302002ADAD11AE0A4
:10226000206850E8050F216820F0010041E80502D0
:10227000DAB1206850E8050F216820F0010041E83C
:10228000050292B1206850E8050F216820F0010096
:1022900041E805024AB1206850E8050F216820F0A6
:1022A000010041E80502002ADAD1202084F83D002F
:1022B00084F83E00002084F83C00032001B0BDE813
:1022C000F08336F8021B00276FF35F214160E18C39
:1022D0000139E184E28C0168002A3FF455AF090618
:1022E00004D5002FEDD017F8011BEFE7206850E868
:1022F000030F216820F4D07041E80302BAB32068CC
:1023000050E8030F216820F4D07041E8030272B353
:10231000206850E8030F216820F4D07041E80302E0
:102320002AB3206850E8030F216820F4D07041E8F8
:102330000302002ADAD11AE0206850E8050F21686C
:1023400020F0010041E80502DAB1206850E8050FED
:10235000216820F0010041E8050292B1206850E8B0
:10236000050F216820F0010041E805024AB120680C
:1023700050E8050F216820F0010041E80502002A1D
:10238000DAD1202084F83D0084F83E00002084F853
:102390003C00032001B0BDE8F0830000704700005E
:1023A000FEE7000040F26010C2F200000168013157
:1023B0000160FBE780B588B040F214201F224FF483
:1023C0000073C2F200004FF0010E0021CDE90003BE
:1023D000CDE9022240F2641042F2A5324FF0B00C77
:1023E000CDE9041EC2F2000004A1C0F600020023E1
:1023F000CDF818C002F050FA08B080BD49444C45F1
:10240000205461736B00000040F60044C4F20204E3
:1024100004F54065284680210022FEF743FB204654
:102420004FF480510122FEF73DFB1E2001F0A6FC77
:10243000284680210122FEF735FB20464FF48051CB
:102440000022FEF72FFB1E2001F098FCE2E70000BF
:1024500080B588B040F2C44003224FF48063C2F2DA
:1024600000004FF0010E0021CDE90003CDE902226A
:1024700040F2144042F209424FF0B00CCDE9041E84
:10248000C2F2000004A1C0F600020023CDF818C07B
:1024900002F002FA08B080BD4C4544205461736BD1
:1024A0000000000001F05CBBFEE70000FEE700005A
:1024B000F0B583B040F270070C46C2F20007054643
:1024C000002607F1340001A922460023CDE9016668
:1024D00002F0B8F8019829462246FEF78DF8381D1B
:1024E00002A9002201F0BEFFDDE9010108600298A7
:1024F0003A684460866000BF936811464BB19A68A1
:10250000194632B1936811461BB19A681946002AE0
:10251000F2D1886003B0F0BD2DE9F04F85B00029FD
:1025200000F0EB804A1E41F2C40B01F00304032AC1
:10253000C2F2000B04D20023002C40F08980DCE0C2
:10254000CDE90041611A00F101086FF0030E00258A
:102550004FF037094FF0200A029000BF08EB0E043D
:10256000E6780EF1040E09EB16123709A02E38BFDB
:1025700007F130020BF80520E27802F00F0202F1B9
:1025800037060A2A38BF02F1300645F001020BF87F
:10259000026045F002020BF802A022790BEB05065F
:1025A00009EB121C1709A02A38BF07F1300C86F876
:1025B00003C0227902F00F0202F137070A2A38BF5E
:1025C00002F13007377186F805A0627909EB121322
:1025D0001709A02A38BF07F13003B3716279AF1D24
:1025E00002F00F0202F137030A2A38BF02F130036A
:1025F00047F001020BF8023007EB0B0282F802A051
:10260000A27909EB12171309A02A38BF03F130078A
:102610007772A27905F1090702F00F0202F1370380
:102620000A2A38BF02F1300307EB0B02537047F060
:1026300002020BF802A001EB0E02043205F10C05B8
:102640008CD10298DDE900410EF10403002C54D036
:10265000C55C37262A0906EB1517A02D03EB4305A9
:1026600038BF02F130070BF80570C25C5D4402F020
:102670000F0202F137070A2A38BF02F130074FF084
:10268000200C012C6F7085F802C036D05F1CC25D33
:10269000150906EB1216A02A07EB470238BF05F111
:1026A00030060BF80260C65D5A4406F00F0505F1CE
:1026B00037060A2D38BF05F13006022C567082F815
:1026C00002C01AD09E1C825D3727130907EB121730
:1026D000A02A06EB460238BF03F130070BF8027060
:1026E000805D5A4400F00F0000F137030A2838BF1C
:1026F00000F1300320205370907040F2700601EB1F
:102700004104C2F20006002506F1340003A9224666
:102710000023CDE9035501F095FF039841F2C40170
:10272000C2F200012246FDF767FF301D04A9002216
:1027300001F098FEDDE90301086004983268446006
:10274000856000BF936811464BB19A68194632B153
:10275000936811461BB19A681946002AF2D1886025
:1027600005B0BDE8F08F000080B5024691E8095041
:102770005062936208694EEA0C0318434969D36AB0
:10278000084323F0F70101430020D16280BD00001F
:10279000006800F00300704708444069704700007B
:1027A00010B58446DDE90240114319432143DDF8A9
:1027B00010E00843DCF8041047F6FF6240EA0E0020
:1027C000914301430020CCF8041010BD80B50321D3
:1027D00001600220FEF774F8002080BDD0F8800070
:1027E000704700008160C36840F2774161F30B03DA
:1027F000372141F28832C36000F00ABA41F000414B
:1028000041F480118160C16840F2694262F30B01BA
:10281000C16040F20801C2F20001096844F6D352D7
:10282000C1F26202A1FB0212510A6FF0030241F2EF
:10283000883301FB132100BF043124D0426B12F016
:10284000450F02D012F4006214D0426B12F0450F13
:1028500002D012F400620DD0426B12F0450F02D08C
:1028600012F4006206D0426B12F0450FE4D012F46D
:102870000062E1D1416B042211F0040108BFC522BE
:102880008263084670474FF00041084670470000D9
:102890008160C3684FF48A6161F30B03102141F238
:1028A0008832C36000F0B4B98160C36840F2464129
:1028B00061F30B03062141F28832C36000F0A8B92E
:1028C00000218160C1684FF4806262F30B01C16036
:1028D00040F20801C2F20001096844F6D352C1F285
:1028E0006202A1FB0212510A6FF0030241F2883327
:1028F00001FB1321043104BF4FF000407047426BCD
:10290000120609D4426B12065CBF426B5FEA026298
:1029100002D4426B1206EDD5C521816300207047B9
:102920004FF4D5718160C1684FF4896262F30B0185
:10293000C16040F20801C2F20001096844F6D352B6
:10294000C1F26202A1FB0212510A6FF0030241F2CE
:10295000883301FB132100BF04312DD0426B12F0EC
:10296000450F02D012F4006214D0426B12F0450FF2
:1029700002D012F400620DD0426B12F0450F02D06B
:1029800012F4006206D0426B12F0450FE4D012F44C
:102990000062E1D1416B49070AD4416BC9070FD1ED
:1029A000416B490644BF40218163002108467047BE
:1029B00004218163084670474FF000410846704784
:1029C00001218163084670478260C36840F2474135
:1029D00061F30B03072141F28832C36000F018B99C
:1029E00000218160C16840F2C24262F30B01C16004
:1029F00040F20801C2F20001096844F6D352C1F264
:102A00006202A1FB0212510A6FF0030241F2883305
:102A100001FB132104312AD0426B12F0450F02D082
:102A200012F4006214D0426B12F0450F02D012F47F
:102A300000620DD0426B12F0450F02D012F400621A
:102A400006D0426B12F0450FE4D012F40062E1D1DF
:102A5000416B490707D4416BC9070CD1C52181637C
:102A600000210846704704218163084670474FF0F3
:102A70000041084670470121816308467047000005
:102A80008160C16840F2C94262F30B01C16040F24B
:102A90000801C2F20001096844F6D352C1F2620291
:102AA000A1FB0212510A6FF0030241F2883301FBCD
:102AB000132100BF04312AD0426B12F0450F02D01F
:102AC00012F4006214D0426B12F0450F02D012F4DF
:102AD00000620DD0426B12F0450F02D012F400627A
:102AE00006D0426B12F0450FE4D012F40062E1D13F
:102AF000416B490707D4416BC9070CD1C5218163DC
:102B000000210846704704218163084670474FF052
:102B10000041084670470121816308467047000064
:102B200000218160C36840F2734161F30B033321DC
:102B300041F28832C36000F06BB80000002282606E
:102B4000C26840F2434363F30B02C26040F20802E2
:102B5000C2F20002126844F6D353C1F26203A2FB30
:102B600003235A0A6FF0030C41F2883302FB13C2AD
:102B7000043240D0436B13F0450F02D013F40063CE
:102B800014D0436B13F0450F02D013F400630DD043
:102B9000436B13F0450F02D013F4006306D0436B70
:102BA00013F0450FE4D013F40063E1D1426B5207F8
:102BB0001DD4426BD20722D10269D2B2032A1EBFB2
:102BC000012108467047C5228263406910F4604FB6
:102BD00019D0410442BF4FF4005108467047000429
:102BE0004FF4805158BF4FF480310846704704219C
:102BF0008163084670474FF0004108467047012145
:102C0000816308467047000C088000210846704721
:102C100040F20803C2F20003D3F800C044F6D353D5
:102C2000C1F26203ACFB033C03464FEA5C20504315
:102C3000002804BF4FF0004070475A6B12F0450F58
:102C400002D012F400621DD0012800F092805A6B6D
:102C500012F0450F02D012F4006213D0022800F0E7
:102C600088805A6B12F0450F02D012F4006209D02E
:102C70000438421C7DD05A6B12F0450FD8D012F4A4
:102C80000062D5D1586B400742BF0420986370475B
:102C9000586BC0071EBF012098637047C52098631A
:102CA0001869C0B288421CBF0120704758694EF2B3
:102CB0000801CFF6FF51084204BF002070470028EA
:102CC00044BF4FF000707047410044BF4020704740
:102CD000810044BF80207047C10044BF4FF4807022
:102CE0007047010144BF4FF400707047410144BF79
:102CF0004FF480607047C10144BF4FF400607047DB
:102D0000010244BF4FF480507047410244BF4FF46A
:102D100000507047810244BF4FF480407047C102A9
:102D200044BF4FF400407047410344BF4FF40030AC
:102D30007047810344BF4FF480207047C10344BFF4
:102D40004FF400207047010444BF4FF480107047D7
:102D5000410444BF4FF400107047810444BF4FF456
:102D60008000704700074FF4000058BF4FF48030D8
:102D700070474FF0004070472DE9F04188B00C4695
:102D80000546FDF795FE0646002128680191009151
:102D90000821FFF77DFD10B108B0BDE8F081296D75
:102DA00028680904FFF71EFD0028F5D14FF0FF3019
:102DB000029008200390302004900220059000200B
:102DC000069001212868079102A9FFF7CDFC286829
:102DD000FFF7A6FE0028DFD10027E8460DE000BF80
:102DE0000846FFF7FBFC48F827000137FDF760FEB7
:102DF000801B01304FF00040CED02968486B10F0A6
:102E00002A0F05D1486B8002EAD4486B8004EDD4C8
:102E1000486B000712D4486B800711D4486B8006BA
:102E200010D440F23A508863DDE9001000BA09BAC4
:102E3000C4E90001002008B0BDE8F081082002E0EC
:102E4000022000E02020886308B0BDE8F081000087
:102E500082B04FF000088DF80780FFF7ABFA40F220
:102E60006015C2F200052C686420642600F086FF1D
:102E70002868041BFFF7ECFA00F05CF90FF2480930
:102E80000DF1070A0FF2500B2F68642000F076FF57
:102E900028680023C01B201AA0FB060168F100026D
:102EA00002FB06112246FDF72FFB8DF8070048466E
:102EB0000E21FFF7FDFA50460121FFF72DFB584682
:102EC0000421FFF7F5FADFE7435055CAB9D3C3C26F
:102ED000CAA3BA3078000000250D0A0080B588B07A
:102EE00041F2F42002224FF48063C2F200004FF05E
:102EF000010E0021CDE90003CDE9022241F2442078
:102F000042F651624FF0B00CCDE9041EC2F200004F
:102F100004A1C0F600020023CDF818C001F0BCFCEB
:102F200008B080BD53595354454D205461736B0014
:102F300070B592B0002443F64000CDE90A44CDE9D3
:102F400008440594CDE90344CDE901440094C4F25A
:102F500002000168012241F08051016000680225F1
:102F600000F080500090009847F200000094C4F2F6
:102F7000000001680F2662F38F310160006800F4E1
:102F80004040009000984FF4803007904FF480004C
:102F90000D90902006920C950E96CDE90F05052018
:102FA000119006A8FDF78EFF18B1EFF3108072B6EE
:102FB000FEE74FF4A050CDE9016504904FF4805036
:102FC000059001A803210394FDF750FE18B1EFF31B
:102FD000108072B6FEE712B070BD00004EF6885049
:102FE000CEF20000016841F47001016070470000FA
:102FF00042F2E010C2F20000FEF776BC10B540F6D7
:10300000FF3E0368C4F2000E40F2004C7045C4F26B
:10301000010C26DCB0F1804F30D040F20042C4F207
:10302000000290422AD040F60002C4F20002904210
:1030300024D041F6FF72C4F20002904228DC7045B1
:103040003ADCB0F1804F5CD040F20042C4F20002A2
:10305000904256D040F60002C4F20002904250D096
:1030600053E040F60042C4F20002904206D06045B0
:1030700004D00022C4F201029042DAD14A6823F05F
:103080007003134341F6FF72C4F200029042D6DD92
:1030900043F6FF72C4F20102904220DC42F20002C9
:1030A000C4F2000290422CD00022C4F201029042ED
:1030B00027D0604525D028E040F60042C4F2000247
:1030C00090421ED041F60002C4F20002904218D095
:1030D00041F60042C4F20002904212D015E044F2E0
:1030E0000002C4F2010290420BD044F60002C4F286
:1030F0000102904205D044F20042C4F20102904223
:1031000003D1CA6823F44073134323F080024B6950
:10311000D1F800E08C681A430260C46240F4806217
:10312000C0F828E0624504BF0969016301214161DB
:1031300010BD000080B588B041F2A4701E224FF48B
:103140008063C2F200004FF0010E0021CDE90003C0
:10315000CDE9022241F2F46043F289124FF0B00C43
:10316000CDE9041EC2F2000004A1C0F60002002353
:10317000CDF818C001F090FB08B080BD5541525405
:10318000205461736B000000ADF5027D40F27008C1
:10319000C2F200084FF4806008F1040444F69E3146
:1031A00040F6C40330270090C0F60001C2F20003CD
:1031B00020460C22019701F087F940F6C44544F6F9
:1031C000A731C2F20005342708F13400C0F600012F
:1031D0002A464FF48063009701F07AFA2046414670
:1031E0000022002701F03EF9D8F8000042F2282919
:1031F0000560D8F80050C2F2000902AEC5E90177B7
:103200001AE000BFD7E900123046FDF7F5F9B968BA
:10321000D7E90004A96001F005FB384601F002FA85
:10322000A2B2484631462346FEF74EFF012000F089
:10323000A5FDD8F80050AF68002FE3D10024EFE7D8
:10324000806B0021C185C184FEF716BC81B090F867
:103250003E10222920D18368B3F5805F08D101692F
:10326000002964D000F128010A6803685B680AE05D
:10327000014651F8282F13B90369002BF5D00368D4
:103280005B6803F07F0313700A6801320A60C18D26
:1032900001390A04C18501D001B070470168CA68CC
:1032A00022F02002CA60CA6822F48072CA604A69A9
:1032B00022F001024A61202280F83E20026B012A9E
:1032C0003ED10022026300BF51E8031F026821F0D3
:1032D000100142E803130168DBB151E8031F0268E3
:1032E00021F0100142E80313016893B151E8031F74
:1032F000026821F0100142E8031301684BB151E864
:10330000031F026821F0100142E803130168002B3B
:10331000DAD10A68D20606D5002200920A68009225
:10332000496800910099818D01B0FEF7A3BB016847
:10333000826A49686FF35F2122F8021B8262A6E766
:1033400001B0FEF7BFBE000010B504460068D4E926
:1033500002C22369016921F440511143016162698C
:1033600043EA0C01E3691143C268194349F20C6353
:103370009A431143C1604169A26921F4407141F24D
:103380000043114340F48062C4F201039A42416158
:1033900002D1FDF74FFD01E0FDF738FDE1696368FB
:1033A0001922B1F5004FA0FB02011FD15A00DB0F1B
:1033B000FDF7AAF848F21F51C5F2EB11A0FB01235B
:1033C0005A096FF0630302FB0300322303EBC000D2
:1033D000A0FB01014FF4F87000EA111000EB02109D
:1033E000C1F3421122680843906010BD9A009B0F00
:1033F000FDF78AF848F21F51C5F2EB11A0FB01233B
:103400005A096FF0630302FB0300322303EB001041
:10341000A0FB0101F02000EA511000EB0210C1F303
:10342000431122680843906010BD000042F228203A
:10343000C2F20000FEF722BBFEE7000010B5EFF37A
:10344000108E72B684685CB10269131D0B6013683C
:10345000611E8160036110608EF31088002010BD32
:1034600000230B6052B140F2201CC2F2000CDCF8C9
:1034700000303BB18EF31088102010BD8EF3108801
:10348000102010BD40F20813C2F200031C6843F282
:10349000ED43C0F60003C4E91A30D4F8AC30E1675C
:1034A000591C436AC4F8AC10591C416233B1006A1C
:1034B000206750F8741F61670C6703E0046224679B
:1034C00004F174000460082020630120A063E2641A
:1034D000DCF800000130CCF800008EF310882046A4
:1034E00000F054FDD4F8840010BD000080B5EFF367
:1034F000108E72B6836E43F2ED42C0F60002934224
:1035000002D08EF3108880BDD0F8AC208A42F8D16A
:10351000C16E0029F5D00A6844F64373C4F24C2307
:103520009A42EED14B6A002BEBD04FF0000C5A1EA2
:10353000C0F868C04A6209D0D0E91C32D1F820C076
:103540005A678445136708BF0B6201E0C1F820C0C9
:10355000016B0829D5D11021C0F8841040F2201148
:10356000C2F200010A6801320A608EF3108800F08E
:1035700073FCEFF3108E72B68EF3108880BD0000DE
:103580002DE9F04F83B00F460C9C30219A46164629
:103590000546FDF7D2F8F21C22F0030124F00303E4
:1035A00001F1040E9E456F60C5E905A3E96106D9E6
:1035B0000020C5E90200052003B0BDE8F08FB3FB91
:1035C000FEF49208102303EB0210082303EBC2075A
:1035D00002EB42020C2303EB82066FF0030201951B
:1035E000A2EB010B4FF00009032503464FF0000842
:1035F00051460290A5F1020A01EB0E02A24541F8E4
:10360000092020D201EB070C084621466C1E8C4293
:103610000C46014640F80EC019D28A19A542CA517B
:1036200019D2CA1802988A516A1C08F10408814408
:10363000864407440644034483440435A242D9D354
:1036400001EB0B0C09E001EB090CD04605E048F05A
:103650000208944601E048F00308019F0020C7E9F2
:103660000288CCF80000396144F64371C4F24C2161
:10367000EFF3108072B6396040F2F401C2F200013B
:103680000A6840F2F003C2F200032AB11D68EE6A34
:10369000EF6206F1280301E03D463E4601321F601D
:1036A000C7E90A560A6080F31088002003B0BDE81D
:1036B000F08F000080B5EFF3108C72B6014651F820
:1036C000043D0246186A58B1596A0139596211D04D
:1036D000D0E91C1E1962C1F874E0CEF870100BE03E
:1036E00018699A680860501C196198608CF31088FA
:1036F000002080BD002119620021C36F8166C0F8DF
:10370000841040F220111A60C2F200010A680132EE
:103710000A608CF3108800F09FFB002080BD000041
:103720002DE9F0410646D01C40F208120F46EFF397
:10373000108172B6C2F200021568984620F00304A8
:10374000356281F310883046214600F0E1F8EFF34E
:10375000108172B690B9306AA842F1D10020B8F158
:10376000000F386010D040F22010C2F20000026852
:103770007AB181F310881020BDE8F081386081F3C0
:1037800010880020BDE8F08181F310881020BDE88A
:10379000F08143F2F172C0F60002C5E91A26D5F8AD
:1037A000AC20B36A0132C5F8AC205A1CAC67EF6795
:1037B000B26233B1726A2A6752F8743F6B671D6751
:1037C00003E075622D6705F17402156009222A6312
:1037D0000122AA63C5F84C8002680132026081F3BD
:1037E0001088284600F0D2FBD5F88400BDE8F081AF
:1037F00080B5EFF3108E72B6836E43F2F172C0F6AD
:103800000002934202D08EF3108880BDD0F8AC2025
:103810008A42F8D1C16E0029F5D00A6845F24543C5
:10382000C4F259239A42EED18B6A002BEBD04FF0B1
:10383000000C5A1EC0F868C08A6209D0D0E91C3258
:10384000D1F824C05A678445136708BF4B6201E072
:10385000C1F824C0016B0929D5D11021C0F884100A
:1038600040F22011C2F200010A6801320A608EF3B0
:10387000108800F0F1FAEFF3108E72B68EF3108814
:1038800080BD0000F0B581B00F4634211D461646BC
:103890000446FCF752FF25F00300A0F10801676021
:1038A000C4E90660C4E90466A1600221E160304415
:1038B0004EF6EE6140F8086DCFF6FF714460C6E940
:1038C000000145F245410020C4F259212062EFF386
:1038D000108072B6216040F2FC01C2F200010A6859
:1038E00040F2F803C2F200032AB11F683E6B3C634A
:1038F00006F12C0301E02746264601321C60C4E98C
:103900000B760A6080F31088002001B0F0BD000043
:103910002DE9F041EFF3108E72B6D0E9022402EBEC
:10392000C402103A8A4243D940F20812C2F200029D
:1039300012684EF6EE6C4369CFF6FF7C01344FF00F
:103940000008026202E000BF002C45D05E686645B8
:1039500018D1B8F1000F04BF43614FF001081E6891
:10396000F71A083F8F4228D2D6E9007565450BD17A
:103970001F60C5684769013DB742C56008BF436124
:1039800006E000BF1B6803E0002C18BF013C3B466B
:103990008EF31088EFF3108E72B6056A002C18BFF4
:1039A000013C9542D0D0C468436901340262CBE740
:1039B0008EF310880020BDE8F0816FB17A1A142AC6
:1039C0000FD3CA18C46842F8086F671C1646C2F8BD
:1039D00004C0C7601A6005E08EF310880020BDE8BF
:1039E000F081394682685860511A42690839934219
:1039F000816008BF46618EF3108803F10800BDE8BE
:103A0000F08100002DE9F04F81B0EFF3108172B624
:103A100090B350F8045C4EF6EE68CFF6FF7845455B
:103A20002AD04DB32A6845F24543C4F25923D41A2B
:103A300018BF03249A421FD140F20812C2F20002BA
:103A4000D2F80090A0F10802C5F8209040F8048C4C
:103A500050F8080CAB68801A6F691844BA42A86025
:103A600038BF6A61A86A00285AD040F2201B4FF084
:103A7000000AC2F2000B15E081F3108803242046EF
:103A800001B0BDE8F08F00BF50F8082D6F69C0F895
:103A90000480AB68121A1A44B842AA6038BF686141
:103AA000A86AA8B36E6A2846B76F81F310883946B2
:103AB000FFF72EFFEFF3108172B6C5F8209038B3F0
:103AC0006A6A9642E0D1B26FBA42DDD1AA6A013A7F
:103AD000AA6205D0D6E91C236A6253671A6701E01F
:103AE000C5F824A0F26FC6F868A01060C6F884A0DC
:103AF000DBF800000130CBF8000081F3108830467D
:103B000000F0AAF9EFF3108172B6A86A0028C9D1B3
:103B100081F3108800F07AF9204601B0BDE8F08FFB
:103B200081F310880024204601B0BDE8F08F00002A
:103B300080B500F0D9F800F04BFB40F2D800C2F29B
:103B400000000021C0E90011C0E90211C0E9041120
:103B5000C0E90611C0E90811C0E90A1180BD0000E2
:103B600010B540F20C04C2F20004206810F10F3FBF
:103B70000DD04FF0F0302060FCF79AFBFFF7D8FF34
:103B800040F22010C2F200000168013101604FF0E4
:103B9000F030206041F6A430C2F20000006800F06E
:103BA000E3FF00202060BDE81040FCF7C1BB00002F
:103BB0002DE9F04F81B0DDE90A5993460F46DDF853
:103BC00038A00C9E044628464946EF229846FCF74A
:103BD0008AFD2046B021FCF7B0FD09EB0501013953
:103BE000C4E911B8C4E90A76C4E903510D9920204B
:103BF0008E423146C4E9059AC4F81CA018BF0021C2
:103C0000E163C4E92561C4F89C000320206344F209
:103C10007910C0F6000043F62151C4E91504C0F63E
:103C200000012046FCF7ECFB45F24421C5F2484177
:103C3000EFF3108072B6216040F21C11C2F2000155
:103C40000A6840F21813C2F200033AB11F68D7F8AD
:103C50008C60C7F88C4006F1880301E027462646B1
:103C600001321C60C4E922760A6040F22011C2F2DF
:103C700000010F9D0A68012D02F101020A6014D1B2
:103C800040F20C01C2F200010968EFF30582114312
:103C9000B1F1F03F19D340F20C11C2F200010D68EE
:103CA0009DB1E96AEE6BE96311E080F31088EFF3F0
:103CB000108072B60A68013A0A6080F3108800F03A
:103CC000A5F8002001B0BDE8F08F0025002680F3A4
:103CD0001088204600F0C0F8002D18BFEE630020C9
:103CE00001B0BDE8F08F0000B0B540F20814C2F298
:103CF000000400252020C4E90055C4E9025041F623
:103D0000A830C2F200008021FCF717FDC4E9045579
:103D1000A561206AE56140F085702062B0BD0000B9
:103D200010B540F20810C2F200000468D4E9111086
:103D3000884740F22410C2F20000016809B1204611
:103D400088470121EFF3108072B62163A16300213F
:103D5000E16440F22011C2F200010A6801320A60F7
:103D600080F31088EFF3148020F0040080F31488AF
:103D70002046BDE8104000F009B9000010B540F23F
:103D80000812EFF3108172B6C2F20002146864B137
:103D900040F20C02C2F200021268EFF305831A43EC
:103DA00007D081F31088132010BD81F310881320F1
:103DB00010BD41F6AC42C2F2000294420AD068B192
:103DC00040F22012C2F2000213685BB181F3108846
:103DD000132010BD81F31088132010BD81F31088CB
:103DE000002010BD042323630123A3630023C4F830
:103DF0008430E06410680130106081F31088204640
:103E000000F0C4F8D4F8840010BD000040F2201087
:103E1000C2F20000006800B1704740F2081040F2A2
:103E20000C11C2F20000C2F2000100680968884269
:103E3000F2D04EF60450CEF200004FF080510160F7
:103E4000EFF30580002818BF7047EFF3108062B6CB
:103E500080F3108870470000F0B581B0EFF3108553
:103E600072B60446406E002804F14C0002D000F007
:103E70003BFA01E00021016040F22010C2F2000094
:103E8000016801390160A16B226B002940F20C111D
:103E9000C2F2000108D0013A022A0CD3626B32B997
:103EA0000022A263226306E02AB1626B1AB30022E9
:103EB00003232363626340F20812C2F20002126815
:103EC00085F3108809688A4201D0006808B101B002
:103ED000F0BD4EF60450CEF200004FF0805101606C
:103EE000EFF305800028F2D1EFF3108062B680F383
:103EF000108801B0F0BDE26A41F6A83CC2F2000CA5
:103F00005CF822304FF0000EC4F830E02BB15A6A52
:103F10005C621462C4E90832CDE74CF8224040F2FA
:103F2000101E40F2141CC2F2000EC2F2000C01235B
:103F3000DEF80060DCF8007093403343BA42C4E915
:103F40000844CEF80030B6D20B68CCF80020D3B1CC
:103F5000DB6B9A42AFD20C6085F3108800680028B2
:103F6000B5D14EF60450CEF200004FF08051016002
:103F7000EFF305800028AAD1EFF3108062B680F33A
:103F8000108801B0F0BD0C6095E7000070B50446E4
:103F900040F20810C2F200000668EFF3108572B616
:103FA000A6420DD1204650F84C1F0131022928BFEE
:103FB00000F06CF9E06940F23011C2F200010860D3
:103FC00040F22010C2F20000016840F20C1C0139DE
:103FD0000160A16BC2F2000C012916D1236AE26ACA
:103FE0000021A342A1631AD0616A41F6A83E59623A
:103FF0000B62C2F2000E5EF82210A14208BF4EF81A
:104000002230DCF80010A14229D085F31088DCF8BA
:1040100000108E4202D00068002843D070BD41F6E7
:10402000A833C2F2000343F8221040F21013C2F288
:1040300000034FF0010E19680EFA02F291430029B5
:10404000196041D040F2141291FAA1F1C2F20002BB
:10405000B1FA81F11160DCF80010A142D5D140F233
:104060001411C2F20001096841F6A832C2F200023E
:1040700052F82110CCF8001085F310880068002851
:10408000CCD14EF60450CEF200004FF080510160CA
:10409000EFF305800028C1D1EFF3108062B680F302
:1040A000108870BD4EF60450CEF200004FF08051E3
:1040B0000160EFF30580002818BF70BDEFF310809A
:1040C00062B680F3108870BD40F21411C2F2000194
:1040D00020220A600021CCF8001085F310880068C7
:1040E00000289BD14EF60450CEF200004FF08051D4
:1040F0000160EFF3058000287FF490AFEFF31080AC
:1041000062B680F3108870BD40F20810C2F2000061
:10411000016840F23412EFF3108072B6C2F200026E
:104120000023136009B10A6B12B180F31088704745
:10413000D1E9073240F2301CC2F2000C8A428B6196
:10414000CCF80030F1D0CB6AC96B8B42EDD140F294
:10415000141141F6A83CC2F20001C2F2000C096839
:104160004CF823205CF8211040F20C12C2F200023D
:10417000116080F310887047EFF3108272B6016B04
:1041800004290AD140F22011C2F200010B68013368
:104190000B6082F31088FFF75FBE836ED0F8AC101F
:1041A00082F31088002B08BF7047184740F2201197
:1041B000EFF3108072B6C2F200010A6801320A60A1
:1041C00080F3108841F6AC40C2F20000FFF744BE15
:1041D0002DE9F04387B041F62C4640F22C14C2F290
:1041E000000644F64D18C2F2000400253046802136
:1041F000C4F254182560C4E90155C4E90355FCF71D
:104200009CFA41F65C5106F18000C2F200014FF4C5
:10421000806204F11C03C4E9056627C38DE826000B
:1042200041F6AC4044F6B33144F22532C2F200000C
:10423000C0F60001C0F600024346CDE903550595DE
:10424000FFF7B6FCE0B141F6AC4944F6B33644F2B0
:104250002537C2F20009C0F60006C0F6000700BF0D
:1042600004F1200207CA43468DE80700CDE9032583
:10427000484631463A460595FFF79AFC0028EFD1AB
:10428000C4E90B5507B0BDE8F083000001684A1C83
:10429000022A27D38269002A18BF70474A1E2029A4
:1042A00040F24411C2F20001096888BF1F2201EBED
:1042B000820140F24812C2F20002126840F240133A
:1042C000C2F200038A1A1B6828BF99180A682AB12B
:1042D000536950611861C0E9042302E0C0E9040099
:1042E00008608161704700008169002908BF70473C
:1042F0000269824208D0436953611A610B688342A4
:104300000AD00021816170470A688242F9D10022F7
:104310000A6000218161704791610A60002181611A
:10432000704700002DE9F04F83B044F64D11C4F200
:10433000541188421CBF03B0BDE8F08F40F2441610
:1043400040F2381440F23C1BC2F200060027C2F2D1
:1043500000040DF10409C2F2000B0DF1080804E09D
:10436000206800286AD081F31088EFF3108072B6BD
:1043700031680A68002A029218BFC2F818800F60DC
:1043800040F248123168C2F20002126804319142D0
:10439000316005D140F24011C2F20001096831607C
:1043A000276080F31088EFF3108172B605E000BF3C
:1043B0008AF31088EFF3108172B6029D002DCFD0E2
:1043C000286900228542019214D06A69C0F81880D9
:1043D000426110612A680290212A10D3A2F12000C4
:1043E0002860C5F818902D610195CBF8005081F335
:1043F000108816E000202A680290212AEED2D5E922
:104400000132E868002B2B600FBFAF61C5F8189030
:104410002D610195CBF8005081F31088002A18BF58
:104420009047EFF3108A72B60198CBF80070A8425B
:10443000BED12846AF61FFF729FFB9E741F6AC408E
:10444000C2F2000003220263012240F220138263C1
:10445000C2F200031A6801321A6081F31088FFF774
:1044600095FD82E780B530B3D0F800C044F64373C1
:10447000C4F24C239C451ED109B3C2B140F20C03D7
:10448000C2F20003D3F800C0EFF3058353EA0C0334
:104490004FF0040C15D140F20813C2F20003D3F818
:1044A00000E041F6AC43C2F200039E4509D0BDE8EE
:1044B0008040FEF7C3BF4FF0020C604680BD4FF056
:1044C000030C604680BD00002DE9F0470746002838
:1044D0004FF0020000F0A48089460999302940F08D
:1044E0009F8040F22010DDF82080EFF3108172B63B
:1044F000C2F20000924602681C460132026081F35B
:10450000108840F2F001C2F200010B68D91BB1FA29
:1045100081F14FEA511630D040F2F401C2F20001AD
:10452000096851B3042200BF9B6ADE1BB6FA86F607
:104530004FEA561621D0D51E8D421ED29B6ADE1B35
:10454000B6FA86F64FEA561617D0951E8D4214D24B
:104550009B6ADE1BB6FA86F64FEA56160DD0551E3C
:104560008D420AD29B6ADE1BB6FA86F64FEA5616D1
:1045700003D08A4202F10402D6D3EFF3108172B65F
:104580000268013A026081F31088FFF73FFC002EB9
:104590001CBF0220BDE8F08784B30AF1040020F0BC
:1045A000030028F00301884284BF0520BDE8F0879E
:1045B00040F20810C2F20000016840F20C00C2F2A2
:1045C00000000268EFF305831A431AD041F6AC43AA
:1045D0000068C2F20003EFF3058202430020994213
:1045E00008BF1320B2F1F03F38BF1320994217D013
:1045F000B2F1F03F38BFBDE8F08708E00320BDE826
:10460000F08741F6AC40C2F20000814207D0384644
:10461000494652462346BDE8F047FEF7B1BF132096
:10462000BDE8F08758B150F8041C41B1096844F660
:104630004372C4F24C22914208BFFFF73BB80320FB
:104640007047000010B578B1D0F800C045F2454E73
:10465000C4F2592EF44507D141B11AB1D0F81CC0AB
:10466000944505D2052010BD022010BD032010BDC9
:1046700040F20C0CC2F2000C43B1DCF800E0EFF3A6
:10468000058454EA0E041CBF042010BD40F2081437
:10469000C2F20004D4F800E041F6AC44C2F20004D7
:1046A000A6450FD0DCF800E0EFF3058454EA0E04D1
:1046B0000AD0DCF800C0EFF3058444EA0C04B4F13E
:1046C000F03F01D2132010BDBDE81040FFF728B81D
:1046D0002DE9F04381B0074600284FF0020000F0BA
:1046E0009D8088460899342940F0988040F2201037
:1046F000EFF3108172B6C2F20000154602689946C7
:104700000132026081F3108840F2F801C2F2000128
:104710000B68D91BB1FA81F14FEA51162FD040F244
:10472000FC01C2F20001096849B30422DB6ADE1B06
:10473000B6FA86F64FEA561621D0D41E8C421ED207
:10474000DB6ADE1BB6FA86F64FEA561617D0941EC1
:104750008C4214D2DB6ADE1BB6FA86F64FEA561696
:104760000DD0541E8C420AD2DB6ADE1BB6FA86F6E6
:104770004FEA561603D08A4202F10402D6D3EFF371
:10478000108172B60268013A026081F31088FFF767
:104790003DFB1EB1022001B0BDE8F08335B1B9F197
:1047A000640F07D2052001B0BDE8F083032001B0FB
:1047B000BDE8F08340F20810C2F20000016840F248
:1047C0000C00C2F200000268EFF305831A4315D013
:1047D00041F6AC430068C2F20003EFF305820243E6
:1047E0000020994208BF1320B2F1F03F38BF1320D8
:1047F000994213D0B2F1F03F06D20FE041F6AC403F
:10480000C2F20000814208D0384641462A464B4653
:1048100001B0BDE8F043FFF735B8132001B0BDE8A3
:10482000F083000080B530B340F2081140F20C0C68
:10483000C2F20001C2F2000C0A68DCF80030EFF3AB
:10484000058119431AD041F6AC4EDCF80010C2F2D3
:10485000000EEFF305830B430021724508BF1321BF
:10486000B3F1F03F38BF1321724502D0B3F1F03FEE
:104870000AD2084680BD0321084680BD41F6AC41FE
:10488000C2F200018A4203D0BDE88040FFF7BAB807
:104890001321084680BD00002DE9F04F87B0804607
:1048A00000284FF00E0059D08A461699B02955D1EC
:1048B00040F2201CEFF3108072B6C2F2000CDCF85C
:1048C000001093460131CCF8001040F21C1180F327
:1048D000108840F21810C2F20001C2F2000009680C
:1048E000119A109C0668994619B31019421E0023AC
:1048F0000025012D18BF46451BD0F068844207D221
:1049000082420CD20133D6F888608B42F1D310E09A
:104910003769BC423CBF012500248242F2D3306992
:1049200082423CBF002401250133D6F888608B42C7
:10493000DFD3EFF3108072B6DCF800100139CCF849
:10494000001080F31088FFF761FA464509D0BBF1EB
:10495000000F4FF0030018BF002C06D107B0BDE8D0
:10496000F08F0E2007B0BDE8F08F1198C82803D251
:10497000052007B0BDE8F08F12991F2903D90F2039
:1049800007B0BDE8F08F139A8A4203D9182007B008
:10499000BDE8F08F159E012E03D9102007B0BDE8A9
:1049A000F08F40F20810C2F20000036840F20C00E1
:1049B000C2F200000768EFF305852F4315D041F6DA
:1049C000AC470068C2F20007EFF3058505430020FD
:1049D000BB4208BF1320B5F1F03F38BF1320BB42E4
:1049E000BCD0B5F1F03F06D2B8E741F6AC40C2F218
:1049F0000000834210D01498119B0094CDE901313E
:104A0000CDE90320404651465A464B460596FFF7EE
:104A1000CFF807B0BDE8F08F132007B0BDE8F08FE6
:104A200086B040F60048C4F20208FCF755F8FEF7DD
:104A30007FFA002743F6300005970097C4F2020082
:104A40000168002241F00401016001684FF48056C2
:104A500001F00401009100990097016841F0800184
:104A60000160016801F080010091009900970168E0
:104A700041F008010160016801F00801009100990E
:104A80000097016841F040010160016801F04001B8
:104A9000009100990097016841F0010101600068F0
:104AA0004FF4805100F00100009000984046FBF761
:104AB000F9FF08F540652846802100224FF0800963
:104AC000FBF7F0FF019601AE012440463146CDE9E7
:104AD00002470497FBF708FF28463146CDE90194C9
:104AE000CDE90377FBF700FF42F22820A8F57C41CF
:104AF000C2F200000C234FF400464FF4E13280E88C
:104B00008600C0E90377C0E90537C661FDF768FA9A
:104B100018B1EFF3108072B6FEE742F25C10A8F510
:104B20006041C2F20000C0E90017C0E90277C0E9A5
:104B300004778761FCF7CEFC18B1EFF3108072B6F2
:104B4000FEE742F25C10C2F200004FF40061FCF795
:104B50006DFB20B1EFF3108072B600BFFEE7FDF7EA
:104B6000A1FC00BFFEE70000FEF7B8B9F1EE100AA5
:104B70004FF6FF71C0F2C03120EA010040F04070F2
:104B8000E1EE100A70470000000000000000010282
:104B90000304060708090000000001020304504452
:104BA0004C426C6F636B0050445F42797465506F88
:104BB0006F6C0053797374656D2054696D65722054
:104BC0005468726561640000E84B00080000002032
:104BD00010000000E8010008F84B00081000002059
:104BE000602800000402000801000000100000001E
:084BF0000024F400F0F0F0F0E5
:04000005080001AD41
:00000001FF
