:020000040800F2
:10000000D81800204D0200080D110008F90F000853
:1000100009110008150700088512000800000000FB
:100020000000000000000000000000005F02000867
:1000300019070008000000005D0300081D03000808
:1000400067020008670200086702000867020008EC
:1000500067020008670200086702000867020008DC
:1000600067020008670200086702000867020008CC
:1000700067020008670200086702000867020008BC
:1000800067020008670200086702000867020008AC
:10009000670200086702000867020008670200089C
:1000A000670200086702000867020008670200088C
:1000B000670200086702000867020008670200087C
:1000C000670200086702000867020008670200086C
:1000D000670200086702000867020008670200085C
:1000E000670200086702000867020008670200084C
:1000F000670200086702000867020008670200083C
:10010000670200086702000867020008670200082B
:10011000670200086702000867020008670200081B
:10012000670200086702000867020008670200080B
:1001300067020008670200086702000867020008FB
:1001400067020008670200086702000867020008EB
:1001500067020008670200086702000867020008DB
:1001600067020008670200086702000867020008CB
:10017000670200086702000867020008000000002C
:1001800067020008670200086702000867020008AB
:10019000670200086702000867020008670200089B
:1001A00067020008670200086702000800F002F812
:1001B00000F03CF80AA090E8000C82448344AAF1C5
:1001C0000107DA4501D100F031F8AFF2090EBAE8C3
:1001D0000F0013F0010F18BFFB1A43F0010318477B
:1001E000681C0000881C0000103A24BF78C878C141
:1001F000FAD8520724BF30C830C144BF04680C602D
:10020000704700000023002400250026103A28BF74
:1002100078C1FBD8520728BF30C148BF0B60704778
:100220001FB501F0F1FD1FBD10B510BD00F038FA8B
:100230001146FFF7F5FF01F085FD00F056FA03B413
:10024000FFF7F2FF03BC00F05DFA000009488047A9
:1002500009480047FEE7FEE7FEE7FEE7FEE7FEE7A8
:10026000FEE7FEE7FEE7FEE704480549054A064BC0
:100270007047000071120008AD010008D81200207C
:10028000D8180020D8140020D81400200000000046
:100290001C0D0020D818002000000008A00D002030
:1002A00000000008001000E03F771B000000FF4046
:1002B00072B65FF824005FF8241001F104010160B8
:1002C0004FF0E0205FF83010C0F8081D5FF83400F0
:1002D0005FF83410096801605FF83800016841F088
:1002E000010101604FF0E0205FF8441041614FF0E0
:1002F000070101614FF00001C0F8181D4FF07F4168
:10030000C0F81C1D5FF85C10C0F8201D7047FEE7A8
:10031000FEE7FEE701B5BDE80140704701B500F01A
:100320008FF8BDE801407047FEE7FEE700000000DF
:100330004FF000002A4A1060EFF3148020F0040010
:1003400080F3148862B64FF080504FF0E021C1F87E
:10035000040DBFF34F8FBFF36F8FFEE72148224A92
:100360004FF00003016891B10360EFF3098C2CE9B1
:10037000F00F1EF0100F01D12CED108A1B4C4CF821
:1003800004ED2568C1F808C00DB18D61236072B617
:100390001168B1B1016062B64F68154C8D6907F103
:1003A00001074F602560D1F808C05CF804EB1EF02F
:1003B000100F01D1BCEC108ABCE8F00F8CF3098857
:1003C000704772B61168016009B962B6F9E74FF07B
:1003D00000674FF0E028C8F8047D62B6DCE770479C
:1003E000C8000020B0000020B4000020D800002089
:1003F000D800002000000000000000000000000005
:10040000026922F00702A2F144026FF002031360B6
:100410004FF0000353609360D360136153619361A5
:10042000D361136253629362D362136353634FF0D9
:10043000FF339363D1634FF080731364826070471E
:100440002249086800F101000860214B1A683AB19E
:10045000A2F101021A601AB91E4B4FF00100186098
:100460001D490868026822B11C4B4FF001021A6056
:1004700008E000F104001A4B1A68904201D1194BB0
:1004800018680860184B1A6812B918490868D0B182
:100490002DE901401649086808B101F033FA154BFF
:1004A0001A6872B101F0DCF91348016849B91348C0
:1004B0000168134A136813484FF08052994200D0E4
:1004C0000260BDE80140BFF34F8F7047D4000020A9
:1004D000D8000020DC000020EC000020E00000201C
:1004E000F0000020E8000020DC000020E0000020F8
:1004F000E0000020DC000020C8000020B000002048
:10050000B400002004ED00E053EA020C00F0698022
:100510002DE9F04B4FF00006002B1FBFB3FA83F517
:1005200003FA05F424FA05F65E4012BF1643B2FA48
:1005300082F502FA05F4C5F120051EBF22FA05FC7A
:1005400044EA0C04203556EA044C4FEA144418BF20
:10055000641C4FF000084FF00009904271EB030C4F
:1005600039D3002919BFB1FA81F701FA07F6B0FAB9
:1005700080F700FA07F6C7F120071EBF20FA07FC34
:1005800046EA0C062037B6FBF4FCA7EB0507103F44
:1005900007F01F0BCBF120062CFA06F60CFA0BFB2A
:1005A00044BFB3460026202FA4BF5E464FF0000B89
:1005B0005BEA060C08BF4FF0010B19EB0B0948EB87
:1005C0000608ABFB027C06FB02CC0BFB03CCC01B7A
:1005D00071EB0C01C1E70B46024641464846BDE8B7
:1005E000F08B13B5084318BF4FF0FF300146AFF34F
:1005F0000080BDE81C40704702F0FF0343EA03227D
:1006000042EA024200F02CB84FF0000200B5134657
:1006100094469646203922BFA0E80C50A0E80C5022
:10062000B1F12001BFF4F7AF090728BFA0E80C50D3
:1006300048BF0CC05DF804EB890028BF40F8042BCC
:1006400008BF704748BF20F8022B11F0804F18BF39
:1006500000F8012B70477047704770474FF0000259
:100660000429C0F0128010F0030C3FF4CFAFCCF19E
:10067000040CBCF1020F18BF00F8012BA8BF20F832
:10068000022BA1EB0C01FFF7C1BF5FEAC17C24BFC5
:1006900000F8012B00F8012B48BF00F8012B704730
:1006A000754600F02BF8AE4605006946534620F02B
:1006B0000700854618B020B5FFF7D6FDBDE82040FD
:1006C0004FF000064FF000074FF000084FF0000B0E
:1006D000AC46ACE8C009ACE8C009ACE8C009ACE87D
:1006E000C00921F007018D46704710B50446AFF3ED
:1006F00000802046BDE81040FFF7A1BD00487047CC
:100700001000002001491820ABBEFEE726000200C1
:1007100070470000FEE70000704700002DE9F04F31
:1007200082B000F13E4242F2004502F1FF77C4F28E
:1007300002050A224FEAB726A84208BF0922092E5D
:1007400038BF4FEAB7224FF0010E002400274FF0C8
:100750000008009208E000BF023708F10108202FCE
:1007600004F1040400F0B4800E680EFA08F916EAE9
:10077000090FF1D0D1F804A00AF0030BABF1010688
:10078000012E19D80322866802FA07FECA6826EAF3
:100790000E06BA40324382604268CAF3001522EA6C
:1007A000090205FA08F54FEA480C6FEA0E064FF009
:1007B000010E2A4342600BE00322BA40D643BBF14C
:1007C000030FBC4604D1BC464FF0030B24E000BF2E
:1007D000C2688D68324005FA0CF52A43BBF1020F5E
:1007E000C26019D16FF0030202EA5802024404F019
:1007F0001C030F25D2F820E005FA03FA0D692EEA52
:100800000A0E05FA03F343EA0E031362D1F804A0BB
:100810004FF0010E0AF0030B02680BFA0CF33240A2
:100820001A431AF4403F026096D0002243F6440374
:100830000192C4F202031A6843F6004C42F480426B
:100840001A601A68C4F2010C02F480420192019A03
:1008500028F003024FF6084A6244CFF6FF7A52F8B6
:100860000A3004F00C060F25B540AB43009D05FA95
:1008700006F6334342F80A30DCF800204B6842EABF
:100880000906DD0358BF22EA0906CCF80060DCF84F
:1008900004209D0342EA090658BF22EA0906CCF863
:1008A0000460DCF80820DD0242EA090643F60C4544
:1008B00058BF22EA0906CCF80860C4F201052A688C
:1008C0009B0242EA090658BF22EA09062E6043E766
:1008D00002B0BDE8F08F0000002A08BF0904816162
:1008E0007047000041F2D420C2F200000068704757
:1008F00080B543F60040C4F20200016841F4007183
:100900000160016841F480610160016841F4807117
:100910000160032000F074F8002000F005F800F0FA
:1009200027F8002080BD000070B540F20006C2F23A
:10093000000640F208013278C2F200014FF47A73E7
:100940000968B3FBF2F20446B1FBF2F1084600F08D
:100950003DFB0F2C4FF0010508D838B94FF0FF30A0
:1009600021460022002500F01FF87460284670BD63
:1009700082B0002043F640010190C4F202014A68AF
:1009800042F480424A604A6802F480420192019A2D
:100990000090086840F080500860086800F08050BF
:1009A0000090009802B0704710B54EF60C5CCEF285
:1009B000000CDCF80030C3F3022E8EF00704042C88
:1009C00028BF0424BEF103034FF0FF3E0EFA04F4E7
:1009D00038BF0023A14399400EFA03F39A4300F075
:1009E0000F03043B1143634409010C3300F16042DF
:1009F000B0F1FF3FC8BF02F56443197010BD00009D
:100A00004EF60C51CEF200010A684FF6FF031A4071
:100A100060F30A2242F0806040F0FD700860704789
:100A200070B582B00020019043F64000C4F202008D
:100A30000168402641F0805101600068C4F20E2632
:100A400000F080500190019847F204050120C4F2A3
:100A500000053060FFF746FF044600BF2868C0036A
:100A600006D4FFF73FFF001BB0F57A7FF6D90EE002
:100A700001207060FFF736FF044600BF286880033E
:100A800008D4FFF72FFF001BB0F57A7FF6D90320BB
:100A900002B070BD002002B070BD00002DE9F04131
:100AA000002800F08B8043F60808C4F202080446D0
:100AB000D8F8F8030D4600F00F00884207D288F8F6
:100AC000F853D8F8F80300F00F00A84276D1206858
:100AD000810717D5410705D5D8F8001041F4E0513A
:100AE000C8F80010010705D5D8F8001041F460419E
:100AF000C8F80010D8F80010A26821F0F0011143E6
:100B0000C8F80010C0073FD1D8F8F80300F00F0074
:100B1000A84207D988F8F853D8F8F80300F00F0076
:100B2000A8424BD12068410707D5D8F80010E268E9
:100B300021F4E0511143C8F80010000708D5D8F897
:100B40000000216920F4604040EAC100C8F80000BC
:100B500000F054F8D8F8001041F62262C1F30311F6
:100B6000C0F60002515C40F2080220FA01F140F2A6
:100B70000400C2F200000068C2F200021160FFF738
:100B8000D3FE0020BDE8F0816068811E022907D2F3
:100B900058F8081C89015CBF0120BDE8F08110E015
:100BA000012807D158F8081C89035CBF0120BDE863
:100BB000F08106E058F8081C890702D40120BDE83E
:100BC000F081D8F8001021F003010843C8F80000B4
:100BD000FFF788FE064641F2883700BFD8F80000CC
:100BE000616800F00C00B0EB810F8DD0FFF77AFE4A
:100BF000801BB842F2D90320BDE8F08110B543F65E
:100C00000404C4F20204606800F00C0008280AD052
:100C1000042819BF42F20040C0F2F40047F6400039
:100C2000C0F27D1010BD206821682368490247F694
:100C30004001C0F27D1100F03F02C3F388105CBF99
:100C400042F20041C0F2F401A1FB00010023FFF7D2
:100C50005BFC21680222C1F3014102EB4101B0FBC0
:100C6000F1F010BD2DE9F04182B0002868D00446B3
:100C7000007843F60006C007C4F202060BD0B06845
:100C800000F00C00042840F0A0803068800302D5FA
:100C90006068002854D0207880071AD5B06810F01A
:100CA0000C0F09D0B06800F00C00082840F0B480A8
:100CB0007068400200F1B0803068800702D5E068BB
:100CC00001283DD13068216920F0F80040EAC100D8
:100CD00030602078000737D4207840074BD4A569CE
:100CE00055B3B06800F00C00082840F0DA80012D00
:100CF00026D07068E16900F480028A4220D1216A1E
:100D000000F03F028A421BD147F6C071626A01407F
:100D1000B1EB821F14D1A16A4FF6FF73C903994347
:100D200000F44032A1F580318A4209D1E16A00F035
:100D30007060B0EB016F03D1002002B0BDE8F0811C
:100D4000012002B0BDE8F0816069002840F2000097
:100D5000C4F2472000F091800121C0F8801EFFF707
:100D6000C1FD0546706F8007B6D4FFF7BBFD401B81
:100D70000228F7D991E0306C4FF00008C0000CD485
:100D8000CDF80480306C4FF0010840F080503064A2
:100D9000306C00F080500190019847F20007C4F2D7
:100DA00000073868C0054DD4386840F4807038605A
:100DB000FFF798FD054600BF3868C00542D4FFF72D
:100DC00091FD401B0228F7D967E0B06800F00C00E5
:100DD000082803D1706840023FF557AF6568B5F544
:100DE000803F07D03068B5F5A02F40F0B38040F4C5
:100DF00080203060306840F480303060FFF772FD52
:100E0000054600BF306880033FF545AFFFF76AFD38
:100E1000401B6428F6D940E0E068002864D0002038
:100E2000C4F2472001210160FFF75CFD054600BFC9
:100E3000306880073FF546AFFFF754FD401B02289E
:100E4000F6D92AE0A568012D05D0306F052D5FD1B8
:100E500040F004003067306F40F001003067FFF76A
:100E600041FD054641F28837306F800769D4FFF7AE
:100E700039FD401BB842F7D90FE00021C0F8801EB1
:100E8000FFF730FD054600BF706F80077FF524AF88
:100E9000FFF728FD401B0228F6D9032002B0BDE869
:100EA000F0810027C4F2472700203866FFF71AFDBB
:100EB000022D05460CD100BF3068800164D5FFF7D4
:100EC00011FD401B02284FF00300F5D935E700BFA4
:100ED000306880017FF530AFFFF704FD401B02282A
:100EE0004FF00300F4D928E70020C4F24720002186
:100EF0000160FFF7F7FC0546306880077FF5E9AE33
:100F0000FFF7F0FC401B02284FF00300F4D914E770
:100F100020F001003067306F20F004003067FFF7E9
:100F2000E1FC002D05469DD141F28837306F8007E6
:100F300007D5FFF7D7FC401BB8424FF00300F5D9A7
:100F4000FBE6B8F1000F3FF4CAAE306C20F08050E1
:100F50003064C4E620F480303060306820F48020B3
:100F60003060FFF7BFFC002D05467FF44BAF07E074
:100F7000FFF7B8FC401B64284FF003003FF6DDAEDE
:100F800030688003F4D486E604F11C052FCD0843B5
:100F900040EA8210D9034FF6FF729143A1F58031E8
:100FA00040EA05600843706001203866FFF79AFC4C
:100FB000044600BF306880013FF5BEAEFFF792FCEB
:100FC000001B02284FF00300F4D9B6E6411E0020B2
:100FD000B0EB116F1CBF012070474EF21002CEF231
:100FE000000251604EF62351CEF20001F0230B7047
:100FF0000721906011607047FEE7000040F208147E
:10100000C2F20004206801302060012000F062FA82
:10101000F8E7000080B588B040F2BC101F224FF402
:101020000073C2F200004FF0010E0021CDE9000371
:10103000CDE9022240F20C1040F6FD724FF0B00CE8
:10104000CDE9041EC2F2000004A1C0F60002002394
:10105000CDF818C000F0B2FD08B080BD49444C4541
:10106000205461736B00000040F60044C4F2020497
:1010700004F54065284680210022FFF72DFC20461C
:101080004FF480510122FFF727FC1E2000F022FAC6
:10109000284680210122FFF71FFC20464FF4805193
:1010A0000022FFF719FC1E2000F014FAE2E700000E
:1010B00080B588B040F26C4003224FF48063C2F2E6
:1010C00000004FF0010E0021CDE90003CDE902221E
:1010D00040F2BC3041F269024FF0B00CCDE9041E81
:1010E000C2F2000004A1C0F600020023CDF818C02F
:1010F00000F064FD08B080BD4C4544205461736B22
:101100000000000000F0D8B8FEE70000FEE7000095
:10111000FFF780FF40F20814C2F2000400256420AB
:101120002560642600F0D6F9206840F27007C2F20C
:101130000007C7E90205FFF7BBFF00BF6420256079
:1011400000F0C8F92068D7E9022370430021FFF7B7
:10115000DBF93870F2E7000080B588B040F61C106B
:1011600002224FF48063C2F200004FF0010E002112
:10117000CDE90003CDE9022240F66C0041F21112E4
:101180004FF0B00CCDE9041EC2F2000004A1C0F67D
:1011900000020023CDF818C000F010FD08B080BD9B
:1011A00053595354454D205461736B0080B592B030
:1011B000002043F64001CDE90A00CDE90800059082
:1011C000CDE90300CDE901000090C4F202010A68F4
:1011D00042F080520A60096801F080510091009944
:1011E000009047F20000C4F20000016841F4404161
:1011F000016000684FF4800100F4404000900098C6
:10120000012006904FF480300D910F2107900220AD
:101210000E91D8210C90CDE90F100420119006A852
:10122000FFF720FD18B1EFF3108072B6FEE7FFF76D
:10123000F7FB20B1EFF3108072B600BFFEE70F207E
:10124000019002200290002003904FF4A0500490DF
:101250004FF48050059001A80521FFF71FFC20B135
:10126000EFF3108072B600BFFEE712B080BD000041
:101270004EF68850CEF20000016841F47001016022
:1012800070470000FEE7000080B500F0D9F800F0DC
:101290004BFB40F28000C2F200000021C0E90011C7
:1012A000C0E90211C0E90411C0E90611C0E9081142
:1012B000C0E90A1180BD000010B540F20C04C2F272
:1012C0000004206810F10F3F0DD04FF0F030206087
:1012D000FEF7EEFFFFF7D8FF40F2C800C2F20000B1
:1012E0000168013101604FF0F030206040F61C5081
:1012F000C2F20000006800F085FD00202060BDE81B
:101300001040FFF715B800002DE9F04F81B0DDE97E
:101310000A5993460F46DDF838A00C9E044628462D
:101320004946EF229846FFF767F92046B021FFF7BC
:101330006BF909EB05010139C4E911B8C4E90A7672
:10134000C4E903510D9920208E423146C4E9059A23
:10135000C4F81CA018BF0021E163C4E92561C4F8EA
:101360009C000320206341F6D100C0F6000041F24A
:101370007941C4E91504C0F600012046FFF740F8A2
:1013800045F24421C5F24841EFF3108072B6216066
:1013900040F2C401C2F200010A6840F2C003C2F286
:1013A00000033AB11F68D7F88C60C7F88C4006F18B
:1013B000880301E02746264601321C60C4E92276F4
:1013C0000A6040F2C801C2F200010F9D0A68012DB7
:1013D00002F101020A6014D140F20C01C2F20001D4
:1013E0000968EFF305821143B1F1F03F19D340F2E0
:1013F000B401C2F200010D689DB1E96AEE6BE963C8
:1014000011E080F31088EFF3108072B60A68013A99
:101410000A6080F3108800F0A5F8002001B0BDE854
:10142000F08F0025002680F31088204600F0C0F8D9
:10143000002D18BFEE63002001B0BDE8F08F000062
:10144000B0B540F2B004C2F2000400252020C4E987
:101450000055C4E9025040F62050C2F2000080213D
:10146000FFF7D2F8C4E90455A561206AE56140F0B0
:1014700085702062B0BD000010B540F2B000C2F22D
:1014800000000468D4E91110884740F2CC00C2F291
:101490000000016809B1204688470121EFF3108060
:1014A00072B62163A1630021E16440F2C801C2F277
:1014B00000010A6801320A6080F31088EFF314809B
:1014C00020F0040080F314882046BDE8104000F0AE
:1014D00009B9000010B540F2B002EFF3108172B606
:1014E000C2F20002146864B140F20C02C2F20002BF
:1014F0001268EFF305831A4307D081F31088132095
:1015000010BD81F31088132010BD40F62462C2F292
:10151000000294420AD068B140F2C802C2F200024E
:1015200013685BB181F31088132010BD81F310881C
:10153000132010BD81F31088002010BD0423236305
:101540000123A3630023C4F88430E06410680130F1
:10155000106081F31088204600F0C4F8D4F88400AD
:1015600010BD000040F2C800C2F20000006800B1E7
:10157000704740F2B00040F2B401C2F20000C2F283
:101580000001006809688842F2D04EF60450CEF29D
:1015900000004FF080510160EFF30580002818BF74
:1015A0007047EFF3108062B680F310887047000038
:1015B000F0B581B0EFF3108572B60446406E002896
:1015C00004F14C0002D000F03BFA01E00021016080
:1015D00040F2C800C2F20000016801390160A16B4D
:1015E000226B002940F2B401C2F2000108D0013A96
:1015F000022A0CD3626B32B90022A263226306E096
:101600002AB1626B1AB3002203232363626340F2A0
:10161000B002C2F20002126885F3108809688A429B
:1016200001D0006808B101B0F0BD4EF60450CEF212
:1016300000004FF080510160EFF305800028F2D1E7
:10164000EFF3108062B680F3108801B0F0BDE26A5B
:1016500040F6205CC2F2000C5CF822304FF0000E25
:10166000C4F830E02BB15A6A5C621462C4E90832F3
:10167000CDE74CF8224040F2B80E40F2BC0CC2F26A
:10168000000EC2F2000C0123DEF80060DCF80070EE
:1016900093403343BA42C4E90844CEF80030B6D28E
:1016A0000B68CCF80020D3B1DB6B9A42AFD20C6050
:1016B00085F3108800680028B5D14EF60450CEF2AC
:1016C00000004FF080510160EFF305800028AAD19F
:1016D000EFF3108062B680F3108801B0F0BD0C60AB
:1016E00095E7000070B5044640F2B000C2F2000079
:1016F0000668EFF3108572B6A6420DD1204650F869
:101700004C1F0131022928BF00F06CF9E06940F25A
:10171000D801C2F20001086040F2C800C2F2000025
:10172000016840F2B40C01390160A16BC2F2000CF7
:10173000012916D1236AE26A0021A342A1631AD0CB
:10174000616A40F6205E59620B62C2F2000E5EF8DA
:101750002210A14208BF4EF82230DCF80010A1424E
:1017600029D085F31088DCF800108E4202D0006882
:10177000002843D070BD40F62053C2F2000343F866
:10178000221040F2B803C2F200034FF0010E1968B4
:101790000EFA02F291430029196041D040F2BC02D6
:1017A00091FAA1F1C2F20002B1FA81F11160DCF804
:1017B0000010A142D5D140F2BC01C2F2000109687B
:1017C00040F62052C2F2000252F82110CCF800106C
:1017D00085F3108800680028CCD14EF60450CEF274
:1017E00000004FF080510160EFF305800028C1D167
:1017F000EFF3108062B680F3108870BD4EF604508F
:10180000CEF200004FF080510160EFF30580002818
:1018100018BF70BDEFF3108062B680F3108870BD02
:1018200040F2BC01C2F2000120220A600021CCF883
:10183000001085F31088006800289BD14EF60450F4
:10184000CEF200004FF080510160EFF305800028D8
:101850007FF490AFEFF3108062B680F3108870BD14
:1018600040F2B000C2F20000016840F2DC02EFF387
:10187000108072B6C2F200020023136009B10A6B35
:1018800012B180F310887047D1E9073240F2D80CCA
:10189000C2F2000C8A428B61CCF80030F1D0CB6AE6
:1018A000C96B8B42EDD140F2BC0140F6205CC2F224
:1018B0000001C2F2000C09684CF823205CF82110EA
:1018C00040F2B402C2F20002116080F31088704747
:1018D000EFF3108272B6016B04290AD140F2C801FD
:1018E000C2F200010B6801330B6082F31088FFF72E
:1018F0005FBE836ED0F8AC1082F31088002B08BF57
:101900007047184740F2C801EFF3108072B6C2F278
:1019100000010A6801320A6080F3108840F62460F2
:10192000C2F20000FFF744BE2DE9F04387B040F655
:10193000A45640F2D404C2F2000644F64D18C2F296
:101940000004002530468021C4F254182560C4E903
:101950000155C4E90355FEF757FE40F6D46106F180
:101960008000C2F200014FF4806204F11C03C4E95C
:10197000056627C38DE8260040F6246041F63261F3
:1019800041F67D22C2F20000C0F60001C0F600025E
:101990004346CDE903550595FFF7B6FCE0B140F6A7
:1019A000246941F6326641F67D27C2F20009C0F68D
:1019B0000006C0F6000700BF04F1200207CA434634
:1019C0008DE80700CDE90325484631463A4605959E
:1019D000FFF79AFC0028EFD1C4E90B5507B0BDE82A
:1019E000F083000001684A1C022A27D38269002A7A
:1019F00018BF70474A1E202940F2EC01C2F20001D4
:101A0000096888BF1F2201EB820140F2F002C2F296
:101A10000002126840F2E803C2F200038A1A1B684F
:101A200028BF99180A682AB1536950611861C0E942
:101A3000042302E0C0E904000860816170470000EF
:101A40008169002908BF70470269824208D0436952
:101A500053611A610B6883420AD00021816170478B
:101A60000A688242F9D100220A6000218161704730
:101A700091610A6000218161704700002DE9F04FFB
:101A800083B044F64D11C4F2541188421CBF03B018
:101A9000BDE8F08F40F2EC0640F2E00440F2E40BC7
:101AA000C2F200060027C2F200040DF10409C2F2DE
:101AB000000B0DF1080804E0206800286AD081F3CB
:101AC0001088EFF3108072B631680A68002A02921B
:101AD00018BFC2F818800F6040F2F0023168C2F2FD
:101AE0000002126804319142316005D140F2E801F0
:101AF000C2F2000109683160276080F31088EFF3BB
:101B0000108172B605E000BF8AF31088EFF31081F0
:101B100072B6029D002DCFD0286900228542019225
:101B200014D06A69C0F81880426110612A68029076
:101B3000212A10D3A2F120002860C5F818902D6149
:101B40000195CBF8005081F3108816E000202A6838
:101B50000290212AEED2D5E90132E868002B2B60F1
:101B60000FBFAF61C5F818902D610195CBF80050FB
:101B700081F31088002A18BF9047EFF3108A72B6DD
:101B80000198CBF80070A842BED12846AF61FFF79C
:101B900029FFB9E740F62460C2F200000322026385
:101BA000012240F2C8038263C2F200031A680132C4
:101BB0001A6081F31088FFF795FD82E72DE9F04F59
:101BC00087B0804600284FF00E0059D08A461699FB
:101BD000B02955D140F2C80CEFF3108072B6C2F2B2
:101BE000000CDCF8001093460131CCF8001040F2F4
:101BF000C40180F3108840F2C000C2F20001C2F2BA
:101C000000000968119A109C0668994619B31019CA
:101C1000421E00230025012D18BF46451BD0F06849
:101C2000844207D282420CD20133D6F888608B42BC
:101C3000F1D310E03769BC423CBF01250024824249
:101C4000F2D3306982423CBF002401250133D6F82B
:101C500088608B42DFD3EFF3108072B6DCF800109F
:101C60000139CCF8001080F31088FFF77BFC464563
:101C700009D0BBF1000F4FF0030018BF002C06D1B4
:101C800007B0BDE8F08F0E2007B0BDE8F08F1198C7
:101C9000C82803D2052007B0BDE8F08F12991F298C
:101CA00003D90F2007B0BDE8F08F139A8A4203D9F9
:101CB000182007B0BDE8F08F159E012E03D9102023
:101CC00007B0BDE8F08F40F2B000C2F20000036838
:101CD00040F20C00C2F200000768EFF305852F43C5
:101CE00015D040F624670068C2F20007EFF30585BF
:101CF00005430020BB4208BF1320B5F1F03F38BFB9
:101D00001320BB42BCD0B5F1F03F06D2B8E740F695
:101D10002460C2F20000834210D01498119B0094FA
:101D2000CDE90131CDE90320404651465A464B46A4
:101D30000596FFF7E9FA07B0BDE8F08F132007B06A
:101D4000BDE8F08F86B0FEF7D3FDFFF72FFA00272E
:101D500043F6300005970097C4F20200016840F690
:101D6000004441F0040101600168C4F2020401F082
:101D700004010091009900970168002241F0800160
:101D8000016001684FF4805601F0800100910099D4
:101D90000097016841F008010160016801F0080145
:101DA000009100990097016841F0400101600068CE
:101DB0004FF4805100F04000009000982046FEF75C
:101DC0008BFD04F540652846802100224FF08008F5
:101DD000FEF782FD019601AE4FF001092046314623
:101DE000CDE902970497FEF799FC28463146CDE9E4
:101DF0000189CDE90377FEF791FCFFF783F900BF76
:101E0000FEE70000FFF7A8B9F1EE100A4FF6FF71E8
:101E1000C0F2C03120EA010040F04070E1EE100A4B
:101E200070470000000000000000010203040607E4
:101E3000080953797374656D2054696D6572205477
:101E40006872656164000000681E000800000020E0
:101E500010000000E8010008781E000810000020B3
:101E6000C818000004020008010000001000000073
:081E70000024F400F0F0F0F092
:04000005080001AD41
:00000001FF
