:020000040800F2
:10000000B02A01206D020008BD2F00085D2E0008F7
:10001000B92F000861080008115500080000000011
:100020000000000000000000000000007F02000847
:1000300065080008000000007D0300083D0300087B
:10004000870200088702000887020008870200086C
:10005000870200088702000887020008870200085C
:10006000870200088702000887020008870200084C
:10007000870200088702000887020008870200083C
:10008000870200088702000887020008870200082C
:10009000870200088702000887020008870200081C
:1000A00087020008AD3F00088702000887020008A9
:1000B00087020008870200088702000887020008FC
:1000C00087020008870200088702000887020008EC
:1000D00087020008E9430008870200088702000839
:1000E00087020008870200088702000887020008CC
:1000F00087020008870200088702000887020008BC
:1001000087020008870200088702000887020008AB
:10011000870200088702000887020008870200089B
:10012000870200088702000887020008870200088B
:10013000870200088702000887020008870200087B
:10014000870200088702000887020008870200086B
:10015000870200088702000887020008870200085B
:10016000870200088702000887020008870200084B
:1001700087020008870200088702000800000000CC
:10018000870200088702000887020008870200082B
:10019000870200088702000887020008870200081B
:1001A00087020008870200088702000800F002F8B2
:1001B00000F04CF80AA090E8000C82448344AAF1B5
:1001C0000107DA4501D100F041F8AFF2090EBAE8B3
:1001D0000F0013F0010F18BFFB1A43F0010318477B
:1001E00088F40000A8F400000A4410F8014B14F051
:1001F0000F0508BF10F8015B240908BF10F8014B78
:100200006D1E05D010F8013B6D1E01F8013BF9D1C0
:10021000641E03D0641E01F8015BFBD19142E4D35C
:10022000704700000023002400250026103A28BF54
:1002300078C1FBD8520728BF30C148BF0B60704758
:100240001FB50FF0DDF91FBD10B510BD00F0CEFADF
:100250001146FFF7F5FF0FF027F900F0ECFA03B4B1
:10026000FFF7F2FF03BC00F0F3FA000009488047F3
:1002700009480047FEE7FEE7FEE7FEE7FEE7FEE788
:10028000FEE7FEE7FEE7FEE704480549054A064BA0
:1002900070470000993F0008AD010008B02401201C
:1002A000B02A0120B0260120B02601200000000065
:1002B000343B0020B02A012000000008B83B002099
:1002C00000000008001000E07F4F12000000FF4017
:1002D00072B65FF824005FF8241001F10401016098
:1002E0004FF0E0205FF83010C0F8081D5FF83400D0
:1002F0005FF83410096801605FF83800016841F068
:10030000010101604FF0E0205FF8441041614FF0BF
:10031000070101614FF00001C0F8181D4FF07F4147
:10032000C0F81C1D5FF85C10C0F8201D7047FEE788
:10033000FEE7FEE701B5BDE80140704701B500F0FA
:100340008FF8BDE801407047FEE7FEE700000000BF
:100350004FF000002A4A1060EFF3148020F00400F0
:1003600080F3148862B64FF080504FF0E021C1F85E
:10037000040DBFF34F8FBFF36F8FFEE72148224A72
:100380004FF00003016891B10360EFF3098C2CE991
:10039000F00F1EF0100F01D12CED108A1B4C4CF801
:1003A00004ED2568C1F808C00DB18D61236072B6F7
:1003B0001168B1B1016062B64F68154C8D6907F1E3
:1003C00001074F602560D1F808C05CF804EB1EF00F
:1003D000100F01D1BCEC108ABCE8F00F8CF3098837
:1003E000704772B61168016009B962B6F9E74FF05B
:1003F00000674FF0E028C8F8047D62B6DCE770477C
:10040000D8050020C0050020C4050020E805002014
:10041000E8050020000000000000000000000000CF
:10042000026922F00702A2F144026FF00203136096
:100430004FF0000353609360D36013615361936185
:10044000D361136253629362D362136353634FF0B9
:10045000FF339363D1634FF08073136482607047FE
:100460002249086800F101000860214B1A683AB17E
:10047000A2F101021A601AB91E4B4FF00100186078
:100480001D490868026822B11C4B4FF001021A6036
:1004900008E000F104001A4B1A68904201D1194B90
:1004A00018680860184B1A6812B918490868D0B162
:1004B0002DE901401649086808B10CF08BFC154B7A
:1004C0001A6872B10CF0F6FB1348016849B9134879
:1004D0000168134A136813484FF08052994200D0C4
:1004E0000260BDE80140BFF34F8F7047E405002074
:1004F000E8050020EC050020FC050020F0050020A8
:1005000000060020F8050020EC050020F005002082
:10051000F0050020EC050020D8050020C0050020D3
:10052000C405002004ED00E053EA020C00F06980ED
:100530002DE9F04B4FF00006002B1FBFB3FA83F5F7
:1005400003FA05F424FA05F65E4012BF1643B2FA28
:1005500082F502FA05F4C5F120051EBF22FA05FC5A
:1005600044EA0C04203556EA044C4FEA144418BF00
:10057000641C4FF000084FF00009904271EB030C2F
:1005800039D3002919BFB1FA81F701FA07F6B0FA99
:1005900080F700FA07F6C7F120071EBF20FA07FC14
:1005A00046EA0C062037B6FBF4FCA7EB0507103F24
:1005B00007F01F0BCBF120062CFA06F60CFA0BFB0A
:1005C00044BFB3460026202FA4BF5E464FF0000B69
:1005D0005BEA060C08BF4FF0010B19EB0B0948EB67
:1005E0000608ABFB027C06FB02CC0BFB03CCC01B5A
:1005F00071EB0C01C1E70B46024641464846BDE897
:10060000F08B13B5084318BF4FF0FF300146AFF32E
:100610000080BDE81C40704710B5431C02E010F894
:10062000011B71B18107FAD14FF0013202C88C1A57
:100630008C4314EAC211F9D0C01A0A0603D0C01EB6
:1006400010BDC01A10BD0A0401D0801E10BD0902E1
:10065000FCD0401E10BD032A40F2308010F0030C85
:1006600000F0158011F8013BBCF1020F624498BF05
:1006700011F801CB00F8013B38BF11F8013BA2F1A2
:10068000040298BF00F801CB38BF00F8013B11F01D
:10069000030300F02580083AC0F0088051F8043BBD
:1006A000083A51F804CBA0E80810F5E7121D5CBF2A
:1006B00051F8043B40F8043BAFF30080D20724BF5D
:1006C00011F8013B11F801CB48BF11F8012B24BFF1
:1006D00000F8013B00F801CB48BF00F8012B704740
:1006E00010B5203AC0F00B80B1E81850A0E81850BF
:1006F000B1E81850A0E81850203ABFF4F5AF5FEA0F
:10070000027C24BFB1E81850A0E8185044BF18C9B3
:1007100018C0BDE810405FEA827C24BF51F8043B5A
:1007200040F8043B08BF7047D20728BF31F8023BAE
:1007300048BF11F8012B28BF20F8023B48BF00F842
:10074000012B704702F0FF0343EA032242EA024210
:1007500000F002B84FF000020429C0F0128010F03F
:10076000030C00F01B80CCF1040CBCF1020F18BF8D
:1007700000F8012BA8BF20F8022BA1EB0C0100F020
:100780000DB85FEAC17C24BF00F8012B00F8012BF3
:1007900048BF00F8012B70474FF0000200B5134628
:1007A00094469646203922BFA0E80C50A0E80C5091
:1007B000B1F12001BFF4F7AF090728BFA0E80C5042
:1007C00048BF0CC05DF804EB890028BF40F8042B3B
:1007D00008BF704748BF20F8022B11F0804F18BFA8
:1007E00000F8012B7047704770477047754600F05E
:1007F0002BF8AE4605006946534620F007008546B3
:1008000018B020B5FFF740FDBDE820404FF00006CE
:100810004FF000074FF000084FF0000BAC46ACE87B
:10082000C009ACE8C009ACE8C009ACE8C00921F0D7
:1008300007018D46704710B50446AFF3008020468F
:10084000BDE81040FFF70BBD00487047C80400200A
:1008500001491820ABBEFEE72600020070470000E9
:10086000FEE7000070470000B0B582B00446D0F843
:10087000880008283ED80025DFE800F009160505A5
:100880001D243C410500C4F88C5002B0B0BD216F5E
:10089000D4E9240394F89820194403F083FA00253E
:1008A000C4F88C5002B0B0BD216FD4E9240394F891
:1008B0009820194426E002F053FB0025C4F88C5020
:1008C00002B0B0BDD4F8900000210122002503F051
:1008D00069FAD4F8900001AA6B46002108F088FB61
:1008E000D4F890000199012203F05CFAC4F88C500E
:1008F00002B0B0BD9025C4F88C5002B0B0BDD4F8A1
:100900009000012203F066FA0025C4F88C5002B072
:10091000B0BD000070B5866D044600F04DF994F846
:10092000351002292ED105462068216C026822F07C
:1009300016020260426922F08002426109B9A16C8C
:1009400019B1016821F008010160016821F001017D
:1009500001600068C00708D000F02EF9401B052890
:1009600017D820680068C007F6D1E06D3F2101FA72
:1009700000F0B060012084F835000020002184F8E8
:10098000341070BD802060650120002184F834108F
:1009900070BD20206065032084F83500002184F8B4
:1009A000341070BD90F83510022909D1052180F866
:1009B00035100068016821F00101016000207047D6
:1009C0008021416501207047B0B5044600F0F4F87D
:1009D000054640F20000C2F200000078611C18BF1A
:1009E000044400BF00F0E8F8401BA042FAD3B0BDB9
:1009F0002DE9F04F82B000F13E4242F2004502F193
:100A0000FF77C4F202050A224FEAB726A84208BFC0
:100A10000922092E38BF4FEAB7224FF0010E0024F9
:100A200000274FF00008009208E000BF023708F1ED
:100A30000108202F04F1040400F0B4800E680EFABF
:100A400008F916EA090FF1D0D1F804A00AF0030B57
:100A5000ABF10106012E19D80322866802FA07FEBF
:100A6000CA6826EA0E06BA40324382604268CAF378
:100A7000001522EA090205FA08F54FEA480C6FEA68
:100A80000E064FF0010E2A4342600BE00322BA40EB
:100A9000D643BBF1030FBC4604D1BC464FF0030B59
:100AA00024E000BFC2688D68324005FA0CF52A4385
:100AB000BBF1020FC26019D16FF0030202EA5802C3
:100AC000024404F01C030F25D2F820E005FA03FAD3
:100AD0000D692EEA0A0E05FA03F343EA0E031362C8
:100AE000D1F804A04FF0010E0AF0030B02680BFAD4
:100AF0000CF332401A431AF4403F026096D00022B1
:100B000043F644030192C4F202031A6843F6004C10
:100B100042F480421A601A68C4F2010C02F4804266
:100B20000192019A28F003024FF6084A6244CFF678
:100B3000FF7A52F80A3004F00C060F25B540AB439B
:100B4000009D05FA06F6334342F80A30DCF800202F
:100B50004B6842EA0906DD0358BF22EA0906CCF8D1
:100B60000060DCF804209D0342EA090658BF22EA2F
:100B70000906CCF80460DCF80820DD0242EA090628
:100B800043F60C4558BF22EA0906CCF80860C4F2C7
:100B900001052A689B0242EA090658BF22EA0906B3
:100BA0002E6043E702B0BDE8F08F0000002A08BFC6
:100BB000090481617047000042F2AC40C2F20100BA
:100BC0000068704740F2000042F2AC41C2F20000FF
:100BD000C2F2010100780A68104408607047000002
:100BE00080B543F60040C4F20200016841F4007190
:100BF0000160016841F480610160016841F4807125
:100C00000160032000F0A6F80F2000F005F800F0C6
:100C100049F8002080BD000010B586B001461920BB
:100C20000022002400F06AF8192000F057F843F67B
:100C300044000194C4F20200016841F00101016026
:100C40000068694600F001000190019801A800F0D9
:100C5000D3FB00F005FC4DF683614000C4F21B316C
:100C6000A0FB01014FF0FF3000EB914144F26470B2
:100C70000022C2F20000C4F2010240F2E733C0E9F0
:100C80000021C0E90243046101F006FB10B101201C
:100C900006B010BD44F26470C2F2000001F02CFBFB
:100CA00006B010BD82B0002043F640010190C4F2AE
:100CB00002014A6842F480424A604A6802F4804273
:100CC0000192019A0090086840F08050086008681E
:100CD00000F080500090009802B07047002848BF94
:100CE000704700F01F01012202FA01F14EF20012DA
:100CF0004009CEF2000242F82010704710B54EF6BF
:100D00000C5CCEF2000CDCF80030C3F3022E8EF047
:100D10000704042C28BF0424BEF103034FF0FF3E58
:100D20000EFA04F438BF0023A14399400EFA03F3EE
:100D30009A4300F00F03043B1143634409010C3351
:100D400000F16042B0F1FF3FC8BF02F56443197083
:100D500010BD00004EF60C51CEF200010A684FF6AD
:100D6000FF031A4060F30A2242F0806040F0FD70F9
:100D700008607047026800205162704710B5D0F8D3
:100D800000E0DEF82400E1B3DEF82830B1F1010C18
:100D900000EB13432DD00020002100BF0EEB80009C
:100DA000D0F8044141F00100C0B2844503EB144384
:100DB0001FD90EEB8000D0F8044141F00200C0B210
:100DC000844503EB144314D90EEB8000D0F80441A2
:100DD00041F00300C0B2844503EB144309D90EEB84
:100DE0008000D0F804410431C8B2844503EB1443B9
:100DF000D4D843EA02400EEB8C01C1F80401002074
:100E000010BD40EA0240CEF82800002010BD0000CE
:100E100010B50446080601F00F00C0EBC00104EB5A
:100E2000810205D402F5FE71002382F8FD3104E051
:100E3000012302F13C0182F83D3094F8BC23087094
:100E4000012A04BF022010BD2068012284F8BC23BF
:100E500003F09EFE002084F8BC0310BDB0B54268CC
:100E6000044601F00F00904284BF0120B0BD090686
:100E700009D4C0EBC00104EB810202F5FE7100232E
:100E800082F8FD3108E0C0EBC00104EB81020123D0
:100E900002F13C0182F83D3094F8BC230025012A80
:100EA0008D70087004BF0220B0BD2068012284F854
:100EB000BC2304F05FF9284684F8BC53B0BD0000A1
:100EC000B0B50546080601F00F00C0EBC00105EB08
:100ED000810C05D40CF5FE7100248CF8FD4104E072
:100EE00001240CF13C018CF83D404C780870002C3A
:100EF0008A60CB7018BFC880022B04BF0020087125
:100F000095F8BC03012804BF0220B0BD2868012267
:100F100085F8BC2303F014FD002085F8BC03B0BDA8
:100F200010B501F00F0CCCEBCC0100EB81044FF0BD
:100F3000000EC4F814E284F8FDE1D0F810E0C4F823
:100F40000822C4F81032BEF1010F84F8FCC108BFBA
:100F5000C4F80C22006804F5FE715FFA8EF2BCF151
:100F6000000F03D004F056F9002010BD04F056F82D
:100F7000002010BDB0B50446406801F00F05854261
:100F800084BF0120B0BD080609D4C1EBC10004EB49
:100F9000800000F5FE71002280F8FD2108E0C5EB1D
:100FA000C50004EB8000012200F13C0180F83D20E7
:100FB00094F8BC03012201288A700D7004BF02203E
:100FC000B0BD206884F8BC2304F0FCF81DB10020FB
:100FD00084F8BC03B0BD2068217C04F5717204F074
:100FE0009BF8002084F8BC03B0BD0000B0B501F050
:100FF0000F0CCCEBCC0100EB8105294601F83CCF6E
:101000000024D0F810E08C6101244C70CA60BEF15D
:10101000010F4B6108BFEA6400685FFA8EF2BCF111
:10102000000F03D004F0F6F80020B0BD03F0F6FF87
:101030000020B0BD2DE9F04F8BB0002800F0868075
:101040000446056890F8BD0328B9002084F8BC0365
:10105000204600F08DF8032084F8BD03E86BC0053E
:101060005CBF00202061206803F0D0FF206804F1FD
:101070001C0A0A90D4E90C5004F1040E9AE8C00747
:101080009EE80E58CDE9085003A88DE8005880E886
:10109000C0030A98CDF81CA003F09AFC002852D196
:1010A00020680021002504F0EDF9616861B301209A
:1010B00000230022C3EBC30304EB830787F83C2023
:1010C000D3B20132A7F84230D3B2994287F83D003B
:1010D00087F83F50C7E911553D65EBD80020002344
:1010E000002200BFC3EBC30304EB830787F8FC2196
:1010F0000132D3B2994287F8FD0187F8FF01C7E9B1
:101100008100C7F81002EDD8A06804F1140E0A900F
:10111000D4E90C502268D4E903379EE8405804F122
:10112000240A9AE80007CDE9085002A8CDE9007624
:1011300080E8005810460A9ACDE90589CDF81CA030
:1011400003F090FD38B1022084F8BD030125284644
:101150000BB0BDE8F08F0025012084F8385084F8EA
:10116000BD03206803F06EFD28460BB0BDE8F08F8C
:10117000B0B586B00024CDE90444CDE9024400684E
:101180000021C4F204018842019401D006B0B0BD30
:1011900043F630050094C4F20205286801A940F026
:1011A00002002860286800F00200009000984FF4C8
:1011B000404001900220CDE90204032004900C205D
:1011C000059040F20040C4F20200FFF711FC0094C9
:1011D000286840F000502860286800F00050009017
:1011E000009806B0B0BD000010B5044690F8BC03EE
:1011F000012804BF022010BD012084F8BC0384F83C
:101200003810206804F072F9002084F8BC0310BD87
:1012100010B5044690F8BC03012804BF022010BD9D
:10122000A16A20680122012984F8BC2306D1A169A2
:10123000012903D0816B41F48031816304F0EAF825
:10124000206803F0EFFC002084F8BC0310BD000010
:10125000B0B5044690F8BC03012804BF0220B0BD1D
:101260002568012084F8BC03284603F0CFFE2068DF
:1012700003F0E8FC2068102104F0D4F8A06A0128EB
:1012800006D1A069012803D0A86B20F48030A863A0
:10129000002084F8BC03B0BD2DE9F041002800F027
:1012A0008B8043F60808C4F202080446D8F8F80315
:1012B0000D4600F00F00884207D288F8F853D8F89E
:1012C000F80300F00F00A84276D12068810717D5F7
:1012D000410705D5D8F8001041F4E051C8F80010D6
:1012E000010705D5D8F8001041F46041C8F8001096
:1012F000D8F80010A26821F0F0011143C8F80010DE
:10130000C0073FD1D8F8F80300F00F00A84207D972
:1013100088F8F853D8F8F80300F00F00A8424BD132
:101320002068410707D5D8F80010E26821F4E051A1
:101330001143C8F80010000708D5D8F8000021694B
:1013400020F4604040EAC100C8F8000000F09CF8BA
:10135000D8F800104FF21A62C1F30311C0F6000270
:10136000515C40F23C4220FA01F140F20400C2F22A
:1013700000000068C2F200021160FFF74DFC00207F
:10138000BDE8F0816068811E022907D258F8081C68
:1013900089015CBF0120BDE8F08110E0012807D180
:1013A00058F8081C89035CBF0120BDE8F08106E005
:1013B00058F8081C890702D40120BDE8F081D8F84C
:1013C000001021F003010843C8F80000FFF7F4FB08
:1013D000064641F2883700BFD8F80000616800F087
:1013E0000C00B0EB810F8DD0FFF7E6FB801BB842FD
:1013F000F2D90320BDE8F0810F22026043F6080213
:10140000C4F20202136803F003034360136803F09D
:10141000F0038360136803F4E053C360D2F800C0A4
:101420004FF4E05303EADC030361D2F8F80300F061
:101430000F0008607047000040F23C4043F608018E
:10144000C2F20000C4F20201006809684FF22A6289
:10145000C1F38221C0F60002515CC8407047000011
:1014600040F23C4043F60801C2F20000C4F202011F
:10147000006809684FF22A62C1F34231C0F60002E7
:10148000515CC8407047000010B543F60404C4F234
:101490000204606800F00C0008280AD0042819BF74
:1014A00042F20040C0F2F40047F64000C0F27D1066
:1014B00010BD206821682368490247F64001C0F248
:1014C0007D1100F03F02C3F388105CBF42F200417F
:1014D000C0F2F401A1FB00010023FFF725F8216809
:1014E0000222C1F3014102EB4101B0FBF1F010BD5A
:1014F0002DE9F04182B0002868D00446007843F618
:101500000006C007C4F202060BD0B06800F00C0061
:10151000042840F0A0803068800302D5606800286D
:1015200054D0207880071AD5B06810F00C0F09D07D
:10153000B06800F00C00082840F0B48070684002E9
:1015400000F1B0803068800702D5E06801283DD105
:101550003068216920F0F80040EAC100306020784E
:10156000000737D4207840074BD4A56955B3B0683D
:1015700000F00C00082840F0DA80012D26D07068B9
:10158000E16900F480028A4220D1216A00F03F0222
:101590008A421BD147F6C071626A0140B1EB821FDB
:1015A00014D1A16A4FF6FF73C903994300F4403286
:1015B000A1F580318A4209D1E16A00F07060B0EB98
:1015C000016F03D1002002B0BDE8F081012002B01C
:1015D000BDE8F0816069002840F20000C4F24720B5
:1015E00000F091800121C0F8801EFFF7E5FA054662
:1015F000706F8007B6D4FFF7DFFA401B0228F7D9D7
:1016000091E0306C4FF00008C0000CD4CDF804809D
:10161000306C4FF0010840F080503064306C00F0C6
:1016200080500190019847F20007C4F20007386823
:10163000C0054DD4386840F480703860FFF7BCFABC
:10164000054600BF3868C00542D4FFF7B5FA401B15
:101650000228F7D967E0B06800F00C00082803D131
:10166000706840023FF557AF6568B5F5803F07D019
:101670003068B5F5A02F40F0B38040F48020306092
:10168000306840F480303060FFF796FA054600BFBE
:10169000306880033FF545AFFFF78EFA401B6428A2
:1016A000F6D940E0E068002864D00020C4F247206A
:1016B00001210160FFF780FA054600BF306880070E
:1016C0003FF546AFFFF778FA401B0228F6D92AE02B
:1016D000A568012D05D0306F052D5FD140F00400C5
:1016E0003067306F40F001003067FFF765FA05465C
:1016F00041F28837306F800769D4FFF75DFA401BED
:10170000B842F7D90FE00021C0F8801EFFF754FA65
:10171000054600BF706F80077FF524AFFFF74CFAD6
:10172000401B0228F6D9032002B0BDE8F081002753
:10173000C4F2472700203866FFF73EFA022D05461F
:101740000CD100BF3068800164D5FFF735FA401B2B
:1017500002284FF00300F5D935E700BF306880015B
:101760007FF530AFFFF728FA401B02284FF0030047
:10177000F4D928E70020C4F2472000210160FFF7D8
:101780001BFA0546306880077FF5E9AEFFF714FACB
:10179000401B02284FF00300F4D914E720F00100A9
:1017A0003067306F20F004003067FFF705FA002D36
:1017B00005469DD141F28837306F800707D5FFF786
:1017C000FBF9401BB8424FF00300F5D9FBE6B8F136
:1017D000000F3FF4CAAE306C20F080503064C4E695
:1017E00020F480303060306820F480203060FFF7D3
:1017F000E3F9002D05467FF44BAF07E0FFF7DCF976
:10180000401B64284FF003003FF6DDAE30688003D4
:10181000F4D486E604F11C052FCD084340EA82107B
:10182000D9034FF6FF729143A1F5803140EA05607C
:101830000843706001203866FFF7BEF9044600BF18
:10184000306880013FF5BEAEFFF7B6F9001B0228F5
:101850004FF00300F4D9B6E62DE9F04186B0044616
:10186000032084F83400606C8846032822D14FF0AE
:101870008050A16B40F2FF560843A063A06BC0F2FA
:10188000400600283ED020680125866384F8345045
:101890004FF4007101F0A6FE28B1216801258E6386
:1018A000A16B0843A0630121284684F8341006B0D8
:1018B000BDE8F081B8F1000F36D0B8F5805FD6D022
:1018C000B8F5006F46D100212068059104910021F0
:1018D00001F006FE800140D404A9204602F0F6F98A
:1018E0000028C6D19DF81600400730D5216D20682C
:1018F000090401F021FE0028BBD12068022101F07B
:101900007DFEB6E794E80F00D4E90557CDE90085E0
:10191000029701F0E9FD206800254FF4007101F005
:1019200061FE0028B9D1BEE700212068059104912D
:10193000002101F0D5FD80010FD404A9204602F05A
:10194000C5F9002895D19DF81600C00708D14FF0C1
:1019500080608EE74FF000608BE74FF4006088E70F
:10196000216D2068090401F0E7FD00287FF481AFB4
:101970002068002101F042FE7BE7000080B5D0E93D
:10198000193ED0F844C09A0F0A70C3F383624A70BC
:10199000C3F301628A701A0CCA701A0A0A714FEAFC
:1019A0001E524B71CA80CEF303420A72CEF3C0328C
:1019B0004A72CEF380328A72CEF34032CA72CEF3CC
:1019C00000320A730022BCF1010F4A7335D0BCF11A
:1019D000000F40F0868040F6FC72C36E02EA8E0271
:1019E00042EA93720A61C26EC2F3C2630B75C2F31C
:1019F00002634B75C2F342538B75C2F38243CB75BE
:101A0000C2F3C2330B76D1F810C00B7E0CF1010C7F
:101A100003F0070302330CFA03FCC0F854C00B7A3E
:101A200003F00F0E012303FA0EF383655B0A03FB39
:101A30000CF3C3654FF4007311E0B0F86E200EF0A4
:101A40003F0342EA03420A610A694FF4806303EBF1
:101A500082224FF40073C0E91523C265C26E03668B
:101A6000C2F380334B76C2F3C61302F07F028B764B
:101A7000CA76006FC20F0A77C0F341724A77C0F38B
:101A800082628A77C0F38352CA77C0F3405281F8EA
:101A90002020002281F82120C0F3004381F8223069
:101AA000C0F3C03381F82330C0F3803381F8243091
:101AB000C0F3403381F82530C0F3003381F826307D
:101AC000C0F3812381F82730C0F30123C0B240085E
:101AD00081F8283081F82900012081F82A00104679
:101AE00080BD016840F2FF52C0F240028A63816B00
:101AF000012241F08051816380F83420104680BD7E
:101B000010B5016D04460068090401F0D9FE20B14A
:101B1000A16B0843A063002010BD2068002101F0E4
:101B2000DFFCC0F3432010BD10B5D0B1044690F8DF
:101B3000340020B900202077204600F01FF9032050
:101B400084F83400204600F00FF800284FF0010020
:101B500018BF10BD0021A163216384F83400002068
:101B600010BD012010BD0000F0B58FB00446006824
:101B70007621002602910021002200230096019682
:101B800001F0B2FC4FF0010510B128460FB0F0BDD6
:101B900048F2A007C4F225273E60206801F0BAFC95
:101BA0003D600496206801F035FD40B1012584F8C0
:101BB0003450A16B0843A06328460FB0F0BD2068E5
:101BC00001F058FD50B120680021A16401F022FD10
:101BD0000028EBD1A06C012802D009E00120A0640C
:101BE0002068002101F0A8FC10B14FF08050DDE723
:101BF00004984FF6FE71884220D80025CCF21015CB
:101C00004FF6FF762068002101F096FC0028CDD128
:101C10002068294601F09CFC0028E6D120680021BC
:101C200001F05EFC0499002801F10101049104997E
:101C300001D4B142E6D3C0F3807000E000200499E3
:101C40004FF6FF72914202D34FF08070AEE76064AE
:101C500020680125ADF80E5001F03EFC88B1606CA3
:101C6000032811D12068042101F03AFC000DE06442
:101C700004A92046FFF782FE002853D04FF0805081
:101C800095E74FF0806092E7206801F06BFD002837
:101C90007FF48DAF2068002101F022FC216860678D
:101CA0000846042101F01CFC2168A06708460821B1
:101CB00001F016FC2168E06708460C2101F010FCD9
:101CC000616CC4F880000329CCD020680DF10E01AE
:101CD00001F002FE00287FF46AAF606C0328C1D0D7
:101CE000BDF80E1020682165090401F08BFD002865
:101CF0007FF45DAF2068002101F0F2FB216860668F
:101D00000846042101F0ECFB2168A0660846082182
:101D100001F0E6FB2168E06608460C2101F0E0FBDB
:101D200020679FE7216D20680A04002301F00EFD63
:101D300000287FF43CAF94E88F00D4E90565CDE935
:101D40000076029501F0D0FB20684FF4007101F09D
:101D500049FC70B1216840F2FF52C0F240028A6330
:101D6000A16B01250843A06384F8345028460FB0C6
:101D7000F0BD002528460FB0F0BD00002DE9F0436E
:101D800087B000260696CDE9046642F60045006855
:101D9000C4F20105A8420396029602D007B0BDE83E
:101DA000F08343F630000196C4F20200416902ACB0
:101DB00041F40061416141694FF0020801F40061A2
:101DC00001910199019601684FF0030941F0040166
:101DD000016001680C2701F004010191019901964D
:101DE000016841F0080101600068214600F0080028
:101DF000019001984FF4F850029005F55C40CDE950
:101E00000386CDF814900697FEF7F2FD0420CDE985
:101E1000020805F560402146CDE904690697FEF702
:101E2000E7FD07B0BDE8F0832DE9F04786B01F4617
:101E300016460D460446FEF7BFFE95B1804694F85F
:101E40003400012815D10021A163E06DBA19824246
:101E500017D9A06B40F00070A063012006B0BDE868
:101E6000F087A06B40F00060A063012006B0BDE8E1
:101E7000F087A06B40F00050A063012006B0BDE8E1
:101E8000F087032084F83400626C2068012A4FF048
:101E9000FF32C16218BF760200927A02019290224C
:101EA0004FF002090292CDE903914FF0010A694611
:101EB000CDF814A001F0FCFA022F17D3C4F830902B
:101EC0002068314601F02AFCC0B1216840F2FF527F
:101ED000C0F240028A63A16B0843A0630120002185
:101EE00084F83400216306B0BDE8F087C4F830A060
:101EF0002068314601F01EFC0028E6D1DDF838905C
:101F0000019E40F22A3A05E0FEF756FEA0EB0800DB
:101F1000484541D22068426B416B12EA0A0F26D134
:101F2000002E18BF11F40041EED001F0FBFA28603A
:101F3000206801F0F7FA6860206801F0F3FAA86001
:101F4000206801F0EFFAE860206801F0EBFA286100
:101F5000206801F0E7FA6861206801F0E3FAA861FF
:101F6000206801F0DFFAE8612035203ECCE7022F3F
:101F700025D311F4807122D0616C03291FD001F0A8
:101F800015FD01462068D1B140F2FF52C0F2400277
:101F90008263A06B0843A0E7206840F2FF51C0F2C3
:101FA00040018163A06B40F00040A063012084F8F1
:101FB000340000202063032006B0BDE8F087416BA9
:101FC000090715D4416B89071BD4416B890621D4BD
:101FD000416B002E18BF11F4001124D140F23A5188
:101FE0008163012084F83400002006B0BDE8F0874A
:101FF00040F2FF51C0F240018163A06B40F0080045
:102000006BE740F2FF51C0F240018163A06B40F0EA
:10201000020062E740F2FF51C0F240018163A06B11
:1020200040F0200059E7043E01F07CFA2860FEF7FA
:10203000C3FDA0EB080048450BD22068002E416B81
:10204000CCD011F40011A6F1040605F10405EBD182
:10205000C4E7206840F2FF51C0F240018163A06BE9
:1020600040F0004039E700002DE9F04F87B0984676
:1020700015460E460446FEF79FFD9EB1824694F833
:102080003400012816D10021A163E06D08EB0502A0
:10209000824217D9A06B40F00070A063012007B006
:1020A000BDE8F08FA06B40F00060A063012007B096
:1020B000BDE8F08FA06B40F00050A063012007B096
:1020C000BDE8F08F032084F83400626C2068012A98
:1020D0004FF0FF32C16218BF6D0201924FEA4822F1
:1020E00002929022CDE9032105910121069101A9D7
:1020F00001F0DEF9B8F1020F17D320202063206829
:10210000294601F063FCC0B1216840F2FF52C0F2E1
:1021100040028A63A16B0843A0630120002184F878
:102120003400216307B0BDE8F08F102020632068E1
:10213000294601F057FC0028E6D1DDF84090029FC7
:1021400040F21A3B6D4605E0FEF736FDA0EB0A00B3
:1021500048455ED22068426B416B12EA0B0F42D1B8
:10216000002F18BF11F48041EED0317800917278C1
:1021700041EA02210091B27841EA02410091F278ED
:1021800041EA02610091294601F0D0F971682068A6
:102190000091294601F0CAF9B168206800912946EA
:1021A00001F0C4F9F16820680091294601F0BEF9F8
:1021B000316920680091294601F0B8F971692068F9
:1021C0000091294601F0B2F9B169206800912946D1
:1021D00001F0ACF9F069294600902068203601F042
:1021E000A5F9203FB0E7B8F1020F23D311F48071B5
:1021F00020D0616C03291DD001F0D8FB0146206876
:10220000C1B140F2FF52C0F240028263A06B0843AA
:1022100082E7206840F2FF51C0F240018163A06B69
:10222000A063012084F8340000202063032007B05D
:10223000BDE8F08F416B09070FD4416B890715D4B6
:10224000416BC9061BD440F23A518163012084F8E6
:102250003400002007B0BDE8F08F40F2FF51C0F21B
:1022600040018163A06B40F0080055E740F2FF5148
:10227000C0F240018163A06B40F002004CE740F2E5
:10228000FF51C0F240018163A06B40F0100043E7B2
:102290007047000070470000002804BF012070470D
:1022A00010B5044690F83D0028B9002084F83C00A1
:1022B000204600F01FF8022084F83D002068211D10
:1022C00001F07AFE012084F8460084F83E0084F88C
:1022D0003F0084F8400084F8410084F8420084F80C
:1022E000430084F8440084F8450084F83D00002051
:1022F00010BD00007047000090F83D1001291CBF80
:1023000001207047022180F83D10006841F2FF7201
:10231000C168C4F20002904241F00101C1600DDCCD
:1023200040F2FF71C4F20001884215DCB0F1804F29
:1023300029D040F20041C4F2000122E040F2FF3116
:10234000C4F20101884212DC41F60001C4F200012E
:10235000884218D0002112E040F60001C4F20001CA
:10236000884210D040F60041C4F2000109E044F276
:102370000001C4F20101884205D040F20041C4F2DC
:102380000101884206D1816801F00701062904BFD6
:1023900000207047016841F0010101600020704792
:1023A0007047000010B5016804460869800744BF03
:1023B000C8685FEA807038D40869400744BFC868BD
:1023C0005FEA40703DD40869000744BFC8685FEA0F
:1023D000007043D40869C00644BFC8685FEAC060A3
:1023E00048D40869C0071CBFC8685FEAC0704ED1F6
:1023F0000869000644BFC8685FEA00604FD40869F6
:10240000400644BFC8685FEA406050D4086980064F
:1024100046BFC8685FEA806010BD6FF020022046AA
:102420000A61BDE81040FFF735BF6FF00200086198
:10243000012020778869800741D02046FFF7B0FF50
:1024400043E06FF00400086102202077886910F4EF
:10245000407F3ED02046FFF7A3FF40E06FF008002A
:10246000086104202077C86980073CD02046FFF728
:1024700097FF3EE06FF01000086108202077C869E0
:1024800010F4407F39D02046FFF78AFF3BE06FF021
:1024900001000861204600F03FF82168A8E76FF0CE
:1024A000800008612046FFF7F3FE2168A7E76FF080
:1024B00040000861204600F039F82168A6E7204670
:1024C00000F026F8204600F025F82168002020774B
:1024D00072E7204600F01CF8204600F01BF8216847
:1024E000002020776FE7204600F012F8204600F029
:1024F00011F82168002020776CE7204600F008F8EA
:10250000204600F007F821680020207769E70000E6
:10251000704700007047000000680021C4F201010C
:10252000884208BFFEF74EBB7047000070470000AE
:102530007047000070470000F0B581B004460068A5
:102540000168C268456901F02F03202B02F02003C7
:1025500006D12BB1204601B0BDE8F04001F054BED9
:102560005FEA017C07D005F0010E12F4907F8EF037
:1025700001052FD175B3236B1140CA0618D5012B65
:1025800016D10021009101680091416800910099E5
:102590004169490600F18281A18DE28DE38D002B16
:1025A0001CBF891A5FEA014240F0FD8001B0F0BD16
:1025B0000A0600F12B824906F8D5C16821F04001D6
:1025C000C1602021204684F83D1001B0BDE8F040F4
:1025D00000F042BCCE0718BF12F4807603D0266C00
:1025E00046F00106266401F00407012686EA9707F3
:1025F0002F4303D1276C47F00207276401F002073D
:1026000086EA5706354303D1256C45F00405256459
:1026100053EA0E0318BF0123BCF1000F04D51BB110
:10262000236C43F008032364236C002BBED01140BD
:10263000890603D5204601F0E7FD20684169226C38
:1026400001F0400102F00802891800F0F08100BF9B
:1026500050E8030F216820F4907041E80302C2B3F0
:10266000206850E8030F216820F4907041E80302CD
:102670007AB3206850E8030F216820F4907041E895
:10268000030232B3206850E8030F216820F49070F1
:1026900041E80302EAB12068DAE700BF206850E8A9
:1026A000050F216820F0010041E80502DAB1206839
:1026B00050E8050F216820F0010041E8050292B1C1
:1026C000206850E8050F216820F0010041E805026C
:1026D0004AB1206850E8050F216820F0010041E868
:1026E0000502002ADAD1206B012824D1206850E8A5
:1026F000030F216820F0100041E80302DAB12068DE
:1027000050E8030F216820F0100041E8030292B165
:10271000206850E8030F216820F0100041E8030210
:102720004AB1206850E8030F216820F0100041E80A
:102730000302002ADAD1202084F83E000020206322
:1027400020684169490640F18B8150E8050F2168F6
:1027500020F0400041E80502002A00F06F81206867
:1027600050E8050F216820F0400041E80502002AEA
:1027700000F06481206850E8050F216820F04000D7
:1027800041E80502002A00F05981206850E8050F51
:10279000216820F0400041E80502002A00F04E8147
:1027A0002068D2E7206850E8030F226820F4907078
:1027B00042E80303BBB3206850E8030F226820F40B
:1027C000907042E8030373B3206850E8030F226857
:1027D00020F4907042E803032BB3206850E8030F05
:1027E000226820F4907042E80303002BDAD11AE04B
:1027F000206850E8050F226820F0010042E8050338
:10280000DBB1206850E8050F226820F0010042E8A3
:10281000050393B1206850E8050F226820F00100FD
:1028200042E805034BB1206850E8050F226820F00C
:10283000010042E80503002BDAD1202084F83E0095
:1028400000202063206850E8030F226820F0100069
:1028500042E80303DBB1206850E8030F226820F050
:10286000100042E8030393B1206850E8030F226888
:1028700020F0100042E803034BB1206850E8030F3A
:10288000226820F0100042E80303002BDAD189B25D
:10289000204601B0BDE8F040FFF74ABEA26B1168C8
:1028A0004B689EB2002E3FF481AEA18D8E42BFF4E4
:1028B0007DAEE385D269B2F5807F00F09E8050E85E
:1028C000030F216820F4807041E80302E2B1206820
:1028D00050E8030F216820F4807041E803029AB1A8
:1028E000206850E8030F216820F4807041E803025B
:1028F00052B1206850E8030F216820F4807041E84D
:1029000003020AB12068DAE7206850E8050F216861
:1029100020F0010041E80502BAB3206850E8050F35
:10292000216820F0010041E8050272B3206850E8F8
:10293000050F216820F0010041E805022AB3206854
:1029400050E8050F216820F0010041E80502002A47
:10295000DAD11AE0206850E8050F216820F0400025
:1029600041E80502DAB1206850E8050F216820F03F
:10297000400041E8050292B1206850E8050F216847
:1029800020F0400041E805024AB1206850E8050FF8
:10299000216820F0400041E80502002ADAD1202019
:1029A00084F83E0000202063206850E8030F21686F
:1029B00020F0100041E80302DAB1206850E8030F6C
:1029C000216820F0100041E8030292B1206850E82D
:1029D000030F216820F0100041E803024AB120688B
:1029E00050E8030F216820F0100041E80302002A9C
:1029F000DAD1A06BFDF78EFFA18DE08D081A81B2B0
:102A0000204601B0BDE8F040FFF792BD94F83D10BC
:102A100021297FF4CBADA168B1F5805F01D1216997
:102A200021B3216A4A1C22620978416025E02046D0
:102A3000FFF780FD0020206401B0F0BDA06B78B1ED
:102A400044F2FD11C0F600010165FDF7ABFF00285F
:102A50003FF4ACADA06B016D01B0BDE8F04008479C
:102A6000204601B0BDE8F040FFF764BD216A31F8AF
:102A7000022B6FF35F2242602162E18C01390A046C
:102A8000E1847FF493ADC16821F08001C160C16829
:102A900041F04001C16001B0F0BD0000002804BF5A
:102AA0000120704710B5044690F83D0028B9002079
:102AB00084F83C00204600F021F8242084F83D00F2
:102AC0002068C16821F40051C160204601F01AFC61
:102AD0002068016921F490410161416921F02A01D6
:102AE0004161C16841F40051C1600020202120648F
:102AF00084F83D1084F83E1010BD000080B586B00B
:102B000000220592CDE9032241F200010068C4F2DF
:102B1000010188420292019201D006B080BD43F6C5
:102B200030000092C4F20200436943F01003436195
:102B3000436903F010030093009B0092036843F085
:102B400001030360006800F00100009000984FF45A
:102B5000C06001900220CDE902020320049007200A
:102B6000059001F5704001A9FDF742FF25200021E5
:102B70000022FEF7C3F82520FEF7B0F806B080BDAE
:102B8000704700002DE9F04381B0044690F83D0005
:102B900020280DD10F4600294FF0010000F0EC80F5
:102BA0001646002A00F0E88094F83C00012803D182
:102BB000022001B0BDE8F083012084F83C004FF012
:102BC000000921201D46C4F8409084F83D00FDF71F
:102BD000F3FFA684E684A1688046B1F5805F07D143
:102BE000206900281CBF38464F463E46074600E095
:102BF000002684F83C90E28C2068016812B36A1CBD
:102C000047D0002D00F0C98009060AD4FDF7D4FF93
:102C1000A0EB0800A84200F2C780206801680906FE
:102C2000F4D517B117F8011B04E036F8021B002792
:102C30006FF35F214160E18C0139E184E28C01682E
:102C4000002AE1D1490610D4002D41D0691C39D1A8
:102C5000016849065CBF01685FEA416105D401680B
:102C6000490602D401684906F2D5202084F83D00C7
:102C7000002001B0BDE8F08336F8021B00276FF397
:102C80005F214160E18C0139E184E28C0168002A16
:102C9000D8D009065FBF01685FEA016101685FEA99
:102CA000016105D40168090602D40168F1E700BF9B
:102CB000002FE1D017F8011BE3E700BF2068006890
:102CC0004006D2D4FDF778FFA0EB0800A842F5D962
:102CD000206850E8030F216820F4D07041E8030217
:102CE000BAB3206850E8030F216820F4D07041E89F
:102CF000030272B3206850E8030F216820F4D070FB
:102D000041E803022AB3206850E8030F216820F449
:102D1000D07041E80302002ADAD11AE0206850E8B6
:102D2000050F216820F0010041E80502DAB12068B2
:102D300050E8050F216820F0010041E8050292B13A
:102D4000206850E8050F216820F0010041E80502E5
:102D50004AB1206850E8050F216820F0010041E8E1
:102D60000502002ADAD1202084F83D0084F83E00D4
:102D7000002084F83C00032001B0BDE8F08336F861
:102D8000021B00276FF35F214160E18C0139E18470
:102D9000E28C0168002A3FF455AF090604D5002FE4
:102DA000EDD017F8011BEFE7206850E8030F21680A
:102DB00020F4D07041E80302BAB3206850E8030F52
:102DC000216820F4D07041E8030272B3206850E813
:102DD000030F216820F4D07041E803022AB3206871
:102DE00050E8030F216820F4D07041E80302002A64
:102DF000DAD11AE0206850E8050F216820F00100C0
:102E000041E80502DAB1206850E8050F216820F09A
:102E1000010041E8050292B1206850E8050F2168E1
:102E200020F0010041E805024AB1206850E8050F92
:102E3000216820F0010041E80502002ADAD12020B3
:102E400084F83D0084F83E00002084F83C00032014
:102E500001B0BDE8F083000070470000FEE700000D
:102E600040F2C460C2F20000016801310160FBE77A
:102E700080B588B040F608101F224FF40073C2F2EC
:102E800000004FF0010E0021CDE90003CDE9022240
:102E900040F6580042F661624FF0B00CCDE9041ED6
:102EA000C2F2000004A1C0F600020023CDF818C051
:102EB0000AF0E4FC08B080BD49444C4520546173DD
:102EC0006B00000040F60044C4F2020404F54065C3
:102ED000284680210022FDF769FE20464FF48051EC
:102EE0000122FDF763FE1E2009F028FC2846802100
:102EF0000122FDF75BFE20464FF480510022FDF7D2
:102F000055FE1E2009F01AFCE2E7000080B588B0EB
:102F100040F6B83003224FF48063C2F200004FF055
:102F2000010E0021CDE90003CDE9022240F6083070
:102F300042F6C5624FF0B00CCDE9041EC2F20000AB
:102F400004A1C0F600020023CDF818C00AF096FCD8
:102F500008B080BD4C4544205461736B00000000F4
:102F600080B544F2E06042F60041C2F20000C4F2D3
:102F700001010022C0E90012C0E90222C0E90422D6
:102F80008261FEF7D1FD20B1EFF3108072B600BF71
:102F9000FEE744F2E060C2F200004FF40061FEF789
:102FA0005BFC002808BF80BDEFF3108072B600BF45
:102FB000FEE7000008F01CBDFEE70000FEE7000091
:102FC000F0B583B040F228570C46C2F20007054620
:102FD000002607F1340001A922460023CDE901664D
:102FE0000AF044F9019829462246FDF734FB381DC2
:102FF00002A900220AF04AF8DDE9010108600298FE
:103000003A684460866000BF936811464BB19A6885
:10301000194632B1936811461BB19A681946002AC5
:10302000F2D1886003B0F0BDF0B58BB044F68332C6
:10303000410AC0F20402A1FB0213D9094CF6002395
:10304000C3F69A3301FB13014EF20013C0F2F5539D
:1030500043F6893700229942C5F2E657CDE90722A7
:10306000CDE90522CDE90322CDE9012201D20021DB
:1030700007E0A1FB0712302141EA526201218DF8DD
:103080000420A0FB0776770E07FB13074CF66B2393
:10309000C6F65F33A7FB036742EA975232B1BA0D17
:1030A00001AF42F030020F4401313A70A0FB03231C
:1030B0009A0D49F28063C0F2980302FB13034DF6A8
:1030C0008362C4F21B32A3FB02739DF8047047EACB
:1030D00093472FB19B0C01AF30330F4401313B704C
:1030E000A0FB02239A0C43F609535A43A0EB821229
:1030F000530945F6C522C0F67C22A3FB02739DF856
:10310000047047EAD3172FB1DB0943F0300301AF56
:103110007B5401314309A3FB0223DA0940F635430E
:103120005A43A0EB421341F25972CDF2B712A3FBFE
:1031300002739DF8047047EA53372FB15B0B43F0DD
:10314000300301AF7B540131A0FB02235A0B42F242
:10315000107302FB130344F6D352C1F26202A3FBC5
:1031600002739DF8047047EA931727B19B09303327
:1031700001AF7B540131A0FB02239A094FF47A730B
:1031800002FB130348F21F52C5F2EB12A3FB0273BA
:103190009DF8047047EA53172FB15B0943F03003E1
:1031A00001AF7B540131A0FB02235A09642302FBC7
:1031B00013034CF6CD42CCF6CC42A3FB02739DF830
:1031C000047047EAD3072FB1DB0843F0300301AFA7
:1031D0007B540131A0FB0223DA0802EB82029DF846
:1031E0000430A0EB420050EA030204D040F030006B
:1031F00049B201AA505401AD2846FDF70DFA40F23C
:1032000028570446C2F20007002607F1340009A936
:1032100022460023CDE909660AF028F809982946D4
:103220002246FDF718FA381D0AA9002209F02EFFE0
:10323000DDE9090108600A983A684460866000BFC9
:10324000936811464BB19A68194632B1936811469A
:103250001BB19A681946002AF2D188600BB0F0BD04
:103260002DE9F04F85B0002900F0EB804A1E41F2B5
:10327000B87B01F00304032AC2F2000B04D200233E
:10328000002C40F08980DCE0CDE90041611A00F1BA
:1032900001086FF0030E00254FF037094FF0200AA8
:1032A000029000BF08EB0E04E6780EF1040E09EB65
:1032B00016123709A02E38BF07F130020BF805208F
:1032C000E27802F00F0202F137060A2A38BF02F153
:1032D000300645F001020BF8026045F002020BF8DF
:1032E00002A022790BEB050609EB121C1709A02A94
:1032F00038BF07F1300C86F803C0227902F00F02C4
:1033000002F137070A2A38BF02F13007377186F811
:1033100005A0627909EB12131709A02A38BF07F13B
:103320003003B3716279AF1D02F00F0202F137036F
:103330000A2A38BF02F1300347F001020BF80230CD
:1033400007EB0B0282F802A0A27909EB121713090E
:10335000A02A38BF03F130077772A27905F1090777
:1033600002F00F0202F137030A2A38BF02F13003DC
:1033700007EB0B02537047F002020BF802A001EBBF
:103380000E02043205F10C058CD10298DDE90041F2
:103390000EF10403002C54D0C55C37262A0906EB35
:1033A0001517A02D03EB430538BF02F130070BF8CA
:1033B0000570C25C5D4402F00F0202F137070A2A71
:1033C00038BF02F130074FF0200C012C6F7085F8E8
:1033D00002C036D05F1CC25D150906EB1216A02A8A
:1033E00007EB470238BF05F130060BF80260C65DF7
:1033F0005A4406F00F0505F137060A2D38BF05F1CE
:103400003006022C567082F802C01AD09E1C825DD3
:103410003727130907EB1217A02A06EB460238BF1D
:1034200003F130070BF80270805D5A4400F00F0082
:1034300000F137030A2838BF00F130032020537011
:10344000907040F2285601EB4104C2F200060025BC
:1034500006F1340003A922460023CDE9035509F003
:1034600005FF039841F2B871C2F200012246FDF750
:10347000F2F8301D04A9002209F008FEDDE903017D
:103480000860049832684460856000BF9368114604
:103490004BB19A68194632B1936811461BB19A68CC
:1034A0001946002AF2D1886005B0BDE8F08F00000F
:1034B00080B5024691E809505062936208694EEA6D
:1034C0000C0318434969D36A084323F0F701014309
:1034D0000020D16280BD0000006800F0030070474A
:1034E000084440697047000010B58446DDE9024099
:1034F000114319432143DDF810E00843DCF80410C0
:1035000047F6FF6240EA0E00914301430020CCF8E9
:10351000041010BD80B5032101600220FDF754FAAC
:10352000002080BDD0F88000704700000968024686
:103530000020C2F8801070478160C36840F2774174
:1035400061F30B03372141F28832C36000F056BAB1
:1035500041F0004141F480118160C16840F269424C
:1035600062F30B01C16040F23C41C2F20001096804
:1035700044F6D352C1F26202A1FB0212510A6FF06B
:10358000030241F2883301FB132100BF043124D030
:10359000426B12F0450F02D012F4006214D0426B5D
:1035A00012F0450F02D012F400620DD0426B12F0FF
:1035B000450F02D012F4006206D0426B12F0450FA4
:1035C000E4D012F40062E1D1416B042211F0040155
:1035D00008BFC5228263084670474FF00041084685
:1035E000704700008160C3684FF48A6161F30B0388
:1035F000102141F28832C36000F000BA8160C368D4
:1036000040F2464161F30B03062141F28832C36068
:1036100000F0F4B900218160C1684FF4806262F368
:103620000B01C16040F23C41C2F20001096844F65E
:10363000D352C1F26202A1FB0212510A6FF00302DF
:1036400041F2883301FB1321043104BF4FF00040E5
:103650007047426B120609D4426B12065CBF426B84
:103660005FEA026202D4426B1206EDD5C521816386
:10367000002070474FF4D5718160C1684FF48962B2
:1036800062F30B01C16040F23C41C2F200010968E3
:1036900044F6D352C1F26202A1FB0212510A6FF04A
:1036A000030241F2883301FB132100BF04312DD006
:1036B000426B12F0450F02D012F4006214D0426B3C
:1036C00012F0450F02D012F400620DD0426B12F0DE
:1036D000450F02D012F4006206D0426B12F0450F83
:1036E000E4D012F40062E1D1416B49070AD4416B86
:1036F000C9070FD1416B490644BF402181630021B6
:103700000846704704218163084670474FF0004126
:103710000846704701218163084670478160C3688D
:1037200040F2524161F30B03122141F28832C3602F
:1037300000F064B98160C36840F2514161F30B034A
:10374000112141F28832C36000F058B98260C36829
:1037500040F2474161F30B03072141F28832C36015
:1037600000F04CB900218160C16840F2C24262F3AE
:103770000B01C16040F23C41C2F20001096844F60D
:10378000D352C1F26202A1FB0212510A6FF003028E
:1037900041F2883301FB132104312AD0426B12F02D
:1037A000450F02D012F4006214D0426B12F0450FA4
:1037B00002D012F400620DD0426B12F0450F02D01D
:1037C00012F4006206D0426B12F0450FE4D012F4FE
:1037D0000062E1D1416B490707D4416BC9070CD1A5
:1037E000C521816300210846704704218163084692
:1037F00070474FF000410846704701218163084639
:10380000704700008160C16840F2C94262F30B0159
:10381000C16040F23C41C2F20001096844F6D35253
:10382000C1F26202A1FB0212510A6FF0030241F2DF
:10383000883301FB132100BF04312AD0426B12F000
:10384000450F02D012F4006214D0426B12F0450F03
:1038500002D012F400620DD0426B12F0450F02D07C
:1038600012F4006206D0426B12F0450FE4D012F45D
:103870000062E1D1416B490707D4416BC9070CD104
:10388000C5218163002108467047042181630846F1
:1038900070474FF000410846704701218163084698
:1038A0007047000000218160C36840F2734161F3FA
:1038B0000B03332141F28832C36000F09FB800004F
:1038C0008160C36840F24D4161F30B030D2141F269
:1038D0008832C36000F092B800228260C26840F271
:1038E000434363F30B02C26040F23C42C2F2000267
:1038F000126844F6D353C1F26203A2FB03235A0AAF
:103900006FF0030C41F2883302FB13C2043240D043
:10391000436B13F0450F02D013F4006314D0436BD4
:1039200013F0450F02D013F400630DD0436B13F076
:10393000450F02D013F4006306D0436B13F0450F1C
:10394000E4D013F40063E1D1426B52071DD4426B03
:10395000D20722D10269D2B2032A1EBF0121084632
:103960007047C5228263406910F4604F19D041044A
:1039700042BF4FF400510846704700044FF4805195
:1039800058BF4FF4803108467047042181630846D0
:1039900070474FF000410846704701218163084697
:1039A0007047000C088000210846704700218160A4
:1039B000C36840F24C414EF2001261F30B03C0F2B7
:1039C000F5520C21C36000F019B800008160C36893
:1039D00040F2594161F30B03192141F28832C3606F
:1039E00000F00CB88160C3684FF48B6161F30B0386
:1039F000182141F28832C360AFF3008040F23C43AB
:103A0000C2F20003D3F800C044F6D353C1F26203FC
:103A1000ACFB033C03464FEA5C205043002804BF44
:103A20004FF0004070475A6B12F0450F02D012F46D
:103A300000621DD0012800F092805A6B12F0450FF1
:103A400002D012F4006213D0022800F088805A6B72
:103A500012F0450F02D012F4006209D00438421C63
:103A60007DD05A6B12F0450FD8D012F40062D5D138
:103A7000586B400742BF042098637047586BC007DB
:103A80001EBF012098637047C52098631869C0B2B3
:103A900088421CBF0120704758694EF20801CFF6DA
:103AA000FF51084204BF00207047002844BF4FF078
:103AB00000707047410044BF40207047810044BF00
:103AC00080207047C10044BF4FF4807070470101EF
:103AD00044BF4FF400707047410144BF4FF4806011
:103AE0007047C10144BF4FF400607047010244BFFA
:103AF0004FF480507047410244BF4FF4005070476C
:103B0000810244BF4FF480407047C10244BF4FF46C
:103B100000407047410344BF4FF4003070478103B9
:103B200044BF4FF480207047C10344BF4FF40020CE
:103B30007047010444BF4FF480107047410444BFF4
:103B40004FF400107047810444BF4FF48000704769
:103B500000074FF4000058BF4FF4803070474FF01B
:103B60000040704784B005F0B1FA44F2F07145F2BC
:103B7000F0744FF48050C2F20001C2F2000440F62B
:103B8000690242F2B847CDE9001028A1C0F6000250
:103B900020460023029707F007FB47F6A8474FF29D
:103BA0005B65C2F20007C0F6000538602046294672
:103BB00007F014FA44F2F806C2F2000638604FF437
:103BC000F07C204631462A460123CDF800C007F09C
:103BD00029FA40F23C05C2F2000538602846FCF79D
:103BE0001BFD02463046294607F092FA38603046FF
:103BF00007F0D2F93860204607F0B4FA0FA414A5F4
:103C0000386000BF642008F099FD00F04DF8C0F363
:103C1000CB2620461221FFF7D3F93046FFF704FAEE
:103C200028460521FFF7CCF9ECE700BF53544D338C
:103C3000325F5344494F5F4449534B005344206320
:103C4000617264206F662073697A653A2000000013
:103C500047420D0A0000000080B588B041F6E81028
:103C600003224FF48063C2F200004FF0010E0021E6
:103C7000CDE90003CDE9022241F6381043F6653262
:103C80004FF0B00CCDE9041EC2F2000004A1C0F652
:103C900000020023CDF818C009F0F0FD08B080BD87
:103CA0005344205461736B0010B58CB044F2E0644F
:103CB000C2F2000401A92046FDF760FE2046FDF790
:103CC0001FFF0428FAD105980CB010BD2DE9F04172
:103CD00088B00C460546FCF76FFF064600212868B1
:103CE000019100910821FFF77DFC10B108B0BDE8FB
:103CF000F081296D28680904FFF71EFC0028F5D122
:103D00004FF0FF30029008200390302004900220F2
:103D100005900020069001212868079102A9FFF76D
:103D2000C7FB2868FFF7BEFD0028DFD10027E84663
:103D30000DE000BF0846FFF7F5FB48F82700013704
:103D4000FCF73AFF801B01304FF00040CED02968CD
:103D5000486B10F02A0F05D1486B8002EAD4486BFB
:103D60008004EDD4486B000712D4486B800711D44F
:103D7000486B800610D440F23A508863DDE90010A9
:103D800000BA09BAC4E90001002008B0BDE8F0811A
:103D9000082002E0022000E02020886308B0BDE88F
:103DA000F081000010B582B044F2E064C2F2000479
:103DB00013460A4601464FF00A0C2046CDF800C0D3
:103DC000FEF732F82046FDF79BFE0428FAD102B038
:103DD00010BD000010B582B044F2E064C2F20004ED
:103DE00013460A4601464FF00A0C2046CDF800C0A3
:103DF000FEF73AF92046FDF783FE0428FAD102B017
:103E000010BD000082B04FF000088DF80780FFF76A
:103E10002FF840F2C465C2F200052C6864206426C5
:103E200008F08CFC2868041BFFF770F800F060F9BC
:103E3000FFF712FF00F05AFD0FF248090DF1070AD3
:103E40000FF2500B2F68642008F078FC28680023DC
:103E5000C01B201AA0FB060168F1000202FB06113C
:103E60002246FCF761FB8DF8070048460E21FFF75C
:103E7000A7F850460121FFF7F3F958460421FFF750
:103E80009FF8DFE7435055CAB9D3C3C2CAA3BA30BB
:103E900078000000250D0A0080B588B041F69860D2
:103EA00002224FF48063C2F200004FF0010E0021A5
:103EB000CDE90003CDE9022241F6E85043F6056260
:103EC0004FF0B00CCDE9041EC2F2000004A1C0F610
:103ED00000020023CDF818C009F0D0FC08B080BD66
:103EE00053595354454D205461736B0070B592B0D3
:103EF000002443F64000CDE90A44CDE90844059486
:103F0000CDE90344CDE901440094C4F20200016804
:103F1000012241F0805101600068022500F08050CC
:103F20000090009847F200000094C4F2000001687D
:103F30000F2662F38F310160006800F4404000906A
:103F400000984FF4803007904FF480000D9090203F
:103F500006920C950E96CDE90F050520119006A846
:103F6000FDF7C6FA18B1EFF3108072B6FEE74FF412
:103F7000A050CDE9016504904FF48050059001A850
:103F800003210394FDF788F918B1EFF3108072B69E
:103F9000FEE712B070BD00004EF68850CEF2000071
:103FA000016841F4700101607047000044F26470E0
:103FB000C2F20000FEF7F6B910B540F6FF3E036806
:103FC000C4F2000E40F2004C7045C4F2010C26DC35
:103FD000B0F1804F30D040F20042C4F20002904273
:103FE0002AD040F60002C4F20002904224D041F6EA
:103FF000FF72C4F20002904228DC70453ADCB0F156
:10400000804F5CD040F20042C4F20002904256D091
:1040100040F60002C4F20002904250D053E040F655
:104020000042C4F20002904206D0604504D0002253
:10403000C4F201029042DAD14A6823F070031343BC
:1040400041F6FF72C4F200029042D6DD43F6FF72E1
:10405000C4F20102904220DC42F20002C4F20002EB
:1040600090422CD00022C4F20102904227D0604539
:1040700025D028E040F60042C4F2000290421ED053
:1040800041F60002C4F20002904218D041F600420C
:10409000C4F20002904212D015E044F20002C4F2D1
:1040A000010290420BD044F60002C4F20102904299
:1040B00005D044F20042C4F20102904203D1CA6822
:1040C00023F44073134323F080024B69D1F800E0DE
:1040D0008C681A430260C46240F48062C0F828E031
:1040E000624504BF096901630121416110BD0000FF
:1040F00080B588B042F248301E224FF48063C2F28D
:1041000000004FF0010E0021CDE90003CDE90222AD
:1041100042F2982044F245124FF0B00CCDE9041E53
:10412000C2F2000004A1C0F600020023CDF818C0BE
:1041300009F0A4FB08B080BD55415254205461736E
:104140006B000000ADF5027D40F22858C2F2000875
:104150004FF4806008F104044FF2326140F6B87306
:1041600030270090C0F60001C2F2000320460C2266
:10417000019708F0BDFF41F2B8354FF23B61C2F242
:104180000005342708F13400C0F600012A464FF438
:104190008063009709F0B0F82046414600220027CE
:1041A00008F074FFD8F8000044F2AC790560D8F844
:1041B0000050C2F2000902AEC5E901771AE000BF63
:1041C000D7E900123046FCF746FAB968D7E900048F
:1041D000A96009F03BF9384609F038F8A2B2484620
:1041E00031462346FEF7CEFC012008F0A7FAD8F8A6
:1041F0000050AF68002FE3D10024EFE7806B00216F
:10420000C185C184FEF796B981B090F83E1022298D
:1042100020D18368B3F5805F08D10169002964D09B
:1042200000F128010A6803685B680AE0014651F85A
:10423000282F13B90369002BF5D003685B6803F0DE
:104240007F0313700A6801320A60C18D01390A04C4
:10425000C18501D001B070470168CA6822F0200210
:10426000CA60CA6822F48072CA604A6922F00102F8
:104270004A61202280F83E20026B012A3ED10022B2
:10428000026300BF51E8031F026821F0100142E8F9
:1042900003130168DBB151E8031F026821F010012C
:1042A00042E80313016893B151E8031F026821F04B
:1042B000100142E8031301684BB151E8031F026883
:1042C00021F0100142E803130168002BDAD10A68DB
:1042D000D20606D5002200920A6800924968009131
:1042E0000099818D01B0FEF723B90168826A49689F
:1042F0006FF35F2122F8021B8262A6E701B0FEF78E
:104300003FBC000010B504460068D4E902C223692E
:10431000016921F4405111430161626943EA0C01D2
:10432000E3691143C268194349F20C639A4311438C
:10433000C1604169A26921F4407141F20043114317
:1043400040F48062C4F201039A42416102D1FDF758
:1043500087F801E0FDF770F8E16963681922B1F5AB
:10436000004FA0FB02011FD15A00DB0FFCF7DCF865
:1043700048F21F51C5F2EB11A0FB01235A096FF05F
:10438000630302FB0300322303EBC000A0FB010127
:104390004FF4F87000EA111000EB0210C1F3421163
:1043A00022680843906010BD9A009B0FFCF7BCF890
:1043B00048F21F51C5F2EB11A0FB01235A096FF01F
:1043C000630302FB0300322303EB0010A0FB010197
:1043D000F02000EA511000EB0210C1F343112268F3
:1043E0000843906010BD000044F2AC70C2F20000BF
:1043F000FEF7A2B82DE9F04F84B040F28343964611
:104400000022C5F21073C0F8182140F212128B601E
:104410004FF40073C0F200228B8140F201230A6046
:104420004FF08042C0F203131227BEF1010F4A6021
:10443000C1F80E30C0F814710CD140F20A63C0F21A
:104440000023C1F8162001221C27C1F812304A832C
:10445000C0F81471436840F240450191CC19A0F5B1
:10446000B0714FF0010CC2F200054FF0580B4FF045
:1044700000094FF0010800915AE09AF82610022234
:104480004027002908BF01220AF11C0102EB420269
:1044900040F2012621F8126001EB4201D0F8182108
:1044A0004F8081F804C040F2094111539BF800107D
:1044B0001719B97040F20021C0F20861C7F8031063
:1044C0005021C0F20751C7F807109AF81C10BAF82B
:1044D0001E60F9724FF4E061A7F80F109AF82210ED
:1044E000A7F80D60BAF82460B97402213973F97421
:1044F0000021BE820526B97502F1170122797E746A
:10450000866801324FF0580BC0F818112271618093
:104510000133711CC0E9013109F1010915F80910D5
:10452000002918BF08F10108B9F1030F00F0BC80A1
:10453000022BF1D88668022EEED803FB0B0A5746F1
:1045400057F8142F002AE3D115F80920CAF81030C3
:10455000C7F800C08AF80C2080F800E013B1032AE5
:10456000D6D110E040F20921216040F20011CCF2D6
:1045700000016160D0F81871192109372172C0F863
:104580001871032AC4D156B1721E032A06F0030122
:10459000CDE9021E06D200264FF0000C1AE04FF0C3
:1045A000000C2AE0009A771A00264FF0000C00BF9A
:1045B000D2F8B451D2F80CE2D2F864126544D2F8C1
:1045C000BCB27544294404360BEB010CB74202F52A
:1045D000B072EDD1029F77B1582106FB0102012F85
:1045E000516D8C4407D0D2F8AC10022F8C4402D00D
:1045F000D2F804118C44DDF80CE0564616F8202F52
:10460000B3460BF838CF01784FF0010C01294FF079
:104610000201C6F834C046F8081C07D172B19AF8F6
:1046200026100222002908BF012208E00AB39AF8E6
:1046300026100222002908BF01221BE0002202EB03
:10464000420140F282220AEB4101C0F20022CA611B
:1046500081F820C0317840F24045C2F20005F9B13E
:104660009AF826100222002908BF01224FF4007791
:104670000AE7002202EB420140F282220AEB4101EA
:10468000C0F24002CA6181F820C0317840F2404552
:10469000C2F2000500297FF4F0AE40270022F3E6C5
:1046A0004FF400770022EFE65FFA88F0012802D984
:1046B0000120EF2204E02878022806D100200222FF
:1046C000019B02211A715971987104B0BDE8F08FF5
:1046D00070B50C4688B142F6640640F29075C2F29D
:1046E0000006C2F20005024630462946FFF782FE68
:1046F00006F58C7006F58A7110E042F2487640F2B9
:10470000C865C2F20006C2F2000530462946002202
:10471000FFF770FE06F58C7006F58A71096800686F
:1047200001442846216070BDB0B542F680150446AC
:10473000C2F2000540F2094028802846FBF76CFFD2
:10474000014628462160B0BDF0B581B0044642F66E
:10475000841540F20940C2F20005C1F2012045F281
:10476000534147F2632246F26C5346F6727C47F29D
:10477000633EC6F64D11C6F26F52C7F26343C6F6EA
:104780006E1CC0F2094E41F2020643F24D3785E835
:104790000F5045F25530C5F25346C2F23207C2F20D
:1047A000420046F2445146F2635205F12003C5E946
:1047B0000667C6F67611C0F2094207C340F6034009
:1047C000A8854FF03030C5F83500C5F83200C5F87F
:1047D0002E00312085F839002846FBF71DFF0146E1
:1047E0002846216001B0F0BDF0B589B040F268669E
:1047F000C2F20006307858B90120307047F6AC405C
:10480000C2F200004FF40041002200230AF058FBDE
:1048100008A90220FFF75CFF044607A8FFF794FFF2
:10482000054606A8FFF780FFDDE90621089B002763
:10483000CDE90051CDE90202002000212246049773
:104840000AF092F9002844D144F2E061C2F200017A
:10485000D1E915210120013AC6E90302C6E905178D
:104860004FF23D404FF275418023C0F60000C0F684
:104870000001F361C6E90E014FF27140C0F600007D
:10488000706440F2AC404DF62961351DC2F2000063
:10489000C0F600010122002300950AF00FF9C0B90B
:1048A00044F2D824C2F2000420468021FCF762FAC8
:1048B000204600214022FCF761FA20460121802297
:1048C000FCF75CFA0020C4F20400214609F0B4F9B8
:1048D00008B109B0F0BD44F2D820C2F20000FCF7E4
:1048E00097FC00BF1E2007F029FFFBE780B588B0CA
:1048F00042F6343003224FF48053C2F200004FF0EE
:10490000010E0021CDE90003CDE9022242F6842008
:1049100044F2E9724FF0B00CCDE9041EC2F200007F
:1049200004A1C0F600020023CDF818C008F0A6FFCD
:1049300008B080BD555342205461736B00000000E5
:1049400080B591F800C04B780CF00F024FF0010ECB
:10495000012B0EFA02F31DD1D0F81C281A43C0F81F
:104960001C2800F510604FEA4C13C25812042CD4D6
:104970008A6891F803E06FF3DF22195842EA8C52FB
:10498000114341EA8E4141F0805141F400411950F8
:10499000002080BDD0F81C2842EA0342C0F81C2841
:1049A00000F530604FEA4C1283581B040DD48B681D
:1049B00091F803C011586FF3DF23194341EA8C418A
:1049C00041F0805141F400411150002080BD0000B1
:1049D00082B00499DDF808C0012940F64051C0F2C8
:1049E000030168D1826B4FF6BF7322F48032826379
:1049F000C268CFF6BD731A40C260C2680B9B22F436
:104A00004012012BC26003D1C26842F48012C2601E
:104A100000220092009A01328A42009200F29C80A9
:104A20000269B2F1FF3F1BDD009A01328A42009217
:104A300000F292800269002A12D4009A01328A425E
:104A4000009200F289800269002A09D4009A01329A
:104A50008A42009200F280800269B2F1FF3FD9DC05
:104A600000220092026942F001020261009A0132C2
:104A70008A42009270D80269D20717D0009A013298
:104A80008A42009268D80269D2070FD0009A013298
:104A90008A42009260D80269D20707D0009A013298
:104AA0008A42009258D80269D207DFD10021BCF1B6
:104AB000010F6AD161E0C268089B42F04002C26007
:104AC00000220192019A01328A42019249D8026978
:104AD000B2F1FF3F18DD019A01328A42019240D8BB
:104AE0000269002A10D4019A01328A42019238D810
:104AF0000269002A08D4019A01328A42019230D810
:104B00000269B2F1FF3FDDDC00220192026942F04E
:104B100001020261019A01328A42019221D802699E
:104B2000D20717D0019A01328A42019219D802693C
:104B3000D2070FD0019A01328A42019211D802693C
:104B4000D20707D0019A01328A42019209D802693C
:104B5000D207DFD1002105E00321BCF1010F14D100
:104B60000BE00321826B002B14BF22F4803242F44D
:104B700080328263BCF1010F07D1826842F00602E5
:104B80008260826842F020028260084602B070476C
:104B900010B54B7891F800E047F6000C012BCEF6EB
:104BA000334C00EB4E1108D1D1F80039B3F1FF3F7F
:104BB00001F510630DDD01241FE0D1F8002B01F594
:104BC0003063B2F1FF3F0CF1707C0CDD4FF48034A8
:104BD00013E01968012441F000611960196841F07F
:104BE0008041196009E019684FF4803441F0006198
:104BF0001960196841F0804119600EF00F02D0F879
:104C00003C1804FA02F29143C0F83C18D0F81C1882
:104C10009143C0F81C18186800EA0C0100201960C4
:104C200010BD00000146D0F8000E20F00300C1F8CE
:104C3000000ED1F8040820F002020020C1F8042878
:104C4000704700000146D0F8000E20F00300C1F8C4
:104C5000000ED1F8040840F002020020C1F8042838
:104C6000704700002DE9F04F83B0DDF84C800E9FB7
:104C70000022B8F1000FC0F80421C0F80821C0F8E4
:104C80000C21C0F81021C0F81421C0F81821C0F878
:104C90001C21C0F82021C0F82421C0F82821C0F828
:104CA0002C21C0F83021C0F83421C0F83821C0F8D8
:104CB0003C210AD0826B00F5006A22F40012826364
:104CC000826B42F40022826313E0D0F8042800F5DE
:104CD000006A42F00202C0F80428826B42F400121B
:104CE0008263826B22F400228263866B26F4802624
:104CF00086630026C0F8006EDAF80060012FCAF85B
:104D0000006006D1DAF80070002B18BF47F00107E9
:104D100003E0DAF8003043F00307DDF83C9040F69A
:104D200040550023C0F20305CAF8007002934FF407
:104D300084630361029B0133AB4202931CD8036975
:104D40009B0617D5029A0132AA42029214D8026930
:104D500092060FD5029A0132AA4202920CD8026939
:104D6000920607D5029A0132AA42029204D8026939
:104D70009206DFD4002700E00127002301931023CF
:104D80000361019B0133AB4201931CD80369DB062D
:104D900017D5019A0132AA42019214D80269D206AB
:104DA0000FD5019A0132AA4201920CD80269D206AB
:104DB00007D5019A0132AA42019204D80269D206AB
:104DC000DFD4009701E00122009200220029CAF8F6
:104DD0001020CAF81420CAF81C2000F0E980A1F1C4
:104DE000010B01F0030C0023BBF1030F4FF0000493
:104DF00038D3A1EB0C0500F516674FF0904E4FF637
:104E00007F38002457F8606C4FF09049002C08BFA1
:104E10004FF0006909EAE67647F8606C47F8503CC5
:104E200047F8588C57F8406C04340EEAE67647F899
:104E3000406C47F8303C47F8388C57F8206CA54256
:104E40000EEAE67647F8206C47F8103C47F8188CD5
:104E50003E680EEAE6763E603B61C7F8088007F1DF
:104E60008007CFD1BCF1000F2DD000F51063670192
:104E700003EB4416DD59002C4FF0904408BF4FF06F
:104E8000006404EAE5744FF0904EDC5100254FF6C3
:104E90007F34BCF1010F3561B46014D0326ABCF1CB
:104EA000020F0EEAE27232623563B4620BD0FA1876
:104EB000136C4FF0904707EAE37313640023136504
:104EC0004FF67F339364DDF84C80DDF83C90002989
:104ED0006ED00023BBF1030F4FF0000437D3A1EBDA
:104EE0000C0E00F536654FF090474FF67F360024E4
:104EF00055F8602C4FF09041002C08BF4FF0006136
:104F000001EAE27145F8601C45F8503C45F8586CE0
:104F100055F8401C043407EAE17145F8401C45F897
:104F2000303C45F8386C55F8201CA64507EAE1717D
:104F300045F8201C45F8103C45F8186C296807EA2C
:104F4000E17129602B61AE6005F18005D0D1BCF123
:104F5000000F2DD000F530616301CA584FF0904525
:104F6000002C08BF4FF0006501EB44174FF090464E
:104F700005EAE27200244FF67F35BCF1010FCA50FA
:104F80003C61BD6014D03A6ABCF1020F06EAE272DD
:104F90003A623C63BD620BD019440A6C4FF09043F7
:104FA00003EAE2720A6400220A654FF67F328A64DD
:104FB000DAF810100C9A21F48071CAF81010002150
:104FC00081616FF0804141611AB9816941F010013E
:104FD0008161816943F60002C8F23C02114381619C
:104FE000009AB9F1000F03D0816941F00801816195
:104FF000B8F1010F05D1816941F0804141F0040110
:105000008161104603B0BDE8F08F00000146806862
:1050100020F0010200208A607047000070B54B78D4
:1050200091F800C0012B2AD1D1F814E000EB4C1309
:1050300000254FF6FF74D3F81069CFF6F875CEF25D
:105040000704BEF1000F03F5106348D035401D6121
:105050001D6925401D618D6804F10054AE4584BF73
:105060004D61AE461D6904EA0E0445F400251D613C
:105070001D692C43012A1C613FD1086925E000EB22
:105080004C13D3F8100B6FF31200C3F8100BD3F8C6
:10509000106B4FF6FF706FF3DC46C3F8106B4E6970
:1050A0008D68002E03F5306318BF4D611E69CEF286
:1050B000070046F400261E6100F100501E692840DA
:1050C0003043012A186103D1C868002818BF58610D
:1050D0004FF00441186808431860002070BD264056
:1050E0001E611E694FF0000E46F400261E611E6907
:1050F00006EA0504012A1C61BFD01968BEF1000F41
:1051000041F004411960E8D00CF00F01012202FACD
:1051100001F100F63403DDE7D0F840C043F20B03A1
:10512000C4F654739C4503D3D0F8003B002B1ED427
:105130000023C0F8103BD0F8103B012943F40023B2
:10514000C0F8103BD0F8103B43F01803C0F8103BF8
:10515000D0F8103B43F0C043C0F8103B07D1C0F873
:10516000142BD0F8001B41F08021C0F8001B002058
:10517000704700004B780A78012B11D100F51060C0
:105180005201835823F400138350C97801F0FE01C3
:10519000022915D1115841F080511150002070475B
:1051A00000F530605201835823F400138350C9780E
:1051B00001F0FE01022903D1115841F08051115034
:1051C000002070474A780978012A0ED100EB41127D
:1051D000D2F80009002902F5106114D0002812D479
:1051E000086820F0804008600DE000EB4112D2F822
:1051F000000B002902F5306105D0002803D40868AF
:1052000020F080400860086840F4001200200A6026
:105210007047000070B54B7891F800C0012B35D174
:10522000D1F814E000EB4C1300244FF6FF75D3F8CF
:105230001069CFF6F874CEF20705BEF1000F03F542
:1052400010634DD034401C611C692C401C618C687B
:105250001E690EEB0405013DB5FBF4F40025C1F613
:10526000F87505EAC44434431C6174461D696FF344
:10527000DF442C431C61CC78012C3AD11C6924F00A
:10528000C0441C611C6944F0005431E000EB4C1335
:10529000D3F8106B4FF6FF7C6FF31206C3F8106B58
:1052A000D3F8106BC0F2070C6FF3DC46C3F8106B39
:1052B0004E698C68002E03F5306374D02644013E9D
:1052C000B6FBF4F60025C1F6F87505EAC64E1D6971
:1052D000B6B245EA0E0566431D6106EA0C0569E0B3
:1052E00035401D611D6945F400251D611D692C4077
:1052F0001C61012A12D10A69002A18BF5A61C978B3
:1053000001296FD1D0F808081968C0054FF0805006
:1053100058BF4FF000500843186063E01C6844F029
:1053200004441C60CC78012C62D1D0F808481D6878
:10533000E4054FF0805458BF4FF000542C43002A2E
:105340001C6064D1032212FA8EF20023B3EB920F99
:105350005DD09308C9685E1E00F580504FEA0C329C
:10536000032E03F0030C0DD3ACEB03030E680433E0
:1053700016504E6816508E681650CE6801F1100116
:105380001650F3D1BCF1000F41D00B68BCF1010FF6
:1053900013503CD04B68BCF1020F135037D08968D2
:1053A0001150002070BD1E6904EA0C052E431E61D9
:1053B0004FF400251E69012A46EA05061E6103D145
:1053C000CA68002A18BF5A61C97801290AD1D0F8E1
:1053D00008081968C0054FF0805058BF4FF00050C2
:1053E00008431860186840F004401860002070BD41
:1053F000BEF1000F0BD00CF00F010122D0F83438B1
:1054000002FA01F11943C0F83418002070BD0020E1
:1054100070BD00000146806840F0010200208A60F3
:105420007047000081B040F640528901C0F203028B
:1054300000232031009301610099013191420091D4
:105440001DD80169890617D5009901319142009153
:1054500015D8016989060FD5009901319142009153
:105460000DD80169890607D5009901319142009153
:1054700005D801698906DFD4002001B070470320F8
:1054800001B07047B0B50446C06820F0C040E0608D
:1054900099B1012927D1E06840F00050E060002078
:1054A00005460120FBF790FA6169302D05F10100F6
:1054B00014D811F00101F3D010E0E06840F0804012
:1054C000E060002005460120FBF77EFA6169302D7F
:1054D00005F1010002D811F00101F3D13238B0FA20
:1054E00080F04009B0BD0120B0BD00000246D0F8F8
:1054F000000801F07F0120F4FE60C2F80008D2F835
:10550000000840EA01110020C2F8001870470000AE
:10551000FEE700002DE9F04F8DB0054600200C4657
:105520000C90D5F8680111689A4601304FEA41188D
:10553000C5F868011CB9686E002800F08280D5F8B3
:105540002890686D00FB09F717B3CDE9062AB8FB70
:10555000F7F20A910B922CB3216DE1B1D4F854A06B
:10556000924518D8D4E910C2D4E91636724083EABD
:105570000C031A430B9A0ED1A36C226E9A420B9A1B
:1055800009D1002222650B9A9245089410D331E08C
:105590004FF0020BC2E3616B4FF0000A9245089492
:1055A00006D327E0696F4FF0000A9245089421D294
:1055B00042F2A840CDF8248005EB00080CAE00BFF5
:1055C0000229C0F03182D8F80000814280F02C829C
:1055D000284632462C4603F0ABFE002840F02A82D3
:1055E0000B9A0C990AF1010A92452546E8D3686D99
:1055F000DDF8248002FB17882A6DB8FBF9F68B1EB4
:105600003244AC6800FB032701204FF0030CCDE9C6
:10561000004028463A460023CDF808C00C4605F065
:10562000DDF9DDF81CA08346002840F07783CDE942
:105630000446A86A0997B8FBF0F101FB1089002025
:1056400023E0A86A0A91A96CB8FBF0F00692AA6858
:1056500008940C1801200321CDE900202846224699
:105660000023029105F0BAF98346002840F05683E2
:10567000A96CAA6A611A01FB128900210491002118
:1056800000200B91002109940591A968AC4601EB1B
:1056900009060999CAE9101000215046CAF8489035
:1056A000CAF8181000F8041FF17ADAF800E00F29A0
:1056B00002D13178E52923D100204FF0010BCAF83F
:1056C000140000208EF80000317839B3202927D04B
:1056D0002E2914BF002202228EF8001001217378B7
:1056E0002E2B22D0202B28D0002B00F07B82012AE9
:1056F0001DD12E220EF8012073780131022216E00E
:1057000001F01F080D2108FB01F1A1F10D02FE2A95
:1057100024D9CAF818804FF0010B4FE0002196E21F
:105720000122002173782E2BDCD102222E230EF8C9
:1057300001300131B3783BB954E2002A08BF01229D
:10574000B378002B00F04E822E2B00F07881202BB6
:1057500040F07881002A08BF01227EE14FF0000B63
:105760000EF802B0DAF80030571C13448F4283F869
:1057700001B038BFFE2A20D2DAF80030971C13445B
:1057800000258F429D7016D2FC2A14D8DAF800301A
:10579000D71C134400258F42DD700CD2FB2A0AD897
:1057A000DAF80070131D174400258B423D7102D2B8
:1057B000FB2A1A46D6D34FF0000B8646089942F2D0
:1057C000A84000296044039040F0C4800CE05F468C
:1057D000DCF80800002C00EB09060A98BB4600F133
:1057E00001000A9000F045813078BBF1000F00F015
:1057F0001F00A0F1010415D0DCF8280009F12009F0
:105800008145E4D3DCF864005F467646B8B3DCF843
:10581000540005990138099A814238D20131013288
:10582000059154E00D2060434FF0000B0121002250
:1058300004E00C211E2901F10201DDD20B2918BF61
:105840001A29F7D00D29F4D08B195B7853B1FF2BAF
:1058500002D1735CFF2B05D0DAF800E04FF0010BAA
:10586000CAF81880735C002BE4D0FF2BE2D0171825
:10587000FF2F43D2DAF800500132EB55DAE7DCE9CA
:105880001201099A08440132824220D3CCE00499E3
:1058900060460CAA654603F04BFD002840F0CA8024
:1058A0000C990229C0F0C08003980068814280F002
:1058B000BB800B980B4601300B90D5E914011A46BA
:1058C0009A1E01FB0202AC46002004930590DCF80E
:1058D0000800002300900120019003200290604600
:1058E00009924FF000092546644605F077F8A44672
:1058F0002C460028B6463FF46BAF9BE0DAF800E098
:10590000CAF818804FF0010B76E7099A013101328D
:105910000591DCF80800002300900120019003208D
:105920000290604609924FF00009644605F056F86F
:10593000A4460028BE467DD1DCF80800C34600EB33
:1059400009060798A84600280A9800F101000A9065
:1059500000F08F803078BBF1000F00F01F00A0F145
:10596000010107912CD0DCF8280009F120094546F7
:10597000D8468145E0D3DCF85400059901387746D4
:105980008142C2D3049960460CAA664603F0D0FC5B
:1059900000284FD10C99022946D303980068814210
:1059A00042D20B980B4601300B90D6E914011A46EF
:1059B0009A1E01FB02020020B44604930590A8E75A
:1059C0000D2048434FF0000B0121002204E00C2180
:1059D0001E2901F10201C6D20B2918BF1A29F7D0DE
:1059E0000D29F4D08B195B7853B1FF2B02D1735C76
:1059F000FF2B05D0DAF800E04FF0010BCAF8188051
:105A0000735C002BE4D0FF2BE2D01718FE2F04D8D4
:105A1000DAF800400132E355DAE7DAF800E04FF057
:105A2000010BCAF818809EE74FF0080B58460DB0DE
:105A3000BDE8F08F834658460DB0BDE8F08F0222D6
:105A40002E2307E0012A05D12E220EF80120B3787B
:105A5000013102220EF801300131F378002B00F001
:105A6000C1802E2B0DD0202B0ED1002A08BF012281
:105A700015E00120BBF1010FCAF814003FF41CAE81
:105A80001FE602222E2307E0012A05D12E220EF85E
:105A90000120F378013102220EF80130013133790F
:105AA000002B00F09F802E2B05D0202B06D1002A42
:105AB00008BF01220DE002222E2307E0012A05D1B2
:105AC0002E220EF801203379013102220EF8013026
:105AD00001317379002B00F085802E2B05D0202B0F
